:020000040800F2
:10000000986800202903000867370008792C000849
:10001000F3320008D70600088D47000800000000F2
:10002000000000000000000000000000690200085D
:100030002F09000800000000C5020008073D000865
:100040004303000843030008430300084303000878
:100050004303000843030008430300084303000868
:10006000430300084303000843030008DD070008BA
:1000700043030008E907000843030008F5070008E8
:100080004303000843030008430300084303000838
:10009000D90600084303000843030008310900089B
:1000A0004303000843030008430300084303000818
:1000B000C53D0008D13D0008430300084303000884
:1000C00043030008430300084303000843030008F8
:1000D00043030008D5440008430300084303000815
:1000E00043030008430300084303000843030008D8
:1000F000E93D0008DD3D0008430300080108000851
:1001000043030008430300084303000843030008B7
:10011000AD400008B940000843030008430300084D
:1001200043030008430300080D08000843030008C8
:100130004303000843030008430300084303000887
:10014000E5060008430300084303000843030008D2
:10015000430300084303000819080008430300088C
:100160004303000843030008430300084303000857
:100170004303000843030008430300080000000095
:10018000430300084303000800F002F800F05CF8A5
:100190000AA090E8000C82448344AAF10107DA45E2
:1001A00001D100F051F8AFF2090EBAE80F0013F0D8
:1001B000010F18BFFB1A43F001031847CC80000061
:1001C000EC8000000A444FF0000C10F8013B13F0E3
:1001D000070408BF10F8014B1D1108BF10F8015BA0
:1001E000641E05D010F8016B641E01F8016BF9D193
:1001F00013F0080F1EBF10F8014BAD1C0C1B09D1EA
:100200006D1E58BF01F801CBFAD505E014F8016B5B
:1002100001F8016B6D1EF9D59142D6D370470000ED
:100220000023002400250026103A28BF78C1FBD8FF
:10023000520728BF30C148BF0B6070471FB507F099
:10024000D8FE1FBD10B510BD00F010FA1146FFF723
:10025000F5FF05F075FB00F02EFA03B4FFF7F2FF8F
:1002600003BC00F031FA00002C4B19680868B0E8B4
:10027000F04F80F30988BFF36F8F4FF0000080F3D9
:10028000118870470000000008480068006880F38B
:1002900008884FF0000080F3148862B661B6BFF39F
:1002A0004F8FBFF36F8F00DF00BF00BF08ED00E08E
:1002B000DFF80C00016841F470010160704700BF75
:1002C00088ED00E0EFF30980BFF36F8F134B1A68DE
:1002D0001EF0100F08BF20ED108A20E9F04F1060CB
:1002E00009B44FF0500080F31188BFF34F8FBFF374
:1002F0006F8F06F0D7FB4FF0000080F3118809BC28
:1003000019680868B0E8F04F1EF0100F08BFB0EC95
:10031000108A80F30988BFF36F8F70473400002084
:10032000EFF30580704700000948804709480047FF
:10033000FEE7FEE7FEE7FEE7FEE7FEE7FEE7FEE795
:10034000FEE7FEE704480549054A064B70470000F2
:10035000B53D0008890100089862002098680020D7
:10036000986400209864002053EA020C00F0698031
:100370002DE9F04B4FF00006002B1FBFB3FA83F5B9
:1003800003FA05F424FA05F65E4012BF1643B2FAEA
:1003900082F502FA05F4C5F120051EBF22FA05FC1C
:1003A00044EA0C04203556EA044C4FEA144418BFC2
:1003B000641C4FF000084FF00009904271EB030CF1
:1003C00039D3002919BFB1FA81F701FA07F6B0FA5B
:1003D00080F700FA07F6C7F120071EBF20FA07FCD6
:1003E00046EA0C062037B6FBF4FCA7EB0507103FE6
:1003F00007F01F0BCBF120060CFA0BFB2CFA06F6CC
:1004000044BFB3460026202FA4BF5E464FF0000B2A
:100410005BEA060C08BF4FF0010B19EB0B09ABFBB5
:10042000027C48EB0608C01B06FB02CC0BFB03CC8E
:1004300071EB0C01C1E70B46024641464846BDE858
:10044000F08B13B54FF000004FF00001AFF30080C8
:10045000BDE81C40704740EA010310B59B070FD16F
:10046000042A0DD310C808C9121F9C42F8D020BA24
:1004700019BA884201D9012010BD4FF0FF3010BDDC
:100480001AB1D30703D0521C07E0002010BD10F8AA
:10049000013B11F8014B1B1B07D110F8013B11F870
:1004A000014B1B1B01D1921EF1D1184610BD032A2E
:1004B00040F2308010F0030C00F0158011F8013B81
:1004C000BCF1020F624498BF11F801CB00F8013B68
:1004D00038BF11F8013BA2F1040298BF00F801CB2C
:1004E00038BF00F8013B11F0030300F08480083AA4
:1004F000C0F0088051F8043B083A51F804CBA0E85A
:100500000810F5E7121D5CBF51F8043B40F8043BAE
:10051000AFF30080D20724BF11F8013B11F801CBE3
:1005200048BF11F8012B24BF00F8013B00F801CBB4
:1005300048BF00F8012B704702F0FF0343EA032293
:1005400042EA024200F002B84FF000020429C0F073
:10055000128010F0030C00F01B80CCF1040CBCF1F5
:10056000020F18BF00F8012BA8BF20F8022BA1EB47
:100570000C0100F00DB85FEAC17C24BF00F8012B2C
:1005800000F8012B48BF00F8012B70474FF0000224
:1005900000B5134694469646203922BFA0E80C5079
:1005A000A0E80C50B1F12001BFF4F7AF090728BF54
:1005B000A0E80C5048BF0CC05DF804EB890028BFD0
:1005C00040F8042B08BF704748BF20F8022B11F0F9
:1005D000804F18BF00F8012B704770477047704775
:1005E00010B500F03BF8006810BD10B5044600F0EF
:1005F00035F8046010BD10B5203AC0F00B80B1E8AA
:100600001850203AA0E81850B1E81850A0E8185047
:10061000BFF4F5AF5FEA027C24BFB1E81850A0E850
:10062000185044BF18C918C0BDE810405FEA827C6A
:1006300024BF51F8043B40F8043B08BF7047D20781
:1006400028BF31F8023B48BF11F8012B28BF20F822
:10065000023B48BF00F8012B70470000004870477C
:100660003462002000487047346200207546FFF76E
:10067000F9FFAE4605006946534620F0070085465F
:1006800018B020B5FFF75EFEBDE820404FF0000631
:100690004FF000074FF000084FF0000B21F007016A
:1006A000AC46ACE8C009ACE8C009ACE8C009ACE8AD
:1006B000C0098D46704710B50446AFF30080204650
:1006C000BDE81040FFF7C9BD01491820ABBEFEE7E9
:1006D000260002007047FEE7014800F0FEBA000065
:1006E0005C010020014800F0F8BA000084010020FD
:1006F0002DED068BF0EE009AB6EE00AA9FED198A5A
:10070000DFED198A194D1A4C9FED1A9A1A4E287866
:1007100020B101280BD0022810D015E084ED0D8AFD
:1007200084ED0C8A84ED0E8A04F016FF0CE0C4ED13
:100730000D8AC4ED0C8AC4ED0E9A05E084ED0D9A85
:1007400084ED0C9A84ED0EAA3078052807D000F0CD
:10075000FDF803F0C9F8012005F056F9D7E704F0D9
:10076000BDFFF6E700000000CDCCCC3FDB00002051
:10077000044F0020CDCCCC3EDA000020DFF84C80C6
:10078000134DDFF85090144F287898F80010464623
:10079000884208D00024287804F066FF641C052CE9
:1007A000F9DB2878307099F8020039684E468842A3
:1007B00008D00024287804F057FF641C052CF9DBCE
:1007C000B0783860012005F01FF9DDE7DE00002079
:1007D000DC000020E100002000000020014800F0C3
:1007E00059BD000010040020014800F053BD000076
:1007F00050030020014800F04DBD0000B003002070
:10080000014800F047BD000070040020014800F0DE
:1008100041BD000030050020014800F03BBD000054
:10082000D004002001681823CAB2103AB2FBF3F2D8
:10083000054B6FF30901032A9B5CC36500D9091DB1
:1008400081650846704700000481000810B5014624
:1008500000208B698A6A4FF0C07453B1B3F5005F12
:1008600015D072B1012A0CD0022A0AD0032A09D16C
:1008700004E01AB1012A06D0022A03D1C96AC901CB
:1008800000D5012010BDC96AA142FAD010BD002ACE
:10089000F7D0012AF2D0022AF3D0032AF3D010BDF8
:1008A00030B50468256825F48025256004686360F8
:1008B0008368402B036803D099600068C26030BD34
:1008C0009A600068C16030BD70B5044690F866005B
:1008D00094F8CA10884229D194F8670094F8CB1094
:1008E000884223D194F8680084F8CE00102204F1E5
:1008F000690104F1CF00FFF7DAFD94F87A0094F86B
:100900000C61D4F8CF50D4F8D310D4F8D720D4F851
:10091000DB30B0420AD194F87B0094F80D41A0423C
:1009200004D12846BDE8704003F0B8BE70BD7047E2
:10093000802000F065BE72B6FEE74FF47A7405F0D1
:1009400081FE204605F060F8F9E70000254A9FED9A
:10095000260ADFED260A11882548A1F2AA539FED49
:10096000251A642B0ED901EE901AF8EE611A31EEB9
:10097000C02AC2EE201A90ED0D2A61EE821AC0ED57
:10098000061A01E080ED061A5188A1F2AA53642BE1
:100990000ED901EE901AF8EE611A71EEC01A81EECE
:1009A000A02AD0ED0C1A62EE211AC0ED071A01E060
:1009B00080ED071AD188A1F2AA52642A0ED901EE5D
:1009C000101AB8EE411A31EE400A80EE201A90ED6E
:1009D0000E0A21EE000A80ED080A704780ED081A21
:1009E00070470000F04E00200080BB440000FA4336
:1009F000044F00200000000090F82020012A07D0BA
:100A0000022A05D0416A41F48021416201207047E9
:100A1000006842690A43426100207047F0B590F8CF
:100A200020500468A468012D05D0022D03D0416A2E
:100A300041F4802153E014F0406F01D1E5004BD523
:100A4000C4F30164022C03D9416A41F4000146E079
:100A50000125A5401D608B684FF4C0759BB1CE6821
:100A600033434E6843EAC603066805EB0417F351A7
:100A70004FF4C273076803EB04130E69FE50097D3F
:100A8000012905D009E00E88CB6843EA4653EBE71D
:100A90000168CE5846F48076CE501179D2F80530F0
:100AA0004FF4C67641EA0323016806EB04168B5126
:100AB0001178D2F801204FF4C47341EA0221026890
:100AC00003EB0413D150006805EB0411425842F0C7
:100AD000010242500020F0BD416A41F40011416220
:100AE0000120F0BD10B590F82020012A07D0022A7D
:100AF00005D0416A41F480214162012010BD3B488C
:100B0000D0F8002242F00102C0F80022D0F8002202
:100B100022F47C52C0F80022D0F800224B6A42EA4C
:100B20000322C0F800220A7D02F01F0301229A402E
:100B3000D0F81C329343C0F81C32CB69B3B9D0F85B
:100B40000C329343C0F80C328C894B6864F31F431A
:100B50004C6900EBC404C4F840320C890B6864F3A0
:100B60001F434C6900EBC404C4F84432CB69012B29
:100B700016D1D0F80C321343C0F80C320C884B68F5
:100B800064F31F434C6900EBC404C4F840320C8981
:100B9000CB6864F31F434C6900EBC404C4F84432CF
:100BA0008B69002BD0F804320ED01343C0F8043206
:100BB0000B69002BD0F8143208D01343C0F814325C
:100BC000096A012904D008E09343EFE79343F5E76E
:100BD000D0F81C121143C0F81C12D0F8001221F0FA
:100BE0000101C0F80012002010BD000000640040A8
:100BF000704730B590F82040012C05D0022C03D06E
:100C0000416A41F480215DE00468002955D02469DF
:100C1000A40754D04FF4D874056804EB01142D597F
:100C200015F00405956005682D594ED0ED08556006
:100C300005682C5904F00204D4604FF4DA74056896
:100C400004EB01142D5905F00F05156105682D59A8
:100C5000C5F30725956105682C59240C54614FF4A0
:100C6000DC72046802EB0112A4581C700468A458DA
:100C7000240A5C700468A458240C9C700468A25870
:100C8000120EDA704FF4DE72046802EB0112A458FF
:100C90001C710468A458240A5C710468A458240CCC
:100CA0009C710468A258120EDA71006881B1016962
:100CB00041F020010161002030BDE468A8E7416AED
:100CC00041F400114162012030BD6D0D1560AFE7A8
:100CD000C16841F02001C160EDE72DE9F05F0546F4
:100CE000006800244669D0F804908768D0F80CB0FA
:100CF000D0F810A0D0F81880F10748D0F90714D028
:100D000001218160B80703D5284600F062FA0CE0A3
:100D1000780702D54FF4006407E0380702D54FF496
:100D2000805402E0284600F053FAF80516D52968E9
:100D30004FF480708860B80503D5284600F04BFA60
:100D40000CE0780502D544F4005407E0380502D5DC
:100D500044F4804402E0284600F03CFAF80316D53B
:100D600029684FF480308860B80303D5284600F026
:100D700034FA0CE0780302D544F4004407E0380369
:100D800002D544F4803402E0284600F025FA30070A
:100D900007D55FEACB6004D52968102044F40074BD
:100DA000C86070074FF0080707D55FEA0B7004D5DD
:100DB0002868C760284600F099F9B00706D528686A
:100DC000C068800702D0284600F092F9700607D567
:100DD0005FEACA6004D52968102044F48064086181
:100DE000B00607D55FEA0A7004D52868076128466F
:100DF00000F0C0F9F00606D528680069800702D027
:100E0000284600F0B8F9B00308D55FEAC96005D5F7
:100E1000296810204860284600F0AEF9F00307D595
:100E20005FEA097004D528684760284600F0D6F9C3
:100E3000300446D55FEA497040D5F00504D55FEA35
:100E4000C87001D044F00104B00504D55FEA887091
:100E500001D544F00204700504D55FEA487001D55D
:100E600044F00404300529D518F0700F26D008F09E
:100E70007000402815D006DC102809D020280AD0A0
:100E8000302816D10AE050280ED0602811D10EE08B
:100E900044F008040DE044F010040AE044F020049B
:100EA00007E044F0400404E044F0800401E044F42E
:100EB00080742868816921F07001816129680420AB
:100EC0004860002C05D0686A204368622846FFF716
:100ED0008FFEBDE8F09F70B5040003D094F82000A9
:100EE00010B104E0012070BD204600F081F82068B8
:100EF000016841F00101016000F07CFC0546052617
:100F000004E000F077FC401B0A2811D820684068F4
:100F1000C007F6D02068016821F00201016000F0EE
:100F200069FC05460BE000F065FC401B0A2806D969
:100F3000606A40F40030606284F82060D2E7206884
:100F400040688007EFD4207E0128206801683DD0EA
:100F500021F080010160607E01282068016838D09E
:100F600021F040010160A07E01282068016833D093
:100F700021F020010160E07E0128206801682ED068
:100F800041F010010160207F01282068016829D00C
:100F900021F008010160607F01282068016824D0E9
:100FA00021F004010160D4E902010843D4E90412EC
:100FB000114308436168491E08432168C861002045
:100FC0006062012084F82000002070BD41F08001A3
:100FD000C0E741F04001C5E741F02001CAE721F038
:100FE0001001CFE741F00801D4E741F00401D9E74F
:100FF000F0B587B0044614216846FFF7C7FA3649B2
:10100000364ADFF8D0E00868D4F800C0334B022439
:101010000325092610320027401CF44523D108601F
:10102000012807D1106840F000701060106800F0CF
:1010300000700590186840F0010018601868694653
:1010400000F0010005904FF4C0508DE89100CDE90B
:101050000356234800F0E0FA00220521142000F096
:1010600067FC142032E0DFF87CE0F44530D1D2F8A0
:1010700000C04CF0806CC2F800C0D2F800C001285B
:101080000CF0806CCDF814C0086007D1106840F0F7
:1010900000701060106800F000700590186840F053
:1010A000020018601868694600F0020005904FF4CD
:1010B00040508DE89100CDE903560B4800F0ACFAA2
:1010C00000220521402000F033FC402000F022FCEB
:1010D00007B0F0BD0064004020000020303802401E
:1010E0000000024000680040000402407047000019
:1010F00070B505461B488CB0854216D107AB6A46D1
:101100000021FFF776FD174A07A9684604F048FB5F
:10111000154E002404EB840000EBC40006EB8000B5
:1011200002F05EFB641C072CF4DB1048854216D1EC
:1011300009AB6A460021FFF75CFD0C4A09A9684625
:1011400004F02EFB0A4D002404EB840000EBC400E5
:1011500005EB800002F044FB641C072CF4DB0CB0B0
:1011600070BD00005C010020544F0020840100206D
:10117000C050002070477047704770B5044690F823
:101180002000012804D0606A40F40020606217E06B
:10119000022084F820002068016821F0010101602C
:1011A00000F028FB05460DE000F024FB401B0A2858
:1011B00008D9606A40F400306062052084F820009D
:1011C000012070BD20684068C007EDD1606270BD2D
:1011D00070477047704770477047704770472DE9F8
:1011E000F0410446876D00F005FB054694F8350094
:1011F0000026022806D08020606584F83460012033
:10120000BDE8F0812068016821F0160101602068C6
:10121000416921F080014161206C08B9A06C20B1C6
:101220002068016821F0080101602068016821F050
:10123000010101600CE000F0DDFA401B052807D930
:1012400020206065032084F8350084F83460D7E7F7
:1012500020680068C007EED194F85C103F208840F9
:10126000B860012084F8350084F834600020C7E7B6
:1012700090F83510022903D0802141650120704784
:10128000052180F835100068016821F00101016036
:10129000002070472DE9F84304464FF00009CDF8CF
:1012A000009063484FF41651A56D0068B0FBF1F74C
:1012B0002E6894F85C20082101FA02F030420FD029
:1012C0002068026852070BD5026822F0040202600F
:1012D00094F85C008140A960606D40F00100606599
:1012E00094F85C104FF0010808FA01F0304208D081
:1012F00021684969090604D5A860606D40F00200C4
:10130000606594F85C1004208840304208D0216861
:101310000968890704D5A860606D40F00400606525
:1013200094F85C1010208840304218D02168096879
:10133000090714D5A86020680168490304D500682E
:10134000000308D5A16C07E00168C90503D4016852
:1013500021F008010160216C09B12046884794F80A
:101360005C1020208840304231D021680968C906CD
:101370002DD5A86094F8350005282068016806D0AE
:10138000490347D5006800031DD4616C1CE021F0BF
:10139000160101602068416921F080014161206CE3
:1013A00008B9A06C20B12068016821F00801016033
:1013B00094F85C103F208840A86084F8358084F859
:1013C0003490216D1FE0E16B09B120468847606DC4
:1013D00000282BD0606DC00714D0052084F835009C
:1013E0002068016821F0010101600098401C009014
:1013F000B84203D820680068C007F6D184F8358069
:1014000084F83490E16C002910D001B02046BDE88A
:10141000F04308470168C905D5D4016821F01001DF
:10142000016084F8358084F83490CCE7BDE8F88317
:10143000300000202DE9F041044600F0DBF90546BC
:101440005CB1022084F83500002684F834602068FE
:10145000016821F0010101600DE00120BDE8F0818B
:1014600000F0C8F9401B052805D92020606503203D
:1014700084F83500F2E720680068C007F0D12168E1
:101480000A6820480240D4E901031843D4E903352F
:101490002B43184363691843A3691843E36918434E
:1014A000236A18431043626A042A03D1D4E90B2348
:1014B0001A431043086020684069656A20F00701FC
:1014C00028460D43012704280CD1A06A0543E06A91
:1014D00040B12046FFF7BAF920B14020606584F89A
:1014E0003570BAE7206845612046FFF79BF994F80C
:1014F0005C203F2191408160666584F83570002052
:10150000ACE700003F8010F02DE9F0410446866D05
:1015100090F83400002501280DD0012084F8340013
:1015200094F835700020012F07D084F8340002258C
:101530002846BDE8F0810220FBE7022784F83570D9
:1015400060652046FFF7ACF994F85C103F208840B6
:10155000B0602068016841F016010160206C20B184
:101560002068016841F0080101602068016841F0CD
:1015700001010160DCE7000070B51F4C80280DD12F
:101580006169C0052161426AA06840F27123584335
:1015900002EB00106061E060401AA08060780025D6
:1015A00001210128A08840F6980205D0904202D37C
:1015B0006170A570257070BD904203D36170A570F5
:1015C000217070BDA0F2B63140F24C42914210D869
:1015D0000A4AA17822F81100491CC8B2A070082854
:1015E000EFD30649420001F11400FEF760FFA57039
:1015F00070BD657070BD0000B4000020DC4E00209E
:10160000044910B50A68024202D00860FFF7B4FF2F
:1016100010BD0000143C01402DE9F84FDFF89C910B
:101620000022A9F1040B03274FF00F0C09F1040A63
:10163000ABF1040E01250B6895402B40AB426ED1F7
:101640000C7904F00304012C01D0022C15D186681A
:10165000540007FA04F826EA0806D1F80C8008FAC4
:1016600004F848EA0608C0F808804468AC430D79DD
:10167000C5F300159540254345600C79E443A40764
:1016800008D0C568540007FA04F6B5438E68A64032
:101690002E43C6600C7904F00304022C11D1D40847
:1016A00000EB8406356A5407E40E0CFA04F825EAC8
:1016B0000805D1F8108008FA04F848EA0508C6F8C9
:1016C00020800568540007FA04F6B5430E7906F049
:1016D0000306A6402E4306604C6814F4403F66D0D3
:1016E000374C256845F480452560246822F00305C1
:1016F00004F480440094334C05EB0408D8F80858EF
:101700009407260F0CFA06F4A5432F4CA04201D1F2
:10171000002424E02D4CA04202D101241FE046E029
:101720002B4CA04201D1022419E02A4CA04201D145
:10173000032414E0284CA04201D104240FE0274CDC
:10174000A04201D105240AE0254CA04201D1062483
:1017500005E0244CA04201D1072400E00824B44055
:101760002C43C8F80848D9F800404D464E689C43C1
:10177000F60200D51C432C60DAF8004055464E684E
:101780009C43B60200D51C432C60DBF800405D464C
:101790004E689C43B60300D51C432C60DEF8004025
:1017A00075464E689C43F60300D51C432C60521CC2
:1017B000102AFFF43FAFBDE8F88F0000083C01405D
:1017C0004438024000300140000002400004024062
:1017D00000080240000C02400010024000140240C9
:1017E00000180240001C02400AB1816170470904E0
:1017F000FBE70000014880687047000024000020DB
:1018000002488168027811448160704724000020FA
:101810000B4810B5016841F400710160016841F4A2
:1018200080610160016841F480710160032000F073
:101830009FF80F2000F006F800F050F8002010BDCF
:10184000003C024030B505461F4887B000240168BF
:1018500041F002010160006806A900F00200059055
:10186000684600F031F90398A8B100F04DF9400046
:101870001649174AB0FBF1F11648491E026040F2C2
:10188000E732C0E90324C0E90114846100F082FB5F
:10189000040003D015E000F037F9E9E70D4800F047
:1018A000EBFB04000DD11D2000F034F8102D07D201
:1018B000002229461D2000F03BF80748056000E0A3
:1018C000012407B0204630BD4038024040420F009E
:1018D0000004004090050020280000200C4882B041
:1018E000016841F480410160006800F4804000908C
:1018F0000748001F016841F0805101600068002224
:1019000000F0805000900F21901E02B000F010B83F
:1019100044380240002809DB00F01F0201219140F9
:101920004009800000F1E020C0F80011704700007D
:10193000F0B40E4B1B68C3F30223C3F10704042C5D
:1019400000D904241D1D072D01D2002300E0DB1E59
:10195000012606FA04F56D1E0D409D409E40761E40
:10196000164045EA0601F0BC02F036BF0CED00E07F
:10197000064A00F0070110684FF6FF03184040EADE
:101980000120034908431060704700000CED00E09F
:101990000000FA052DE9F0470D46040065D0DFF898
:1019A0001491D9F80000EFB200F00700A84207D266
:1019B00089F80070D9F8000000F00700A84254D15F
:1019C00020683D4E810712D5400703D5306840F4AA
:1019D000E05030602078000703D5306840F4604064
:1019E00030603068A16820F0F00008433060207853
:1019F000C0072DD0304960680839012812D002286C
:101A000013D0032811D00968890700292DDA31681D
:101A100021F0030101433160FFF7ECFE804641F203
:101A2000883A0EE009688903EFE709688901ECE765
:101A3000FFF7E0FEA0EB0801514502D90320BDE805
:101A4000F0873068616800F00C00B0EB810FEFD1D7
:101A5000D9F80010484601F00701A94207D90770DC
:101A6000006800F00700A84201D00120E7E72078D5
:101A7000400705D53068E16820F4E0500843306045
:101A80002078000706D53068216920F4604040EADC
:101A9000C100306000F058F83168084AC1F3031102
:101AA000515CC8400649086006480068FFF7CAFE56
:101AB0000020C4E7003C0240083802400C810008C6
:101AC00030000020280000200F2202600C4A13681A
:101AD00003F003034360136803F0F00383601368AB
:101AE00003F4E053C36012684FF4E05303EAD202F8
:101AF00002610448006800F00700086070470000B9
:101B000008380240003C0240044805490068096862
:101B1000044AC1F38221515CC84070473000002064
:101B2000083802401C81000804480549006809681B
:101B3000044AC1F34231515CC84070473000002074
:101B4000083802401C810008154810B5006810F0E4
:101B50000C01144813D0431004290FD008290ED1CA
:101B60000F4C241F216801F03F022168490207D56C
:101B70002068C0F38810A0FB030106E0184610BDE2
:101B80002168C1F38811A1FB00010023FEF7ECFBE3
:101B90002168C1F30141491C4900B0FBF1F010BDBF
:101BA000083802400024F4002DE9F84F040075D0F5
:101BB0002078DFF838A3C007AAF1040548D00AF15D
:101BC00004000168C1F38101012908D00068C0F355
:101BD000810002280AD1DAF80000400206D5286800
:101BE000800335D560680028E1D031E06068B0F549
:101BF000803F10D0B0F5A02F286810D020F480309E
:101C00002860286820F4802028606068A0B1FFF771
:101C1000F1FD06460CE0286840F48030F4E740F41B
:101C200080202860F7E7FFF7E5FD801B642871D866
:101C300028688003F7D50BE0FFF7DCFD064604E0DB
:101C4000FFF7D8FD801B6428F1D828688003F7D4FB
:101C50002078DFF89C9280074FF0000B3DD5A34819
:101C6000001D016811F00C0F08D00068C0F381005E
:101C700002280AD1DAF80000400206D4286880075A
:101C800015D5E068012809D111E0E068B8B101205C
:101C9000C9F80000FFF7AEFD064605E022E1FFF7B8
:101CA000A9FD801B0228C2D828688007F7D52868BC
:101CB000216920F0F80040EAC10028600DE0C9F871
:101CC00000B0FFF797FD064604E0FFF793FD801B89
:101CD00002281FD828688007F7D42078000722D56B
:101CE000824F84486169703771B101210160FFF74B
:101CF00081FD064604E0FFF77DFD801B022809D820
:101D000038688007F7D50EE0C0F800B0FFF772FD25
:101D1000064605E082E0FFF76DFD801B02287DD8B6
:101D200038688007F7D42078400765D56F484FF0B2
:101D300000083C300068C0000BD46C483C3001689F
:101D400041F08051016000684FF0010800F08050C0
:101D50000090694F3868C0050FD4386840F480702F
:101D60003860FFF747FD064604E0FFF743FD801BA0
:101D7000022853D83868C005F7D55C4FA0686C3787
:101D800001280FD00528386810D020F001003860F5
:101D9000386820F004003860A068B0B1FFF72AFD71
:101DA00006460EE0386840F00100F4E740F0040019
:101DB0003860F7E7FFF71EFD811B41F28830814252
:101DC00063D838688007F5D50DE0FFF713FD0646A8
:101DD00006E0FFF70FFD811B41F28830814254D8A5
:101DE00038688007F5D4B8F1000F05D03F483C3083
:101DF000016821F080510160A069B8B33B49091D19
:101E00000968C1F38101022946D00228584606D04C
:101E1000C9F86000FFF7EEFC044639E035E04F46B4
:101E2000C9F86000FFF7E6FC064604E0FFF7E2FCB5
:101E3000801B022829D828688001F7D4D4E907013B
:101E40000843A16A2D4A490802EB0141626A41EA4E
:101E50008211084394F82C1040EA0161CAF800107E
:101E600001203866FFF7C6FC044605E03CE0FFF7BA
:101E7000C1FC001B022808D828688001F7D533E090
:101E8000FFF7B8FC001B022802D90320BDE8F88F39
:101E900028688001F4D427E00128F7D0DAF80000A0
:101EA000E26900F4800191421CD1226A00F03F01F6
:101EB000914217D147F6C071626A0140B1EB821FAF
:101EC00010D1A26A4FF0FF3300F4403103EB52020D
:101ED000B1EB024F06D194F82C1000F07060B0EB1B
:101EE000016F01D00120D1E70020CFE70438024084
:101EF00000004742800E4742007000400000FFFF94
:101F00007047704770B590F83C20012A32D0012507
:101F100080F83C50022280F83D20026853689468A3
:101F200023F070060B6833435360134B02689A42E8
:101F300014D0B2F1804F11D0104B9A420ED0104BFA
:101F40009A420BD00F4B9A4208D00F4B9A4205D0C1
:101F50000E4B9A4202D00E4B9A4204D1496824F0AB
:101F600080031943916080F83D50002180F83C10B7
:101F7000084670BD022070BD000001400004004012
:101F800000080040000C00400004014000400140F7
:101F90000018004010B5040003D094F83D0010B1C3
:101FA00007E0012010BD002084F83C00204600F02E
:101FB0001FF8022084F83D00211D206801F01AFF5F
:101FC000012084F8460084F83E0084F83F0084F83D
:101FD000400084F8410084F8420084F8430084F80B
:101FE000440084F8450084F83D00002010BD000046
:101FF00008B500681D49B0F1804F11D01C4A9042CD
:102000001DD1086840F0800008600868002200F0D8
:102010008000009005212C20FFF78AFC2C201FE077
:10202000086840F0010008600868002200F0010024
:10203000009005211C20FFF77BFC1C2010E00D4ABE
:10204000904211D1086840F480700860086800224E
:1020500000F48070009005212D20FFF769FC2D20F1
:10206000BDE80840FFF756BC08BD000040380240FC
:10207000001C00400020004090F83D10012901D0D4
:1020800001207047022180F83D100168CA6842F0C3
:102090000102CA6000681149884214D0B0F1804F33
:1020A00011D00F4988420ED00E4988420BD00E49FC
:1020B000884208D00D49884205D00D49884202D097
:1020C0000C49884204D1816801F00701062903D038
:1020D000016841F0010101600020704700000140EB
:1020E0000004004000080040000C004000040140D3
:1020F000004001400018004070B5044690F83C00D4
:102100000025012817D0012684F83C60022084F8BD
:102110003D002068826822F0770222F47F428260CC
:102120000868502838D00DDC20284FD005DC90B34B
:10213000102811D14AE0022070BD302846D0402836
:102140000AD13BE060282FD070280DD0B0F5805F19
:1021500003D0B0F5005F12D0012584F83D60002067
:1021600084F83C00284670BDCB68D1E90121206885
:1021700001F0A4FE2068816841F0770109E0CB6896
:10218000D1E90121206801F099FE2068816841F4BD
:1021900080418160E1E719E0CA684968206801F080
:1021A00061FF5021206806E0CA684968206801F094
:1021B0006AFF6021206801F08BFECEE7CA6849689B
:1021C000206801F04FFF40212068F4E722680146B3
:1021D0001046F0E7704770B50446006801694FF09B
:1021E0000005C943890715D4C168C943890711D4BB
:1021F000E91E016101202077206880698007204660
:1022000002D0FFF7E7FF04E000F0D0F8204600F02E
:1022100062F9257720680169C943490717D4C16865
:10222000C943490713D46FF00401016102202077EC
:102230002068806910F4407F204602D0FFF7CAFF73
:1022400004E000F0B3F8204600F045F92577206857
:102250000169C943090716D4C168C943090712D4E3
:102260006FF008010161042020772068C0698007B1
:10227000204602D0FFF7AEFF04E000F097F82046BA
:1022800000F029F9257720680169C943C90617D4E8
:10229000C168C943C90613D46FF010010161082059
:1022A00020772068C06910F4407F204602D0FFF7F5
:1022B00091FF04E000F07AF8204600F00CF9257751
:1022C00020680169C943C90708D1C168C943C90762
:1022D00004D1891E0161204600F0FEF820680169E2
:1022E000C943090609D4C168C943090605D46FF07A
:1022F000800101612046FFF703FE20680169C943A0
:10230000490609D4C168C943490605D46FF04001A4
:102310000161204600F01CF920680169C943890663
:102320000BD4C168C943890607D46FF0200101614D
:102330002046BDE87040FFF7E4BD70BD70B586B0C3
:10234000044614216846FEF721F9144E2168002343
:10235000134A022409251348B14209D1116841F0FA
:1023600020011160116801F02001059181150BE039
:102370000D4EB14210D1116841F020011160116879
:1023800001F02001059171150091CDE90143CDE9DE
:1023900003356946FFF740F906B070BD001C0040E8
:1023A000303802400014024000200040704770B5F1
:1023B000044690F83C0000260D4601280FD001206D
:1023C00084F83C006AB1042A1DD0082A2FD00C2AB8
:1023D0003FD00126002084F83C00304670BD02202A
:1023E00070BD206801F07CFD2068816941F0080122
:1023F00081612068816921F004018161206881691F
:102400002A69114311E0206801F09AFD2068816972
:1024100041F4006181612068816921F480618161FA
:10242000206881692A6941EA02218161D2E7206836
:1024300001F0BCFD2068C16941F00801C16120685C
:10244000C16921F00401C1612068C1692A69114391
:1024500011E0206801F0DEFD2068C16941F40061EF
:10246000C1612068C16921F48061C1612068C169CE
:102470002A6941EA0221C161ACE710B5040003D02A
:1024800094F83D0010B107E0012010BD002084F851
:102490003C00204600F01EF8022084F83D00211D7B
:1024A000206801F0A7FC012084F8460084F83E0073
:1024B00084F83F0084F8400084F8410084F842002A
:1024C00084F8430084F8440084F8450084F83D0013
:1024D000002010BD7047704730B40168B1F1804FE3
:1024E00022D1164A164B11681960164B491C11600F
:1024F0001988154A491C89B21980642912D300240D
:102500001C805188491C89B251803C290AD35480CF
:102510009188491C89B291803C2903D39480D18849
:10252000491CD1801988118000680849884202D16D
:1025300030BCFFF765B930BC70470000BC0000201C
:10254000CC000020D0000020D20000200004004079
:10255000704738B5044690F83E00202826D171B166
:102560006AB194F83C00012820D0012084F83C0096
:102570002063204601F062FF010002D005E0012047
:1025800038BD206B012802D00121084638BD2068E3
:1025900002684068009020680C3050E8002F42F03C
:1025A000100240E80023002BF5D1EEE7022038BDF1
:1025B00070B504461C480D4684420ED11B4803F0FA
:1025C000A3FB1A49642266311748FFF7C2FF184877
:1025D0000068016821F008010160164884420FD1AB
:1025E0002946154803F090FB1349642266311148CF
:1025F000FFF7AFFF11480068016821F00801016092
:102600000F4884420FD129460E4803F07DFB0D4947
:10261000642266310A48FFF79CFF0B480068016896
:1026200021F00801016070BD0C030020B85D00209E
:102630003005002084020020C85E002050030020E6
:10264000C8020020D85F002010040020704700005E
:10265000F8B5016804460868CA684B6910F00F0FA6
:102660004FF0000559D003F0010602F4907737438C
:1026700065D0C10705D0D10503D5216C41F001011A
:102680002164410705D5D90703D0216C41F002012F
:102690002164810705D5D90703D0216C41F00401DD
:1026A0002164010707D502F02001314303D0216CDA
:1026B00041F008012164216C00293AD0800604D53C
:1026C000900602D5204601F0D3FD20684069216CB8
:1026D000C0F38010090700D460B3204601F093FDD9
:1026E00020684069400621D52068143050E8001F5A
:1026F00021F0400140E80012002AF5D1A06BA8B1FA
:102700006C490165A06BFEF7B3FD002811D0A06BEA
:10271000016D01B0BDE8F040084783060FD5930670
:102720000DD52046BDE8F84001F0A2BD2046FFF7D8
:102730008DFFF8BD2046FFF789FF2564F8BD266BA5
:102740002023012E79D1C60677D5D60675D508681F
:10275000486800904869400640D5A16B0868406809
:102760000004000CEAD0A28D8242E7D9E085C86956
:10277000B0F5807F2DD020680C3050E8001F21F488
:10278000807140E80012002AF5D12068143050E82A
:10279000001F21F0010140E80012002AF5D1206855
:1027A000143050E8001F21F0400140E80012002AD8
:1027B000F5D184F83E30256320680C3050E8001FC6
:1027C00021F0100140E80012002AF5D1A06BFEF7BD
:1027D00006FDA08DE18D401A81B229E0A08DE18D2A
:1027E000401A81B2E08D0028A8D00029A6D0206828
:1027F0000C3050E8002F22F4907240E80026002EA2
:10280000F5D12068143050E8002F22F0010240E892
:102810000026002EF5D184F83E30256320680C3068
:1028200050E8002F22F0100240E80023002BF5D1E1
:102830002046FFF7BDFEF8BDFFE705062BD51506C0
:1028400029D594F83D002128F5D1A068B0F5805F26
:1028500001D12069B0B1206A411C21622168007851
:102860004860E08C401E0004000CE084E3D1206846
:10287000C16821F08001C1602068C16841F0400159
:10288000C160D8E7206A0088C0F308004860206A69
:10289000801C2062E5E74006CDD55006CBD5CA683E
:1028A000204622F04002CA6084F83D3000F0E2F990
:1028B000C1E70000C540000870B5040004D094F8DA
:1028C0003D00002510B106E0012070BD84F83C50A9
:1028D000204600F023F8242084F83D002068C168D9
:1028E00021F40051C160204601F022FD20680169F9
:1028F00021F4904101612068416921F02A01416180
:102900002068C16841F40051C1602564202084F82A
:102910003D0084F83E00002070BD00002DE9F04F1E
:1029200087B0044614216846FDF730FEA348DFF85F
:10293000888210380221D4F800C0A04B0322002561
:102940008F0606154FF0080E4FF04009C4455CD1C4
:10295000D3F800C04CF4002CC3F800C01B6803F48B
:1029600000230593036843F004030360006800F04C
:102970000400059090028DE82300CDE9032E6946FE
:102980008F48FEF749FEDFF840828E494046C8F87E
:102990000010C0E90175C0E90356C8F81450C8F822
:1029A0001850C8F81C50C8F82050C8F82450FEF73A
:1029B00041FD08B1FDF7BFFFC4F83880C8F83840C2
:1029C000DFF804827F4908F1600840463031C0E9F1
:1029D0000356C8F81450C8F81850C8F81C50C8F866
:1029E000205088E88202C8F82450FEF723FD08B181
:1029F000FDF7A1FFC4F83480002205213420C8F877
:102A00003840FEF795FF342072E0DFF8C081C445FE
:102A100074D1D3F800C04CF4801CC3F800C01B680C
:102A200003F480130593036843F004030360036811
:102A300003F004030593036843F008030360006890
:102A40008B4600F0080005904FF48050CDE9000B54
:102A5000CDE902529246F0466946CDF810E058485A
:102A6000FEF7DAFD0420CDE9000BCDE9025A6946F4
:102A7000CDF810805648FEF7CFFDDFF84CA1514944
:102A80000AF1C00A30395046CAF80010C0E9017591
:102A9000C0E90356CAF81450CAF81850CAF81C50B6
:102AA000CAF82050B846CAF82450FEF7C3FC08B153
:102AB000FDF741FF474FC4F838A0CAF83840C7E9CE
:102AC00003567D61BD613F48FD613D6278307D62A6
:102AD00087E801033846FEF7ADFC08B1FDF72BFF90
:102AE0006763002205213520BC63FEF721FF3520F6
:102AF000FEF710FF07B0BDE8F08FFFE7364B9C45AF
:102B0000F8D12E4B1B1DD3F800C04CF0100CC3F8AD
:102B100000C01B6803F010030593036843F0010332
:102B20000360006800F0010005904FF4C0608DE87C
:102B300023000720CDE9032069462848FEF76CFDF5
:102B4000DFF890A026490AF1600A5046B846C0E96D
:102B50000356CAF81450CAF81850CAF81C50CAF8DC
:102B600020508AE80203CAF82450FEF763FC08B13B
:102B7000FDF7E1FE174F1A48C4F834A0C037783883
:102B8000CAF838403860C7E90185C7E903567D6156
:102B9000BD61FD613D6238467D62FEF74BFC08B1C8
:102BA000FDF7C9FEA763002205212520BC63FEF7BF
:102BB000BFFE25209CE70000004C0040403802404A
:102BC00000080240406002405003002000500040D6
:102BD000000C024070040020001001400000024080
:102BE000B864024070477047F7B5044690F83D005E
:102BF000202837D1019991B38AB394F83C00012879
:102C000030D0012084F83C002162A284E2840025B7
:102C10002564212084F83D00636B1348D863636BFF
:102C200012481864636B1248D864606B13460565DC
:102C30002668606B321DFEF767FC21686FF040006C
:102C4000086084F83C502068143050E8001F41F0C0
:102C5000800140E80012002AF5D10020FEBDFFE708
:102C60000120FBE70220F9E7BB410008FD41000815
:102C7000D540000870477047FEE70622827080ED5D
:102C8000050A018380ED040A7047D0ED000AF4EED6
:102C9000C00AF1EE10FA01DD80ED000AD0ED000A65
:102CA000B1EE400AF4EEC00AF1EE10FA01D280ED66
:102CB000000A70472DE9F04104462DED028B9FED8F
:102CC000178A1748B0EE480A074601F017F814486B
:102CD000B0EE480A3430064601F010F811480025DD
:102CE000012C80F821500DD0022C07D130469FEDE9
:102CF0000E0A00F057FD0D48C0F85451BDEC028B90
:102D0000BDE8F081BDEC028B3846BDE8F0419FED97
:102D1000080A4FF47A6100F027BD000000000000AF
:102D200058500020905D00200000E642544F0020E3
:102D3000000020C300B599B0082100208A0100924C
:102D40000290CDE903010890CDE90901501E0690DB
:102D50003C4814AB41890A0A8DF830208DF83110B7
:102D6000C18F0A0A8DF832208DF83310B0F8721036
:102D70000A0A8DF834208DF83510B0F8A6100A0A2A
:102D80008DF836208DF83710B0F8DA100A0A8DF871
:102D900040208DF84110B0F80E110A0A8DF842203B
:102DA0008DF84310B0F842010CAA010A8DF84410C6
:102DB0008DF8450069462448FDF730FE15AB10AA92
:102DC00006A92148FDF72AFE204816AB41890A0AC8
:102DD0008DF838208DF83910C18F0A0A8DF83A2005
:102DE0008DF83B10B0F872100A0A8DF83C208DF86F
:102DF0003D10B0F8A6100A0A8DF83E208DF83F105D
:102E0000B0F8DA100A0A8DF848208DF84910B0F8A9
:102E10000E110A0A8DF84A208DF84B10B0F84201C5
:102E20000EAA010A8DF84C108DF84D00694608482D
:102E3000FDF7F4FD17AB12AA06A90548FDF7EEFD54
:102E400019B000BD544F00205C010020C05000208C
:102E500084010020104810B50E4901600321416033
:102E600000214FF400228160C0E903124FF44012A8
:102E700042610176012242768176C17601774177FF
:102E8000FEF729F8002803D0BDE81040FDF753BD38
:102E900010BD0000006400405C010020104810B527
:102EA0000E4901600321416000214FF4002281603E
:102EB000C0E903124FF440124261017601224276CA
:102EC0008176C17601774177FEF705F8002803D0B7
:102ED000BDE81040FDF72FBD10BD000000680040A8
:102EE00084010020214808B5016841F48001016097
:102EF000016801F480010091016841F40011016052
:102F00000068002200F40010009005210B20FEF75D
:102F10000FFD0B20FEF7FEFC002205210D20FEF721
:102F200007FD0D20FEF7F6FC002205210F20FEF71D
:102F3000FFFC0F20FEF7EEFC002205212F20FEF7FC
:102F4000F7FC2F20FEF7E6FC002205213A20FEF7D1
:102F5000EFFC3A20FEF7DEFC002205214620FEF7BA
:102F6000E7FCBDE808404620FEF7D4BC30380240FC
:102F700010B5194A0021194802F082FD184C164A72
:102F8000002160602432174802F07AFD124AA060E6
:102F900048320021144802F073FD0F4AE0606C32A1
:102FA0000021124802F06CFD0B4A20619032002192
:102FB0000F4802F065FD084A6061B43200210D48F7
:102FC00002F05EFD044AA061D83200210A4802F0F6
:102FD00057FDE06110BD0000088000083B090008B3
:102FE00000000020F1060008553B0008C13B000826
:102FF000F53200087D0700085F370008F0B587B09C
:1030000014216846FDF7C2FA36480024016841F0F1
:1030100004010160016801F004010591016841F0BB
:1030200020010160016801F020010591016841F073
:1030300080010160016801F080010591016841F0A3
:1030400040010160016801F040010591016841F013
:1030500002010160016801F002010591016841F07F
:1030600001010160016801F001010591016841F071
:103070000801016000681C4E00F008004FF478451C
:103080000590002229463046FEF7AEFB174F00227E
:1030900001213846FEF7A8FB802000904FF48810ED
:1030A000CDE9010469463046FEF7B6FA00950125E0
:1030B000CDE90154694630460394FEF7ADFA009518
:1030C000CDE90154694638460394FEF7A5FA00227B
:1030D00005211720FEF72CFC1720FEF71BFC07B07C
:1030E000F0BD0000303802400014024000180240D9
:1030F00010B588B01C216846FDF748FA15481449F8
:10310000002401605321C0E9011444F61F61C0E9A5
:10311000031480218161FEF73DFF08B1FDF70BFC30
:103120000C48FFF7AAF908B1FDF705FC6020CDE9CE
:10313000000402940022694606480494FFF737F918
:1031400008B1FDF7F8FB0348FFF7F8F808B010BD29
:10315000001C0040F401002010B588B01C21684616
:10316000FDF714FA15481449002401605321C0E901
:10317000011444F61F61C0E9031480218161FEF748
:1031800009FF08B1FDF7D7FB0C48FFF776F908B146
:10319000FDF7D1FB6020CDE90004029400226946CE
:1031A00006480494FFF703F908B1FDF7C4FB034890
:1031B000FFF7C4F808B010BD002000403C0200201A
:1031C00010B586B00024164800940194029403942C
:1031D00004944FF08041059401605321C0E901142B
:1031E0001049C0E903148461FEF7D4FE08B1FDF76D
:1031F000A2FB4FF48050009069460948FEF77CFF1F
:1032000008B1FDF798FB049404A905480594FEF75E
:1032100079FE002801D0FDF78EFB06B010BD00003E
:10322000AC010020A08601000C4810B50A490160DD
:103230004FF4E1314160002181600C22C160C0E99E
:1032400004128161C161FFF737FB002803D0BDE89C
:103250001040FDF770BB10BD004C00408402002000
:103260000C4810B50A4901604FF4E131416000217A
:1032700081600C22C160C0E904128161C161FFF765
:103280001BFB002803D0BDE81040FDF754BB10BD68
:1032900000500040C80200200C4810B50A490160E7
:1032A0004FF4E1314160002181600C22C160C0E92E
:1032B00004128161C161FFF7FFFA002803D0BDE865
:1032C0001040FDF738BB10BD001001400C0300207A
:1032D000B4EEE00AF1EE10FA01DDB0EE600AF1EEB4
:1032E000600AB4EEE00AF1EE10FA01D2B0EE600A24
:1032F0007047FEE700F004F8012002F085FBF9E7D3
:103300002DE9F04F00272DED068B81B09FEDF79B47
:103310009FEDF8AADFF8E0833E46A8F5367B08F576
:10332000B66907EB870000EBC7050BEB8504A078B7
:10333000072821D2DFE800F02AA67404217D2C00A2
:10334000B4F90C00D4ED090A00EE100AEB4800EBCA
:10335000C500B8EEC00A824602F0D6FB9AED110A0B
:1033600084ED040AB4F9060000EE900AF8EEE00AD3
:1033700008EBC50002F0C8FB84E0B4F9060000EEDB
:10338000100AF8EEC00A94ED040A6AE0668179E05A
:10339000DA46B4F9180004F02AFB53EC192B04F0B8
:1033A0008DFB41EC180BB4F90800002800DC40420A
:1033B00004F01DFB53EC182B04F044FB00D82662EC
:1033C000B4F9180004F013FBB0EE491AF0EE691AD4
:1033D00053EC112B04F072FB41EC180BB4F908000C
:1033E000002800DC404204F002FB53EC182B04F0F0
:1033F00063FC0AD3B4F90800002800DC40423AF923
:103400002510884201DA206A02E0206A401C20620E
:103410001E2805DB0120E06184ED09AA84ED04AAE1
:10342000B4F9060000EE100AF8EEC00A94ED040AA2
:103430009EE7B4F90C00D4ED090A00EE100AAF487B
:1034400000EBC500B8EEC00A824602F05DFB9AEDC3
:10345000110A84ED040AB4F9060000EE900AF8EEB1
:10346000E00A08EBC500824602F04EFBB4F90E00FC
:1034700000EE100AF8EEC00A9AED110AFFF728FFD5
:103480008AED110ADFF878A20AEB8504A0780728F4
:1034900022D2DFE800F02BA77404227D2D00B4F9BE
:1034A0000C00D4ED090A00EE100A964800EBC500A6
:1034B000B8EEC00A009002F027FB009890ED110AC8
:1034C00084ED040AB4F9060000EE900AF8EEE00A72
:1034D00009EBC50002F018FB84E0B4F9060000EE29
:1034E000100AF8EEC00A94ED040A6AE0668179E0F9
:1034F000B4F9180004F07BFA53EC192B04F0DEFA4F
:1035000041EC180BB4F90800002800DC404204F03C
:103510006EFA53EC182B04F095FA00D82662B4F931
:10352000180004F064FAB0EE491AF0EE691A53EC90
:10353000112B04F0C3FA41EC180BB4F90800002871
:1035400000DC404204F053FA53EC182B04F0B4FBB7
:103550000AD3B4F90800002800DC40423AF92510EB
:10356000884201DA206A02E0206A401C20621E289C
:1035700005DB0120E06184ED09AA84ED04AAB4F919
:10358000060000EE100AF8EEC00A94ED040A9FE768
:10359000B4F90C00D4ED090A00EE100A594800EB0A
:1035A000C500B8EEC00A009002F0AEFA009890EDA7
:1035B000110A84ED040AB4F9060000EE900AF8EE50
:1035C000E00A09EBC505284602F09EFAB4F90E00A0
:1035D00000EE100AF8EEC00A95ED110AFFF778FE2A
:1035E00085ED110A7F1C072FFFF69BAE002242F6E5
:1035F0009A1343F2C82B9FED441ADFED441A47F2A9
:1036000030549FED432A02EB8200424F00EBC2018F
:1036100007EB81008578012D07D0C578012D24D0D6
:10362000022D31D0032D41D04681521C072AEADBFE
:103630000022554602EB820000EBC20105EB81003F
:103640008778012F07D0C778012F3FD0022F63D092
:10365000032F74D04681521C072AEBDB01B0BDEC6E
:10366000068BBDE8F04FFFF765BB27F82130B0F9B6
:1036700008705F4501DD8670D7E708EBC101F0EE09
:10368000410A91ED110A19E040F67B4527F82150D7
:10369000B0F9087040F63C75AF4200DD867008EB6B
:1036A000C101F0EE610A91ED110A07E027F821400F
:1036B00008EBC101F0EE420A91ED110AFFF708FE96
:1036C000BDEEC00A10EE101A4181AEE725F8213098
:1036D000B0F908C0DC4501DD8670BCE709EBC1012B
:1036E000F0EE410A91ED110A31E015E00000000012
:1036F0000000F83F000000002C520020045500207C
:10370000C0500020B45A00200068264600B047454B
:103710000060EA46544F002040F67B4725F82170B0
:10372000B0F908C040F63C77BC4500DD867009EB77
:10373000C101F0EE610A91ED110A08E0FFE725F8FA
:10374000214009EBC101F0EE420A91ED110AFFF7A9
:10375000BFFDBDEEC00A10EE101A41817BE70120CB
:1037600002F052F9FBE7FEE7FDEEC00A0522827087
:1037700010EE902A8281C18190ED091A71EE400A03
:10378000F5EEC00AF1EE10FA01DC70EE410A0449D0
:1037900010EE900A884201DA01207047002070473D
:1037A0000000A040FDEEC00A0321817010EE901AC7
:1037B000818190ED091A71EE400AF5EEC00AF1EE32
:1037C00010FA01DC70EE410A044910EE900A8842BA
:1037D00001DA012070470020704700000000A0407F
:1037E00030B59FED3D0A90F828208188F0EE400A20
:1037F0003AB1C278012A09D0022A0AD0032A0DD18F
:103800000AE04185012180F8281030BDF3EE030A5B
:1038100004E0DFED320A01E0F7EE000AB0F906201D
:103820009FED2F1ADFED2F1A41F6FF73002A1DDDE1
:10383000428D914211D2A1EB02021A4440F2E243BE
:103840009A420DDA00EE102AB8EEC00A20EE010A04
:1038500020EE211A81EE200A02E001D98A1AF1E74E
:10386000B5EEC00AF1EE10FA2EDA33E0428D1EDA20
:1038700091420AD9A3EB010303F2E144144440F658
:10388000C215AC420DD81A4401E00AD28A1A00EEE1
:10389000102AB8EEC00A20EE010A20EE211A81EEAD
:1038A000200AB5EEC00AF1EE10FA0DD912E09142ED
:1038B0000AD08A1A00EE102AB8EEC00A20EE010AD9
:1038C00020EE211A81EE200AD0ED090A30EE800A9E
:1038D00080ED090A418530BD000000000000104263
:1038E000000000390000B44370B5574D2DED048B36
:1038F00095ED050A9FED559A60EE090ADFED548AB1
:1039000080EEA80A10EE100A04F002FB41EC100B46
:1039100000F072FF51EC100B03F0FCFD95ED050A71
:1039200008EE100A60EE090A80EEA80A10EE100AEE
:1039300004F0EEFA41EC100B00F0C2FF51EC100B5A
:1039400003F0E8FD00EE100A95F84C00012867D05E
:1039500095ED060A85ED000A95ED070A85ED010A49
:1039600095ED080A9FED3B1A85ED020AD5ED000A98
:10397000D5ED011A9FED382A20EE813ADFED372A86
:103980003A4E002401EEC13A00EE023A63EE223ACA
:103990009FED333A83EE834ADFED323AC4EE234A99
:1039A0009FED314A21EE844A61EE811A00EEC14A50
:1039B00000EE024AC5ED0F4A64EE224A84EE834AC5
:1039C000C4EE234AB0EE614A40EE811A00EEC14ACD
:1039D00040EE021A00EE024A61EEA20AC5ED104A5C
:1039E00064EE224A80EE830A84EE834AC0EE230A04
:1039F000C4EE234AC5ED114AC5ED120A05EB840059
:103A000090ED0F0A04EB840000EBC40006EB80008D
:103A100000F074F9641C042CF0DBBDEC048B70BD69
:103A2000D5ED090A95ED0A1A60EE881A41EE401AA2
:103A300020EE800A01EE080AC5ED001A85ED010AA4
:103A400095ED0B0A8EE70000044F0020DB0F494084
:103A500000003443F304353FCDCCCC3E00800E440F
:103A6000C67D743E00007A44F30435BF544F0020F5
:103A7000074840F2DC51028906488A4202D24FF0E0
:103A8000010102E002D94FF00201417070470000CD
:103A9000F04E0020DA00002009484089B0F5966F0A
:103AA0000CD3A0F215520749B2F5C77F01D8052003
:103AB00003E0B0F5E16F01D90620087070470000FF
:103AC000F04E0020DA00002030B51648164A0123D7
:103AD00081891078B1F5966F09D2052805D006289E
:103AE00002D100209070D07030BD937030BDA1F233
:103AF00015550224B5F5C77F07D8052803D0062839
:103B0000F4D1D37030BD947030BDB1F5E16FFBD905
:103B1000052803D00628F7D1D47030BD042090705A
:103B200030BD0000F04E0020DA000020074840F2CF
:103B3000DC51C28906488A4202D24FF0010102E0FC
:103B400003D94FF0000180F84C107047F04E002070
:103B5000044F0020012001F057FFFBE7F0B4164EA0
:103B6000AA2300243370FF237370B0702546F270CF
:103B70000420234605E0CF5C3754401C5B1CC0B2D8
:103B8000DBB29342F7D3F2780021121D06E0735C9A
:103B90002344DCB22B19491CDDB2C9B28A42F6D8E3
:103BA0003454401CC0B204493554F0BC401CC2B26D
:103BB0000248FFF719B80000E86000200C0300205D
:103BC000434C424E434D04F1D0092DED028B9FED45
:103BD000428ADFF808B14FF4805A04F59C7804F566
:103BE0008277307820B1012828D0022866D130E0D1
:103BF000002251465846FDF7F7FD4FF4967002F04B
:103C00009FFE0120C4F800019FED350A4846FFF7EA
:103C1000C9FD4FF4FA7002F093FEB0EE480A404638
:103C200000F06CF8B0EE480A384600F067F8C8209B
:103C300002F086FE012002F035FD3FE00120FFF793
:103C400039F84FF47A7002F07BFE0220FFF732F869
:103C500034E09FED240A4FF47A612348FFF784FD96
:103C6000B4F8D40040F62821A0F5FA60884229D89B
:103C7000A888A0F2DC50642802DD9FED1C0A04E055
:103C800010F1640F1EDA9FED1A0A484600F036F86C
:103C9000C82002F055FE9FED170A384600F02EF8B6
:103CA0009FED150A404600F029F84FF4FA7002F033
:103CB00047FE012251465846FDF796FD012001F0CE
:103CC000A3FE8EE7B0EE480ADFE70000DD0000202B
:103CD000C0500020F04E0020000000000014024000
:103CE00000404E450000C8425850002000004844A3
:103CF000000048C400409C4500409CC502218170E2
:103D000080ED040A704710B54FF0E020006903F021
:103D100045FA012803D0BDE8104002F06FBF10BD86
:103D200030B593B030216846FCF730FC14210CA864
:103D3000FCF72CFC1D480025016841F08051016012
:103D4000006800F0805011901948016841F48041EA
:103D500001600068022400F480401190012003906B
:103D600010200490009406940820CDE90750A82064
:103D7000CDE9090404200B906846FDF715FF08B152
:103D800072B6FEE70CA90F2081E831004FF4A05075
:103D90000F904FF48050109005210CA8FDF7FAFD0C
:103DA000002801D072B6FEE713B030BD40380240A3
:103DB000007000400248016841F4700101607047E2
:103DC00088ED00E00148FEF706BA0000AC010020D3
:103DD0000148FEF700BA0000900500200148FEF7F8
:103DE000FAB900003C0200200148FEF7F4B90000D7
:103DF000F4010020F0B50268254D264E264FDFF86D
:103E00009CC0274B4FF0804EA84209D0704507D088
:103E1000B04205D0B84203D0604501D0984203D1EA
:103E200022F070044A682243A8421BD0704519D082
:103E3000B04217D0B84215D0604513D0984211D087
:103E4000184CA0420ED0184CA0420BD0174CA042E8
:103E500008D0174CA04205D0164CA04202D0164CF8
:103E6000A04203D122F44074CA6822434C6922F074
:103E70008002224302608A68C2620A688262A842A3
:103E800001D0984201D10969016301214161F0BD6E
:103E9000000001400004004000080040000C004009
:103EA000000401400040014000440140004801403E
:103EB00000180040001C00400020004010B584683D
:103EC00042EA032224F47F440A432243826010BD65
:103ED000826822F070020A4342F007018160704755
:103EE000F0B5026A22F001020262026A4368846944
:103EF000114E24F073050C68104F2C4322F002057C
:103F00008A682A43B04201D0B84205D122F00805A0
:103F1000CA682A4322F00402B04201D0B84205D157
:103F20004D6923F440731D438B692B4343608461C7
:103F3000496841630262F0BD000001400004014095
:103F4000F0B5026A22F010020262026A43688469D4
:103F50000D6824F4E64444EA05248D6822F020022A
:103F600042EA05120F4D104EA84201D0B04206D1D0
:103F7000CF6822F0800242EA071222F04002A842F3
:103F800001D0B04207D14D6923F4406343EA850371
:103F90008D6943EA850343608461496881630262F5
:103FA000F0BD00000000014000040140F0B5026ACD
:103FB00022F480720262026A4368C46922F40072C9
:103FC00024F073050C68124E2C438D6842EA0522DA
:103FD0000E4DA84201D0B04206D1CF6822F4006253
:103FE00042EA072222F48062A84201D0B04207D1FF
:103FF0004D6923F4405343EA05138D6943EA0513E1
:104000004360C4614968C1630262F0BD00000140C1
:104010000004014030B5026A22F480520262036A51
:104020004268C4690D6824F4E64444EA05248D68B6
:1040300023F4005343EA0533084DA84202D0084D4B
:10404000A84204D14D6922F4804242EA85124260BE
:10405000C46149680164036230BD00000000014092
:104060000004014010B5046A036A23F001030362EF
:10407000836923F0F00343EA021324F00A020A439F
:104080008361026210BD10B5036A23F0100303625E
:104090008469036A24F4704444EA023223F0A003E2
:1040A00043EA01118261016210BD00000148FEF780
:1040B000CFBA0000840200200148FEF7C9BA000010
:1040C000C802002010B5806B0021C185C184FEF7B5
:1040D000BDFA10BD70B5846B2068406994F83D103E
:1040E000C0F3C0100025212904D118B1E584204671
:1040F00000F0B0F82068406994F83E10C0F38010DA
:10410000222904D118B1E585204600F07CF8206C06
:1041100040F0100020642046FEF798FA70BD10B5FC
:104120000146806B09680968C9052FD40021C18543
:1041300001680C3151E8002F22F4807241E800231D
:10414000002BF5D10168143151E8002F22F0010253
:1041500041E80023002BF5D10168143151E8002F0C
:1041600022F0400241E80023002BF5D1202180F805
:104170003E10016B012909D101680C3151E8002F73
:1041800022F0100241E80023002BF5D1016B012938
:1041900002D0FEF727FD10BD818DFEF709FA10BD94
:1041A00010B5806B016B012902D0FEF71CFD10BD1C
:1041B000818D4908FEF7FCF910BD10B50146806BF2
:1041C00009680968C90516D40021C1840168143141
:1041D00051E8002F22F0800241E80023002BF5D1A6
:1041E00001680C3151E8002F42F0400241E8002301
:1041F000002BF5D110BDFEF73DFD10BD10B5806B55
:10420000FEF739FD10BD01680C3151E8002F22F492
:10421000907241E80023002BF5D10168143151E878
:10422000002F22F0010241E80023002BF5D1016BA1
:10423000012909D101680C3151E8002F22F0100248
:1042400041E80023002BF5D1202180F83E10002109
:104250000163704701680C3151E8002F22F0C00261
:1042600041E80023002BF5D1202180F83D10704754
:1042700008B590F83E10222901D0022008BD8168BF
:104280004FF48053994201D1026922B1826A994266
:104290001BD049B10AE00268816A5268C2F3080281
:1042A0000A80816A891C08E0016971B10168496866
:1042B00001F07F011170816A491C8162C18D491E24
:1042C0000904090CC18503D019E001684968F1E7C8
:1042D0000168CA6822F02002CA600168CA6822F434
:1042E0008072CA6001684A6922F001024A61202195
:1042F00080F83E10016B012903D0FEF773FC00200B
:1043000008BD0021016301680C3151E8002F22F043
:10431000100241E80023002BF5D101680A68D2069B
:1043200002D50A6849680091818DFEF741F9E6E7F8
:1043300070B5044600680169E26821F440511143F8
:104340000161A1682069E26901436069104301438A
:104350002068C26849F20C639A430A43C26020682D
:104360004169A26921F440711143416131492068DA
:10437000884202D03049884202D1FDF7D5FB01E0E6
:10438000FDF7C2FBE2690023192164253226B2F54C
:10439000004F626828D0A0FB0101930F9200FBF749
:1043A000E3FF0146B0FBF5F06FF01802504301EB5C
:1043B000800006EB0010B0FBF5F000F0F002B1FB5E
:1043C000F5F002EB0012B1FBF5F06FF01803584363
:1043D00001EB800006EB0010B0FBF5F000F00F00E1
:1043E00021681044886070BDA0FB010192185B41F8
:1043F000FBF7BAFF0146B0FBF5F00201B1FBF5F0A7
:104400006FF01803584301EB800006EBC000B0FBCF
:10441000F5F000F0F80002EB4002B1FBF5F0584374
:1044200001EB800006EBC000B0FBF5F000F00700E8
:10443000D6E70000001001400014014037B582B0FB
:104440001346039A82628385002504460564222070
:1044500084F83E00A16B1C48C863A16B1B4808642C
:10446000A16B1B48C864A06B05652168A06B091D82
:10447000FDF74AF8206801684068009084F83C50D5
:10448000206948B120680C3050E8001F41F4807169
:1044900040E80012002AF5D12068143050E8001FCF
:1044A00041F0010140E80012002AF5D120681430E3
:1044B00050E8001F41F0400140E80012002AF5D109
:1044C00005B0002030BD00001F410008A1410008D8
:1044D000D54000080148FEF7BBB800000C030020DF
:1044E00006480D210A2200F8CA1F0023427083707B
:1044F00080F8422080F8431070470000C85E00201A
:104500000748552100F8CA1FAA2141700121817076
:104510000D2180F842100A2180F8431070470000F6
:10452000D85F002070B5554C554D2DED088B94ED9E
:10453000031A84ED061AD4ED040AC4ED070A90EDBF
:10454000000A84ED000AD0ED011AC4ED011AD0ED85
:10455000021AC4ED021A90ED032A84ED032AD0ED6D
:10456000041A32EE411AC4ED041AD0ED052A71EE98
:10457000E00AC4ED052A84ED081AC4ED090A85EDA8
:10458000050AD4ED0A1A31EE811A84ED0A1A94ED67
:104590000B1A71EE200AC4ED0B0A9FED3ABADFED5B
:1045A0003ABA60EE0B0A80EEAB0A10EE100A03F086
:1045B000AFFC41EC100B00F01FF995ED050A60EE21
:1045C0000B0A80EEAB0A10EE100A03F0A1FC41ECDE
:1045D000100B00F075F99FED2D8B51EC100B53EC87
:1045E000182B03F06BFA41EC190BA06A03F090FC56
:1045F0009FED28AB53EC1A2B03F0A0FB53EC192BC7
:1046000002F0BAFF02F086FFE86095ED050A60EE61
:104610000B0A80EEAB0A10EE100A03F079FC41ECB5
:10462000100B00F04DF995ED050A60EE0B0A80EED7
:10463000AB0A10EE100A03F06BFC41EC100B00F01B
:10464000DBF853EC182B51EC100B03F037FA41EC6C
:10465000190BE06A03F05CFC53EC1A2B03F06EFBC1
:1046600053EC192B03F06AFB53EC182B02F084FF78
:1046700002F050FF2861BDEC088B70BDAC4E0020ED
:10468000044F0020DB0F49400000344300000000CD
:1046900000005640000000000000000070B5314DE1
:1046A00000EE100A2DED028B85E80F00B8EEC00A6F
:1046B0002D4801F021F9BDEEC00A05F120042A4879
:1046C00084ED000A95ED010A1830B8EEC00A01F039
:1046D00013F9BDEEC00A244884ED010A95ED020AE3
:1046E0003030B8EEC00A01F007F9BDEEC00A1E482E
:1046F00084ED020A95ED030A4830B8EEC00A01F0D5
:10470000FBF8BDEEC08A84ED038A206803F06FF9E0
:104710009FED161B53EC112B03F0D0F99FED151BE9
:1047200053EC112B02F028FF03F032F9103528600A
:10473000606803F05CF99FED111B53EC112B03F043
:10474000BDF99FED101B53EC112B02F015FF03F088
:104750001FF96860A068A86085ED038ABDEC028B34
:1047600070BD000034610020FC00002014AE47E161
:104770007A14FE3F3333333333D354407B14AE4784
:10478000E17AFC3FCDCCCCCCCCCC2740FEE700007E
:104790000448AA2100F8CA1FFF214170022181703C
:1047A00070470000B85D002003B4019841000098F4
:1047B00050EAC12018BF04204A0D18BF40F0010084
:1047C00040F2FF72B2EB515F08BF40F002000128D7
:1047D00008BF052002B070470907090E002804DB56
:1047E00000F1E02080F80014704700F00F0000F1A5
:1047F000E02080F8141D704710B52F499FED2C1B49
:104800002DED020B84B0059820F000408842D8BFFF
:104810009DED040B2DDD2949884209D1049840B94A
:104820004FF00100FBF7E1FE00F0A2FC06B010BD66
:1048300005DB9DED040B00F08FFC06B010BD684653
:104840009DED040B00F0A0F810F0030004BF9DEDF7
:10485000021B9DED000B0CD001280ED09DED021B1C
:104860009DED000B022817D0012000F0DDFB06B003
:1048700010BD00F0A5FA06B010BD9DED021B9DED28
:10488000000B012000F0D0FB51EC100B02F036FEC3
:1048900006B041EC100B10BD00F092FA51EC100B79
:1048A00002F02CFE06B041EC100B10BD0000000021
:1048B0000000000000000000FB21E93F0000F07F45
:1048C00010B52F499FED2C1B2DED020B84B00598E0
:1048D00020F000408842DCBF00209DED040B32DD5B
:1048E0002849884209D1049840B94FF00100FBF7EC
:1048F0007CFE00F03DFC06B010BD05DB9DED040B19
:1049000000F02AFC06B010BD68469DED040B00F0D7
:104910003BF810F0030011D0012818D09DED021BC8
:104920009DED000B02281AD000F04AFA51EC100B52
:1049300002F0E4FD06B041EC100B10BD9DED021B32
:104940009DED000B012000F06FFB06B010BD9DED4A
:10495000021B9DED000B00F033FA06B010BD0120E4
:1049600000F062FB51EC100B02F0C8FD06B041EC08
:10497000100B10BD0000000000000000000000004F
:10498000FB21E93F0000F07F2DE9F14F04462DEDBA
:10499000020B2DED088B8AB09FEDE70B80ED020B2B
:1049A000139EE74826F0004585420ADC9DED120B78
:1049B000002084ED000B0AB0BDEC088B03B0BDE80D
:1049C000F08FE0489FEDE0AB9FEDE1BBA84247DDF3
:1049D000E14F9FEDE39B9FEDE48B9DED120B53ECBC
:1049E0001A2B51EC100B002E1CDD03F0A7F941EC43
:1049F000100BBD4208D053EC1B2B51EC100B03F0F5
:104A00009DF9C4E900010BE053EC192B51EC100B9C
:104A100003F094F953EC182B03F090F9C4E900016A
:104A20000120C8E702F0A8FD41EC100BBD4208D000
:104A300053EC1B2B51EC100B02F09EFDC4E900015E
:104A40000BE053EC192B51EC100B02F095FD53ECDD
:104A5000182B02F091FDC4E900014FF0FF30AAE7E6
:104A6000C348A84279DB9DED120B51EC100B00F00E
:104A70000DFE41EC180B9FEDC00B53EC102B03F017
:104A80001DF89FEDBF1B53EC112B02F075FD02F0DA
:104A90007FFF074602F0ABFF41EC190B53EC1A2BDA
:104AA00003F00CF853EC182B03F03CF941EC180B15
:104AB00053EC1B2B51EC190B03F000F8DFF8C8A2E4
:104AC00041EC100B4FEA15580125FA4453EC102B1A
:104AD00051EC180B03F032F9032DC4E900013DD06D
:104AE000C1F30A5005EB4511A8EB000011398142D2
:104AF00034DA0AEB051BB0EE48AA9BED000BF0EE92
:104B000068AA53EC102B51EC190B02F0D7FF41ECC3
:104B10001B0B51EC1A0B53EC1B2B03F00FF941EC60
:104B2000180B51EC1A0B53EC182B03F007F953EC4C
:104B30001B2B03F003F99BED020B41EC1A0B53EC1A
:104B4000102B51EC190B02F0B9FF53EC1A2B03F0A8
:104B5000F5F841EC100B6D1CB8E70EE0002EA8BF75
:104B60003846BFF628AF94ED000B51EC100B02F065
:104B7000C5FCC4E9000178421DE7C6F3130040F408
:104B8000801EC6F30A50A0F2F530471100F01F0551
:104B9000C5F12000DDF848B008900020069007908D
:104BA0000520EC467949002D07EB0002794408BF47
:104BB00051F8221009D051F8223001EB8201AB40AC
:104BC0004A68089922FA01F11943A1FB0E26A1FBBC
:104BD0000B131A449A4234BF0123002303EB060847
:104BE0000CEB8003D3E901A60E448E4234BF0121B1
:104BF000002192448A4411B1924502D903E09245C2
:104C000001D2012100E00021C3E901A641444CF892
:104C10002010011EA0F10100C4DC029800F1005038
:104C2000850F0298DDE903678000DDF8148002F04B
:104C3000DEFE41EC1A0B304602F0F0FE9FED541BF5
:104C400053EC112B02F03AFF41EC1B0B384602F0FB
:104C5000E5FE9FED511B53EC112B02F02FFF41ECB1
:104C6000180B404602F0DAFE9FED4D1B53EC112B62
:104C700002F024FF41EC190B51EC180B53EC192BEB
:104C800002F07AFC53EC1B2B02F076FC53EC1A2B4F
:104C900002F072FCCDE90801002008909DED080BA0
:104CA00053EC1A2B51EC100B03F048F853EC1B2B70
:104CB00003F044F853EC182B03F040F853EC192B95
:104CC00003F030F89FED381B53EC112B02F0F6FE89
:104CD0009FED370B41EC180B53EC102B9DED080B9F
:104CE00051EC100B02F0EAFE53EC182B02F044FCDE
:104CF0009FED310B41EC180B53EC102B9DED080B85
:104D000051EC100B02F0DAFE53EC182B02F034FCDD
:104D100041EC100B139810F0004F06D06D4251EC8F
:104D2000100B02F0EBFB41EC100B284684ED000B5E
:104D300041E600000000000000000000000000004C
:104D4000FB21E93F7CD9024000004054FB21F93FA0
:104D50003163621A61B4D03DFB21F93F00000000CD
:104D60000000601A61B4D03D7370032E8A19A33B12
:104D7000FB2139410000000083C8C96D305FE43F6A
:104D8000000000000000E03F8A360000D835000037
:104D9000000000000000103E000000000000103C79
:104DA000000000000000103A182D4454FB21F93D8A
:104DB0003326A611460B113C00000054FB21F93D9F
:104DC00010B52DED040B2DED088B82B0B0EE419A9D
:104DD000F0EE619A0B9820F000449FED4BABB4F1DC
:104DE000795F11DA9DED0A0B51EC100B02F0D0FD4A
:104DF000002801BFB0EE4A0AF0EE6A0A02B0BDEC2C
:104E0000088B04BF04B010BD9DED0A0B53EC102BB2
:104E100051EC100B02F052FE41EC180B3C480621FD
:104E2000B0EE480AF0EE680A784400F081F853ECDE
:104E3000182B51EC100B02F041FE9DED0A0B41ECDA
:104E40001B0B53EC192B51EC100B02F037FE41EC0D
:104E5000190B53EC1B2B51EC180B02F02FFE53ECEB
:104E6000192B02F06BFF9FED2C0B41EC190B53EC4F
:104E7000102B51EC180B02F021FE41EC100B2848CE
:104E8000844210DA53EC192B51EC100B02F056FF50
:104E900053EC1A2B02F046FF41EC100B02B0BDECB4
:104EA000088B04B010BD1F48A042BCBF9FED1E1B65
:104EB0008DED001B06DBA4F5001001900020009092
:104EC0009DED001B51EC100B53EC112B02F036FF43
:104ED0009DED000B41EC180B53EC102B51EC1A0B11
:104EE00002F02CFF41EC1A0B53EC192B51EC180B70
:104EF00002F024FF53EC1A2B02F014FF41EC100BCC
:104F0000CCE7000000000000000000000000F03FBF
:104F1000FC32000000000000000000000000E03F44
:104F20003333D33F0000E93F000000000000D23FD0
:104F300070B504462DED028B4D1E00EBC500B0EEA2
:104F4000408AF0EE608A90ED000B35F0060017D035
:104F500053EC182B51EC100B02F0B0FD41EC100B90
:104F60006D1E04EBC50090ED001B51EC100B53ECD3
:104F7000112B02F001FB41EC100B35F00600E7D1DC
:104F8000022D36D0042D1CD0062D1CBFBDEC028B8B
:104F900070BD53EC182B51EC100B02F08FFD94ED0B
:104FA0000A1B53EC112B02F0E7FA53EC182B02F01A
:104FB00085FD94ED081B53EC112B02F0DDFA41EC5A
:104FC000100B53EC182B51EC100B02F077FD94ED05
:104FD000061B53EC112B02F0CFFA53EC182B02F006
:104FE0006DFD94ED040B53EC102B02F0C5FA41EC6F
:104FF000100B53EC182B51EC100B02F05FFD94EDED
:10500000021B53EC112B02F0B7FA53EC182B02F0F1
:1050100055FD94ED001B53EC112B02F0ADFABDECE5
:10502000028B41EC100B70BD31B504462DED040B25
:105030002DED0A8BB0EE41BAF0EE61BA0B989DED02
:105040000A0B20F00040B0F1795F0DDA51EC100B43
:10505000FFF7AAFB042808BF00F09AF89DED0A0BA1
:10506000BDEC0A8B05B030BD53EC102B51EC100B8E
:1050700002F024FD41EC180B9DED0A0B53EC182BAC
:1050800051EC100B02F01AFD41EC190B2C48B0EE5C
:10509000480AF0EE680A05217844FFF749FF9FEDC2
:1050A0002ACBB0EE40AAF0EE60AA9CB353EC1C2BC6
:1050B00051EC190B02F002FD41EC1C0B53EC1A2BC6
:1050C00051EC190B02F0FAFC9FED210B41EC190B8E
:1050D00053EC102B51EC1B0B02F0F0FC53EC192B92
:1050E00002F02CFE53EC182B02F0E8FC53EC1B2BC7
:1050F00002F024FE53EC1C2B02F020FE9DED0A1B57
:1051000053EC112B02F00EFEBDEC0A8B05B041EC06
:10511000100B30BDFFE753EC1A2B51EC180B02F0CB
:10512000CDFC53EC1C2B02F027FA53EC192B02F0A8
:10513000C5FC9DED0A1B53EC112B02F01DFAE3E7B1
:105140008431000000000000495555555555C5BF34
:10515000000000000000E03F10B553EC102B51ECB4
:10516000100B02F009FA41EC100B10BD000000001A
:105170009FED050B10B553EC102B51EC100B02F00A
:10518000AFFA41EC100B10BD000000000000000061
:105190009FED050B10B553EC102B51EC100B02F0EA
:1051A0008DFC41EC100B10BD000000000000001051
:1051B00070B5044690F8660094F8CA10884223D16E
:1051C00094F8670094F8CB1088421DD104F1CF0009
:1051D000182204F168010546FBF769F918222946EF
:1051E0000A48FBF764F994F8800094F80C1188429F
:1051F0000AD194F8810094F80D11884204D1BDE8D9
:1052000070400248FFF78EB970BD00001C6100209D
:1052100010B5354801212DED068BF2EE082AF6EE89
:10522000001AC17080F837109FED318A80F86B103A
:10523000DFED2E8A9FED2F9ADFED2F9A9FED2FAA9B
:1052400080F89F10F0EE683AB0EE483AB0EE492A86
:10525000B0EE481AF0EE690AB0EE4A0A0421284876
:1052600000F03EFD2648F0EE683AB0EE483AF2EE25
:10527000082AB0EE492AF6EE001AB0EE481AF0EE0F
:10528000690AB0EE4A0A0421683000F029FD1C4882
:10529000F0EE683AB0EE483AF2EE082AB0EE492A4B
:1052A000F6EE001AB0EE481AF0EE690AB0EE4A0ABD
:1052B0000421D03000F014FDF0EE683AB0EE483A28
:1052C000B0EE492AB0EE481AF0EE690AB0EE4A0A8A
:1052D000BDEC068BF2EE082AF6EE001A0421BDE8BA
:1052E0001040084800F0FCBC544F0020CDCC4C3E90
:1052F00000000000000080460000804400000046DE
:105300002C5200206453002010B5574801212DED88
:10531000068BC17080F8371080F86B1080F89F10F2
:1053200080F8D3109FED518AF3EE042AF0EE483A4C
:10533000B0EE483ADFED4E8AB0EE682A9FED4D9A06
:10534000B0EE481AF0EE491ADFED4B9AF0EE690A1A
:105350009FED4AAA04214A48B0EE4A0A00F0C0FC78
:10536000DFED483A4648B6EE003AF3EE042AB0EED6
:10537000682AF0EE491AB0EE481AF0EE690AB0EE6B
:105380004A0A0521683000F0ABFCDFED3F9A3C484B
:10539000F0EE483AB0EE693AF2EE0C2AB0EE682A26
:1053A000F0EE491AB0EE481AF0EE680AB0EE680A5C
:1053B0000421D03000F094FCF0EE483AB0EE693AA7
:1053C000F2EE0C2AB0EE682AF0EE491AB0EE481A56
:1053D000F0EE680AB0EE680A04212C4800F080FC68
:1053E0002A48F0EE483AB0EE693AF2EE0C2AB0EEF6
:1053F000682AF0EE491AB0EE481AF0EE680AB0EEEC
:10540000680A0421683000F06BFCDFED229ADFEDC2
:10541000203AB0EE483AF3EE022AB0EE682AF0EEF7
:10542000491AB0EE481AF0EE690A9FED1B0A0421F2
:105430001A4800F055FCB0EE483AB0EE682AF0EE9B
:10544000491AB0EE481AF0EE690ABDEC068B042149
:10545000F2EE0E2A1148BDE81040DFED113A9FED43
:10546000110A683000F03CBCC05000200000000071
:1054700000008046CDCCCC3D0000614400000046D9
:10548000DC570020CDCC4C3ECDCC4C3D14590020F7
:105490000AD7233C0000484400008044B45A00204E
:1054A0009A99993E0000004500B58BB0002001217B
:1054B000CDE90601089100900190029003900590BB
:1054C000049069460C48FBF70DFB0B48FBF755FEB3
:1054D00002210948FBF790FA0E20099005906946D1
:1054E0000648FBF7FFFA0548FBF747FE0221034891
:1054F000FBF782FA0BB000BD5C01002084010020A4
:1055000014489FED130A002180ED0D0A80ED0C0A6E
:1055100080ED0E0A80ED000A80ED010A80ED020A9E
:1055200080ED030A80ED040A80ED050A80ED090A8A
:1055300080ED0A0A80ED0B0A80F84C1080ED0F0A0E
:1055400080ED100A80ED110A80ED120A704700000C
:1055500000000000044F002006489FED050A80ED82
:10556000000A80ED010A80ED020AFEF7BDB90000D5
:1055700000000000044F00202DE9F0470446002100
:1055800090F8660094F8CA200B4604F16A0690422F
:1055900014D194F8670094F8CB2090420ED194F87F
:1055A000680084F8CD0094F8690084F8CE00825D2C
:1055B00084F80121721C805C84F80201208894F830
:1055C000CE200025801F04F1660704F1CF09824236
:1055D0003ADC002002F1040C09E004EB0008401C56
:1055E00098F86680C0B24144C9B20B44DBB284452E
:1055F000F3D84BB394F80101884225D194F8020105
:10560000984221D10120C4F8080116480178491CAC
:10561000017031464846FAF71EFF30B194F8CE20AB
:1056200031464846FAF743FF01E0C4F8045194F8C4
:10563000CD00F12814D0F22812D0F32810D148461A
:10564000BDE8F04700F02EB864213846C4F8045194
:10565000FAF77AFF4846BDE8F0473221FAF774BFFF
:10566000BDE8F087E1000020074908B50A78521C20
:105670000A7048700888ADF8000002226946F220DE
:10568000FEF76CFA08BD0000DF00002082B0CDE913
:10569000000121F0004001909DED000B02B051ECA3
:1056A000100B70470B49D1F80821012A10D191F84D
:1056B000CD10F3290CD1084902780A7042784A705B
:1056C00082788A70C278CA70891E4068C1F8060064
:1056D00070470000B85D0020E10000202B4A9FEDDC
:1056E0002C0ADFED2C0A11882B48A1F5B9639FED38
:1056F0002B1A282B0ED901EE901AF8EE611A30EE13
:10570000612AC2EE201A90ED0C2A61EE821AC0EDD9
:10571000011A05E0A1F2AA51642901D880ED011A0D
:105720005188A1F5B963282B0ED901EE901AF8EE35
:10573000611A71EEC01A81EEA02AD0ED0D1A62EE48
:10574000211AC0ED001A05E0A1F2AA51642901D87E
:1057500080ED001AD188A1F5B962282A0ED901EE90
:10576000101AB8EE411A31EE400A80EE201A90ED80
:105770000E0A21EE000A80ED020A7047A1F2AA513A
:105780006429FAD880ED021A70470000F04E00201C
:105790000080BB440000FA43044F002000000000DA
:1057A00030B5514B9A424DD10468504BA4F20124BC
:1057B000072C47D2DFE804F0040E181D222D3A0012
:1057C0000C8864BA9C804C8864BADC808C8864BA8B
:1057D0001C8137E00C8864BA1C874C8864BA5C87EB
:1057E0008C8864BA9C872DE00C8864BA23F86C4FCF
:1057F00008E00C8864BA23F8A04F03E00C8864BA70
:1058000023F8D44F4C8864BA5C808C8864BA9C803E
:1058100018E00C8864BAA3F808414C8864BAA3F86D
:105820000A418C8864BAA3F80C410BE00C8864BA76
:10583000A3F83C414C8864BAA3F83E418C8864BA12
:10584000A3F840412A4B9A4214D102682948A2F297
:105850000122072A0ED2DFE802F0040E181D282DBF
:105860003A000A8852BA82804A8852BAC28089882D
:1058700049BA018130BD0A8852BA02874A8852BAB1
:105880004287898849BA818730BD0A8852BA20F890
:105890006C2F03E00A8852BA20F8A02F4A8852BA27
:1058A0004280898849BA818030BD0A8852BA20F87E
:1058B000D42FF3E70A8852BAA0F808214A8852BACE
:1058C000A0F80A21898849BAA0F80C1130BD0A88CD
:1058D00052BAA0F83C214A8852BAA0F83E218988E1
:1058E00049BAA0F8401130BD5C010020544F00209F
:1058F00084010020C0500020D0ED000A90ED041A71
:1059000070EE810AC0ED010A90ED051A70EE811A61
:1059100080EEA11A80ED031AD0ED021A30EE612A52
:10592000B0EE610AF7EE001A01EE020A31EEC11A7A
:1059300061EE200A80ED020AC0ED000A7047000007
:10594000FBF766FFFEF7ECF9FDF758FBFDF7CAFA27
:10595000FDF780FAFDF7A2FAFDF732FCFDF7C8FB70
:10596000FDF7FAFBFDF760FCFDF796FCFDF778FC10
:105970001B48FCF781FBFEF70BFFFEF7B1FDFEF7BE
:10598000BFFD642217491848FCF7E3FD174800687B
:10599000016821F008010160642215491548FCF7EF
:1059A000D8FD15480068016821F0080101606422F3
:1059B00012491348FCF7CDFD12480068016821F038
:1059C00008010160FFF770FDFFF722FCFFF79CFC68
:1059D00000F028F8FDF7CCFA00F036F8FEE70000FA
:1059E000AC0100201E5E00200C03002030050020CA
:1059F0002E5F002084020020500300203E60002023
:105A0000C80200201004002010B5EFF3058111B189
:105A10006FF0050403E0002408B100F091FF204678
:105A200010BD0000EFF3058010B16FF00500704766
:105A30000448016811B14FF0FF3070470121016047
:105A4000002070478400002010B5EFF3058010B1EE
:105A50006FF0050010BD08480168012902D04FF021
:105A6000FF3010BD054A002182F8141D022101609B
:105A700000F0CEFF002010BD840000200BE000E00D
:105A80002DE9FF410B464FF00005EFF3058103952B
:105A900049BB40B38026182100244AB3176807B1D8
:105AA0003C46976907B139464F1E382F02D2177905
:105AB000FF0703D0002004B0BDE8F081576907B1AB
:105AC000BE08D2F808C0BCF1000F0DD0D5685C2D1F
:105AD00018D312693AB137B18DE806103246214623
