:020000040800F2
:10000000F07C002029030008055800083934000856
:10001000434C000831070008F567000800000000A5
:10002000000000000000000000000000690200085D
:10003000F709000800000000C5020008335E000850
:100040004303000843030008430300084303000878
:100050004303000843030008430300084303000868
:100060004303000843030008430300084303000858
:100070008D0800084303000899080008430300089E
:10008000A5080008B108000843030008430300085E
:10009000350700084303000843030008F909000876
:1000A0004303000843030008430300084303000818
:1000B000F15E0008FD5E00084303000843030008EA
:1000C00043030008430300084303000843030008F8
:1000D0004303000815650008216500082D65000828
:1000E00043030008430300084303000843030008D8
:1000F00043030008430300084303000843030008C8
:1001000043030008430300084303000843030008B7
:100110003D600008496000084303000843030008ED
:1001200043030008BD080008C9080008430300088D
:100130004303000843030008430300084303000887
:100140004107000843030008430300084303000875
:1001500043030008D5080008E108000839650008D5
:100160004303000843030008430300084303000857
:100170004303000843030008430300080000000095
:10018000430300084303000800F002F800F05CF8A5
:100190000AA090E8000C82448344AAF10107DA45E2
:1001A00001D100F051F8AFF2090EBAE80F0013F0D8
:1001B000010F18BFFB1A43F00103184734D00000A9
:1001C00054D000000A444FF0000C10F8013B13F02B
:1001D000070408BF10F8014B1D1108BF10F8015BA0
:1001E000641E05D010F8016B641E01F8016BF9D193
:1001F00013F0080F1EBF10F8014BAD1C0C1B09D1EA
:100200006D1E58BF01F801CBFAD505E014F8016B5B
:1002100001F8016B6D1EF9D59142D6D370470000ED
:100220000023002400250026103A28BF78C1FBD8FF
:10023000520728BF30C148BF0B6070471FB50CF094
:100240001CFE1FBD10B510BD00F010FA1146FFF7DF
:10025000F5FF09F0F5FC00F02EFA03B4FFF7F2FF0A
:1002600003BC00F031FA00002C4B19680868B0E8B4
:10027000F04F80F30988BFF36F8F4FF0000080F3D9
:10028000118870470000000008480068006880F38B
:1002900008884FF0000080F3148862B661B6BFF39F
:1002A0004F8FBFF36F8F00DF00BF00BF08ED00E08E
:1002B000DFF80C00016841F470010160704700BF75
:1002C00088ED00E0EFF30980BFF36F8F134B1A68DE
:1002D0001EF0100F08BF20ED108A20E9F04F1060CB
:1002E00009B44FF0500080F31188BFF34F8FBFF374
:1002F0006F8F0BF04FFA4FF0000080F3118809BCAC
:1003000019680868B0E8F04F1EF0100F08BFB0EC95
:10031000108A80F30988BFF36F8F70474C0000206C
:10032000EFF30580704700000948804709480047FF
:10033000FEE7FEE7FEE7FEE7FEE7FEE7FEE7FEE795
:10034000FEE7FEE704480549054A064B70470000F2
:10035000E15E000889010008F0760020F07C0020B2
:10036000F0780020F078002053EA020C00F0698059
:100370002DE9F04B4FF00006002B1FBFB3FA83F5B9
:1003800003FA05F424FA05F65E4012BF1643B2FAEA
:1003900082F502FA05F4C5F120051EBF22FA05FC1C
:1003A00044EA0C04203556EA044C4FEA144418BFC2
:1003B000641C4FF000084FF00009904271EB030CF1
:1003C00039D3002919BFB1FA81F701FA07F6B0FA5B
:1003D00080F700FA07F6C7F120071EBF20FA07FCD6
:1003E00046EA0C062037B6FBF4FCA7EB0507103FE6
:1003F00007F01F0BCBF120060CFA0BFB2CFA06F6CC
:1004000044BFB3460026202FA4BF5E464FF0000B2A
:100410005BEA060C08BF4FF0010B19EB0B09ABFBB5
:10042000027C48EB0608C01B06FB02CC0BFB03CC8E
:1004300071EB0C01C1E70B46024641464846BDE858
:10044000F08B13B54FF000004FF00001AFF30080C8
:10045000BDE81C40704740EA010310B59B070FD16F
:10046000042A0DD310C808C9121F9C42F8D020BA24
:1004700019BA884201D9012010BD4FF0FF3010BDDC
:100480001AB1D30703D0521C07E0002010BD10F8AA
:10049000013B11F8014B1B1B07D110F8013B11F870
:1004A000014B1B1B01D1921EF1D1184610BD032A2E
:1004B00040F2308010F0030C00F0158011F8013B81
:1004C000BCF1020F624498BF11F801CB00F8013B68
:1004D00038BF11F8013BA2F1040298BF00F801CB2C
:1004E00038BF00F8013B11F0030300F08480083AA4
:1004F000C0F0088051F8043B083A51F804CBA0E85A
:100500000810F5E7121D5CBF51F8043B40F8043BAE
:10051000AFF30080D20724BF11F8013B11F801CBE3
:1005200048BF11F8012B24BF00F8013B00F801CBB4
:1005300048BF00F8012B704702F0FF0343EA032293
:1005400042EA024200F002B84FF000020429C0F073
:10055000128010F0030C00F01B80CCF1040CBCF1F5
:10056000020F18BF00F8012BA8BF20F8022BA1EB47
:100570000C0100F00DB85FEAC17C24BF00F8012B2C
:1005800000F8012B48BF00F8012B70474FF0000224
:1005900000B5134694469646203922BFA0E80C5079
:1005A000A0E80C50B1F12001BFF4F7AF090728BF54
:1005B000A0E80C5048BF0CC05DF804EB890028BFD0
:1005C00040F8042B08BF704748BF20F8022B11F0F9
:1005D000804F18BF00F8012B704770477047704775
:1005E00010B500F03BF8006810BD10B5044600F0EF
:1005F00035F8046010BD10B5203AC0F00B80B1E8AA
:100600001850203AA0E81850B1E81850A0E8185047
:10061000BFF4F5AF5FEA027C24BFB1E81850A0E850
:10062000185044BF18C918C0BDE810405FEA827C6A
:1006300024BF51F8043B40F8043B08BF7047D20781
:1006400028BF31F8023B48BF11F8012B28BF20F822
:10065000023B48BF00F8012B70470000004870477C
:100660009076002000487047907600207546FFF78E
:10067000F9FFAE4605006946534620F0070085465F
:1006800018B020B5FFF75EFEBDE820404FF0000631
:100690004FF000074FF000084FF0000B21F007016A
:1006A000AC46ACE8C009ACE8C009ACE8C009ACE8AD
:1006B000C0098D46704710B50446AFF30080204650
:1006C000BDE81040FFF7C9BD01491820ABBEFEE7E9
:1006D000260002007047000010B5114CE178491C5B
:1006E000C9B2E170642916D290ED000A0D4A10EEED
:1006F000101ADFED0D0A914202DD30EE600A06E0CD
:1007000010EE101A094A914205D930EE200A80ED08
:10071000000AFFF7E1FFE078401EE07010BD000026
:1007200048010020000034430000B443000034C3FB
:10073000FEE70000014800F004BD0000EC040020CA
:10074000014800F0FEBC0000140500202DED048BD4
:100750009FED128A124D134CDFED138A9FED139A11
:10076000287820B101280BD0022809D00EE084EDB2
:100770000D8A84ED0C8A84ED0E8A08F087FB05E073
:10078000C4ED0D8AC4ED0C8A84ED0E9A00F050F988
:1007900005F004F9012009F015FDE1E70000000073
:1007A0000A010020FC5300200000C8440000FA4465
:1007B000DFF8A490294DDFF8A8A02A4C2A4FDFF8D3
:1007C000ACB0DFF8AC80287899F800104E4688422B
:1007D00003D008F0E7FB287830709AF80200A1688F
:1007E0005646884203D1B878E168884206D0287816
:1007F00008F0D8FBB078A060B878E0601D484646A5
:10080000007888F803009BF8000009F0C3FC307101
:10081000194809220078707118480078B07118489A
:100820000078F07117480078307270783178401A8B
:10083000B07015490E48FFF70EFE40B108F092FD6A
:1008400011483168016071684160317A0172642039
:1008500009F0B8FCB7E70000440100200B010020BC
:1008600014040020000000201C0400200E010020C1
:10087000416E0020080100204801002049010020AD
:100880004A0100200D010020386E0020014800F0D0
:1008900037BF0000F0080020014800F031BF000021
:1008A00050090020014800F02BBF00003008002054
:1008B000014800F025BF000090080020014800F02A
:1008C0001FBF0000B0090020014800F019BF000060
:1008D000D0070020014800F013BF0000100A0020DC
:1008E000014800F00DBF00007007002001681823C8
:1008F000CAB2103AB2FBF3F2054B6FF30901032AB7
:100900009B5CC36500D9091D8165084670470000DE
:10091000B0CF000810B5014600208B698A6A4FF0FD
:10092000C07453B1B3F5005F15D072B1012A0CD079
:10093000022A0AD0032A09D104E01AB1012A06D0FA
:10094000022A03D1C96AC90100D5012010BDC96AB4
:10095000A142FAD010BD002AF7D0012AF2D0022A13
:10096000F3D0032AF3D010BD30B50468256825F410
:1009700080252560046863608368402B036803D08A
:1009800099600068C26030BD9A600068C16030BD87
:1009900070B5044690F8660094F8CA10884229D1D0
:1009A00094F8670094F8CB10884223D194F868003B
:1009B00084F8CE00102204F1690104F1CF00FFF7A2
:1009C00076FD94F87A0094F80C61D4F8CF50D4F8FE
:1009D000D310D4F8D720D4F8DB30B0420AD194F841
:1009E0007B0094F80D41A04204D12846BDE8704038
:1009F00005F060BE70BD7047802001F037B872B658
:100A0000FEE70000084F0125084C00260421384667
:100A100001F020F908B1256000E026600AF000FC32
:100A2000012009F0CFFBF1E7000002401401002093
:100A300010B566492DED048B0888A0F2AA529FEDEF
:100A4000640ADFED640A9FED641A644C642A0ED9CF
:100A500001EE900AF8EE611A31EEC02AC2EE201AB9
:100A600094ED0D2A61EE821AC4ED061A01E084EDC0
:100A7000061A4888A0F2AA52642A0ED901EE900AFA
:100A8000F8EE611A71EEC01A81EEA02AD4ED0C1AAC
:100A900062EE211AC4ED071A01E084ED071AC88836
:100AA000A0F2AA5164290ED901EE100AB8EE411A3B
:100AB00031EE400A80EE201A94ED0E0A21EE000A73
:100AC00084ED080A01E084ED081A94ED050A9FED13
:100AD000449A60EE090ADFED438A80EEA80A10EE20
:100AE000100A0CF059F941EC100B06F0E5FA51EC44
:100AF000100B0BF087FB94ED050A08EE100A60EE70
:100B0000090A80EEA80A10EE100A0CF045F941EC33
:100B1000100B06F035FB51EC100B0BF073FB00EEE5
:100B2000100A94F84C00DFED301A9FED301A0128BE
:100B300011D0D4ED060A2E48F5EEC00AF1EE10FAF7
:100B400028D194ED070AB5EEC00AF1EE10FA21D1D2
:100B5000C0ED001A2CE0D4ED090A94ED0A1A94EDC8
:100B6000062A60EE881A41EE401A20EE800A01EE55
:100B7000080A71EE821AC4ED001AD4ED070A30EEAD
:100B8000200A84ED010A94ED080AD4ED0B0A30EE38
:100B9000200A15E090ED000A10EE101AB1F17E5F08
:100BA00002DA30EE010A01E0B7EE000A80ED000A39
:100BB000C4ED000A94ED070A84ED010A94ED080AD9
:100BC00084ED020ABDEC048B10BD0000E853002048
:100BD0000080BB440000FA4300000000FC530020EA
:100BE000DB0F494000003443CDCCCC3D6F12833A3B
:100BF0000401002010B500231A4603E050F82240FB
:100C0000521C23448A42F9DB93FBF1F010BD000033
:100C100008B5514D514EDFF848915248524CDFF81B
:100C20004CA1DFF84CB100905248007830B1012857
:100C30000ED0022835D003285FD162E09FED4E0A26
:100C4000009804F005FE4D4941F28830086054E0F8
:100C5000DBF800005F4610B1012804D007E0A88847
:100C60002080B08802E0288A2080308A608000F0EE
:100C70008BF84349D9F80000884210DC414988428A
:100C80000DD8D0469AED000A009804F0E1FD30B18D
:100C900098ED000A009804F0DBFD84F821000121A2
:100CA00057E0DBF80000D84610B1012804D007E077
:100CB00028892080308902E0A88A2080B08A60805C
:100CC00000F062F82E49D9F80000884210DC2D4966
:100CD00088420DD857469AED000A009804F0B8FDF6
:100CE00030B197ED000A009804F0B2FD84F82100BD
:100CF0000221D8F8000007F0D1FC0A2009F062FABE
:100D000092E7DBF800005F4610B1012804D007E04D
:100D1000A8892080B08902E0288B2080308B6080F9
:100D200000F032F81649D9F80000884210DC154965
:100D300088420DD8D0469AED000A009804F088FD4C
:100D400030B198ED000A009804F082FD84F821008B
:100D500003213868CFE70000240200204002002071
:100D60001C020020505B00201068002020020020A0
:100D7000140100200D01002000404E45000200201B
:100D800000000C4300000CC310B52B4CB4F900005C
:100D9000B4F9021000EE100A2848B8EEC00AD0EDEF
:100DA000030A90ED041A70EE600A00EE101AB8EE15
:100DB000C00A30EE411A80EE810A84ED020A10EE7C
:100DC000100A0BF0E9FF41EC100B06F009F89FED5B
:100DD0001C1B51EC100B53EC112B0BF0E7FC9FED9F
:100DE0001A1B53EC112B0BF0F3FA41EC100B1848C3
:100DF00084ED040BB7EE001A84ED061AB0F8D401A6
:100E000001EE100A51EC100BB8EE411A84ED071AEE
:100E10000BF0F8F900EE100A9FED0F1A0D48C0EE26
:100E2000010A80ED090A90ED030A9FED0C1A00EE0D
:100E3000C10A80ED0A0A10BD10680020FC53002092
:100E400000000000008066401F85EB51B81E09407D
:100E500080590020F80100200000B4430000004643
:100E600090F82020012A07D0022A05D0416A41F4D7
:100E70008021416201207047006842690A43426153
:100E800000207047F0B590F820500468A468012D48
:100E900005D0022D03D0416A41F4802153E014F0C3
:100EA000406F01D1E5004BD5C4F30164022C03D996
:100EB000416A41F4000146E00125A5401D608B68B0
:100EC0004FF4C0759BB1CE6833434E6843EAC60306
:100ED000066805EB0417F3514FF4C273076803EB80
:100EE00004130E69FE50097D012905D009E00E8822
:100EF000CB6843EA4653EBE70168CE5846F4807668
:100F0000CE501179D2F805304FF4C67641EA03236A
:100F1000016806EB04168B511178D2F801204FF4CA
:100F2000C47341EA0221026803EB0413D150006844
:100F300005EB0411425842F0010242500020F0BD7E
:100F4000416A41F4001141620120F0BD10B590F8F2
:100F50002020012A07D0022A05D0416A41F48021CD
:100F60004162012010BD3B48D0F8002242F001024E
:100F7000C0F80022D0F8002222F47C52C0F80022EF
:100F8000D0F800224B6A42EA0322C0F800220A7D10
:100F900002F01F0301229A40D0F81C329343C0F89C
:100FA0001C32CB69B3B9D0F80C329343C0F80C3281
:100FB0008C894B6864F31F434C6900EBC404C4F88C
:100FC00040320C890B6864F31F434C6900EBC40486
:100FD000C4F84432CB69012B16D1D0F80C3213433C
:100FE000C0F80C320C884B6864F31F434C6900EB6B
:100FF000C404C4F840320C89CB6864F31F434C69C5
:1010000000EBC404C4F844328B69002BD0F80432DE
:101010000ED01343C0F804320B69002BD0F8143201
:1010200008D01343C0F81432096A012904D008E03B
:101030009343EFE79343F5E7D0F81C121143C0F850
:101040001C12D0F8001221F00101C0F8001200209B
:1010500010BD000000640040704730B590F820409B
:10106000012C05D0022C03D0416A41F480215DE0BF
:101070000468002955D02469A40754D04FF4D874CB
:10108000056804EB01142D5915F0040595600568F9
:101090002D594ED0ED08556005682C5904F0020416
:1010A000D4604FF4DA74056804EB01142D5905F08F
:1010B0000F05156105682D59C5F30725956105686C
:1010C0002C59240C54614FF4DC72046802EB0112B9
:1010D000A4581C700468A458240A5C700468A458BE
:1010E000240C9C700468A258120EDA704FF4DE7261
:1010F000046802EB0112A4581C710468A458240A65
:101100005C710468A458240C9C710468A258120EE7
:10111000DA71006881B1016941F0200101610020AC
:1011200030BDE468A8E7416A41F400114162012042
:1011300030BD6D0D1560AFE7C16841F02001C160A1
:10114000EDE72DE9F05F0546006800244669D0F818
:1011500004908768D0F80CB0D0F810A0D0F81880B0
:10116000F10748D0F90714D001218160B80703D5F1
:10117000284600F062FA0CE0780702D54FF40064CC
:1011800007E0380702D54FF4805402E0284600F00B
:1011900053FAF80516D529684FF480708860B805B1
:1011A00003D5284600F04BFA0CE0780502D544F44C
:1011B000005407E0380502D544F4804402E0284694
:1011C00000F03CFAF80316D529684FF480308860A7
:1011D000B80303D5284600F034FA0CE0780302D5B2
:1011E00044F4004407E0380302D544F4803402E0BC
:1011F000284600F025FA300707D55FEACB6004D512
:101200002968102044F40074C86070074FF0080784
:1012100007D55FEA0B7004D52868C760284600F040
:1012200099F9B00706D52868C068800702D028461B
:1012300000F092F9700607D55FEACA6004D5296804
:10124000102044F480640861B00607D55FEA0A7094
:1012500004D528680761284600F0C0F9F00606D5D5
:1012600028680069800702D0284600F0B8F9B0036A
:1012700008D55FEAC96005D529681020486028466E
:1012800000F0AEF9F00307D55FEA097004D52868CD
:101290004760284600F0D6F9300446D55FEA497029
:1012A00040D5F00504D55FEAC87001D044F00104D0
:1012B000B00504D55FEA887001D544F002047005DA
:1012C00004D55FEA487001D544F00404300529D5FF
:1012D00018F0700F26D008F07000402815D006DCFA
:1012E000102809D020280AD0302816D10AE050282A
:1012F0000ED0602811D10EE044F008040DE044F057
:1013000010040AE044F0200407E044F0400404E044
:1013100044F0800401E044F480742868816921F07D
:1013200070018161296804204860002C05D0686A3A
:10133000204368622846FFF78FFEBDE8F09F70B536
:10134000040003D094F8200010B104E0012070BD27
:10135000204600F081F82068016841F00101016039
:1013600000F082FC0546052604E000F07DFC401BF1
:101370000A2811D820684068C007F6D020680168A4
:1013800021F00201016000F06FFC05460BE000F067
:101390006BFC401B0A2806D9606A40F4003060628A
:1013A00084F82060D2E7206840688007EFD4207E70
:1013B0000128206801683DD021F080010160607E35
:1013C00001282068016838D021F040010160A07E2A
:1013D00001282068016833D021F020010160E07EFF
:1013E0000128206801682ED041F010010160207FA3
:1013F00001282068016829D021F008010160607F80
:1014000001282068016824D021F004010160D4E99A
:1014100002010843D4E90412114308436168491EDC
:1014200008432168C86100206062012084F8200020
:10143000002070BD41F08001C0E741F04001C5E7E8
:1014400041F02001CAE721F01001CFE741F0080187
:10145000D4E741F00401D9E7F0B587B00446142180
:101460006846FFF793F83649364ADFF8D0E0086857
:10147000D4F800C0334B022403250926103200277C
:10148000401CF44523D10860012807D1106840F0C2
:1014900000701060106800F000700590186840F04F
:1014A000010018601868694600F0010005904FF4CB
:1014B000C0508DE89100CDE90356234800F0E2FAD0
:1014C00000220221142000F065FD142032E0DFF834
:1014D0007CE0F44530D1D2F800C04CF0806CC2F80A
:1014E00000C0D2F800C001280CF0806CCDF814C008
:1014F000086007D1106840F000701060106800F0BC
:1015000000700590186840F002001860186869467D
:1015100000F0020005904FF440508DE89100CDE9B5
:1015200003560B4800F0AEFA00220321402000F0E1
:1015300031FD402000F020FD07B0F0BD0064004008
:1015400038000020303802400000024000680040AF
:10155000000402407047000070B505461B488CB07F
:10156000854216D107AB6A460021FFF776FD174A80
:1015700007A9684607F010FE154E002404EB44004E
:10158000C0EB441006EB800004F080F9641C072CCB
:10159000F4DB1048854216D109AB6A460021FFF7FB
:1015A0005CFD0C4A09A9684607F0F6FD0A4D0024C7
:1015B00004EB4400C0EB441005EB800004F066F936
:1015C000641C072CF4DB0CB070BD0000EC040020A0
:1015D00054560020140500208059002070477047A1
:1015E000704770B5044690F82000012804D0606A66
:1015F00040F40020606217E0022084F82000206898
:10160000016821F00101016000F02EFB05460DE0AC
:1016100000F02AFB401B0A2808D9606A40F4003019
:101620006062052084F82000012070BD20684068B9
:10163000C007EDD1606270BD70477047704770475A
:101640007047704770472DE9F0410446876D00F000
:101650000BFB054694F835000026022806D08020B2
:10166000606584F834600120BDE8F081206801687D
:1016700021F0160101602068416921F0800141617B
:10168000206C08B9A06C20B12068016821F0080125
:1016900001602068016821F0010101600CE000F0A8
:1016A000E3FA401B052807D920206065032084F851
:1016B000350084F83460D7E720680068C007EED1B1
:1016C00094F85C103F208840B860012084F8350011
:1016D00084F834600020C7E790F83510022903D061
:1016E0008021416501207047052180F83510006890
:1016F000016821F00101016000207047406D7047D2
:101700002DE9F84304464FF00009CDF800906348F6
:101710004FF41651A56D0068B0FBF1F72E6894F8F0
:101720005C20082101FA02F030420FD020680268E4
:1017300052070BD5026822F00402026094F85C00A4
:101740008140A960606D40F00100606594F85C1014
:101750004FF0010808FA01F0304208D021684969C9
:10176000090604D5A860606D40F00200606594F839
:101770005C1004208840304208D02168096889073D
:1017800004D5A860606D40F00400606594F85C10BA
:1017900010208840304218D021680968090714D504
:1017A000A86020680168490304D50068000308D5D3
:1017B000A16C07E00168C90503D4016821F00801A4
:1017C0000160216C09B12046884794F85C10202004
:1017D0008840304231D021680968C9062DD5A860FB
:1017E00094F8350005282068016806D0490347D5DC
:1017F000006800031DD4616C1CE021F0160101603B
:101800002068416921F080014161206C08B9A06C19
:1018100020B12068016821F00801016094F85C1093
:101820003F208840A86084F8358084F83490216D8A
:101830001FE0E16B09B120468847606D00282BD07E
:10184000606DC00714D0052084F835002068016859
:1018500021F0010101600098401C0090B84203D8BB
:1018600020680068C007F6D184F8358084F8349089
:10187000E16C002910D001B02046BDE8F0430847D4
:101880000168C905D5D4016821F01001016084F810
:10189000358084F83490CCE7BDE8F8834800002018
:1018A0002DE9F041044600F0DFF905465CB1022065
:1018B00084F83500002684F834602068016821F03F
:1018C000010101600DE00120BDE8F08100F0CCF9DC
:1018D000401B052805D920206065032084F83500C9
:1018E000F2E720680068C007F0D121680A68204844
:1018F0000240D4E901031843D4E903352B431843CC
:1019000063691843A3691843E3691843236A1843BA
:101910001043626A042A03D1D4E90B231A4310430B
:10192000086020684069656A20F0070128460D4379
:10193000012704280CD1A06A0543E06A40B1204683
:10194000FEF7E8FF20B14020606584F83570BAE703
:10195000206845612046FEF7C9FF94F85C203F21CE
:1019600091408160666584F835700020ACE7000026
:101970003F8010F02DE9F0410446866D90F8340068
:10198000002501280DD0012084F8340094F835702A
:101990000020012F07D084F8340002252846BDE836
:1019A000F0810220FBE7022784F83570606520464D
:1019B000FEF7DAFF94F85C103F208840B0602068A2
:1019C000016841F016010160206C20B120680168B7
:1019D00041F0080101602068016841F001010160E7
:1019E000DCE7000070B51F4C80280DD16169C0058F
:1019F0002161426AA06840F27123584302EB001053
:101A00006061E060401AA080607800250121012813
:101A1000A08840F6980205D0904202D36170A5706C
:101A2000257070BD904203D36170A570217070BDA8
:101A3000A0F2B63140F24C42914210D80A4AA17845
:101A400022F81100491CC8B2A0700828EFD306493B
:101A5000420001F11400FEF72AFDA57070BD65700B
:101A600070BD0000DC000020D4530020044910B5F4
:101A70000A68024202D00860FFF7B4FF10BD000000
:101A8000143C01402DE9F84FDFF89C910022A9F1A8
:101A9000040B03274FF00F0C09F1040AABF1040EFD
:101AA00001250B6895402B40AB426ED10C7904F0B8
:101AB0000304012C01D0022C15D18668540007FACA
:101AC00004F826EA0806D1F80C8008FA04F848EA77
:101AD0000608C0F808804468AC430D79C5F30015CA
:101AE0009540254345600C79E443A40708D0C568B8
:101AF000540007FA04F6B5438E68A6402E43C6602C
:101B00000C7904F00304022C11D1D40800EB8406F4
:101B1000356A5407E40E0CFA04F825EA0805D1F8F2
:101B2000108008FA04F848EA0508C6F8208005681D
:101B3000540007FA04F6B5430E7906F00306A640F2
:101B40002E4306604C6814F4403F66D0374C25683D
:101B500045F480452560246822F0030504F48044A0
:101B60000094334C05EB0408D8F808589407260F66
:101B70000CFA06F4A5432F4CA04201D1002424E026
:101B80002D4CA04202D101241FE046E02B4CA04284
:101B900001D1022419E02A4CA04201D1032414E00F
:101BA000284CA04201D104240FE0274CA04201D1CF
:101BB00005240AE0254CA04201D1062405E0244C6E
:101BC000A04201D1072400E00824B4402C43C8F807
:101BD0000848D9F800404D464E689C43F60200D5AF
:101BE0001C432C60DAF8004055464E689C43B60210
:101BF00000D51C432C60DBF800405D464E689C43DA
:101C0000B60300D51C432C60DEF8004075464E68D4
:101C10009C43F60300D51C432C60521C102AFFF491
:101C20003FAFBDE8F88F0000083C01404438024057
:101C30000030014000000240000402400008024061
:101C4000000C024000100240001402400018024044
:101C5000001C02400069084000D0012070470AB112
:101C6000816170470904FBE7014880687047000004
:101C70003C00002070B5040025D094F83D000025FC
:101C800020B984F83C50204600F0B8F8242084F8AD
:101C90003D002068016821F00101016020680168B1
:101CA00041F4004101602068016821F400410160B5
:101CB00000F05CFA4D4B6168994201D84C4900E054
:101CC0004C49884201D2012070BD4B492268B0FBCB
:101CD000F1F1566826F03F060E43566062689A425C
:101CE00006D94FF4967251434FF47A72B1FBF2F178
:101CF0002268491C166A26F03F063143116261686A
:101D0000994210D84900401EB0FBF1F2521CC2F3B8
:101D10000B02042A01D2042022E0B0FBF1F0401CA7
:101D2000C0F30B001CE0A268F2B301EBC10303EBAC
:101D30000116431EB3FBF6F35B1C43F480431B0503
:101D400049D092B301EBC10202EB0111401EB0FB7E
:101D5000F1F0401CC0F30B0040F4804040F4004020
:101D60002168CA694CF6FF739A431043C861D4E9ED
:101D7000071001432068026822F0C002114301608D
:101D8000D4E9030101432068826848F2FF339A4393
:101D900011438160D4E9051001432068C26822F034
:101DA000FF021143C16001E00EE016E02068016807
:101DB00041F0010101602564202084F83D00256385
:101DC00084F83E50002070BD01EB4106431EB3FB7A
:101DD000F6F35B1CB3E70120C2E701EB4101401EB3
:101DE000B0FBF1F0401CC0F30B00B7E7A086010088
:101DF00080841E0000093D0040420F0010B586B0EF
:101E0000044614216846FEF7C1FB13492068884246
:101E100020D112480021026842F0020202600068EC
:101E200000F002000590C02000901220CDE90101D1
:101E3000032003900420049069460948FFF722FE1E
:101E400006481030016841F400110160006800F498
:101E50000010059006B010BD00540040303802401C
:101E60000004024002488168027811448160704792
:101E70003C0000200B4810B5016841F4007101607E
:101E8000016841F480610160016841F48071016082
:101E9000032000F09FF80F2000F006F800F050F843
:101EA000002010BD003C024030B505461F4887B0F9
:101EB0000024016841F002010160006806A900F0F9
:101EC00002000590684600F031F90398A8B100F0CF
:101ED0004DF940001649174AB0FBF1F11648491E6A
:101EE000026040F2E732C0E90324C0E901148461D2
:101EF00000F082FB040003D015E000F037F9E9E7B9
:101F00000D4800F0C3FB04000DD11D2000F034F893
:101F1000102D07D2002229461D2000F03BF807486B
:101F2000056000E0012407B0204630BD4038024083
:101F300040420F0000040040700A002040000020D2
:101F40000C4882B0016841F480410160006800F4EF
:101F5000804000900748001F016841F080510160F7
:101F60000068002200F0805000900F21901E02B007
:101F700000F010B844380240002809DB00F01F02CE
:101F8000012191404009800000F1E020C0F80011DB
:101F900070470000F0B40E4B1B68C3F30223C3F17B
:101FA0000704042C00D904241D1D072D01D2002391
:101FB00000E0DB1E012606FA04F56D1E0D409D4073
:101FC0009E40761E164045EA0601F0BC04F0F6BEBF
:101FD0000CED00E0064A00F0070110684FF6FF0321
:101FE000184040EA01200349084310607047000090
:101FF0000CED00E00000FA052DE9F0470D46040065
:1020000065D0DFF81491D9F80000EFB200F00700B6
:10201000A84207D289F80070D9F8000000F0070044
:10202000A84254D120683D4E810712D5400703D500
:10203000306840F4E05030602078000703D5306805
:1020400040F4604030603068A16820F0F000084340
:1020500030602078C0072DD03049606808390128E9
:1020600012D0022813D0032811D00968890700294B
:102070002DDA316821F0030101433160FFF7F4FDEF
:10208000804641F2883A0EE009688903EFE7096863
:102090008901ECE7FFF7E8FDA0EB0801514502D903
:1020A0000320BDE8F0873068616800F00C00B0EBF9
:1020B000810FEFD1D9F80010484601F00701A9427D
:1020C00007D90770006800F00700A84201D001207E
:1020D000E7E72078400705D53068E16820F4E05054
:1020E000084330602078000706D53068216920F465
:1020F000604040EAC100306000F058F83168084A9A
:10210000C1F30311515CC8400649086006480068E5
:10211000FFF7CAFE0020C4E7003C02400838024036
:10212000B8CF000848000020400000200F220260C5
:102130000C4A136803F003034360136803F0F003D1
:102140008360136803F4E053C36012684FF4E053F4
:1021500003EAD20202610448006800F00700086048
:102160007047000008380240003C0240044805491E
:1021700000680968044AC1F38221515CC840704775
:102180004800002008380240C8CF0008044805492C
:1021900000680968044AC1F34231515CC840704785
:1021A0004800002008380240C8CF0008154810B584
:1021B000006810F00C01144813D0431004290FD00C
:1021C00008290ED10F4C241F216801F03F0221681D
:1021D000490207D52068C0F38810A0FB030106E080
:1021E000184610BD2168C1F38811A1FB000100232E
:1021F000FEF7BAF82168C1F30141491C4900B0FB60
:10220000F1F010BD083802400024F4002DE9F84F29
:10221000040075D02078DFF838A3C007AAF10405C0
:1022200048D00AF104000168C1F38101012908D0F6
:102230000068C0F3810002280AD1DAF800004002E9
:1022400006D52868800335D560680028E1D031E0E4
:102250006068B0F5803F10D0B0F5A02F286810D08E
:1022600020F480302860286820F48020286060688E
:10227000A0B1FFF7F9FC06460CE0286840F4803076
:10228000F4E740F480202860F7E7FFF7EDFC801BBF
:10229000642871D828688003F7D50BE0FFF7E4FCC9
:1022A000064604E0FFF7E0FC801B6428F1D82868AC
:1022B0008003F7D42078DFF89C9280074FF0000B62
:1022C0003DD5A348001D016811F00C0F08D000682F
:1022D000C0F3810002280AD1DAF80000400206D4D7
:1022E0002868800715D5E068012809D111E0E06869
:1022F000B8B10120C9F80000FFF7B6FC064605E0BA
:1023000022E1FFF7B1FC801B0228C2D828688007B1
:10231000F7D52868216920F0F80040EAC10028605C
:102320000DE0C9F800B0FFF79FFC064604E0FFF798
:102330009BFC801B02281FD828688007F7D42078D0
:10234000000722D5824F84486169703771B101213D
:102350000160FFF789FC064604E0FFF785FC801B5F
:10236000022809D838688007F7D50EE0C0F800B019
:10237000FFF77AFC064605E082E0FFF775FC801B5C
:1023800002287DD838688007F7D42078400765D5C3
:102390006F484FF000083C300068C0000BD46C4818
:1023A0003C30016841F08051016000684FF0010845
:1023B00000F080500090694F3868C0050FD438682D
:1023C00040F480703860FFF74FFC064604E0FFF7EA
:1023D0004BFC801B022853D83868C005F7D55C4FEA
:1023E000A0686C3701280FD00528386810D020F07D
:1023F00001003860386820F004003860A068B0B18F
:10240000FFF732FC06460EE0386840F00100F4E7C2
:1024100040F004003860F7E7FFF726FC811B41F22B
:102420008830814263D838688007F5D50DE0FFF722
:102430001BFC064606E0FFF717FC811B41F28830C3
:10244000814254D838688007F5D4B8F1000F05D020
:102450003F483C30016821F080510160A069B8B369
:102460003B49091D0968C1F38101022946D00228B0
:10247000584606D0C9F86000FFF7F6FB044639E07D
:1024800035E04F46C9F86000FFF7EEFB064604E072
:10249000FFF7EAFB801B022829D828688001F7D4BF
:1024A000D4E907010843A16A2D4A490802EB01411A
:1024B000626A41EA8211084394F82C1040EA0161F3
:1024C000CAF8001001203866FFF7CEFB044605E08D
:1024D0003CE0FFF7C9FB001B022808D828688001F0
:1024E000F7D533E0FFF7C0FB001B022802D9032019
:1024F000BDE8F88F28688001F4D427E00128F7D0E0
:10250000DAF80000E26900F4800191421CD1226AED
:1025100000F03F01914217D147F6C071626A014055
:10252000B1EB821F10D1A26A4FF0FF3300F44031AB
:1025300003EB5202B1EB024F06D194F82C1000F0DD
:102540007060B0EB016F01D00120D1E70020CFE730
:102550000438024000004742800E474200700040AD
:102560000000FFFF7047704770B590F83C20012ACB
:1025700032D0012580F83C50022280F83D200268CC
:102580005368946823F070060B6833435360134B11
:1025900002689A4214D0B2F1804F11D0104B9A4287
:1025A0000ED0104B9A420BD00F4B9A4208D00F4BD3
:1025B0009A4205D00E4B9A4202D00E4B9A4204D159
:1025C000496824F080031943916080F83D50002150
:1025D00080F83C10084670BD022070BD000001402C
:1025E0000004004000080040000C004000040140CE
:1025F000004001400018004010B5040003D094F8DA
:102600003D0010B107E0012010BD002084F83C001F
:10261000204600F01FF8022084F83D00211D2068AC
:1026200003F072FC012084F8460084F83E0084F830
:102630003F0084F8400084F8410084F8420084F8A8
:10264000430084F8440084F8450084F83D000020ED
:1026500010BD000008B50068B0F1804F12D10A48E3
:10266000016841F0010101600068002200F00100F2
:10267000009011461C20FFF78DFCBDE808401C208F
:10268000FFF77ABC08BD00004038024090F83D10CA
:10269000012901D001207047022180F83D10016816
:1026A000CA6842F00102CA6000681149884214D029
:1026B000B0F1804F11D00F4988420ED00E498842A8
:1026C0000BD00E49884208D00D49884205D00D49EB
:1026D000884202D00C49884204D1816801F0070188
:1026E000062903D0016841F0010101600020704714
:1026F000000001400004004000080040000C0040C1
:1027000000040140004001400018004070B504463C
:1027100090F83C000025012817D0012684F83C6081
:10272000022084F83D002068826822F0770222F4BB
:102730007F4282600868502838D00DDC20284FD0B6
:1027400005DC90B3102811D14AE0022070BD30287A
:1027500046D040280AD13BE060282FD070280DD009
:10276000B0F5805F03D0B0F5005F12D0012584F88A
:102770003D60002084F83C00284670BDCB68D1E95C
:102780000121206803F024FC2068816841F0770172
:1027900009E0CB68D1E90121206803F019FC206829
:1027A000816841F480418160E1E719E0CA684968C5
:1027B000206803F01FFC5021206806E0CA684968C1
:1027C000206803F028FC6021206803F00BFCCEE7B2
:1027D000CA684968206803F00DFC40212068F4E7CE
:1027E000226801461046F0E7704770B5044600685D
:1027F00001694FF00005C943890715D4C168C94371
:10280000890711D4E91E01610120207720688069C1
:102810008007204602D0FFF7E7FF04E000F098F8B9
:10282000204600F096F8257720680169C9434907DA
:1028300017D4C168C943490713D46FF0040101617B
:10284000022020772068806910F4407F204602D063
:10285000FFF7CAFF04E000F07BF8204600F079F8AB
:10286000257720680169C943090716D4C168C9439F
:10287000090712D46FF00801016104202077206855
:10288000C0698007204602D0FFF7AEFF04E000F0E9
:102890005FF8204600F05DF8257720680169C9439C
:1028A000C90617D4C168C943C90613D46FF0100113
:1028B0000161082020772068C06910F4407F20461D
:1028C00002D0FFF791FF04E000F042F8204600F04C
:1028D00040F8257720680169C943C90708D1C16854
:1028E000C943C90704D1891E0161204600F032F8AE
:1028F00020680169C943090609D4C168C9430906AA
:1029000005D46FF0800101612046FFF72BFE20689F
:102910000169C943490609D4C168C943490605D4B8
:102920006FF040010161204600F050F82068016915
:10293000C94389060BD4C168C943890607D46FF01F
:10294000200101612046BDE87040FFF70CBE70BD5C
:102950007047704730B40168B1F1804F22D1164AF8
:10296000164B11681960164B491C11601988154ADD
:10297000491C89B21980642912D300241C80518813
:10298000491C89B251803C290AD354809188491C42
:1029900089B291803C2903D39480D188491CD1808D
:1029A0001988118000680849884202D130BCFFF7BD
:1029B00059BA30BC70470000E4000020F400002049
:1029C000F8000020FA00002000040040704738B5ED
:1029D000044690F83E00202826D171B16AB194F8DF
:1029E0003C00012820D0012084F83C0020632046D0
:1029F00003F0ECFC010002D005E0012038BD206BA3
:102A0000012802D00121084638BD206802684068CC
:102A1000009020680C3050E8002F42F0100240E88F
:102A20000023002BF5D1EEE7022038BD70B5044637
:102A30001648174D0E46844211D16868401C6860E4
:102A4000144807F049FD1349642266310F48FFF727
:102A5000BEFF11480268106820F0080010600F489F
:102A6000844212D1A8683146401CA8600C4807F087
:102A700033FD0B49642266310848FFF7A8FF094877
:102A80000068016821F00801016070BD6006002047
:102A90000004002038680020D0070020A406002091
:102AA000486900203008002070B5044620680C30CA
:102AB00050E8001F21F4907140E80012002AF5D17F
:102AC0002068143050E8001F21F0010140E8001296
:102AD000002AF5D1206B012809D120680C3050E87C
:102AE000001F21F0100140E80012002AF5D12068F3
:102AF00040694FF00005400615D52068143050E8B5
:102B0000001F21F0400140E80012002AF5D1A06B1F
:102B100048B10565A06BFEF796FD20B1A06BFEF7EE
:102B2000EDFD202806D0E585202084F83E002563B1
:102B3000002070BD10202064032070BD0F4910B527
:102B4000884209D10846FFF7AFFF64220C490B48C1
:102B5000FFF73DFF0B480BE00B4988420DD10846BB
:102B6000FFF7A2FF642209490748FFF730FF084832
:102B70000068016821F00801016010BDA406002072
:102B8000AE69002030080020600600209E6800200A
:102B9000D0070020F8B5016804460868CA684B6988
:102BA00010F00F0F4FF0000559D003F0010602F4AA
:102BB0009077374365D0C10705D0D10503D5216C87
:102BC00041F001012164410705D5D90703D0216CEB
:102BD00041F002012164810705D5D90703D0216C9A
:102BE00041F004012164010707D502F020013143BF
:102BF00003D0216C41F008012164216C00293AD0F6
:102C0000800604D5900602D5204603F0F9FA206824
:102C10004069216CC0F38010090700D460B32046DE
:102C200003F0B9FA20684069400621D520681430C5
:102C300050E8001F21F0400140E80012002AF5D1C1
:102C4000A06BA8B16C490165A06BFEF745FD00289B
:102C500011D0A06B016D01B0BDE8F04008478306BC
:102C60000FD593060DD52046BDE8F84003F0C8BA4D
:102C70002046FFF763FFF8BD2046FFF75FFF25649E
:102C8000F8BD266B2023012E79D1C60677D5D6064E
:102C900075D50868486800904869400640D5A16B22
:102CA000086840680004000CEAD0A28D8242E7D98F
:102CB000E085C869B0F5807F2DD020680C3050E8E1
:102CC000001F21F4807140E80012002AF5D120682D
:102CD000143050E8001F21F0010140E80012002AE2
:102CE000F5D12068143050E8001F21F0400140E881
:102CF0000012002AF5D184F83E30256320680C309C
:102D000050E8001F21F0100140E80012002AF5D120
:102D1000A06BFEF798FCA08DE18D401A81B229E0EE
:102D2000A08DE18D401A81B2E08D0028A8D0002945
:102D3000A6D020680C3050E8002F22F4907240E8B2
:102D40000026002EF5D12068143050E8002F22F024
:102D5000010240E80026002EF5D184F83E302563BC
:102D600020680C3050E8002F22F0100240E80023C9
:102D7000002BF5D12046FFF759FEF8BDFFE7050609
:102D80002BD5150629D594F83D002128F5D1A0684A
:102D9000B0F5805F01D12069B0B1206A411C216289
:102DA000216800784860E08C401E0004000CE0843C
:102DB000E3D12068C16821F08001C1602068C1684A
:102DC00041F04001C160D8E7206A0088C0F30800E4
:102DD0004860206A801C2062E5E74006CDD5500699
:102DE000CBD5CA68204622F04002CA6084F83D3044
:102DF00000F020FBC1E700005560000870B504003A
:102E000004D094F83D00002510B106E0012070BD0B
:102E100084F83C50204600F023F8242084F83D003C
:102E20002068C16821F40051C160204603F048FACF
:102E30002068016921F4904101612068416921F015
:102E40002A0141612068C16841F40051C1602564D4
:102E5000202084F83D0084F83E00002070BD000072
:102E60002DE9F04F87B0044614216846FDF78EFB2C
:102E7000F748F64E2368F6491038F64A00254FF019
:102E800002084FF003094FF0080CB34221D10B6840
:102E900043F400230B60096801F4002105910168E7
:102EA00041F004010160006802AB00F004000590ED
:102EB0004FF44060CDE9000883E8201269461046CF
:102EC000FEF7E0FD002211463420FFF763F83420BE
:102ED00035E0E14EB34237D10B6843F480130B6009
:102EE000096801F480110591016841F00401016055
:102EF000016801F004010591016841F008010160D9
:102F00000068029500F008000590B014CDE90008B3
:102F1000CDE9039C644669461046FEF7B3FD0420E4
:102F2000CDE900080295CDE903946946CB48FEF748
:102F3000A9FD002201213520FFF72CF83520FFF7ED
:102F40001BF807B0BDE8F08FC54ADFF804E340275F
:102F500016150EF1040E4FF0070B4FF0006A934266
:102F600057D1DEF8002042F01002CEF80020DEF843
:102F7000001001F010010591016841F001010160AC
:102F8000006802AA00F0010005904FF4C060CDE98E
:102F9000000882E8200A6946B248FEF773FDDFF8B0
:102FA000CC82B1494046C8F80870C0E90356C8F859
:102FB0001450C8F81850C8F81C50C8F82050C8E978
:102FC000001AC8F82450FEF76BFC08B1FDF717FD96
:102FD000A64FA548C4F8348060377838C8F8384020
:102FE0003860C7E901A5C7E903567D61BD61FD6190
:102FF0003D6238467D62FEF753FC08B1FDF7FFFCE9
:10300000A763002206212520BC63FEF7C3FF25200D
:1030100095E7974A934256D10A68002542F4003258
:103020000A60096801F400310591016841F0080166
:103030000160006802AA00F0080005906020CDE958
:10304000000882E8200A69468448FEF71BFDDFF885
:103050001C82884908F1C0084046C8F80010C0E941
:1030600001A5C0E90356C8F81450C8F81850C8F8AC
:103070001C50C8F82050C8F82450FEF711FC08B1C5
:10308000FDF7BDFC7C4DC4F838807A48C8F838405C
:103090001830AF60C5E9000A0020C5E90306686181
:1030A000A861E861286268622846FEF7F9FB08B16A
:1030B000FDF7A5FC6563002207212620AC63FEF71F
:1030C00069FF26203BE76D4A934259D10A680025E3
:1030D00042F480220A60096801F4802105910168A8
:1030E00041F002010160006802AA00F002000590B0
:1030F0004FF44060CDE9000882E8200A6946604844
:10310000FEF7C0FCDFF870815A4908F160086039A9
:103110004046C8F80010C0E901A5C0E90356C8F848
:103120001450C8F81850C8F81C50C8F82050C8F8F7
:103130002450FEF7B5FB08B1FDF761FC4E4DC4F815
:1031400038804C48C035C8F838403038AF60C5E9E1
:10315000000A0020C5E903066861A861E8612862E9
:1031600068622846FEF79CFB08B1FDF748FC6563E2
:10317000002204212720AC63FEF70CFF2720DEE6A7
:1031800040498B427FF4DDAEDEF80020AA4642F0D3
:103190002002CEF80020DEF8001001F02001059199
:1031A000016841F040010160006802AA00F040009F
:1031B00005904FF48440CDE9000882E8201269466A
:1031C0003148FEF75FFC2849DFF8C080903940465F
:1031D0004FF02069C8F80010C0E90195C0E9035616
:1031E000C8F81450C8F81850C8F81C50C8F8205037
:1031F000C8F82450FEF754FB08B1FDF700FC234D3E
:10320000C4F8388018486035C8F838401838AF60BE
:10321000C5E90009C5E903A6C5F814A0C5F818A0BA
:10322000C5F81CA0C5F820A02846C5F824A0FEF7C4
:1032300037FB08B1FDF7E3FB65630022052147205A
:10324000AC63FEF7A7FE472079E60000004C004083
:10325000403802400008024000500040000C02408C
:103260000010014000000240B864024070070020D6
:103270000044004088600240900800200048004060
:10328000000402400014014000180240B009002070
:1032900090F83E30202B0ED159B152B190F83C300D
:1032A000012B08D0012380F83C300023036303F096
:1032B000D9B80120704702207047000010B50446BD
:1032C00000680949884206D1084B1A1FA2F108017B
:1032D000081D03F0ABFB06492068884203D1BDE816
:1032E000104004F09BBF10BD005000408C6E0020C9
:1032F000004C004070472DE9F843044690F83D002B
:103300001F4615460E4620284BD1C6B1BDB194F8D4
:103310003C00012845D0012084F83C004FF0000813
:10332000C4F84080212084F83D00FEF79DFCA58470
:103330008146E584A068B0F5805F03D004E00120F9
:10334000BDE8F883206920B13546002684F83C802A
:103350000EE00025FAE78021204603F0A0F8A0B98E
:10336000ADB115F8010B21684860E08C401EE08487
:10337000E08C4B464FF0000200970028EBD14FF055
:103380004001204603F08BF830B10320D8E736F82F
:10339000020BC0F30800E6E7202084F83D0000207F
:1033A000CEE70220CCE70000F7B5044690F83D00D8
:1033B000202837D1019991B38AB394F83C000128B1
:1033C00030D0012084F83C002162A284E2840025F0
:1033D0002564212084F83D00636B1348D863636B38
:1033E00012481864636B1248D864606B1346056515
:1033F0002668606B321DFEF7BDFA21686FF0400051
:10340000086084F83C502068143050E8001F41F0F8
:10341000800140E80012002AF5D10020FEBDFFE740
:103420000120FBE70220F9E74B6100088D610008ED
:103430006560000870477047FEE70722827080EDE4
:10344000100AA0F8441080ED040A704790F8661046
:1034500090F8CA2091421BD190F8671090F8CB20C9
:10346000914215D1816EC0F8CF1090F86C1090F891
:103470000C2191420CD190F86D1090F80D219142E1
:1034800006D1044A1178491C1170CF3005F086BF6F
:1034900070470000416E002030EE601A30B59FED9D
:1034A000342A344AB5EEC01AF1EE10FA82ED092A38
:1034B00082ED0A2A02DDF0EE411A01E070EEC01A38
:1034C0002D49FDEEE11ACB6911EE900A022B0AD0CC
:1034D00011EE103A294C4FF0FF35A34205DDA0EB69
:1034E000800040000CE0012030BD11EE103A13F1D5
:1034F0007E5F0DD211EE103AA34209DA400040423D
:1035000000EE100AB8EEC00A82ED0B0ACD6120E091
:1035100011EE104A1A4D0123AC420AD900EB4000CB
:10352000400000EE100AB8EEC00A82ED0B0ACB6133
:103530000FE011EE104A134D2C44134DAC420AD249
:10354000400000EE100AB8EEC00A82ED0B0ACB6113
:103550008B62002030BDFDEEE00ABDEEC00A82EDB8
:103560000B2AC1ED080A81ED090A0220C861BAE7F9
:1035700000000000FC5300202404002000009041C3
:103580000000D8C1FFFF1F3FFFFFF7002DE9F0410A
:103590005B4C5C4E00202DED068BB0EE409AF0EEB9
:1035A000608AB0EE618AE06196ED000AB8EEC00A6A
:1035B00070EE490AC4ED120A96ED020A60EEA00A06
:1035C000B8EEC00A30EE680A84ED130A40EE000A35
:1035D00010EE900A09F0E0FB41EC100B03F034FE12
:1035E00051EC100B08F00EFE01EE100A464884ED77
:1035F000141AD4ED120A10EE901A814272DA94ED88
:10360000130A10EE101A81426CDAF5EEC00AF1EEE0
:1036100010FA01DCF1EE600A10EE901A3B483C4DC6
:10362000DFED3C9A81420ADCB5EEC00AF1EE10FAF9
:1036300001DCB1EE400A10EE101A814257DDB5EE02
:10364000C08AF1EE10FA02DDB0EE480A01E0B1EEF8
:10365000480A314880ED140AB0EE410A2F4806F0BE
:103660001FFF2E4F9FED2EAAD4ED130A97ED110ADE
:1036700094ED141A20EE0A0A60EE200A80EE810A08
:10368000F0EE480A01F0CCFAFFEE080A20EE200A1C
:1036900085ED090A97ED110AD4ED120A94ED141A7A
:1036A00020EE0A0A60EE200A80EE810AF0EE480A57
:1036B00001F0B6FADFED1B0A20EE200A85ED0A0ABA
:1036C00096ED010AB8EEC00A30EE490A84ED120AFE
:1036D00096ED020AB8EEC00A30EE680A84ED130ACD
:1036E000C4ED0B9A0020BDEC068BBDE8F081C5ED62
:1036F000099AC5ED0A9AC5ED0B9A0120F3E700007F
:1037000024040020806E00200000FA4500002041C3
:10371000FC53002000000000C075002084550020EC
:10372000CDCCCC3DCDCC6CC02DE9F0415E4C5F4F93
:103730002DED048BB0EE409AB7EE000A84ED0B0A33
:1037400097ED000AF0EE608AB0EE618AB8EEC00A2A
:1037500070EE490AC4ED120A97ED030A60EEA00A62
:10376000B8EEC00A30EE680A84ED130A40EE000A93
:1037700010EE900A09F010FB41EC100B03F064FD11
:1037800051EC100B08F03EFD01EE100A484984EDA3
:10379000141AD4ED120A10EE900A884273DA94EDEE
:1037A000130A10EE100A88426DDAF5EEC00AF1EE47
:1037B00010FA01DCF1EE600A10EE901A3D483E4E20
:1037C00081420ADCB5EEC00AF1EE10FA01DCB1EE7E
:1037D000400A10EE101A81425ADDB5EEC08A01206F
:1037E000B0EE000AF1EE10FA606384ED0B0A02DD20
:1037F000B0EE480A01E0B1EE480A304D284685EDAA
:10380000140AB0EE410A06F04BFE95ED110ADFED09
:103810002C9AD4ED130A94ED141A20EE290A60EEC6
:10382000200A80EE810AF0EE480A01F0F9F9DFED96
:10383000250A20EE200A86ED090A95ED110AD4ED3D
:10384000120A94ED141A20EE290A60EE200A80EE86
:10385000810AF0EE480A01F0E3F9DFED1B0A20EEE1
:10386000200A86ED0A0A97ED010AB8EEC00A30EE8A
:10387000490A84ED120A97ED000AB8EEC00A30EE4C
:10388000680A84ED130A0020BDEC048BBDE8F081CA
:1038900002209FED0E0A606386ED090A86ED0A0A92
:1038A00086ED0B0A0120EFE724040020806E002043
:1038B0000000FA4500000C42FC530020C0750020B7
:1038C000CDCCCC3DCDCC8C3F6666A6BF00000000C1
:1038D0002DE9F0419E4C9F4E00202DED068BB0EE61
:1038E000409AF0EE608AB0EE618AE06196ED000ADF
:1038F000B8EEC00A70EE490AC4ED150A96ED030A47
:1039000060EEA00AB8EEC00A30EE680A84ED160A2E
:1039100040EE000A10EE900A09F03EFA41EC100B5E
:1039200003F092FC51EC100B08F06CFC01EE900AD5
:103930008949C4ED171A94ED151A11EE100A884240
:1039400077DA94ED160A10EE100A884271DAB5EEB5
:10395000C01AF1EE10FA02DDF0EE410A01E0F1EEDC
:10396000410A10EE901A7D487D4FF1EE480ADFEDD6
:103970007D9A7D4DB7EE00AA81420DDCB5EEC00AFE
:10398000F1EE10FA02DDB0EE402A01E0B1EE402A7D
:1039900012EE101A81424DDDB5EEC08AF1EE10FA3A
:1039A00001DDF0EE480AC7ED140AB0EE610A6F4877
:1039B00006F076FD6D4FD4ED160A94ED171A97EDCB
:1039C000110A20EE290A60EE200A80EE810AF0EE4C
:1039D000480A01F025F9F0EE080A20EE200A85EDEC
:1039E000090A97ED110AD4ED150A94ED171A20EE85
:1039F000290A60EE200A80EE810AF0EE480A01F002
:103A00000FF9F8EE080A20EE200A85ED0A0A96ED75
:103A1000000AB8EEC00A30EE490A84ED150A96EDA8
:103A2000030AB8EEC00A30EE680A84ED160A84ED87
:103A30000CAA7EE0B5EEC01AF1EE10FA02DDB0EE8F
:103A4000412A01E0B1EE412A12EE102A48498A4289
:103A50000DDCB5EEC00AF1EE10FA02DDB0EE402A40
:103A600001E0B1EE402A12EE102A8A4266DDB5EE80
:103A7000C01AF1EE10FA01DCB1EE411A11EE101A83
:103A800081420ADBB5EEC00AF1EE10FA01DCB1EEBC
:103A9000400A10EE101A814250DAB5EEC08AF1EEFB
:103AA00010FA01DDF0EE480AC7ED140AB0EE610A23
:103AB0002B4806F0F5FC97ED110AD4ED160A94EDAB
:103AC000171A20EE290A60EE200A80EE810AF0EE35
:103AD000480A01F0A5F8F7EE080A20EE200A85ED65
:103AE000090A97ED110AD4ED150A94ED171A20EE84
:103AF000290A60EE200A80EE810AF0EE480A01F001
:103B00008FF8FFEE080A20EE200A85ED0A0A96EDEE
:103B1000000AB8EEC00A30EE490A84ED150A96EDA7
:103B2000030AB8EEC00A30EE680A84ED160A84ED86
:103B30000BAA0020BDEC068BBDE8F0819FED0D0ABD
:103B4000012085ED090A85ED0A0A85ED0B0AF1E7EA
:103B500024040020806E00200000FA4500008C4301
:103B6000C0750020CDCCCC3DFC5300204C5400202F
:103B700000000C42000000002DE9F0419C4C9D4EDD
:103B800000202DED068BB0EE409AF0EE608AB0EE8C
:103B9000618AE06196ED000AB8EEC00A70EE490A4B
:103BA000C4ED150A96ED020A60EEA00AB8EEC00A4E
:103BB00030EE680A84ED160A40EE000A10EE900A14
:103BC00009F0EAF841EC100B03F03EFB51EC100B4E
:103BD00008F018FB01EE900A8749C4ED171A94ED1E
:103BE000151A11EE100A884275DA94ED160A10EED5
:103BF000100A88426FDAB5EEC01AF1EE10FA02DD53
:103C0000F0EE410A01E0F1EE410A10EE901A7B4815
:103C10007B4FF1EE480ADFED7B9A7B4DB7EE00AAB1
:103C200081420DDCB5EEC00AF1EE10FA02DDB0EE15
:103C3000402A01E0B1EE402A12EE101A81424BDD1B
:103C4000B5EEC08AF1EE10FA01DDF0EE480AC7EDDC
:103C5000140AB0EE610A6D4806F022FC6B4FD4EDF9
:103C6000160A94ED171A97ED110A20EE290A60EE54
:103C7000200A80EE810AF0EE480A00F0D1FFF8EE4B
:103C800008AA20EE2A0A85ED090A97ED110AD4ED5B
:103C9000150A94ED171A20EE290A60EE200A80EE2C
:103CA000810AF0EE480A00F0BBFF20EE2A0A85EDFB
:103CB0000A0A96ED010AB8EEC00A30EE490A84ED10
:103CC000150A96ED000AB8EEC00A30EE680A84EDD7
:103CD000160A84ED0CAA7CE0B5EEC01AF1EE10FADB
:103CE00002DDB0EE412A01E0B1EE412A12EE102AC7
:103CF00047498A420DDCB5EEC00AF1EE10FA02DD4A
:103D0000B0EE402A01E0B1EE402A12EE102A8A42BB
:103D100064DDB5EEC01AF1EE10FA01DCB1EE411A25
:103D200011EE101A81420ADBB5EEC00AF1EE10FA6C
:103D300001DCB1EE400A10EE101A81424EDAB5EE07
:103D4000C08AF1EE10FA01DDF0EE480AC7ED140A60
:103D5000B0EE610A2A4806F0A3FB97ED110A94ED34
:103D6000171A60EE290A94ED160A60EE800A80EEBA
:103D7000810AF0EE480A00F053FFFFEE08AA20EE99
:103D80002A0A85ED090A97ED110AD4ED150A94ED7A
:103D9000171A20EE290A60EE200A80EE810AF0EE62
:103DA000480A00F03DFF20EE2A0A85ED0A0A96ED4A
:103DB000010AB8EEC00A30EE490A84ED150A96ED04
:103DC000000AB8EEC00A30EE680A84ED160A84EDE7
:103DD0000BAA0020BDEC068BBDE8F0819FED0D0A1B
:103DE000012085ED090A85ED0A0A85ED0B0AF1E748
:103DF00024040020806E00200000FA4500008C435F
:103E0000C0750020CDCCCC3DFC5300204C5400208C
:103E100000000C42000000002DE9F0419B4C9C4E3C
:103E200000202DED068BB0EE409AF0EE608AB0EEE9
:103E3000618AE06196ED000AB8EEC00A70EE490AA8
:103E4000C4ED150A96ED020A60EEA00AB8EEC00AAB
:103E500030EE680A84ED160A40EE000A10EE900A71
:103E600008F09AFF41EC100B03F0EEF951EC100B47
:103E700008F0C8F901EE900A8648C4ED171A94EDCF
:103E8000151A11EE101A814275DA94ED160A10EE29
:103E9000101A81426FDAB5EEC01AF1EE10FA02DDA7
:103EA000F0EE410A01E0F1EE410A10EE901A7A4874
:103EB0007A4FF1EE480ADFED7A9A7A4DBFEE08AA02
:103EC000F7EE00AA81420DDCB5EEC00AF1EE10FA61
:103ED00002DDB0EE402A01E0B1EE402A12EE101AE7
:103EE000814249DDB5EEC08AF1EE10FA01DDF0EE57
:103EF000480AC7ED140AB0EE610A6B4806F0D0FA22
:103F0000694FD4ED160A94ED171A97ED110A20EEB9
:103F1000290A60EE200A80EE810AF0EE480A00F0DD
:103F20007FFE20EE0A0A85ED090A97ED110AD4ED0D
:103F3000150A94ED171A20EE290A60EE200A80EE89
:103F4000810AF0EE480A00F06BFE20EE0A0A85EDC9
:103F50000A0A96ED010AB8EEC00A30EE490A84ED6D
:103F6000150A96ED000AB8EEC00A30EE680A84ED34
:103F7000160AC4ED0CAA7AE0B5EEC01AF1EE10FAFA
:103F800002DDB0EE412A01E0B1EE412A12EE102A24
:103F900046498A420DDCB5EEC00AF1EE10FA02DDA8
:103FA000B0EE402A01E0B1EE402A12EE102A8A4219
:103FB00062DDB5EEC01AF1EE10FA01DCB1EE411A85
:103FC00011EE101A81420ADBB5EEC00AF1EE10FACA
:103FD00001DCB1EE400A10EE101A81424CDAB5EE67
:103FE000C08AF1EE10FA01DDF0EE480AC7ED140ABE
:103FF000B0EE610A294806F053FA97ED110A94EDE4
:10400000171A60EE290A94ED160A60EE800A80EE17
:10401000810AF0EE480A00F003FE20EE0A0A85ED60
:10402000090A97ED110AD4ED150A94ED171A20EE3E
:10403000290A60EE200A80EE810AF0EE480A00F0BC
:10404000EFFD20EE0A0A85ED0A0A96ED010AB8EEA8
:10405000C00A30EE490A84ED150A96ED000AB8EE62
:10406000C00A30EE680A84ED160AC4ED0BAA0020DF
:10407000BDEC068BBDE8F0819FED0D0A012085EDBA
:10408000090A85ED0A0A85ED0B0AF1E724040020F0
:10409000806E00200000FA4500008C43C0750020AF
:1040A000CDCCCC3DFC5300204C54002000000C42F1
:1040B000000000002DE9F0419B4C00202DED068B07
:1040C000B0EE409AB0EE618AF0EE608AB0EE410A3E
:1040D000E06102F0F5FD954E96ED000AB8EEC00ADB
:1040E00070EE490AC4ED150A96ED020A60EEA00AC8
:1040F000B8EEC00A30EE680A84ED160A40EE000AF7
:1041000010EE900A08F048FE41EC100B03F09CF80A
:1041100051EC100B08F076F801EE900A8449C4EDDA
:10412000171A94ED151A11EE100A884270DA94ED00
:10413000160A10EE100A88426ADAB5EEC01AF1EEDD
:1041400010FA02DDF0EE410A01E0F1EE410A10EE54
:10415000901A7848784FF1EE480ADFED789A784D5A
:10416000BFEE08AA81420DDCB5EEC00AF1EE10FAEE
:1041700002DDB0EE402A01E0B1EE402A12EE101A44
:10418000814246DDB5EEC08AF1EE10FA01DDF0EEB7
:10419000480AC7ED140AB0EE610A674806F080F9D4
:1041A00097ED110AD4ED160A94ED171A20EE290A9C
:1041B00060EE200A80EE810AF0EE480A00F030FD41
:1041C00020EE0A0A85ED090A97ED110AD4ED150AC9
:1041D00094ED171A20EE290A60EE200A80EE810A7B
:1041E000F0EE480A00F01CFD20EE0A0A85ED0A0AEE
:1041F00096ED010AB8EEC00A30EE490A84ED150AC0
:1042000096ED020AB8EEC00A30EE680A84ED160A8E
:104210007CE0B5EEC01AF1EE10FA02DDB0EE412AF4
:1042200001E0B1EE412A12EE102A4649DFED46AA1E
:104230008A420DDCB5EEC00AF1EE10FA02DDB0EEF6
:10424000402A01E0B1EE402A12EE102A8A4262DDD5
:10425000B5EEC01AF1EE10FA01DCB1EE411A11EE22
:10426000101A81420ADBB5EEC00AF1EE10FA01DC49
:10427000B1EE400A10EE101A81424CDAB5EEC08A57
:10428000F1EE10FA01DDF0EE480AC7ED140AB0EEC7
:10429000610A294806F004F997ED110AD4ED160ACF
:1042A00094ED171A20EE290A60EE200A80EE810AAA
:1042B000F0EE480A00F0B4FC20EE0A0A85ED090A87
:1042C00097ED110AD4ED150A94ED171A20EE290A7C
:1042D00060EE200A80EE810AF0EE480A00F0A0FCB1
:1042E00020EE0A0A85ED0A0A96ED010AB8EEC00A28
:1042F00030EE490A84ED150A96ED020AB8EEC00ABE
:1043000030EE680A84ED160AC4ED0BAA0020BDEC5D
:10431000068BBDE8F081C5ED09AAC5ED0AAAC5ED79
:104320000BAA0120F3E7000024040020806E002087
:104330000000FA4500008C43C0750020CDCCCC3D78
:10434000FC53002000000C42000000002DE9F04169
:104350009A4C9B4E00202DED088BB0EE409AF0EE6B
:10436000608AB0EE618AE06196ED000AB8EEC00A9C
:1043700070EE490AC4ED150A96ED030A60EEA00A34
:10438000B8EEC00A30EE680A84ED160A40EE000A64
:1043900010EE900A08F000FD41EC100B02F054FF03
:1043A00051EC100B07F02EFF01EE900A8549C4ED89
:1043B000171A94ED151A11EE100A884272DA94ED6C
:1043C000160A10EE100A88426CDAB5EEC01AF1EE49
:1043D00010FA02DDF0EE410A01E0F1EE410A10EEC2
:1043E000901A7948794FF1EE480ADFED799A794DC4
:1043F000B7EE08AAFFEE08AA81420DDCB5EEC00AAE
:10440000F1EE10FA02DDB0EE402A01E0B1EE402AF2
:1044100012EE101A814246DDB5EEC08AF1EE10FAB6
:1044200001DDF0EE480AC7ED140AB0EE610A6748F4
:1044300006F036F897ED110AD4ED160A94ED171A26
:1044400020EE290A60EE200A80EE810AF0EE480A8A
:1044500000F0E6FB20EE0A0A85ED090A97ED110A45
:10446000D4ED150A94ED171A20EE290A60EE200A01
:1044700080EE810AF0EE480A00F0D2FB20EE2A0A14
:1044800085ED0A0A96ED000AB8EEC00A30EE490A38
:1044900084ED150A96ED030AB8EEC00A30EE680AFC
:1044A00084ED160A7CE0B5EEC01AF1EE10FA02DDDA
:1044B000B0EE412A01E0B1EE412A12EE102A46493F
:1044C0009FED46BA8A420DDCB5EEC00AF1EE10FA55
:1044D00002DDB0EE402A01E0B1EE402A12EE102AD1
:1044E0008A4262DDB5EEC01AF1EE10FA01DCB1EEDF
:1044F000411A11EE101A81420ADBB5EEC00AF1EE44
:1045000010FA01DCB1EE400A10EE101A81424CDACA
:10451000B5EEC08AF1EE10FA01DDF0EE480AC7ED03
:10452000140AB0EE610A294805F0BAFF97ED110AA6
:10453000D4ED160A94ED171A20EE290A60EE200A2F
:1045400080EE810AF0EE480A00F06AFB20EE0A0ACB
:1045500085ED090A97ED110AD4ED150A94ED171AA5
:1045600020EE290A60EE200A80EE810AF0EE480A69
:1045700000F056FB20EE2A0A85ED0A0A96ED000AA5
:10458000B8EEC00A30EE490A84ED150A96ED030A2A
:10459000B8EEC00A30EE680A84ED160A84ED0BBA54
:1045A0000020BDEC088BBDE8F08185ED09BA85EDF2
:1045B0000ABA85ED0BBA0120F3E7000024040020BD
:1045C000806E00200000FA4500008C43C07500207A
:1045D000CDCCCC3DFC53002000000C42000000007C
:1045E000D0ED000AF4EEC00AF1EE10FA01DD80ED24
:1045F000000AD0ED000AB1EE400AF4EEC00AF1EE76
:1046000010FA01D280ED000A7047000000B599B0A1
:10461000082100208A0100920290CDE90301089050
:10462000CDE90901501E06903D4814AB41890A0AA4
:104630008DF830208DF83110B0F87E100A0A8DF810
:1046400032208DF83310B0F8F2100A0A8DF83420B9
:104650008DF83510B0F866110A0A8DF836208DF8FD
:104660003710B0F8DA110A0A8DF840208DF84110A1
:10467000B0F84E120A0A8DF842208DF84310B0F8B7
:10468000C2020CAA010A8DF844108DF84500694653
:104690002448FCF7F7FB15AB10AA06A92148FCF744
:1046A000F1FB214816AB41890A0A8DF838208DF8B4
:1046B0003910B0F87E100A0A8DF83A208DF83B10B8
:1046C000B0F8F2100A0A8DF83C208DF83D10B0F8D1
:1046D00066110A0A8DF83E208DF83F10B0F8DA1105
:1046E0000A0A8DF848208DF84910B0F84E120A0ACF
:1046F0008DF84A208DF84B10B0F8C2020EAA010ABC
:104700008DF84C108DF84D0069460848FCF7BAFB4F
:1047100017AB12AA06A90548FCF7B4FB19B000BDF7
:1047200054560020EC04002080590020140500207D
:10473000104810B50E4901600321416000214FF47B
:1047400000228160C0E903124FF4401242610176F9
:10475000012242768176C17601774177FCF7EFFD41
:10476000002803D0BDE81040FCF749B910BD000097
:1047700000640040EC040020104810B50E490160B0
:104780000321416000214FF400228160C0E903123F
:104790004FF4401242610176012242768176C17661
:1047A00001774177FCF7CBFD002803D0BDE810402E
:1047B000FCF725B910BD000000680040140500207A
:1047C000294808B5016841F480010160016801F4DD
:1047D00080010091016841F400110160006800222D
:1047E00000F40010009005210C20FDF7D3FB0C20F5
:1047F000FDF7C2FB002205210E20FDF7CBFB0E20AA
:10480000FDF7BAFB002205211020FDF7C3FB1020A5
:10481000FDF7B2FB002205211120FDF7BBFB1120A3
:10482000FDF7AAFB002205213920FDF7B3FB392053
:10483000FDF7A2FB002205213A20FDF7ABFB3A2051
:10484000FDF79AFB002205214520FDF7A3FB45203B
:10485000FDF792FB002205214620FDF79BFBBDE8FA
:1048600008404620FDF788BB3038024010B51C4A8E
:1048700000211C4805F0E2FC1B4C194A0021A061F4
:1048800024321A4805F0DAFC154AE061483200216A
:10489000174805F0D3FC124A20626C3200211548FB
:1048A00005F0CCFC0E4A606290320021124805F0FF
:1048B000C5FC0B4AA062B4320021104805F0BEFCD2
:1048C000074AE062D83200210D4805F0B7FC044ADF
:1048D0002063FC3200210B4805F0B0FC606310BD82
:1048E00090CE0008050A0008000000204D070008CF
:1048F000110C0008495C0008454C0008B10700088D
:10490000AD53000801B300082DE9F04786B014212B
:104910006846FBF73BFE40480024016841F0200157
:104920000160016801F020010591016841F08001FA
:104930000160016801F080010591016841F0010109
:104940000160016801F001010591016841F0400139
:104950000160016801F040010591016841F0020128
:104960000160016801F002010591016841F0040154
:104970000160016801F004010591016841F008013E
:1049800001600068DFF8949000F008004FF4784769
:104990000590002239464846FDF761F9DFF880A00E
:1049A000002201215046FDF75AF9802000904FF473
:1049B0008810CDE9010469464846FDF763F80226F0
:1049C000DFF860800125009669464046CDE9014543
:1049D000FDF758F804208DE8510069464046FDF780
:1049E00051F80097CDE90154694648460394FDF714
:1049F00049F80095CDE90154694650460394FDF706
:104A000041F8002205211720FDF7C4FA1720FDF711
:104A1000B3FA06B0BDE8F087303802400014024017
:104A200000180240000002400D4810B50B4901601B
:104A30000C49416000214FF480428160C0E90312BB
:104A400041618161C1610162FDF714F9002803D061
:104A5000BDE81040FBF7D3BF10BD0000005400407C
:104A60003C050020A086010010B586B00024164841
:104A7000009401940294039404944FF080410594AF
:104A800001605321C0E901141049C0E90314846195
:104A9000FDF7B2FD08B1FBF7B2FF4FF48050009074
:104AA00069460948FDF732FE08B1FBF7A8FF0494F8
:104AB00004A905480594FDF757FD002801D0FBF730
:104AC0009EFF06B010BD000090050020A0860100EA
:104AD0000C4810B50A4901604FF4E13141600021F2
:104AE00081600C22C160C0E904128161C161FEF7DE
:104AF00085F9002803D0BDE81040FBF780BF10BD4A
:104B0000004C0040D80500200C4810B50A4901604F
:104B10004FF4E1314160002181600C22C160C0E9A5
:104B200004128161C161FEF769F9002803D0BDE874
:104B30001040FBF764BF10BD005000401C06002071
:104B40000C4810B50A4901604FF4E1314160002181
:104B500081600C22C160C0E904128161C161FEF76D
:104B60004DF9002803D0BDE81040FBF748BF10BD49
:104B700000100140600600200C4810B50A49016091
:104B80004FF4E1314160002181600C22C160C0E935
:104B900004128161C161FEF731F9002803D0BDE83C
:104BA0001040FBF72CBF10BD00440040A4060020BD
:104BB0000C4810B50A4901604FF4E1314160002111
:104BC00081600C22C160C0E904128161C161FEF7FD
:104BD00015F9002803D0BDE81040FBF710BF10BD49
:104BE00000480040E80600200C4810B50A49016062
:104BF0004FF4E1314160002181600C22C160C0E9C5
:104C000004128161C161FEF7F9F8002803D0BDE804
:104C10001040FBF7F4BE10BD001401402C0700202B
:104C2000B4EEE00AF1EE10FA01DDB0EE600AF1EE4A
:104C3000600AB4EEE00AF1EE10FA01D2B0EE600ABA
:104C40007047FEE700F004F8012005F0BBFAF9E731
:104C50002DE9F04F00252DED068B81B09FEDFE8BE9
:104C60004FF0010A9FEDFEAAFE4FA94607F5B66870
:104C700005EB4500C0EB4516FB4800EB8604A07829
:104C80000A287AD2DFE800F00579FE083487A6C446
:104C9000FDFCA4F80A9070E0E06E012822D0D4ED6B
:104CA000190AB4F90C00F14900EE100A05EB850071
:104CB00000EBC500009001EBC000B8EEC00A8346CF
:104CC00005F000FB9BED110A84ED040AB4F906001F
:104CD00000EE900A0098F8EEE00A07EBC00005F03D
:104CE000F1FA4AE0A08800EE100AF8EE400AD8E790
:104CF000B4F90800DC4B002801DD014600E0414228
:104D0000B4F90E20914201DAC4F81490002801DDB4
:104D1000014600E04142914208DA002800DC4042AE
:104D200033F92610884201DA606902E06069401CAC
:104D300060611E2802DBC4F818A001E0C4F81890D6
:104D4000B4F9060000EE100A05EB850000EBC50083
:104D5000F8EEC00A94ED040A07EBC000834605F0A4
:104D6000B1FAB4F90E0000EE100AF8EEC00A9BED9D
:104D7000110AFFF755FF8BED110ADFF8F4B20BEBC8
:104D80008604A0780A287ED2DFE800F0F67DF0F9EC
:104D9000EEEDECEBEAE9B4F90C00D4ED190A00EE03
:104DA000100A05EB850000EBC500B049009001EB4F
:104DB000C000B8EEC00A834605F084FA9BED110AE4
:104DC00084ED040AB4F9060000EE900A0098F8EEAB
:104DD000E00AC1E7B4F90C00D4ED190A00EE100A9C
:104DE00005EB850000EBC500A049009001EBC00079
:104DF000B8EEC00A834605F065FAB4F90E0000EE7D
:104E0000100AF8EEC00A9BED110AFFF709FF5BE7F5
:104E1000DFF854B2B4F9440007F061FC53EC182BEE
:104E200007F0C4FC41EC190BB4F90800002800DCC1
:104E3000404207F054FC53EC192B07F07BFC01D8DF
:104E4000C4F84C90B4F9440007F049FCB0EE481A9D
:104E5000F0EE681A53EC112B07F0A8FC41EC190B8B
:104E6000B4F90800002800DC404207F038FC53EC9D
:104E7000192B07F099FD0FD3B4F90800002803E0BF
:104E800076E013E05EE0FBE000DC40423BF92610F8
:104E9000884201DAE06C02E0E06C401CE0641E280D
:104EA00050DBC4F848A084ED19AA49E0DFF8B8B196
:104EB000B4F9540007F013FC53EC182B07F076FC00
:104EC00041EC190BB4F90800002800DC404207F05F
:104ED00006FC53EC192B07F02DFC01D8C4F85C90AC
:104EE000B4F9540007F0FBFBB0EE481AF0EE681A74
:104EF00053EC112B07F05AFC41EC190BB4F90800E4
:104F0000002800DC404207F0EAFB53EC192B07F0C5
:104F10004BFD0AD3B4F90800002800DC40423BF9FD
:104F20002610884201DAE06D02E0E06D401CE06589
:104F30001E2807DBC4F858A094ED180A84ED190A5E
:104F400084ED04AAB4F9060000EE100A05EB850012
:104F500000EBC500F8EEC00A94ED040ABDE6B6E128
:104F60005CE10DE1EEE0CCE035E008E0A0E103E03B
:104F7000204601F061FCE5E7A4F80A9080E0E06ECD
:104F8000012822D0D4ED190AB4F90C00394900EEF9
:104F9000100A05EB850000EBC500009001EBC00096
:104FA000B8EEC00A064605F08DF996ED110A84EDBB
:104FB000040AB4F9060000EE900A0098F8EEE00A40
:104FC00008EBC00005F07EF95AE0A08800EE100A58
:104FD000F8EE400AD8E7B4F90800002801DD0146E0
:104FE00000E04142B4F90E20914201DAC4F8149075
:104FF000002801DD014600E04142914208DA002824
:1050000000DC40423BF92610884201DA606902E088
:105010006069401C60611E2802DBC4F818A001E032
:10502000C4F81890B4F9060000EE100A05EB8500EC
:1050300000EBC501F8EEC00A94ED040A08EBC106C6
:10504000304605F03FF9B4F90E0000EE100AF8EE14
:10505000C00A96ED110A0FE0000000000000F83FC2
:1050600000000000AC5C002054560020845F00204B
:105070008059002034650020FFF7D2FD86ED110A2B
:105080006D1C072DFFF6F4ADC64D002142F69A13B4
:1050900040F67B4446F2A81A01EB4100C0EB4112F6
:1050A00005EB82008678012E09D046B1C678012E24
:1050B0007DD0022E7CD0032E7BD0A0F80A90491C14
:1050C0000729E9DB00215D4601EB4100C0EB4112FD
:1050D00005EB82008678012E09D046B1C678012EF4
:1050E00068D0022E67D0032E66D0A0F80A90491C23
:1050F0000729E9DB01B0BDEC068BBDE8F04FFFF7F7
:1051000085BAB4F90C00D4ED190A00EE100A05EBCB
:10511000850000EBC500A449009001EBC000B8EE8B
:10512000C00A064605F0CEF896ED110A84ED040A91
:10513000B4F9060000EE900A0098F8EEE00A08EBD9
:10514000C0067DE7B4F90C00D4ED190A00EE100A90
:1051500005EB850000EBC5009349009001EBC00012
:10516000B8EEC00A064605F0ADF8B4F90E0000EE40
:10517000100AF8EEC00A96ED110AFFF751FD16E786
:10518000B4F9440007F0ABFA53EC182B07F00EFB10
:1051900041EC190BB4F90800002800DC404207F08C
:1051A0009EFA53EC192B07F0C5FA08D805E092E0F7
:1051B000A2E0BAE0C2E0D2E0EAE0C4F84C90B4F970
:1051C000440007F08CFAB0EE481AF0EE681A53EC7F
:1051D000112B07F0EBFA41EC190BB4F90800002889
:1051E00000DC404207F07BFA53EC192B07F0DCFBA4
:1051F0000AD3B4F90800002800DC40423BF926102D
:10520000884201DAE06C02E0E06C401CE0641E2899
:105210004EDBC4F848A084ED19AA47E0B4F9540065
:1052200007F05DFA53EC182B07F0C0FA41EC190BAC
:10523000B4F90800002800DC404207F050FA53ECB3
:10524000192B07F077FA01D8C4F85C90B4F9540030
:1052500007F045FAB0EE481AF0EE681A53EC112B3D
:1052600007F0A4FA41EC190BB4F90800002800DC9F
:10527000404207F034FA53EC192B07F095FB0AD3A0
:10528000B4F90800002800DC40423BF926108842AF
:1052900001DAE06D02E0E06D401CE0651E2807DBEE
:1052A000C4F858A094ED180A84ED190A84ED04AAF4
:1052B000B4F9060000EE100A05EB850000EBC5010D
:1052C000F8EEC00A94ED040A08EBC1007AE6204625
:1052D00001F0B2FAECE725F82230026F012A02D081
:1052E00000EE103A0FE001EB810202EBC10207EB86
:1052F000C20292ED110A12E025F82240026F012A43
:10530000F1D000EE104A01EB810202EBC10207EB83
:10531000C202F8EEC00A92ED110AFFF781FCBDEE61
:10532000C00A10EE102A4281C9E625F822A0026FB9
:105330005646012AD7D000EE106AE4E725F822305D
:10534000026F012A02D000EE103A0FE001EB810259
:1053500002EBC10608EBC60292ED110A12E025F835
:105360002240026F012AF1D000EE104A01EB8102C7
:1053700002EBC10608EBC602F8EEC00A92ED110A74
:10538000FFF74EFCBDEEC00A10EE102A4281AEE6D9
:1053900025F822A0026F5646012AD7D000EE106AE7
:1053A000E4E7000054560020346500202DED028B08
:1053B0009FED958ADFF854B20125954C954E4FF03C
:1053C00007084FF0000902274FF0030A92480068CF
:1053D00018B1B0EE480A01F073FC904801780F292B
:1053E0000DD2DFE801F0080D2D9AFEFE9EDEABB770
:1053F000E9F9F4F3FC008BED098A8BED0A8AF0E001
:1054000087490F7087498BED098A8BED0A8ACA8913
:1054100040F2DC518A4201D22570E2E0EFD98249A4
:105420002770CA78032AEAD189790229E7D17F490E
:10543000FF220D607E49097802EB41017D4A51E06F
:1054400077490F7077498BED098A8BED0A8ACA89F3
:1054500040F2DC518A4253D2764A1178012908D0B1
:10546000032918D005292BD07069A8B3012843D08F
:10547000B7E07149096841B10A2323706A4BC6F845
:1054800014901944097911B1ABE00523F5E7674998
:105490000D60177011E06849096841B10A23237053
:1054A000614BC6F814901944097911B199E00523AC
:1054B000F5E75E490D60042114E080F8008090E07B
:1054C0005D49096849B10A232370574BC6F8149007
:1054D0001944097919B184E006E00523F4E753493A
:1054E0000D6006211170E8E75348006810B10A20EA
:1054F000207076E00520FBE72570C6F8109070E07C
:105500006FD93069012801D020B16AE0756184F853
:10551000008066E084F800A063E0414981F800A0C3
:1055200069E73F480770082020704348006810B1C1
:1055300004F0FAFC55E004F001FC52E03848077032
:105540003D482570006810B104F01EFB49E004F0EE
:10555000B5FA46E0324807703648007801280AD08C
:10556000032808D0052806D0022808D0042806D031
:10557000062804D00AE084F80080356106E02E4851
:10558000006848B10A202070C6F814902A480068C4
:1055900020B104F049FA24E00520F4E704F0ECF926
:1055A0001FE01F4807702448006810B105F0C2FCD6
:1055B00017E005F0B5FB14E019491F4881F800A079
:1055C000006830B104F0A6F80BE008E010E00CE051
:1055D00002E003F081FF04E0114981F800A002F02D
:1055E000F7FA0A2004F0EEFDF0E602F0B1FAF8E76F
:1055F0000B49114881F800A0006810B102F014FDB9
:10560000EFE702F037FBECE700000000FC5300205E
:105610000B01002000000020300100200E010020BE
:1056200009010020E85300201C0400203C01002058
:10563000490100204A0100201401002010B5F2EEBB
:10564000043A2DED048B9FED608AF3EE092AF2EE09
:10565000041AB0EE483AB0EE482AB0EE481AF0EE1E
:10566000480ADFED5A8A04215948B0EE680A04F06E
:105670001FFFF6EE003AB0EE483AF0EE082AB0EE20
:10568000482AF2EE041AB0EE481AF0EE480AB0EEDC
:10569000680A04214F4804F00BFFF7EE003AB0EE21
:1056A000483A9FED4D9AB0EE482AF7EE001AF0EE18
:1056B000492AB0EE481AF0EE480ADFED489A042174
:1056C0004748B0EE690A04F0F3FEF2EE043AB0EE99
:1056D000483AF0EE492AB0EE482AF1EE041AB0EE4C
:1056E000481AF0EE480AB0EE690A04213D4804F079
:1056F000DFFEDFED3D3AB0EE483AF3EE0E2AB0EEB3
:10570000482AF7EE001AB0EE481AF0EE480AB0EE5A
:10571000690A0421354804F0CBFEF2EE043AB0EEFB
:10572000483AF0EE492AB0EE482AF1EE041AB0EEFB
:10573000481AF0EE480AB0EE680A04212C4804F03A
:10574000B7FE9FED2C9AF6EE003AB0EE483AF0EE36
:10575000492AB0EE482AF1EE041AB0EE481AF0EEEB
:10576000480AB0EE680A0421234804F0A1FEF6EED0
:10577000003AB0EE483AF0EE492AB0EE482AF1EE8F
:10578000041AB0EE481AF0EE480AB0EE680A042196
:105790001A4804F08DFEB0EE483AF0EE492AB0EE19
:1057A000482AB0EE481AF0EE480AB0EE680ABDEC9E
:1057B000048BF2EE043AF1EE041ABDE81040042125
:1057C0000F4804F075BE0000000000000000FA441D
:1057D0004C540020B45400200000704200007A4471
:1057E0001C55002084550020CDCCCC3DEC5500202C
:1057F000F0740020000048422876002058750020F0
:10580000C0750020FEE709218170203080EC070A76
:1058100070470000FDEEC00A0522827010EE902A4B
:105820008281C18190ED191A71EE400AF5EEC00A2D
:10583000F1EE10FA01DC70EE410A044910EE900A14
:10584000884201DA01207047002070470000A04024
:10585000FDEEC00A0321817010EE901A818190ED57
:10586000191A71EE400AF5EEC00AF1EE10FA01DCE9
:1058700070EE410A044910EE900A884201DA0120D4
:1058800070470020704700000000A04030B59FED39
:105890003F0A90F868208188F0EE400A3AB1C27859
:1058A000012A0AD0022A0BD0032A0ED10BE0A0F85D
:1058B0006A10012180F8681030BDF3EE030A04E09D
:1058C000DFED330A01E0F7EE000AB0F906209FEDA4
:1058D000311ADFED311A41F6FF73002A1EDDB0F8F0
:1058E0006A20914211D2A1EB02021A4440F2E24333
:1058F0009A420DDA00EE102AB8EEC00A20EE010A34
:1059000020EE211A81EE200A02E001D98A1AF1E77D
:10591000B5EEC00AF1EE10FA2FDA34E0B0F86A20E2
:105920001EDA91420AD9A3EB010303F2E1441444C5
:1059300040F6C215AC420DD81A4401E00AD28A1AC8
:1059400000EE102AB8EEC00A20EE010A20EE211A5D
:1059500081EE200AB5EEC00AF1EE10FA0DD912E080
:1059600091420AD08A1A00EE102AB8EEC00A20EE40
:10597000010A20EE211A81EE200AD0ED190A30EE3C
:10598000800A80ED190AA0F86A1030BD00000000FE
:1059900000001042000000390000B44370B52E4DE5
:1059A0009FED2E1A9FED2E2AD5ED000AD5ED011A96
:1059B00095ED020A20EE813ADFED2A2A2D4E0024D1
:1059C00001EEC13A00EE023A63EE223A9FED263A2A
:1059D00083EE834ADFED253AC4EE234A9FED244A45
:1059E00021EE844A61EE811A00EEC14A00EE024ABD
:1059F000C5ED0F4A64EE224A84EE834AC4EE234A80
:105A0000B0EE614A40EE811A00EEC14A40EE021A41
:105A100000EE024A61EEA20AC5ED104A64EE224A87
:105A200080EE830A84EE834AC0EE230AC4EE234A42
:105A3000C5ED114AC5ED120A05EB840090ED0F0A81
:105A400004EB4400C0EB441006EB800000F0BCF90E
:105A5000641C042CF0DB70BDFC530020F304353FC4
:105A6000CDCCCC3E00800E44C67D743E00007A440E
:105A7000F30435BF545600202DE9F0411C4A40F292
:105A8000DC531C4E17890121002002251A4C9F422D
:105A900005D286F84C00A1702070A07104E010D9E6
:105AA00086F84C10A5702170617801290BD003296C
:105AB0000CD0022903D11149086020716071BDE842
:105AC000F0816070FBE72071E070F7E72178012931
:105AD00004D1D089984208D24FF003006071E06889
