:020000040800F2
:1000000040680020290300087F380008792C000888
:1000100073320008D7060008F1480008000000000D
:10002000000000000000000000000000690200085D
:100030002F09000800000000C5020008693E000802
:100040004303000843030008430300084303000878
:100050004303000843030008430300084303000868
:10006000430300084303000843030008DD070008BA
:1000700043030008E907000843030008F5070008E8
:100080004303000843030008430300084303000838
:10009000D90600084303000843030008310900089B
:1000A0004303000843030008430300084303000818
:1000B000293F0008353F00084303000843030008B8
:1000C00043030008430300084303000843030008F8
:1000D00043030008394600084303000843030008AF
:1000E00043030008430300084303000843030008D8
:1000F0004D3F0008413F0008430300080108000885
:1001000043030008430300084303000843030008B7
:10011000114200081D420008430300084303000881
:1001200043030008430300080D08000843030008C8
:100130004303000843030008430300084303000887
:10014000E5060008430300084303000843030008D2
:10015000430300084303000819080008430300088C
:100160004303000843030008430300084303000857
:100170004303000843030008430300080000000095
:10018000430300084303000800F002F800F05CF8A5
:100190000AA090E8000C82448344AAF10107DA45E2
:1001A00001D100F051F8AFF2090EBAE80F0013F0D8
:1001B000010F18BFFB1A43F0010318472484000005
:1001C000448400000A444FF0000C10F8013B13F087
:1001D000070408BF10F8014B1D1108BF10F8015BA0
:1001E000641E05D010F8016B641E01F8016BF9D193
:1001F00013F0080F1EBF10F8014BAD1C0C1B09D1EA
:100200006D1E58BF01F801CBFAD505E014F8016B5B
:1002100001F8016B6D1EF9D59142D6D370470000ED
:100220000023002400250026103A28BF78C1FBD8FF
:10023000520728BF30C148BF0B6070471FB508F098
:1002400086F81FBD10B510BD00F010FA1146FFF77B
:10025000F5FF05F041FD00F02EFA03B4FFF7F2FFC1
:1002600003BC00F031FA00002C4B19680868B0E8B4
:10027000F04F80F30988BFF36F8F4FF0000080F3D9
:10028000118870470000000008480068006880F38B
:1002900008884FF0000080F3148862B661B6BFF39F
:1002A0004F8FBFF36F8F00DF00BF00BF08ED00E08E
:1002B000DFF80C00016841F470010160704700BF75
:1002C00088ED00E0EFF30980BFF36F8F134B1A68DE
:1002D0001EF0100F08BF20ED108A20E9F04F1060CB
:1002E00009B44FF0500080F31188BFF34F8FBFF374
:1002F0006F8F06F085FD4FF0000080F3118809BC78
:1003000019680868B0E8F04F1EF0100F08BFB0EC95
:10031000108A80F30988BFF36F8F70473C0000207C
:10032000EFF30580704700000948804709480047FF
:10033000FEE7FEE7FEE7FEE7FEE7FEE7FEE7FEE795
:10034000FEE7FEE704480549054A064B70470000F2
:10035000193F000889010008406200204068002021
:10036000406400204064002053EA020C00F06980E1
:100370002DE9F04B4FF00006002B1FBFB3FA83F5B9
:1003800003FA05F424FA05F65E4012BF1643B2FAEA
:1003900082F502FA05F4C5F120051EBF22FA05FC1C
:1003A00044EA0C04203556EA044C4FEA144418BFC2
:1003B000641C4FF000084FF00009904271EB030CF1
:1003C00039D3002919BFB1FA81F701FA07F6B0FA5B
:1003D00080F700FA07F6C7F120071EBF20FA07FCD6
:1003E00046EA0C062037B6FBF4FCA7EB0507103FE6
:1003F00007F01F0BCBF120060CFA0BFB2CFA06F6CC
:1004000044BFB3460026202FA4BF5E464FF0000B2A
:100410005BEA060C08BF4FF0010B19EB0B09ABFBB5
:10042000027C48EB0608C01B06FB02CC0BFB03CC8E
:1004300071EB0C01C1E70B46024641464846BDE858
:10044000F08B13B54FF000004FF00001AFF30080C8
:10045000BDE81C40704740EA010310B59B070FD16F
:10046000042A0DD310C808C9121F9C42F8D020BA24
:1004700019BA884201D9012010BD4FF0FF3010BDDC
:100480001AB1D30703D0521C07E0002010BD10F8AA
:10049000013B11F8014B1B1B07D110F8013B11F870
:1004A000014B1B1B01D1921EF1D1184610BD032A2E
:1004B00040F2308010F0030C00F0158011F8013B81
:1004C000BCF1020F624498BF11F801CB00F8013B68
:1004D00038BF11F8013BA2F1040298BF00F801CB2C
:1004E00038BF00F8013B11F0030300F08480083AA4
:1004F000C0F0088051F8043B083A51F804CBA0E85A
:100500000810F5E7121D5CBF51F8043B40F8043BAE
:10051000AFF30080D20724BF11F8013B11F801CBE3
:1005200048BF11F8012B24BF00F8013B00F801CBB4
:1005300048BF00F8012B704702F0FF0343EA032293
:1005400042EA024200F002B84FF000020429C0F073
:10055000128010F0030C00F01B80CCF1040CBCF1F5
:10056000020F18BF00F8012BA8BF20F8022BA1EB47
:100570000C0100F00DB85FEAC17C24BF00F8012B2C
:1005800000F8012B48BF00F8012B70474FF0000224
:1005900000B5134694469646203922BFA0E80C5079
:1005A000A0E80C50B1F12001BFF4F7AF090728BF54
:1005B000A0E80C5048BF0CC05DF804EB890028BFD0
:1005C00040F8042B08BF704748BF20F8022B11F0F9
:1005D000804F18BF00F8012B704770477047704775
:1005E00010B500F03BF8006810BD10B5044600F0EF
:1005F00035F8046010BD10B5203AC0F00B80B1E8AA
:100600001850203AA0E81850B1E81850A0E8185047
:10061000BFF4F5AF5FEA027C24BFB1E81850A0E850
:10062000185044BF18C918C0BDE810405FEA827C6A
:1006300024BF51F8043B40F8043B08BF7047D20781
:1006400028BF31F8023B48BF11F8012B28BF20F822
:10065000023B48BF00F8012B70470000004870477C
:10066000DC61002000487047DC6100207546FFF720
:10067000F9FFAE4605006946534620F0070085465F
:1006800018B020B5FFF75EFEBDE820404FF0000631
:100690004FF000074FF000084FF0000B21F007016A
:1006A000AC46ACE8C009ACE8C009ACE8C009ACE8AD
:1006B000C0098D46704710B50446AFF30080204650
:1006C000BDE81040FFF7C9BD01491820ABBEFEE7E9
:1006D000260002007047FEE7014800F002BB000060
:1006E00068010020014800F0FCBA000090010020E1
:1006F0002DED068BF0EE009AB6EE00AA9FED198A5A
:10070000DFED198A194D1A4C9FED1A9A1A4E287866
:1007100020B101280BD0022810D015E084ED0D8AFD
:1007200084ED0C8A84ED0E8A05F012F80CE0C4ED1D
:100730000D8AC4ED0C8AC4ED0E9A05E084ED0D9A85
:1007400084ED0C9A84ED0EAA3078042807D000F0CE
:10075000FBF803F077F9012005F024FBD7E705F05B
:10076000F1F8F6E700000000CDCCCC3FE30000201C
:10077000104F0020CDCCCC3EE2000020DFF84C80B2
:10078000134DDFF85090144F287898F80010464623
:10079000884208D00024287805F062F8641C022CF6
:1007A000F9DB2878307099F80200B9684E46884223
:1007B00008D00024287805F053F8641C022CF9DBDB
:1007C000B078B8600A2005F0EDFADDE7E600002019
:1007D000E4000020EE00002000000020014800F0AE
:1007E00059BD00001C040020014800F053BD00006A
:1007F0005C030020014800F04DBD0000BC03002058
:10080000014800F047BD00007C040020014800F0D2
:1008100041BD00003C050020014800F03BBD000048
:10082000DC04002001681823CAB2103AB2FBF3F2CC
:10083000054B6FF30901032A9B5CC36500D9091DB1
:1008400081650846704700006084000810B50146C5
:1008500000208B698A6A4FF0C07453B1B3F5005F12
:1008600015D072B1012A0CD0022A0AD0032A09D16C
:1008700004E01AB1012A06D0022A03D1C96AC901CB
:1008800000D5012010BDC96AA142FAD010BD002ACE
:10089000F7D0012AF2D0022AF3D0032AF3D010BDF8
:1008A00030B50468256825F48025256004686360F8
:1008B0008368402B036803D099600068C26030BD34
:1008C0009A600068C16030BD70B5044690F866005B
:1008D00094F8CA10884229D194F8670094F8CB1094
:1008E000884223D194F8680084F8CE00102204F1E5
:1008F000690104F1CF00FFF7DAFD94F87A0094F86B
:100900000C61D4F8CF50D4F8D310D4F8D720D4F851
:10091000DB30B0420AD194F87B0094F80D41A0423C
:1009200004D12846BDE8704003F06ABF70BD70472F
:10093000802000F065BE72B6FEE706F051F8012097
:1009400005F030FAF9E70000254A9FED260ADFEDB1
:10095000260A11882548A1F2AA539FED251A642B77
:100960000ED901EE901AF8EE611A31EEC02AC2EEED
:10097000201A90ED0D2A61EE821AC0ED061A01E0F0
:1009800080ED061A5188A1F2AA53642B0ED901EE0C
:10099000901AF8EE611A71EEC01A81EEA02AD0ED1D
:1009A0000C1A62EE211AC0ED071A01E080ED071A59
:1009B000D188A1F2AA52642A0ED901EE101AB8EE1B
:1009C000411A31EE400A80EE201A90ED0E0A21EE17
:1009D000000A80ED080A704780ED081A7047000091
:1009E000FC4E00200080BB440000FA43104F002062
:1009F0000000000005F0CAF80A2005F0D3F9F9E775
:100A000090F82020012A07D0022A05D0416A41F43B
:100A10008021416201207047006842690A434261B7
:100A200000207047F0B590F820500468A468012DAC
:100A300005D0022D03D0416A41F4802153E014F027
:100A4000406F01D1E5004BD5C4F30164022C03D9FA
:100A5000416A41F4000146E00125A5401D608B6814
:100A60004FF4C0759BB1CE6833434E6843EAC6036A
:100A7000066805EB0417F3514FF4C273076803EBE4
:100A800004130E69FE50097D012905D009E00E8886
:100A9000CB6843EA4653EBE70168CE5846F48076CC
:100AA000CE501179D2F805304FF4C67641EA0323CF
:100AB000016806EB04168B511178D2F801204FF42F
:100AC000C47341EA0221026803EB0413D1500068A9
:100AD00005EB0411425842F0010242500020F0BDE3
:100AE000416A41F4001141620120F0BD10B590F857
:100AF0002020012A07D0022A05D0416A41F4802132
:100B00004162012010BD3B48D0F8002242F00102B2
:100B1000C0F80022D0F8002222F47C52C0F8002253
:100B2000D0F800224B6A42EA0322C0F800220A7D74
:100B300002F01F0301229A40D0F81C329343C0F800
:100B40001C32CB69B3B9D0F80C329343C0F80C32E5
:100B50008C894B6864F31F434C6900EBC404C4F8F0
:100B600040320C890B6864F31F434C6900EBC404EA
:100B7000C4F84432CB69012B16D1D0F80C321343A0
:100B8000C0F80C320C884B6864F31F434C6900EBCF
:100B9000C404C4F840320C89CB6864F31F434C6929
:100BA00000EBC404C4F844328B69002BD0F8043243
:100BB0000ED01343C0F804320B69002BD0F8143266
:100BC00008D01343C0F81432096A012904D008E0A0
:100BD0009343EFE79343F5E7D0F81C121143C0F8B5
:100BE0001C12D0F8001221F00101C0F80012002000
:100BF00010BD000000640040704730B590F8204000
:100C0000012C05D0022C03D0416A41F480215DE023
:100C10000468002955D02469A40754D04FF4D8742F
:100C2000056804EB01142D5915F00405956005685D
:100C30002D594ED0ED08556005682C5904F002047A
:100C4000D4604FF4DA74056804EB01142D5905F0F3
:100C50000F05156105682D59C5F3072595610568D0
:100C60002C59240C54614FF4DC72046802EB01121D
:100C7000A4581C700468A458240A5C700468A45822
:100C8000240C9C700468A258120EDA704FF4DE72C5
:100C9000046802EB0112A4581C710468A458240AC9
:100CA0005C710468A458240C9C710468A258120E4C
:100CB000DA71006881B1016941F020010161002011
:100CC00030BDE468A8E7416A41F4001141620120A7
:100CD00030BD6D0D1560AFE7C16841F02001C16006
:100CE000EDE72DE9F05F0546006800244669D0F87D
:100CF00004908768D0F80CB0D0F810A0D0F8188015
:100D0000F10748D0F90714D001218160B80703D555
:100D1000284600F05EFA0CE0780702D54FF4006434
:100D200007E0380702D54FF4805402E0284600F06F
:100D30004FFAF80516D529684FF480708860B80519
:100D400003D5284600F047FA0CE0780502D544F4B4
:100D5000005407E0380502D544F4804402E02846F8
:100D600000F038FAF80316D529684FF4803088600F
:100D7000B80303D5284600F030FA0CE0780302D51A
:100D800044F4004407E0380302D544F4803402E020
:100D9000284600F021FA300707D55FEACB6004D57A
:100DA0002968102044F40074C86070074FF00807E9
:100DB00007D55FEA0B7004D52868C760284600F0A5
:100DC00099F9B00706D52868C068800702D0284680
:100DD00000F092F9700607D55FEACA6004D5296869
:100DE000102044F480640861B00607D55FEA0A70F9
:100DF00004D528680761284600F0BCF9F00606D53E
:100E000028680069800702D0284600F0B4F9B003D2
:100E100008D55FEAC96005D52968102048602846D2
:100E200000F0AAF9F00307D55FEA097004D5286835
:100E30004760284600F0D2F9300446D55FEA497091
:100E400040D5F00504D55FEAC87001D044F0010434
:100E5000B00504D55FEA887001D544F0020470053E
:100E600004D55FEA487001D544F00404300529D563
:100E700018F0700F26D008F07000402815D006DC5E
:100E8000102809D020280AD0302816D10AE050288E
:100E90000ED0602811D10EE044F008040DE044F0BB
:100EA00010040AE044F0200407E044F0400404E0A9
:100EB00044F0800401E044F480742868816921F0E2
:100EC00070018161296804204860002C05D0686A9F
:100ED000204368622846FFF78FFEBDE8F09F70B59B
:100EE000040003D094F8200010B104E0012070BD8C
:100EF000204600F081F82068016841F0010101609E
:100F000000F078FC0546052604E000F073FC401B69
:100F10000A2811D820684068C007F6D02068016808
:100F200021F00201016000F065FC05460BE000F0D5
:100F300061FC401B0A2806D9606A40F400306062F8
:100F400084F82060D2E7206840688007EFD4207ED4
:100F50000128206801683DD021F080010160607E99
:100F600001282068016838D021F040010160A07E8E
:100F700001282068016833D021F020010160E07E63
:100F80000128206801682ED041F010010160207F07
:100F900001282068016829D021F008010160607FE4
:100FA00001282068016824D021F004010160D4E9FF
:100FB00002010843D4E90412114308436168491E41
:100FC00008432168C86100206062012084F8200085
:100FD000002070BD41F08001C0E741F04001C5E74D
:100FE00041F02001CAE721F01001CFE741F00801EC
:100FF000D4E741F00401D9E7F0B587B004461421E5
:101000006846FFF7C3FA3649364ADFF8D0E0086889
:10101000D4F800C0334B02240325092610320027E0
:10102000401CF44523D10860012807D1106840F026
:1010300000701060106800F000700590186840F0B3
:10104000010018601868694600F0010005904FF42F
:10105000C0508DE89100CDE90356234800F0DCFA3A
:1010600000220521142000F063FC142032E0DFF898
:101070007CE0F44530D1D2F800C04CF0806CC2F86E
:1010800000C0D2F800C001280CF0806CCDF814C06C
:10109000086007D1106840F000701060106800F020
:1010A00000700590186840F00200186018686946E2
:1010B00000F0020005904FF440508DE89100CDE91A
:1010C00003560B4800F0A8FA00220521402000F04A
:1010D0002FFC402000F01EFC07B0F0BD0064004073
:1010E0002800002030380240000002400068004024
:1010F000000402407047000070B5054619488CB0E6
:10110000854214D107AB6A460021FFF776FD154AE8
:1011100007A9684604F078FC134E002404EB440051
:1011200006EB001002F00AFC641C072CF6DB0F48EB
:10113000854214D109AB6A460021FFF75EFD0B4AD8
:1011400009A9684604F060FC094D002404EB440042
:1011500005EB001002F0F2FB641C072CF6DB0CB070
:1011600070BD000068010020604F00209001002049
:10117000B050002070477047704770B5044690F833
:101180002000012804D0606A40F40020606217E06B
:10119000022084F820002068016821F0010101602C
:1011A00000F028FB05460DE000F024FB401B0A2858
:1011B00008D9606A40F400306062052084F820009D
:1011C000012070BD20684068C007EDD1606270BD2D
:1011D00070477047704770477047704770472DE9F8
:1011E000F0410446876D00F005FB054694F8350094
:1011F0000026022806D08020606584F83460012033
:10120000BDE8F0812068016821F0160101602068C6
:10121000416921F080014161206C08B9A06C20B1C6
:101220002068016821F0080101602068016821F050
:10123000010101600CE000F0DDFA401B052807D930
:1012400020206065032084F8350084F83460D7E7F7
:1012500020680068C007EED194F85C103F208840F9
:10126000B860012084F8350084F834600020C7E7B6
:1012700090F83510022903D0802141650120704784
:10128000052180F835100068016821F00101016036
:10129000002070472DE9F84304464FF00009CDF8CF
:1012A000009063484FF41651A56D0068B0FBF1F74C
:1012B0002E6894F85C20082101FA02F030420FD029
:1012C0002068026852070BD5026822F0040202600F
:1012D00094F85C008140A960606D40F00100606599
:1012E00094F85C104FF0010808FA01F0304208D081
:1012F00021684969090604D5A860606D40F00200C4
:10130000606594F85C1004208840304208D0216861
:101310000968890704D5A860606D40F00400606525
:1013200094F85C1010208840304218D02168096879
:10133000090714D5A86020680168490304D500682E
:10134000000308D5A16C07E00168C90503D4016852
:1013500021F008010160216C09B12046884794F80A
:101360005C1020208840304231D021680968C906CD
:101370002DD5A86094F8350005282068016806D0AE
:10138000490347D5006800031DD4616C1CE021F0BF
:10139000160101602068416921F080014161206CE3
:1013A00008B9A06C20B12068016821F00801016033
:1013B00094F85C103F208840A86084F8358084F859
:1013C0003490216D1FE0E16B09B120468847606DC4
:1013D00000282BD0606DC00714D0052084F835009C
:1013E0002068016821F0010101600098401C009014
:1013F000B84203D820680068C007F6D184F8358069
:1014000084F83490E16C002910D001B02046BDE88A
:10141000F04308470168C905D5D4016821F01001DF
:10142000016084F8358084F83490CCE7BDE8F88317
:10143000380000202DE9F041044600F0DBF90546B4
:101440005CB1022084F83500002684F834602068FE
:10145000016821F0010101600DE00120BDE8F0818B
:1014600000F0C8F9401B052805D92020606503203D
:1014700084F83500F2E720680068C007F0D12168E1
:101480000A6820480240D4E901031843D4E903352F
:101490002B43184363691843A3691843E36918434E
:1014A000236A18431043626A042A03D1D4E90B2348
:1014B0001A431043086020684069656A20F00701FC
:1014C00028460D43012704280CD1A06A0543E06A91
:1014D00040B12046FFF7BAF920B14020606584F89A
:1014E0003570BAE7206845612046FFF79BF994F80C
:1014F0005C203F2191408160666584F83570002052
:10150000ACE700003F8010F02DE9F0410446866D05
:1015100090F83400002501280DD0012084F8340013
:1015200094F835700020012F07D084F8340002258C
:101530002846BDE8F0810220FBE7022784F83570D9
:1015400060652046FFF7ACF994F85C103F208840B6
:10155000B0602068016841F016010160206C20B184
:101560002068016841F0080101602068016841F0CD
:1015700001010160DCE7000070B51F4C80280DD12F
:101580006169C0052161426AA06840F27123584335
:1015900002EB00106061E060401AA08060780025D6
:1015A00001210128A08840F6980205D0904202D37C
:1015B0006170A570257070BD904203D36170A570F5
:1015C000217070BDA0F2B63140F24C42914210D869
:1015D0000A4AA17822F81100491CC8B2A070082854
:1015E000EFD30649420001F11400FEF760FFA57039
:1015F00070BD657070BD0000BC000020E84E00208A
:10160000044910B50A68024202D00860FFF7B4FF2F
:1016100010BD0000143C01402DE9F84FDFF89C910B
:101620000022A9F1040B03274FF00F0C09F1040A63
:10163000ABF1040E01250B6895402B40AB426ED1F7
:101640000C7904F00304012C01D0022C15D186681A
:10165000540007FA04F826EA0806D1F80C8008FAC4
:1016600004F848EA0608C0F808804468AC430D79DD
:10167000C5F300159540254345600C79E443A40764
:1016800008D0C568540007FA04F6B5438E68A64032
:101690002E43C6600C7904F00304022C11D1D40847
:1016A00000EB8406356A5407E40E0CFA04F825EAC8
:1016B0000805D1F8108008FA04F848EA0508C6F8C9
:1016C00020800568540007FA04F6B5430E7906F049
:1016D0000306A6402E4306604C6814F4403F66D0D3
:1016E000374C256845F480452560246822F00305C1
:1016F00004F480440094334C05EB0408D8F80858EF
:101700009407260F0CFA06F4A5432F4CA04201D1F2
:10171000002424E02D4CA04202D101241FE046E029
:101720002B4CA04201D1022419E02A4CA04201D145
:10173000032414E0284CA04201D104240FE0274CDC
:10174000A04201D105240AE0254CA04201D1062483
:1017500005E0244CA04201D1072400E00824B44055
:101760002C43C8F80848D9F800404D464E689C43C1
:10177000F60200D51C432C60DAF8004055464E684E
:101780009C43B60200D51C432C60DBF800405D464C
:101790004E689C43B60300D51C432C60DEF8004025
:1017A00075464E689C43F60300D51C432C60521CC2
:1017B000102AFFF43FAFBDE8F88F0000083C01405D
:1017C0004438024000300140000002400004024062
:1017D00000080240000C02400010024000140240C9
:1017E00000180240001C02400AB1816170470904E0
:1017F000FBE7000001488068704700002C000020D3
:101800000248816802781144816070472C000020F2
:101810000B4810B5016841F400710160016841F4A2
:1018200080610160016841F480710160032000F073
:101830009FF80F2000F006F800F050F8002010BDCF
:10184000003C024030B505461F4887B000240168BF
:1018500041F002010160006806A900F00200059055
:10186000684600F031F90398A8B100F04DF9400046
:101870001649174AB0FBF1F11648491E026040F2C2
:10188000E732C0E90324C0E90114846100F082FB5F
:10189000040003D015E000F037F9E9E70D4800F047
:1018A000EBFB04000DD11D2000F034F8102D07D201
:1018B000002229461D2000F03BF80748056000E0A3
:1018C000012407B0204630BD4038024040420F009E
:1018D000000400409C050020300000200C4882B02D
:1018E000016841F480410160006800F4804000908C
:1018F0000748001F016841F0805101600068002224
:1019000000F0805000900F21901E02B000F010B83F
:1019100044380240002809DB00F01F0201219140F9
:101920004009800000F1E020C0F80011704700007D
:10193000F0B40E4B1B68C3F30223C3F10704042C5D
:1019400000D904241D1D072D01D2002300E0DB1E59
:10195000012606FA04F56D1E0D409D409E40761E40
:10196000164045EA0601F0BC03F01AB80CED00E0A1
:10197000064A00F0070110684FF6FF03184040EADE
:101980000120034908431060704700000CED00E09F
:101990000000FA052DE9F0470D46040065D0DFF898
:1019A0001491D9F80000EFB200F00700A84207D266
:1019B00089F80070D9F8000000F00700A84254D15F
:1019C00020683D4E810712D5400703D5306840F4AA
:1019D000E05030602078000703D5306840F4604064
:1019E00030603068A16820F0F00008433060207853
:1019F000C0072DD0304960680839012812D002286C
:101A000013D0032811D00968890700292DDA31681D
:101A100021F0030101433160FFF7ECFE804641F203
:101A2000883A0EE009688903EFE709688901ECE765
:101A3000FFF7E0FEA0EB0801514502D90320BDE805
:101A4000F0873068616800F00C00B0EB810FEFD1D7
:101A5000D9F80010484601F00701A94207D90770DC
:101A6000006800F00700A84201D00120E7E72078D5
:101A7000400705D53068E16820F4E0500843306045
:101A80002078000706D53068216920F4604040EADC
:101A9000C100306000F058F83168084AC1F3031102
:101AA000515CC8400649086006480068FFF7CAFE56
:101AB0000020C4E7003C0240083802406884000867
:101AC00038000020300000200F2202600C4A13680A
:101AD00003F003034360136803F0F00383601368AB
:101AE00003F4E053C36012684FF4E05303EAD202F8
:101AF00002610448006800F00700086070470000B9
:101B000008380240003C0240044805490068096862
:101B1000044AC1F38221515CC8407047380000205C
:101B200008380240788400080448054900680968BC
:101B3000044AC1F34231515CC8407047380000206C
:101B40000838024078840008154810B5006810F085
:101B50000C01144813D0431004290FD008290ED1CA
:101B60000F4C241F216801F03F022168490207D56C
:101B70002068C0F38810A0FB030106E0184610BDE2
:101B80002168C1F38811A1FB00010023FEF7ECFBE3
:101B90002168C1F30141491C4900B0FBF1F010BDBF
:101BA000083802400024F4002DE9F84F040075D0F5
:101BB0002078DFF838A3C007AAF1040548D00AF15D
:101BC00004000168C1F38101012908D00068C0F355
:101BD000810002280AD1DAF80000400206D5286800
:101BE000800335D560680028E1D031E06068B0F549
:101BF000803F10D0B0F5A02F286810D020F480309E
:101C00002860286820F4802028606068A0B1FFF771
:101C1000F1FD06460CE0286840F48030F4E740F41B
:101C200080202860F7E7FFF7E5FD801B642871D866
:101C300028688003F7D50BE0FFF7DCFD064604E0DB
:101C4000FFF7D8FD801B6428F1D828688003F7D4FB
:101C50002078DFF89C9280074FF0000B3DD5A34819
:101C6000001D016811F00C0F08D00068C0F381005E
:101C700002280AD1DAF80000400206D4286880075A
:101C800015D5E068012809D111E0E068B8B101205C
:101C9000C9F80000FFF7AEFD064605E022E1FFF7B8
:101CA000A9FD801B0228C2D828688007F7D52868BC
:101CB000216920F0F80040EAC10028600DE0C9F871
:101CC00000B0FFF797FD064604E0FFF793FD801B89
:101CD00002281FD828688007F7D42078000722D56B
:101CE000824F84486169703771B101210160FFF74B
:101CF00081FD064604E0FFF77DFD801B022809D820
:101D000038688007F7D50EE0C0F800B0FFF772FD25
:101D1000064605E082E0FFF76DFD801B02287DD8B6
:101D200038688007F7D42078400765D56F484FF0B2
:101D300000083C300068C0000BD46C483C3001689F
:101D400041F08051016000684FF0010800F08050C0
:101D50000090694F3868C0050FD4386840F480702F
:101D60003860FFF747FD064604E0FFF743FD801BA0
:101D7000022853D83868C005F7D55C4FA0686C3787
:101D800001280FD00528386810D020F001003860F5
:101D9000386820F004003860A068B0B1FFF72AFD71
:101DA00006460EE0386840F00100F4E740F0040019
:101DB0003860F7E7FFF71EFD811B41F28830814252
:101DC00063D838688007F5D50DE0FFF713FD0646A8
:101DD00006E0FFF70FFD811B41F28830814254D8A5
:101DE00038688007F5D4B8F1000F05D03F483C3083
:101DF000016821F080510160A069B8B33B49091D19
:101E00000968C1F38101022946D00228584606D04C
:101E1000C9F86000FFF7EEFC044639E035E04F46B4
:101E2000C9F86000FFF7E6FC064604E0FFF7E2FCB5
:101E3000801B022829D828688001F7D4D4E907013B
:101E40000843A16A2D4A490802EB0141626A41EA4E
:101E50008211084394F82C1040EA0161CAF800107E
:101E600001203866FFF7C6FC044605E03CE0FFF7BA
:101E7000C1FC001B022808D828688001F7D533E090
:101E8000FFF7B8FC001B022802D90320BDE8F88F39
:101E900028688001F4D427E00128F7D0DAF80000A0
:101EA000E26900F4800191421CD1226A00F03F01F6
:101EB000914217D147F6C071626A0140B1EB821FAF
:101EC00010D1A26A4FF0FF3300F4403103EB52020D
:101ED000B1EB024F06D194F82C1000F07060B0EB1B
:101EE000016F01D00120D1E70020CFE70438024084
:101EF00000004742800E4742007000400000FFFF94
:101F00007047704770B590F83C20012A32D0012507
:101F100080F83C50022280F83D20026853689468A3
:101F200023F070060B6833435360134B02689A42E8
:101F300014D0B2F1804F11D0104B9A420ED0104BFA
:101F40009A420BD00F4B9A4208D00F4B9A4205D0C1
:101F50000E4B9A4202D00E4B9A4204D1496824F0AB
:101F600080031943916080F83D50002180F83C10B7
:101F7000084670BD022070BD000001400004004012
:101F800000080040000C00400004014000400140F7
:101F90000018004010B5040003D094F83D0010B1C3
:101FA00007E0012010BD002084F83C00204600F02E
:101FB0001FF8022084F83D00211D206801F0CCFFAD
:101FC000012084F8460084F83E0084F83F0084F83D
:101FD000400084F8410084F8420084F8430084F80B
:101FE000440084F8450084F83D00002010BD000046
:101FF00008B500681D49B0F1804F11D01C4A9042CD
:102000001DD1086840F0800008600868002200F0D8
:102010008000009005212C20FFF78AFC2C201FE077
:10202000086840F0010008600868002200F0010024
:10203000009005211C20FFF77BFC1C2010E00D4ABE
:10204000904211D1086840F480700860086800224E
:1020500000F48070009005212D20FFF769FC2D20F1
:10206000BDE80840FFF756BC08BD000040380240FC
:10207000001C00400020004090F83D10012901D0D4
:1020800001207047022180F83D100168CA6842F0C3
:102090000102CA6000681149884214D0B0F1804F33
:1020A00011D00F4988420ED00E4988420BD00E49FC
:1020B000884208D00D49884205D00D49884202D097
:1020C0000C49884204D1816801F00701062903D038
:1020D000016841F0010101600020704700000140EB
:1020E0000004004000080040000C004000040140D3
:1020F000004001400018004070B5044690F83C00D4
:102100000025012817D0012684F83C60022084F8BD
:102110003D002068826822F0770222F47F428260CC
:102120000868502838D00DDC20284FD005DC90B34B
:10213000102811D14AE0022070BD302846D0402836
:102140000AD13BE060282FD070280DD0B0F5805F19
:1021500003D0B0F5005F12D0012584F83D60002067
:1021600084F83C00284670BDCB68D1E90121206885
:1021700001F056FF2068816841F0770109E0CB68E3
:10218000D1E90121206801F04BFF2068816841F40A
:1021900080418160E1E719E0CA684968206802F07F
:1021A00013F85021206806E0CA684968206802F0E8
:1021B0001CF86021206801F03DFFCEE7CA6849683D
:1021C000206802F001F840212068F4E72268014607
:1021D0001046F0E7704770B50446006801694FF09B
:1021E0000005C943890715D4C168C943890711D4BB
:1021F000E91E016101202077206880698007204660
:1022000002D0FFF7E7FF04E000F0D0F8204600F02E
:1022100062F9257720680169C943490717D4C16865
:10222000C943490713D46FF00401016102202077EC
:102230002068806910F4407F204602D0FFF7CAFF73
:1022400004E000F0B3F8204600F045F92577206857
:102250000169C943090716D4C168C943090712D4E3
:102260006FF008010161042020772068C0698007B1
:10227000204602D0FFF7AEFF04E000F097F82046BA
:1022800000F029F9257720680169C943C90617D4E8
:10229000C168C943C90613D46FF010010161082059
:1022A00020772068C06910F4407F204602D0FFF7F5
:1022B00091FF04E000F07AF8204600F00CF9257751
:1022C00020680169C943C90708D1C168C943C90762
:1022D00004D1891E0161204600F0FEF820680169E2
:1022E000C943090609D4C168C943090605D46FF07A
:1022F000800101612046FFF703FE20680169C943A0
:10230000490609D4C168C943490605D46FF04001A4
:102310000161204600F01CF920680169C943890663
:102320000BD4C168C943890607D46FF0200101614D
:102330002046BDE87040FFF7E4BD70BD70B586B0C3
:10234000044614216846FEF721F9144E2168002343
:10235000134A022409251348B14209D1116841F0FA
:1023600020011160116801F02001059181150BE039
:102370000D4EB14210D1116841F020011160116879
:1023800001F02001059171150091CDE90143CDE9DE
:1023900003356946FFF740F906B070BD001C0040E8
:1023A000303802400014024000200040704770B5F1
:1023B000044690F83C0000260D4601280FD001206D
:1023C00084F83C006AB1042A1DD0082A2FD00C2AB8
:1023D0003FD00126002084F83C00304670BD02202A
:1023E00070BD206801F02EFE2068816941F008016F
:1023F00081612068816921F004018161206881691F
:102400002A69114311E0206801F04CFE20688169BF
:1024100041F4006181612068816921F480618161FA
:10242000206881692A6941EA02218161D2E7206836
:1024300001F06EFE2068C16941F00801C1612068A9
:10244000C16921F00401C1612068C1692A69114391
:1024500011E0206801F090FE2068C16941F400613C
:10246000C1612068C16921F48061C1612068C169CE
:102470002A6941EA0221C161ACE710B5040003D02A
:1024800094F83D0010B107E0012010BD002084F851
:102490003C00204600F01EF8022084F83D00211D7B
:1024A000206801F059FD012084F8460084F83E00C0
:1024B00084F83F0084F8400084F8410084F842002A
:1024C00084F8430084F8440084F8450084F83D0013
:1024D000002010BD7047704730B40168B1F1804FE3
:1024E00022D1164A164B11681960164B491C11600F
:1024F0001988154A491C89B21980642912D300240D
:102500001C805188491C89B251803C290AD35480CF
:102510009188491C89B291803C2903D39480D18849
:10252000491CD1801988118000680849884202D16D
:1025300030BCFFF765B930BC70470000C400002014
:10254000D4000020D8000020DA0000200004004061
:10255000704738B5044690F83E00202826D171B166
:102560006AB194F83C00012820D0012084F83C0096
:102570002063204602F014F8010002D005E001209B
:1025800038BD206B012802D00121084638BD2068E3
:1025900002684068009020680C3050E8002F42F03C
:1025A000100240E80023002BF5D1EEE7022038BDF1
:1025B00070B504461C480D4684420ED11B4803F0FA
:1025C00071FD1A49642266311748FFF7C2FF1848A7
:1025D0000068016821F008010160164884420FD1AB
:1025E0002946154803F05EFD1349642266311148FF
:1025F000FFF7AFFF11480068016821F00801016092
:102600000F4884420FD129460E4803F04BFD0D4977
:10261000642266310A48FFF79CFF0B480068016896
:1026200021F00801016070BD18030020605D0020EA
:102630003C05002090020020705E00205C0300201A
:10264000D4020020805F00201C040020704700009E
:10265000F8B5016804460868CA684B6910F00F0FA6
:102660004FF0000559D003F0010602F4907737438C
:1026700065D0C10705D0D10503D5216C41F001011A
:102680002164410705D5D90703D0216C41F002012F
:102690002164810705D5D90703D0216C41F00401DD
:1026A0002164010707D502F02001314303D0216CDA
:1026B00041F008012164216C00293AD0800604D53C
:1026C000900602D5204601F085FE20684069216C05
:1026D000C0F38010090700D460B3204601F045FE26
:1026E00020684069400621D52068143050E8001F5A
:1026F00021F0400140E80012002AF5D1A06BA8B1FA
:102700006C490165A06BFEF7B3FD002811D0A06BEA
:10271000016D01B0BDE8F040084783060FD5930670
:102720000DD52046BDE8F84001F054BE2046FFF725
:102730008DFFF8BD2046FFF789FF2564F8BD266BA5
:102740002023012E79D1C60677D5D60675D508681F
:10275000486800904869400640D5A16B0868406809
:102760000004000CEAD0A28D8242E7D9E085C86956
:10277000B0F5807F2DD020680C3050E8001F21F488
:10278000807140E80012002AF5D12068143050E82A
:10279000001F21F0010140E80012002AF5D1206855
:1027A000143050E8001F21F0400140E80012002AD8
:1027B000F5D184F83E30256320680C3050E8001FC6
:1027C00021F0100140E80012002AF5D1A06BFEF7BD
:1027D00006FDA08DE18D401A81B229E0A08DE18D2A
:1027E000401A81B2E08D0028A8D00029A6D0206828
:1027F0000C3050E8002F22F4907240E80026002EA2
:10280000F5D12068143050E8002F22F0010240E892
:102810000026002EF5D184F83E30256320680C3068
:1028200050E8002F22F0100240E80023002BF5D1E1
:102830002046FFF7BDFEF8BDFFE705062BD51506C0
:1028400029D594F83D002128F5D1A068B0F5805F26
:1028500001D12069B0B1206A411C21622168007851
:102860004860E08C401E0004000CE084E3D1206846
:10287000C16821F08001C1602068C16841F0400159
:10288000C160D8E7206A0088C0F308004860206A69
:10289000801C2062E5E74006CDD55006CBD5CA683E
:1028A000204622F04002CA6084F83D3000F0E2F990
:1028B000C1E700002942000870B5040004D094F874
:1028C0003D00002510B106E0012070BD84F83C50A9
:1028D000204600F023F8242084F83D002068C168D9
:1028E00021F40051C160204601F0D4FD2068016947
:1028F00021F4904101612068416921F02A01416180
:102900002068C16841F40051C1602564202084F82A
:102910003D0084F83E00002070BD00002DE9F04F1E
:1029200087B0044614216846FDF730FEA348DFF85F
:10293000888210380221D4F800C0A04B0322002561
:102940008F0606154FF0080E4FF04009C4455CD1C4
:10295000D3F800C04CF4002CC3F800C01B6803F48B
:1029600000230593036843F004030360006800F04C
:102970000400059090028DE82300CDE9032E6946FE
:102980008F48FEF749FEDFF840828E494046C8F87E
:102990000010C0E90175C0E90356C8F81450C8F822
:1029A0001850C8F81C50C8F82050C8F82450FEF73A
:1029B00041FD08B1FDF7BFFFC4F83880C8F83840C2
:1029C000DFF804827F4908F1600840463031C0E9F1
:1029D0000356C8F81450C8F81850C8F81C50C8F866
:1029E000205088E88202C8F82450FEF723FD08B181
:1029F000FDF7A1FFC4F83480002205213420C8F877
:102A00003840FEF795FF342072E0DFF8C081C445FE
:102A100074D1D3F800C04CF4801CC3F800C01B680C
:102A200003F480130593036843F004030360036811
:102A300003F004030593036843F008030360006890
:102A40008B4600F0080005904FF48050CDE9000B54
:102A5000CDE902529246F0466946CDF810E058485A
:102A6000FEF7DAFD0420CDE9000BCDE9025A6946F4
:102A7000CDF810805648FEF7CFFDDFF84CA1514944
:102A80000AF1C00A30395046CAF80010C0E9017591
:102A9000C0E90356CAF81450CAF81850CAF81C50B6
:102AA000CAF82050B846CAF82450FEF7C3FC08B153
:102AB000FDF741FF474FC4F838A0CAF83840C7E9CE
:102AC00003567D61BD613F48FD613D6278307D62A6
:102AD00087E801033846FEF7ADFC08B1FDF72BFF90
:102AE0006763002205213520BC63FEF721FF3520F6
:102AF000FEF710FF07B0BDE8F08FFFE7364B9C45AF
:102B0000F8D12E4B1B1DD3F800C04CF0100CC3F8AD
:102B100000C01B6803F010030593036843F0010332
:102B20000360006800F0010005904FF4C0608DE87C
:102B300023000720CDE9032069462848FEF76CFDF5
:102B4000DFF890A026490AF1600A5046B846C0E96D
:102B50000356CAF81450CAF81850CAF81C50CAF8DC
:102B600020508AE80203CAF82450FEF763FC08B13B
:102B7000FDF7E1FE174F1A48C4F834A0C037783883
:102B8000CAF838403860C7E90185C7E903567D6156
:102B9000BD61FD613D6238467D62FEF74BFC08B1C8
:102BA000FDF7C9FEA763002205212520BC63FEF7BF
:102BB000BFFE25209CE70000004C0040403802404A
:102BC00000080240406002405C03002000500040CA
:102BD000000C02407C040020001001400000024074
:102BE000B864024070477047F7B5044690F83D005E
:102BF000202837D1019991B38AB394F83C00012879
:102C000030D0012084F83C002162A284E2840025B7
:102C10002564212084F83D00636B1348D863636BFF
:102C200012481864636B1248D864606B13460565DC
:102C30002668606B321DFEF767FC21686FF040006C
:102C4000086084F83C502068143050E8001F41F0C0
:102C5000800140E80012002AF5D10020FEBDFFE708
:102C60000120FBE70220F9E71F4300086143000849
:102C70003942000870477047FEE70722827080EDF6
:102C8000050A018380ED040A7047D0ED000AF4EED6
:102C9000C00AF1EE10FA01DD80ED000AD0ED000A65
:102CA000B1EE400AF4EEC00AF1EE10FA01D280ED66
:102CB000000A704700B599B0082100208A010092EF
:102CC0000290CDE903010890CDE90901501E06905C
:102CD0003C4814AB41890A0A8DF830208DF8311038
:102CE000418F0A0A8DF832208DF83310B0F86A103F
:102CF0000A0A8DF834208DF83510B0F89A100A0AB7
:102D00008DF836208DF83710B0F8CA100A0A8DF801
:102D100040208DF84110B0F8FA100A0A8DF84220D0
:102D20008DF84310B0F82A010CAA010A8DF844105E
:102D30008DF8450069462448FDF774FE15AB10AACE
:102D400006A92148FDF76EFE204816AB41890A0A04
:102D50008DF838208DF83910418F0A0A8DF83A2005
:102D60008DF83B10B0F86A100A0A8DF83C208DF8F7
:102D70003D10B0F89A100A0A8DF83E208DF83F10E9
:102D8000B0F8CA100A0A8DF848208DF84910B0F83A
:102D9000FA100A0A8DF84A208DF84B10B0F82A0173
:102DA0000EAA010A8DF84C108DF84D0069460848AE
:102DB000FDF738FE17AB12AA06A90548FDF732FE4B
:102DC00019B000BD604F002068010020B050002005
:102DD00090010020104810B50E49016003214160A8
:102DE00000214FF400228160C0E903124FF4401229
:102DF00042610176012242768176C1760177417780
:102E0000FEF76DF8002803D0BDE81040FDF793BD34
:102E100010BD00000064004068010020104810B59B
:102E20000E4901600321416000214FF400228160BE
:102E3000C0E903124FF4401242610176012242764A
:102E40008176C17601774177FEF749F8002803D0F3
:102E5000BDE81040FDF76FBD10BD000000680040E8
:102E600090010020214808B5016841F4800101600B
:102E7000016801F480010091016841F400110160D2
:102E80000068002200F40010009005210B20FEF7DE
:102E90004FFD0B20FEF73EFD002205210D20FEF721
:102EA00047FD0D20FEF736FD002205210F20FEF71D
:102EB0003FFD0F20FEF72EFD002205212F20FEF7FB
:102EC00037FD2F20FEF726FD002205213A20FEF7D0
:102ED0002FFD3A20FEF71EFD002205214620FEF7B9
:102EE00027FDBDE808404620FEF714BD30380240FB
:102EF00010B5194A0021194802F090FF184C164AE3
:102F00000021E0602432174802F088FF124A206155
:102F100048320021144802F081FF0F4A60616C3290
:102F20000021124802F07AFF0B4AA0619032002182
:102F30000F4802F073FF084AE061B43200210D48E7
:102F400002F06CFF044A2062D83200210A4802F0E5
:102F500065FF606210BD0000648300083B09000843
:102F600000000020F1060008F5090008093D0008EE
:102F7000753200087D07000877380008F0B587B083
:102F800014216846FDF702FB36480024016841F031
:102F900004010160016801F004010591016841F03C
:102FA00020010160016801F020010591016841F0F4
:102FB00080010160016801F080010591016841F024
:102FC00040010160016801F040010591016841F094
:102FD00002010160016801F002010591016841F000
:102FE00001010160016801F001010591016841F0F2
:102FF0000801016000681C4E00F008004FF478459D
:103000000590002229463046FEF7EEFB174F0022BE
:1030100001213846FEF7E8FB802000904FF488102D
:10302000CDE9010469463046FEF7F6FA0095012520
:10303000CDE90154694630460394FEF7EDFA009558
:10304000CDE90154694638460394FEF7E5FA0022BB
:1030500005211720FEF76CFC1720FEF75BFC07B07C
:10306000F0BD000030380240001402400018024059
:1030700010B588B01C216846FDF788FA1548144938
:10308000002401605321C0E9011444F61F61C0E926
:10309000031480218161FEF77DFF08B1FDF74BFC31
:1030A0000C48FFF7EAF908B1FDF745FC6020CDE9CF
:1030B000000402940022694606480494FFF777F959
:1030C00008B1FDF738FC0348FFF738F908B010BD28
:1030D000001C00400002002010B588B01C2168468A
:1030E000FDF754FA15481449002401605321C0E942
:1030F000011444F61F61C0E9031480218161FEF7C9
:1031000049FF08B1FDF717FC0C48FFF7B6F908B105
:10311000FDF711FC6020CDE900040294002269460D
:1031200006480494FFF743F908B1FDF704FC03488F
:10313000FFF704F908B010BD00200040480200204D
:1031400010B586B0002416480094019402940394AC
:1031500004944FF08041059401605321C0E90114AB
:103160001049C0E903148461FEF714FF08B1FDF7AC
:10317000E2FB4FF48050009069460948FEF7BCFF1F
:1031800008B1FDF7D8FB049404A905480594FEF79F
:10319000B9FE002801D0FDF7CEFB06B010BD00003F
:1031A000B8010020A08601000C4810B50A49016052
:1031B0004FF4E1314160002181600C22C160C0E91F
:1031C00004128161C161FFF777FB002803D0BDE8DD
:1031D0001040FDF7B0BB10BD004C00409002002035
:1031E0000C4810B50A4901604FF4E13141600021FB
:1031F00081600C22C160C0E904128161C161FFF7E6
:103200005BFB002803D0BDE81040FDF794BB10BD68
:1032100000500040D40200200C4810B50A4901605B
:103220004FF4E1314160002181600C22C160C0E9AE
:1032300004128161C161FFF73FFB002803D0BDE8A4
:103240001040FDF778BB10BD0010014018030020AE
:10325000B4EEE00AF1EE10FA01DDB0EE600AF1EE34
:10326000600AB4EEE00AF1EE10FA01D2B0EE600AA4
:103270007047FEE700F004F8012002F093FDF9E743
:103280002DE9F04FDFF800A400252DED068B83B06B
:103290000AF5B66B9FEDFD9B9FEDFEAAAAF536766B
:1032A00006F5B667A846FC4905EB450001EB00149E
:1032B0000090A078082807D2DFE800F0048BFE0712
:1032C000505D98B5A4F80A8083E0E06A012823D114
:1032D000A08800EE100AB4F90C00F8EE400A00EEE7
:1032E000100A05EB850000EBC50001900AEBC00059
:1032F000B8EEC00A814602F0D5FD99ED110A84EDC1
:10330000040AB4F9060000EE900A0198F8EEE00A0B
:1033100006EBC00002F0C6FDB4F90C00D4ED090ABA
:1033200000EE100A05EB850000EBC50001900AEBEA
:10333000C000B8EEC00A814602F0B4FD99ED110A52
:1033400084ED040AB4F9060000EE900A0198F8EE44
:10335000E00A06EBC00002F0A5FD3AE0B4F9060071
:1033600000EE100A05EB850000EBC500F8EEC00A80
:1033700094ED040A1CE0B4F90C00D4ED090A00EE47
:10338000100A05EB850000EBC50001900AEBC000B8
:10339000B8EEC00A814602F085FD99ED110A84ED70
:1033A000040AB4F9060000EE900A0198F8EEE00A6B
:1033B00006EBC000814602F075FDB4F90E0000EE88
:1033C000100AF8EEC00A99ED110AFFF741FF89EDE6
:1033D000110AB249009801EB0014A078082878D2AD
:1033E000DFE800F07877FE7BC4D1FDFCB4F90C0077
:1033F000D4ED090A00EE100A05EB850000EBC500CC
:1034000001900AEBC000B8EEC00A814602F04AFD06
:10341000B4F90E0000EE100AF8EEC00A99ED110A98
:10342000FFF716FF8CE7B4F9180004F08EFC53EC9C
:10343000192B04F0F1FC41EC180BB4F9080000283A
:1034400000DC404204F081FC53EC182B04F0A8FC93
:1034500001D8C4F82080B4F9180004F076FCB0EE6E
:10346000491AF0EE691A53EC112B04F0D5FC41EC2B
:10347000180BB4F90800002800DC404204F065FC99
:1034800053EC182B04F0C6FD0BD3B4F90800002848
:1034900000DC4042B4F90010884202DA206A03E0FE
:1034A0000AE0206A401C20621E2805DB0120E06142
:1034B00084ED09AA84ED04AAB4F9060000EE100A0E
:1034C00005EB850000EBC500F8EEC00A94ED040A98
:1034D0003FE78AE0A4F80A8087E0E06A012823D168
:1034E000A08800EE100AB4F90C00F8EE400A00EED5
:1034F000100A05EB850000EBC50000900BEBC00047
:10350000B8EEC00A814602F0CDFC99ED110A84EDB7
:10351000040AB4F9060000EE900A0098F8EEE00AFA
:1035200007EBC00002F0BEFCB4F90C00D4ED090AB0
:1035300000EE100A05EB850000EBC50000900BEBD8
:10354000C000B8EEC00A814602F0ACFC99ED110A49
:1035500084ED040AB4F9060000EE900A0098F8EE33
:10356000E00A07EBC00002F09DFC3EE0B4F9060063
:1035700000EE100A05EB850000EBC500F8EEC00A6E
:1035800094ED040A1CE0B4F90C00D4ED090A00EE35
:10359000100A05EB850000EBC50000900BEBC000A6
:1035A000B8EEC00A814602F07DFC99ED110A84ED67
:1035B000040AB4F9060000EE900A0098F8EEE00A5A
:1035C00007EBC000814602F06DFCB4F90E0000EE7E
:1035D000100AF8EEC00A99ED110A02E07BE049E01A
:1035E000C8E0FFF735FE89ED110A6D1C072DFFF6C7
:1035F0005AAE00219FED2A1ADFED2A1A9FED2A2AE2
:1036000042F69A1243F2C82340F67B4940F63C7AD0
:1036100047F2305B204801EB410400EB0410847852
:10362000012C08D0C478012C7ED0022C7DD0032C34
:103630007CD0A0F80A80491C0729EBDB174C00213D
:1036400001EB410004EB00108578012D08D0C5780E
:10365000012D6CD0022D6BD0032D6AD0A0F80A800A
:10366000491C0729ECDB03B0BDEC068BBDE8F04F2D
:10367000FFF720BBB4F90C00D4ED090A00EE100AE4
:10368000B8EEC00A12E00000D8540020000000008C
:103690000000F83F00000000604F0020B050002004
:1036A0000068264600B047450060EA4605EB850005
:1036B00000EBC50000900BEBC000814602F0F2FB6E
:1036C000B4F90E0000EE100AF8EEC00A99ED110AE6
:1036D000FFF7BEFD3CE7B4F9180004F036FB53ECED
:1036E000192B04F099FB41EC180BB4F908000028E1
:1036F00000DC404204F029FB53EC182B04F050FB93
:1037000001D8C4F82080B4F9180004F01EFBB0EE14
:10371000491AF0EE691A53EC112B04F07DFB41ECD1
:10372000180BB4F9080005E031E043E055E068E02B
:103730007AE08CE0002800DC404204F006FB53EC09
:10374000182B04F067FC0AD3B4F90800002800DC49
:103750004042B4F90010884201DA206A02E0206A8F
:10376000401C20621E2805DB0120E06184ED09AACF
:1037700084ED04AAB4F9060000EE100A05EB8500FA
:1037800000EBC500F8EEC00A94ED040AE9E60280F9
:10379000B0F908409C4202DD80F802804BE701EB63
:1037A000810404EBC10406EBC404F0EE410A94ED7D
:1037B000110A1EE0A0F80090B0F90850554501DD4F
:1037C00080F8028001EB810404EBC10406EBC40421
:1037D000F0EE610A94ED110A0BE001EB810404EBB9
:1037E000C10406EBC404A0F800B094ED110AF0EE99
:1037F000420AFFF72DFDBDEEC00A10EE104A4481CB
:1038000019E70280B0F908509D4202DD80F802807D
:1038100026E701EB810505EBC10507EBC505F0EED9
:10382000410A95ED110A1EE0A0F80090B0F9086079
:10383000564501DD80F8028001EB810505EBC105ED
:1038400007EBC505F0EE610A95ED110A0BE001EBFF
:10385000810505EBC10507EBC505A0F800B095EDA6
:10386000110AF0EE420AFFF7F3FCBDEEC00A10EEBB
:10387000105A4581F4E6012002F094FAFBE7FEE7D6
:10388000FDEEC00A0522827010EE902A8281C1816D
:1038900090ED091A71EE400AF5EEC00AF1EE10FA49
:1038A00001DC70EE410A044910EE900A884201DA08
:1038B00001207047002070470000A040BDEEE01AD4
:1038C0000621817011EE101ABDEEC00A818110EE42
:1038D000101AC18190ED091A31EE600AB5EEC00AE6
:1038E000F1EE10FA01DC30EEC10A044910EE100AC4
:1038F000884201DA01207047002070470000A04094
:10390000FDEEC00A0321817010EE901A818190EDC6
:10391000091A71EE400AF5EEC00AF1EE10FA01DC68
:1039200070EE410A044910EE900A884201DA012043
:1039300070470020704700000000A04030B59FEDA8
:103940003D0A90F828208188F0EE400A3AB1C2780A
:10395000012A09D0022A0AD0032A0DD10AE04185A2
:10396000012180F8281030BDF3EE030A04E0DFEDFA
:10397000320A01E0F7EE000AB0F906209FED2F1A97
:10398000DFED2F1A41F6FF73002A1DDD428D9142B3
:1039900011D2A1EB02021A4440F2E2439A420DDA3C
:1039A00000EE102AB8EEC00A20EE010A20EE211A1D
:1039B00081EE200A02E001D98A1AF1E7B5EEC00AC9
:1039C000F1EE10FA2EDA33E0428D1EDA91420AD976
:1039D000A3EB010303F2E144144440F6C215AC42E8
:1039E0000DD81A4401E00AD28A1A00EE102AB8EE65
:1039F000C00A20EE010A20EE211A81EE200AB5EE5F
:103A0000C00AF1EE10FA0DD912E091420AD08A1ADA
:103A100000EE102AB8EEC00A20EE010A20EE211AAC
:103A200081EE200AD0ED090A30EE800A80ED090A05
:103A3000418530BD00000000000010420000003948
:103A40000000B44370B5564D2DED048B95ED050A7D
:103A50009FED549A60EE090ADFED538A80EEA80AC2
:103A600010EE100A04F002FC41EC100B00F0A8FF6D
:103A700051EC100B03F0FCFE95ED050A08EE100A60
:103A800060EE090A80EEA80A10EE100A04F0EEFBC0
:103A900041EC100B00F0F8FF51EC100B03F0E8FEC6
:103AA00000EE100A95F84C00012865D095ED060A45
:103AB00085ED000A95ED070A85ED010A95ED080AE6
:103AC0009FED3A1A85ED020AD5ED000AD5ED011AEF
:103AD0009FED372A20EE813ADFED362A394E002459
:103AE00001EEC13A00EE023A63EE223A9FED323A1D
:103AF00083EE834ADFED313AC4EE234A9FED304A2C
:103B000021EE844A61EE811A00EEC14A00EE024ABB
:103B1000C5ED0F4A64EE224A84EE834AC4EE234A7E
:103B2000B0EE614A40EE811A00EEC14A40EE021A40
:103B300000EE024A61EEA20AC5ED104A64EE224A86
:103B400080EE830A84EE834AC0EE230AC4EE234A41
:103B5000C5ED114AC5ED120A05EB840090ED0F0A80
:103B600004EB440006EB001000F058F9641C042C30
:103B7000F2DBBDEC048B70BDD5ED090A95ED0A1A98
:103B800060EE881A41EE401A20EE800A01EE080A23
:103B9000C5ED001A85ED010A95ED0B0A90E70000CE
:103BA000104F0020DB0F494000003443F304353F41
:103BB000CDCCCC3E00800E44C67D743E00007A44DD
:103BC000F30435BF604F0020074840F2DC51028902
:103BD00006488A4202D24FF0010102E002D94FF0BA
:103BE0000201417070470000FC4E0020E2000020FE
:103BF0000B484089B0F5966F09D3A0F21553002207
:103C00000849B3F5C77F03D804200870CA7070470D
:103C1000B0F5E16FFBD9052008708A70704700008D
:103C2000FC4E0020E20000201248134A81891078DF
:103C3000B1F5966F07D201210BE09170704705280E
:103C4000FCD1D1707047A1F21553B3F5C77F03D8EB
:103C500002210428F3D1F0E7B1F5E16FF2D904288D
:103C600004D00528EED10320D07070470420907056
:103C700070470000FC4E0020E2000020074840F2A0
:103C8000DC51C28906488A4202D24FF0000102E0AC
:103C900003D94FF0010180F84C107047FC4E002012
:103CA000104F0020F0B4164EAA2300243370FF23D7
:103CB0007370B0702546F2700420234605E0CF5C97
:103CC0003754401C5B1CC0B2DBB29342F7D3F2788E
:103CD0000021121D06E0735C2344DCB22B19491C41
:103CE000DDB2C9B28A42F6D83454401CC0B204498D
:103CF0003554F0BC401CC2B20248FEF775BF00004C
:103D000090600020180300202DED028B4FF48057A7
:103D10003B4D9FED3C8ADFED3C8A3C4EDFF8F08066
:103D20003C4C41F28839287830B1012815D002285E
:103D300023D0032855D158E0B0EE680A01F0CAFD3F
:103D4000002239464046FDF74FFD002001F044FBBC
:103D50009FED310A01F0F4FE43E00022394640466F
:103D6000FDF742FDB0EE480A01F0B4FD642001F019
:103D70003FFF484601F030FB33E000223946404621
:103D8000FDF732FD484601F027FB6068012801D0AD
:103D900038B126E0206800BBB0EE680A01F09AFD59
:103DA0001FE0206810B101280CD01AE0B0EE480ADC
:103DB00001F090FD08B1642011E0304601F018FFD9
:103DC00020600EE0B0EE680A01F084FD30B164209E
:103DD00001F00EFF20600120606002E0304601F03B
:103DE00007FF012001F0DEFF9DE7484601F0F4FAED
:103DF000012239464046FDF7F7FC0020ECE70000C1
:103E0000E5000020000000000000E64224FAFFFF69
:103E1000001402400000002000404E450221817045
:103E200080ED040AB0F9060000EE900AF8EEE00A10
:103E300070EEC00AF5EEC00AF1EE10FA00EE900A3C
:103E4000F8EEE00A02DD30EEC00A01E030EE600A72
:103E5000044910EE100A884201DA01207047002060
:103E6000704700000000A04010B54FF0E02000694E
:103E700003F042FB012803D0BDE8104003F06CB80A
:103E800010BD000030B593B030216846FCF77EFBD2
:103E900014210CA8FCF77AFB1D480025016841F0AD
:103EA00080510160006800F080501190194801684D
:103EB00041F4804101600068022400F480401190C8
:103EC0000120039010200490009406940820CDE96E
:103ED0000750A820CDE9090404200B906846FDF79F
:103EE00063FE08B172B6FEE70CA90F2081E831002D
:103EF0004FF4A0500F904FF48050109005210CA863
:103F0000FDF748FD002801D072B6FEE713B030BDC2
:103F100040380240007000400248016841F47001DE
:103F20000160704788ED00E00148FEF754B90000D9
:103F3000B80100200148FEF74EB900009C050020A2
:103F40000148FEF748B90000480200200148FEF78A
:103F500042B9000000020020F0B50268254D264E4F
:103F6000264FDFF89CC0274B4FF0804EA84209D067
:103F7000704507D0B04205D0B84203D0604501D0AB
:103F8000984203D122F070044A682243A8421BD011
:103F9000704519D0B04217D0B84215D0604513D043
:103FA000984211D0184CA0420ED0184CA0420BD011
:103FB000174CA04208D0174CA04205D0164CA04286
:103FC00002D0164CA04203D122F44074CA682243A6
:103FD0004C6922F08002224302608A68C2620A6849
:103FE0008262A84201D0984201D10969016301218E
:103FF0004161F0BD000001400004004000080040A5
:10400000000C004000040140004001400044014019
:104010000048014000180040001C00400020004003
:1040200010B5846842EA032224F47F440A43224301
:10403000826010BD826822F070020A4342F00701DC
:1040400081607047F0B5026A22F001020262026AE2
:1040500043688469114E24F073050C68104F2C439B
:1040600022F002058A682A43B04201D0B84205D145
:1040700022F00805CA682A4322F00402B04201D0A7
:10408000B84205D14D6923F440731D438B692B431E
:1040900043608461496841630262F0BD00000140F1
:1040A00000040140F0B5026A22F010020262026AC6
:1040B000436884690D6824F4E64444EA05248D6865
:1040C00022F0200242EA05120F4D104EA84201D004
:1040D000B04206D1CF6822F0800242EA071222F0F5
:1040E0004002A84201D0B04207D14D6923F4406399
:1040F00043EA85038D6943EA850343608461496827
:1041000081630262F0BD0000000001400004014034
:10411000F0B5026A22F480720262026A4368C469DE
:1041200022F4007224F073050C68124E2C438D6843
:1041300042EA05220E4DA84201D0B04206D1CF6816
:1041400022F4006242EA072222F48062A84201D0EF
:10415000B04207D14D6923F4405343EA05138D69FA
:1041600043EA05134360C4614968C1630262F0BD5C
:10417000000001400004014030B5026A22F4805280
:104180000262036A4268C4690D6824F4E64444EAA2
:1041900005248D6823F4005343EA0533084DA842F3
:1041A00002D0084DA84204D14D6922F4804242EA6F
:1041B00085124260C46149680164036230BD000039
:1041C000000001400004014010B5046A036A23F0B6
:1041D00001030362836923F0F00343EA021324F02E
:1041E0000A020A438361026210BD10B5036A23F01C
:1041F000100303628469036A24F4704444EA0232BF
:1042000023F0A00343EA01118261016210BD0000A6
:104210000148FEF71DBA0000900200200148FEF799
:1042200017BA0000D402002010B5806B0021C185B0
:10423000C184FEF70BFA10BD70B5846B206840692D
:1042400094F83D10C0F3C0100025212904D118B105
:10425000E584204600F0B0F82068406994F83E10EC
:10426000C0F38010222904D118B1E585204600F062
:104270007CF8206C40F0100020642046FEF7E6F940
:1042800070BD10B50146806B09680968C9052FD457
:104290000021C18501680C3151E8002F22F48072A1
:1042A00041E80023002BF5D10168143151E8002FBB
:1042B00022F0010241E80023002BF5D101681431FE
:1042C00051E8002F22F0400241E80023002BF5D1F5
:1042D000202180F83E10016B012909D101680C31C1
:1042E00051E8002F22F0100241E80023002BF5D105
:1042F000016B012902D0FEF775FC10BD818DFEF720
:1043000057F910BD10B5806B016B012902D0FEF783
:104310006AFC10BD818D4908FEF74AF910BD10B541
:104320000146806B09680968C90516D40021C1845B
:104330000168143151E8002F22F0800241E8002387
:10434000002BF5D101680C3151E8002F42F04002FA
:1043500041E80023002BF5D110BDFEF78BFC10BD0A
:1043600010B5806BFEF787FC10BD01680C3151E879
:10437000002F22F4907241E80023002BF5D1016850
:10438000143151E8002F22F0010241E80023002BF4
:10439000F5D1016B012909D101680C3151E8002FD9
:1043A00022F0100241E80023002BF5D1202180F8F3
:1043B0003E1000210163704701680C3151E8002F65
:1043C00022F0C00241E80023002BF5D1202180F823
:1043D0003D10704708B590F83E10222901D0022008
:1043E00008BD81684FF48053994201D1026922B11E
:1043F000826A99421BD049B10AE00268816A526818
:10440000C2F308020A80816A891C08E0016971B15F
:104410000168496801F07F011170816A491C81625D
:10442000C18D491E0904090CC18503D019E001683A
:104430004968F1E70168CA6822F02002CA60016891
:10444000CA6822F48072CA6001684A6922F00102D7
:104450004A61202180F83E10016B012903D0FEF74C
:10446000C1FB002008BD0021016301680C3151E847
:10447000002F22F0100241E80023002BF5D1016843
:104480000A68D20602D50A6849680091818DFEF754
:104490008FF8E6E770B5044600680169E26821F428
:1044A000405111430161A1682069E26901436069DB
:1044B000104301432068C26849F20C639A430A43DF
:1044C000C26020684169A26921F4407111434161D1
:1044D00031492068884202D03049884202D1FDF734
:1044E00023FB01E0FDF710FBE2690023192164259D
:1044F0003226B2F5004F626828D0A0FB0101930F6D
:104500009200FBF731FF0146B0FBF5F06FF01802A7
:10451000504301EB800006EB0010B0FBF5F000F01B
:10452000F002B1FBF5F002EB0012B1FBF5F06FF019
:104530001803584301EB800006EB0010B0FBF5F0C8
:1045400000F00F0021681044886070BDA0FB0101DD
:1045500092185B41FBF708FF0146B0FBF5F0020142
:10456000B1FBF5F06FF01803584301EB800006EB48
:10457000C000B0FBF5F000F0F80002EB4002B1FB28
:10458000F5F0584301EB800006EBC000B0FBF5F0FE
:1045900000F00700D6E700000010014000140140C1
:1045A00037B582B01346039A82628385002504469C
:1045B0000564222084F83E00A16B1C48C863A16BEF
:1045C0001B480864A16B1B48C864A06B0565216883
:1045D000A06B091DFCF798FF2068016840680090F7
:1045E00084F83C50206948B120680C3050E8001F26
:1045F00041F4807140E80012002AF5D1206814309F
:1046000050E8001F41F0010140E80012002AF5D1F6
:104610002068143050E8001F41F0400140E80012CB
:10462000002AF5D105B0002030BD0000834200080B
:1046300005430008394200080148FEF709B80000A8
:104640001803002006480D210A2200F8CA1F002383
:104650004270837080F8422080F843107047000059
:10466000705E00200748552100F8CA1FAA2141703A
:10467000012181700D2180F842100A2180F8431039
:1046800070470000805F002070B5554C554D2DEDF2
:10469000088B94ED031A84ED061AD4ED040AC4EDD8
:1046A000070A90ED000A84ED000AD0ED011AC4ED6E
:1046B000011AD0ED021AC4ED021A90ED032A84ED1E
:1046C000032AD0ED041A32EE411AC4ED041AD0EDDB
:1046D000052A71EEE00AC4ED052A84ED081AC4ED3E
:1046E000090A85ED050AD4ED0A1A31EE811A84ED26
:1046F0000A1A94ED0B1A71EE200AC4ED0B0A9FED15
:104700003ABADFED3ABA60EE0B0A80EEAB0A10EE71
:10471000100A03F0ABFD41EC100B00F051F995EDE0
:10472000050A60EE0B0A80EEAB0A10EE100A03F0E9
:104730009DFD41EC100B00F0A7F99FED2D8B51EC86
:10474000100B53EC182B03F067FB41EC190BA06A1C
:1047500003F08CFD9FED28AB53EC1A2B03F09CFC6F
:1047600053EC192B03F0B6F803F082F8E86095EDEE
:10477000050A60EE0B0A80EEAB0A10EE100A03F099
:1047800075FD41EC100B00F07FF995ED050A60EE28
:104790000B0A80EEAB0A10EE100A03F067FD41EC45
:1047A000100B00F00DF953EC182B51EC100B03F02B
:1047B00033FB41EC190BE06A03F058FD53EC1A2B64
:1047C00003F06AFC53EC192B03F066FC53EC182B36
:1047D00003F080F803F04CF82861BDEC088B70BD45
:1047E000B84E0020104F0020DB0F4940000034433A
:1047F0000000000000005640000000000000000023
:1048000070B5314D00EE100A2DED028B85E80F00DA
:10481000B8EEC00A2D4801F00DFABDEEC00A05F150
:1048200020042A4884ED000A95ED010A1830B8EEFC
:10483000C00A01F0FFF9BDEEC00A244884ED010A68
:1048400095ED020A3030B8EEC00A01F0F3F9BDEE82
:10485000C00A1E4884ED020A95ED030A4830B8EEFE
:10486000C00A01F0E7F9BDEEC08A84ED038A206832
:1048700003F06BFA9FED161B53EC112B03F0CCFAEF
:104880009FED151B53EC112B03F024F803F02EFAC7
:1048900010352860606803F058FA9FED111B53EC47
:1048A000112B03F0B9FA9FED101B53EC112B03F001
:1048B00011F803F01BFA6860A068A86085ED038A10
:1048C000BDEC028B70BD0000DC6000200801002000
:1048D00014AE47E17A14FE3F3333333333D35440BD
:1048E0007B14AE47E17AFC3FCDCCCCCCCCCC27407E
:1048F000FEE700000448AA2100F8CA1FFF2141700A
:104900000221817070470000605D002030B50422F4
:10491000827080ED040AC181B0F9062000EE902A71
:10492000F8EEE00A70EEC00AF5EEC00AF1EE10FAF9
:1049300000EE902AF8EEE00A02DD30EEC00A01E057
:1049400030EE600A094D10EE104AAC4201DA012344
:104950000AE0521C022A07D8B0F90800002800DC3F
:104960004042884200DB0023184630BD0000A040D2
:1049700003B401984100009850EAC12018BF0420F8
:104980004A0D18BF40F0010040F2FF72B2EB515FD8
:1049900008BF40F00200012808BF052002B07047A0
:1049A0000907090E002804DB00F1E02080F800145C
:1049B000704700F00F0000F1E02080F8141D7047F0
:1049C00010B52F499FED2C1B2DED020B84B00598DF
:1049D00020F000408842D8BF9DED040B2DDD294911
:1049E000884209D1049840B94FF00100FBF7FDFD62
:1049F00000F0A2FC06B010BD05DB9DED040B00F03D
:104A00008FFC06B010BD68469DED040B00F0A0F8C9
:104A100010F0030004BF9DED021B9DED000B0CD0B8
:104A200001280ED09DED021B9DED000B022817D032
:104A3000012000F0DDFB06B010BD00F0A5FA06B0C5
:104A400010BD9DED021B9DED000B012000F0D0FB81
:104A500051EC100B02F000FF06B041EC100B10BD42
:104A600000F092FA51EC100B02F0F6FE06B041ECA9
:104A7000100B10BD0000000000000000000000004E
:104A8000FB21E93F0000F07F10B52F499FED2C1B63
:104A90002DED020B84B0059820F000408842DCBF69
:104AA00000209DED040B32DD2849884209D104988D
:104AB00040B94FF00100FBF798FD00F03DFC06B057
:104AC00010BD05DB9DED040B00F02AFC06B010BD07
:104AD00068469DED040B00F03BF810F0030011D088
:104AE000012818D09DED021B9DED000B02281AD065
:104AF00000F04AFA51EC100B02F0AEFE06B041ECA9
:104B0000100B10BD9DED021B9DED000B012000F070
:104B10006FFB06B010BD9DED021B9DED000B00F07C
:104B200033FA06B010BD012000F062FB51EC100B0F
:104B300002F092FE06B041EC100B10BD0000000028
:104B40000000000000000000FB21E93F0000F07FB2
:104B50002DE9F14F04462DED020B2DED088B8AB0A7
:104B60009FEDE70B80ED020B139EE74826F0004512
:104B700085420ADC9DED120B002084ED000B0AB08B
:104B8000BDEC088B03B0BDE8F08FE0489FEDE0ABD3
:104B90009FEDE1BBA84247DDE14F9FEDE39B9FED19
:104BA000E48B9DED120B53EC1A2B51EC100B002EE5
:104BB0001CDD03F071FA41EC100BBD4208D053EC40
:104BC0001B2B51EC100B03F067FAC4E900010BE05A
:104BD00053EC192B51EC100B03F05EFA53EC182B2D
:104BE00003F05AFAC4E900010120C8E702F072FE9E
:104BF00041EC100BBD4208D053EC1B2B51EC100BB9
:104C000002F068FEC4E900010BE053EC192B51ECF3
:104C1000100B02F05FFE53EC182B02F05BFEC4E9B0
:104C200000014FF0FF30AAE7C348A84279DB9DEDB1
:104C3000120B51EC100B00F025FE41EC180B9FED10
:104C4000C00B53EC102B03F0E7F89FEDBF1B53ECA8
:104C5000112B02F03FFE03F049F8074603F075F808
:104C600041EC190B53EC1A2B03F0D6F853EC182B2C
:104C700003F006FA41EC180B53EC1B2B51EC190B0B
:104C800003F0CAF8DFF8C8A241EC100B4FEA155840
:104C90000125FA4453EC102B51EC180B03F0FCF9EE
:104CA000032DC4E900013DD0C1F30A5005EB4511C5
:104CB000A8EB00001139814234DA0AEB051BB0EE93
:104CC00048AA9BED000BF0EE68AA53EC102B51ECB8
:104CD000190B03F0A1F841EC1B0B51EC1A0B53EC30
:104CE0001B2B03F0D9F941EC180B51EC1A0B53ECC8
:104CF000182B03F0D1F953EC1B2B03F0CDF99BEDEE
:104D0000020B41EC1A0B53EC102B51EC190B03F076
:104D100083F853EC1A2B03F0BFF941EC100B6D1C18
:104D2000B8E70EE0002EA8BF3846BFF628AF94EDD6
:104D3000000B51EC100B02F08FFDC4E9000178422A
:104D40001DE7C6F3130040F4801EC6F30A50A0F21C
:104D5000F530471100F01F05C5F12000DDF848B01F
:104D600008900020069007900520EC467949002D18
:104D700007EB0002794408BF51F8221009D051F81E
:104D8000223001EB8201AB404A68089922FA01F116
:104D90001943A1FB0E26A1FB0B131A449A4234BF00
:104DA0000123002303EB06080CEB8003D3E901A6E3
:104DB0000E448E4234BF0121002192448A4411B135
:104DC000924502D903E0924501D2012100E0002181
:104DD000C3E901A641444CF82010011EA0F10100D6
:104DE000C4DC029800F10050850F0298DDE90367EA
:104DF0008000DDF8148002F0A8FF41EC1A0B304669
:104E000002F0BAFF9FED541B53EC112B03F004F892
:104E100041EC1B0B384602F0AFFF9FED511B53ECEA
:104E2000112B02F0F9FF41EC180B404602F0A4FFF1
:104E30009FED4D1B53EC112B02F0EEFF41EC190BD3
:104E400051EC180B53EC192B02F044FD53EC1B2BC7
:104E500002F040FD53EC1A2B02F03CFDCDE90801B5
:104E6000002008909DED080B53EC1A2B51EC100B11
:104E700003F012F953EC1B2B03F00EF953EC182B33
:104E800003F00AF953EC192B03F0FAF89FED381BE5
:104E900053EC112B02F0C0FF9FED370B41EC180BC8
:104EA00053EC102B9DED080B51EC100B02F0B4FFEE
:104EB00053EC182B02F00EFD9FED310B41EC180B5B
:104EC00053EC102B9DED080B51EC100B02F0A4FFDE
:104ED00053EC182B02F0FEFC41EC100B139810F071
:104EE000004F06D06D4251EC100B02F0B5FC41ECC6
:104EF000100B284684ED000B41E600000000000086
:104F00000000000000000000FB21E93F7CD90240C6
:104F100000004054FB21F93F3163621A61B4D03D77
:104F2000FB21F93F000000000000601A61B4D03D91
:104F30007370032E8A19A33BFB2139410000000046
:104F400083C8C96D305FE43F000000000000E03F0F
:104F50001A38000068370000000000000000103E12
:104F6000000000000000103C000000000000103AAB
:104F7000182D4454FB21F93D3326A611460B113C54
:104F800000000054FB21F93D10B52DED040B2DED73
:104F9000088B82B0B0EE419AF0EE619A0B9820F047
:104FA00000449FED4BABB4F1795F11DA9DED0A0B34
:104FB00051EC100B02F09AFE002801BFB0EE4A0A35
:104FC000F0EE6A0A02B0BDEC088B04BF04B010BD5D
:104FD0009DED0A0B53EC102B51EC100B02F01CFF53
:104FE00041EC180B3C480621B0EE480AF0EE680A86
:104FF000784400F081F853EC182B51EC100B02F0C0
:105000000BFF9DED0A0B41EC1B0B53EC192B51ECE4
:10501000100B02F001FF41EC190B53EC1B2B51EC70
:10502000180B02F0F9FE53EC192B03F035F89FED45
:105030002C0B41EC190B53EC102B51EC180B02F01C
:10504000EBFE41EC100B2848844210DA53EC192B8C
:1050500051EC100B03F020F853EC1A2B03F010F86E
:1050600041EC100B02B0BDEC088B04B010BD1F4822
:10507000A042BCBF9FED1E1B8DED001B06DBA4F5FF
:1050800000100190002000909DED001B51EC100BD2
:1050900053EC112B03F000F89DED000B41EC180BC5
:1050A00053EC102B51EC1A0B02F0F6FF41EC1A0BEB
:1050B00053EC192B51EC180B02F0EEFF53EC1A2BAA
:1050C00002F0DEFF41EC100BCCE700000000000016
:1050D000000000000000F03F8C34000000000000E1
:1050E000000000000000E03F3333D33F0000E93F01
:1050F000000000000000D23F70B504462DED028B89
:105100004D1E00EBC500B0EE408AF0EE608A90EDD7
:10511000000B35F0060017D053EC182B51EC100B98
:1051200002F07AFE41EC100B6D1E04EBC50090ED11
:10513000001B51EC100B53EC112B02F0CBFB41EC9C
:10514000100B35F00600E7D1022D36D0042D1CD00F
:10515000062D1CBFBDEC028B70BD53EC182B51EC1F
:10516000100B02F059FE94ED0A1B53EC112B02F0C8
:10517000B1FB53EC182B02F04FFE94ED081B53ECDF
:10518000112B02F0A7FB41EC100B53EC182B51EC48
:10519000100B02F041FE94ED061B53EC112B02F0B4
:1051A00099FB53EC182B02F037FE94ED040B53ECF3
:1051B000102B02F08FFB41EC100B53EC182B51EC31
:1051C000100B02F029FE94ED021B53EC112B02F0A0
:1051D00081FB53EC182B02F01FFE94ED001B53ECE7
:1051E000112B02F077FBBDEC028B41EC100B70BD74
:1051F00031B504462DED040B2DED0A8BB0EE41BA0E
:10520000F0EE61BA0B989DED0A0B20F00040B0F172
:10521000795F0DDA51EC100BFFF7AAFB042808BFE9
:1052200000F09AF89DED0A0BBDEC0A8B05B030BD7D
:1052300053EC102B51EC100B02F0EEFD41EC180B6F
:105240009DED0A0B53EC182B51EC100B02F0E4FD12
:1052500041EC190B2C48B0EE480AF0EE680A052123
:105260007844FFF749FF9FED2ACBB0EE40AAF0EE5D
:1052700060AA9CB353EC1C2B51EC190B02F0CCFD33
:1052800041EC1C0B53EC1A2B51EC190B02F0C4FD32
:105290009FED210B41EC190B53EC102B51EC1B0B28
:1052A00002F0BAFD53EC192B02F0F6FE53EC182B6A
:1052B00002F0B2FD53EC1B2B02F0EEFE53EC1C2B64
:1052C00002F0EAFE9DED0A1B53EC112B02F0D8FE12
:1052D000BDEC0A8B05B041EC100B30BDFFE753EC81
:1052E0001A2B51EC180B02F097FD53EC1C2B02F01B
:1052F000F1FA53EC192B02F08FFD9DED0A1B53ECD4
:10530000112B02F0E7FAE3E714330000000000007D
:10531000495555555555C5BF000000000000E03FF8
:1053200010B553EC102B51EC100B02F0D3FA41ECFA
:10533000100B10BD000000009FED050B10B553ECE5
:10534000102B51EC100B02F079FB41EC100B10BD4F
:1053500000000000000000009FED050B10B553ECAD
:10536000102B51EC100B02F057FD41EC100B10BD4F
:10537000000000000000001070B5044690F86600C0
:1053800094F8CA10884223D194F8670094F8CB109F
:1053900088421DD104F1CF00182204F168010546AE
:1053A000FBF785F8182229460A48FBF780F894F89D
:1053B000800094F80C1188420AD194F8810094F886
:1053C0000D11884204D1BDE870400248FFF75CB976
:1053D00070BD0000C460002010B50446604200EEBD
:1053E000100A0748B8EEC00AFEF718FD00EE104A92
:1053F0000348BDE81040B8EEC00A3030FEF70EBDDD
:10540000E050002010B5354801212DED068BF2EE5D
:10541000082AF6EE001AC17080F833109FED318A29
:1054200080F86310DFED2E8A9FED2F9ADFED2F9A23
:105430009FED2FAA80F89310F0EE683AB0EE483A4C
:10544000B0EE492AB0EE481AF0EE690AB0EE4A0A08
:105450000421284800F012FE2648F0EE683AB0EE2B
:10546000483AF2EE082AB0EE492AF6EE001AB0EEFB
:10547000481AF0EE690AB0EE4A0A0421683000F0DA
:10548000FDFD1C48F0EE683AB0EE483AF2EE082A0C
:10549000B0EE492AF6EE001AB0EE481AF0EE690AAC
:1054A000B0EE4A0A0421D03000F0E8FDF0EE683A90
:1054B000B0EE483AB0EE492AB0EE481AF0EE690A6A
:1054C000B0EE4A0ABDEC068BF2EE082AF6EE001AA0
:1054D0000421BDE81040084800F0D0BD604F002016
:1054E000CDCC4C3E0000000000008046000080440F
:1054F00000000046005200203853002010B55848E4
:1055000001212DED068BC17080F8331080F86310F7
:1055100080F8931080F8C3109FED528AF3EE042AAE
:10552000F0EE483AB0EE483ADFED4F8AB0EE682A26
:105530009FED4E9AB0EE481AF0EE491ADFED4C9A04
:10554000F0EE690A9FED4BAAC0F81C110421B0EEE1
:105550004A0A494800F092FDDFED483A4648B6EE67
:10556000003AF3EE042AB0EE682AF0EE491AB0EEE3
:10557000481AF0EE690AB0EE4A0A0521683000F0D8
:105580007DFDDFED3F9A3C48F0EE483AB0EE693AD7
:10559000F2EE0C2AB0EE682AF0EE491AB0EE481A84
:1055A000F0EE680AB0EE680A0421D03000F066FD23
:1055B000F0EE483AB0EE693AF2EE0C2AB0EE682A04
:1055C000F0EE491AB0EE481AF0EE680AB0EE680A3A
:1055D00004212C4800F052FD2A48F0EE483AB0EE83
:1055E000693AF2EE0C2AB0EE682AF0EE491AB0EEF3
:1055F000481AF0EE680AB0EE680A0421683000F03C
:105600003DFDDFED229ADFED203AB0EE483AF3EEB1
:10561000022AB0EE682AF0EE491AB0EE481AF0EE0F
:10562000690A9FED1B0A04211A4800F027FDB0EE1D
:10563000483AB0EE682AF0EE491AB0EE481AF0EE99
:10564000690ABDEC068B0421F2EE0E2A1148BDE872
:105650001040DFED113A9FED110A683000F00EBDE9
:10566000B05000200000000000008046CDCCCC3DB2
:105670000000614400000046B0570020CDCC4C3EF5
:10568000CDCC4C3DE85800200AD7233C00004844CC
:1056900000008044885A00209A99993E00000045F5
:1056A00000B58BB000200121CDE9060108910090E2
:1056B0000190029003900590049069460C48FBF716
:1056C00015FA0B48FBF759FD02210948FBF798F939
:1056D0000E200990059069460648FBF707FA054831
:1056E000FBF74BFD02210348FBF78AF90BB000BD25
:1056F000680100209001002014489FED130A00214A
:1057000080ED0D0A80ED0C0A80ED0E0A80ED000A96
:1057100080ED010A80ED020A80ED030A80ED040AA3
:1057200080ED050A80ED090A80ED0A0A80ED0B0A7A
:1057300080F84C1080ED0F0A80ED100A80ED110A00
:1057400080ED120A7047000000000000104F00209A
:1057500006489FED050A80ED000A80ED010A80ED04
:10576000020AFEF76FB9000000000000104F002091
:105770002DE9F0470446002190F8660094F8CA200D
:105780000B4604F16A06904214D194F8670094F82D
:10579000CB2090420ED194F8680084F8CD0094F8A4
:1057A000690084F8CE00825D84F80121721C805C5F
:1057B00084F80201208894F8CE200025801F04F18F
:1057C000660704F1CF0982423ADC002002F1040CA2
:1057D00009E004EB0008401C98F86680C0B2414420
:1057E000C9B20B44DBB28445F3D84BB394F8010142
:1057F000884225D194F80201984221D10120C4F8B1
:10580000080116480178491C017031464846FAF7EC
:1058100022FE30B194F8CE2031464846FAF747FED2
:1058200001E0C4F8045194F8CD00F12814D0F22816
:1058300012D0F32810D14846BDE8F04700F02EB84A
:1058400064213846C4F80451FAF77EFE4846BDE8A4
:10585000F0473221FAF778BEBDE8F087EE0000206D
:10586000074908B50A78521C0A7048700888ADF8D4
:10587000000002226946F220FEF714FA08BD00007B
:10588000EC00002082B0CDE9000121F00040019041
:105890009DED000B02B051EC100B70470B49D1F895
:1058A0000821012A10D191F8CD10F3290CD1084913
:1058B00002780A7042784A7082788A70C278CA7018
:1058C000891E4068C1F8060070470000605D002036
:1058D000EE00002070B5B5EEC00A1649F1EE10FAE0
:1058E000154D01F1900012D1D1F8AC1031B1FEF795
:1058F00007F850B100240120286011E040F6B831CB
:105900009FED0E0AFDF7B9F90AE00124F3E710EE66
:10591000102A0B4B9A4203D12A68012A02D0012493
:10592000204670BD0022C1F8AC20FDF7E9FF044617
:10593000F6E70000B0500020E80000200000FAC3A5
:105940000000E6422B4A9FED2C0ADFED2C0A11885D
:105950002B48A1F5B9639FED2B1A282B0ED901EE28
:10596000901AF8EE611A30EE612AC2EE201A90ED1C
:105970000C2A61EE821AC0ED011A05E0A1F2AA51CB
:10598000642901D880ED011A5188A1F5B963282B4B
:105990000ED901EE901AF8EE611A71EEC01A81EE7E
:1059A000A02AD0ED0D1A62EE211AC0ED001A05E012
:1059B000A1F2AA51642901D880ED001AD188A1F57D
:1059C000B962282A0ED901EE101AB8EE411A31EE4A
:1059D000400A80EE201A90ED0E0A21EE000A80EDBA
:1059E000020A7047A1F2AA516429FAD880ED021A7E
:1059F00070470000FC4E00200080BB440000FA43CA
:105A0000104F00200000000030B5494B9A4245D1AC
:105A10000468484BA4F20124072C3FD2DFE804F0CD
:105A2000040E181D222732000C8864BA9C804C8812
:105A300064BADC808C8864BA1C812FE00C8864BA5C
:105A40009C864C8864BADC868C8864BA1C8725E006
:105A50000C8864BA23F8644F0DE00C8864BA23F80C
:105A6000944F08E00C8864BA23F8C44F03E00C8814
:105A700064BA23F8F44F4C8864BA5C808C8864BAAA
:105A80009C800BE00C8864BAA3F824414C8864BA6B
:105A9000A3F826418C8864BAA3F82841264B9A4281
:105AA00014D102682548A2F20122072A0ED2DFE8AB
:105AB00002F0040E181D282D32000A8852BA828086
:105AC0004A8852BAC280898849BA018130BD0A88A1
:105AD00052BA82864A8852BAC286898849BA0187F0
