:020000040800F2
:10000000206400201D03000879470008573E0008BF
:100010002F4300081D1F0008D553000800000000F2
:100020000000000000000000000000005D02000869
:10003000B91F000800000000B9020008174C0008B2
:1000400037030008370300083703000837030008A8
:100050003703000837030008370300083703000898
:100060003703000837030008370300083703000888
:100070003703000837030008370300083703000878
:100080003703000837030008370300083703000868
:10009000211F00083703000837030008BB1F0008B2
:1000A0003703000837030008370300083703000848
:1000B000D54C0008E14C000837030008370300085E
:1000C0003703000837030008370300083703000828
:1000D00037030008C152000837030008370300083F
:1000E0003703000837030008370300083703000808
:1000F000F94C0008ED4C00083703000837030008EE
:1001000037030008370300083703000837030008E7
:10011000D94F0008370300083703000837030008E9
:1001200037030008370300083703000837030008C7
:1001300037030008370300083703000837030008B7
:100140002D1F000837030008370300083703000895
:100150003703000837030008370300083703000897
:100160003703000837030008370300083703000887
:1001700037030008370300083703000800000000B9
:10018000370300083703000800F002F800F057F8C2
:100190000AA090E8000C82448344AAF10107DA45E2
:1001A00001D100F04CF8AFF2090EBAE80F0013F0DD
:1001B000010F18BFFB1A43F00103184750900000CD
:1001C00070900000103A24BF78C878C1FAD852075E
:1001D00024BF30C830C144BF04680C6070470000C1
:1001E0000023002400250026103A28BF78C1FBD840
:1001F000520728BF30C148BF0B607047662908F01E
:10020000A486642900F08C81732900F0C184002049
:1002100070471FB508F08FFE9DE8030001F08CF8D1
:1002200000F020FD04000020002108F0A5F8E060A7
:1002300000F034FE1FBD10B500F099FE10BD00F0B7
:1002400001FF1146FFF7E5FF06F0ECFA01F006F8B2
:1002500003B4FFF7F0FF03BC01F000FA2C4B196860
:100260000868B0E8F04F80F30988BFF36F8F4FF054
:10027000000080F311887047000000000848006803
:10028000006880F308884FF0000080F3148862B69D
:1002900061B6BFF34F8FBFF36F8F00DF00BF00BFAA
:1002A00008ED00E0DFF80C00016841F47001016026
:1002B000704700BF88ED00E0EFF30980BFF36F8F58
:1002C000134B1A681EF0100F08BF20ED108A20E9AA
:1002D000F04F106009B44FF0500080F31188BFF365
:1002E0004F8FBFF36F8F07F01BFB4FF0000080F3C1
:1002F000118809BC19680868B0E8F04F1EF0100FAB
:1003000008BFB0EC108A80F30988BFF36F8F704785
:1003100028000020EFF3058070470000094880475F
:1003200009480047FEE7FEE7FEE7FEE7FEE7FEE7D7
:10033000FEE7FEE7FEE7FEE704480549054A064BEF
:1003400070470000C54C000889010008205E0020AD
:1003500020640020206000202060002053EA020C6E
:1003600000F069802DE9F04B4FF00006002B1FBF15
:10037000B3FA83F503FA05F424FA05F65E4012BFDA
:100380001643B2FA82F502FA05F4C5F120051EBF44
:1003900022FA05FC44EA0C04203556EA044C4FEAE4
:1003A000144418BF641C4FF000084FF0000990423D
:1003B00071EB030C39D3002919BFB1FA81F701FAA7
:1003C00007F6B0FA80F700FA07F6C7F120071EBF5C
:1003D00020FA07FC46EA0C062037B6FBF4FCA7EB34
:1003E0000507103F07F01F0BCBF120060CFA0BFBA3
:1003F0002CFA06F644BFB3460026202FA4BF5E4663
:100400004FF0000B5BEA060C08BF4FF0010B19EB35
:100410000B09ABFB027C48EB0608C01B06FB02CCB9
:100420000BFB03CC71EB0C01C1E70B4602464146C6
:100430004846BDE8F08B13B54FF000004FF00001C7
:10044000AFF30080BDE81C40704700000FB40449C2
:1004500010B503AA029800F09FFB10BC5DF814FBD6
:10046000185D00202DE9F0410E4604460020206270
:100470002046E168884730B3252805D0D4E901211A
:100480009047206A401CF2E7E16820460027884731
:10049000050018D0A5F14100192802D820354FF4E5
:1004A00000673246294620462760FFF7A7FE40B185
:1004B000012804D0F61D26F007060836D8E7361DB9
:1004C000D6E72846DAE7206ABDE8F08170B50C4629
:1004D0000546012A05D02878800600D5EA69002360
:1004E00002E0012305E05B1C934202D2E05C00289D
:1004F000F9D1A869E618C01AA861286A18442862C8
:100500002846AFF3008004E0D5E9012114F8010B7F
:100510009047B442F8D32846AFF3008070BD000086
:100520002DE9F0410646002410687529314616A5CC
:1005300010D0AFF30080002802DA404213A507E094
:1005400031688A0701D512A502E0490704D511A533
:10055000012401E0AFF3008000210A2206F1240704
:1005600009E0B0FBF2FCB0FBF2F302FB1C00303000
:1005700078541846491C0028F3D123462A463046B1
:10058000BDE8F04100F08AB8000000002D00000036
:100590002B00000020000000032A40F2308010F001
:1005A000030C00F0158011F8013BBCF1020F62440E
:1005B00098BF11F801CB00F8013B38BF11F8013B9F
:1005C000A2F1040298BF00F801CB38BF00F8013B4C
:1005D00011F0030300F0F282083AC0F0088051F8ED
:1005E000043B083A51F804CBA0E80810F5E7121DC7
:1005F0005CBF51F8043B40F8043BAFF30080D207E6
:1006000024BF11F8013B11F801CB48BF11F8012BB1
:1006100024BF00F8013B00F801CB48BF00F8012BD4
:10062000704702F0FF0343EA032242EA024200F06D
:10063000F9BA4FF0000200B51346944696462039A9
:1006400022BFA0E80C50A0E80C50B1F12001BFF48B
:10065000F7AF090728BFA0E80C5048BF0CC05DF8F1
:1006600004EB890028BF40F8042B08BF704748BF3F
:1006700020F8022B11F0804F18BF00F8012B7047B3
:1006800070477047704710B500F0F0FA006810BD71
:1006900010B5044600F0EAFA046010BD2DE9F047F9
:1006A0000D4699469246044600F1240801688806E2
:1006B00004D5E06921F01001216000E00120A8428A
:1006C00001DD471B00E00027A1697A1902EB090050
:1006D000081AA0612078C00602D42046AFF300803B
:1006E000002608E0D4E901211AF806009047206AA4
:1006F000401C761C20624E45F4DB2078C0060AD5EB
:100700002046AFF3008006E0D4E901213020904775
:10071000206A401C2062381EA7F10107F4DC07E0C4
:10072000D4E9012118F805009047206A401C206296
:10073000281EA5F10105F3DC2046AFF300802078E8
:10074000000602D50220BDE8F0870120FBE77047D4
:100750002DE9FF4F0C461E464FF0FF378BB0D2E914
:100760000001DDF860800A908A46C1F30A5505B998
:100770003D46002108464FF00000BAF1000F00F49A
:10078000400005DA00EB80004FF4400101EA500020
:100790004FEA9059B9F1010F00DDB9460A9850EAC5
:1007A0004A000ED044F61050A5F2FF3545432F14F1
:1007B000B8F1000F1ED07542291E1EDDC9F10002DE
:1007C0001CE0B8F1010F4FF0000001D0302103E030
:1007D000F24305E02154401CB042FBDB30460022CE
:1007E000002121540B99C1F80880C1E900200FB005
:1007F000BDE8F08FBD1B6D1CDEE74A4600DA69429A
:1008000006A800F0D5FA06AB93E8070003AB83E82F
:10081000070050460A9900F0B9FF8DE80700A0F5DF
:1008200000501F3800900398002D0ADD42F21F018E
:100830004A460844002303A90390684601F022FABF
:1008400009E0A0F500504A461F38002303A9039091
:10085000684601F02CFA8DE807000004000C03D074
:100860004FF0FF30410800E01046B8F1000F03D010
:100870000022009215461EE0751E05D400F0FAF91C
:10088000303262556D1EF9D5B3460122084302D0BD
:1008900000227F1C04E02078302801D100227F1E36
:1008A000002A099784D01DE0112D07DA00F0E2F943
:1008B000303262556D1C50EA0102F5D1084302D076
:1008C0000098C8B10EE00021681E05E0235C625C60
:1008D00063542254401E491C8142F7DBAB46A81BDF
:1008E000401E0990002004F80B000B98099AC0F8EC
:1008F0000880C0E9002B7AE711264FF0000857E77F
:100900002DE9F04F88460446D21D22F0070191B030
:10091000D1E90001CDE90A0104F05AFE02460B9824
:10092000C00F01D02D2007E02068810701D52B20C2
:1009300002E0202101EAC000032A099001D0072A21
:1009400005DB03464146204600F0F2F90BE1207832
:10095000800601D5E06900E00620B8F1650F814608
:1009600006D0B8F1660F18D0B8F1670F70D131E03A
:100970000020B9F1110F009001DB112301E009F112
:1009800001030AAA01A90CA8FFF7E2FEDDE90C7039
:10099000002609F10105834647E001204B460090FF
:1009A0004FF000470AAA01A90CA8FFF7D1FEDDE924
:1009B0000DB00C995D46002610B909F101000D1823
:1009C000B9EB050003D4C0F1FF3609F10105A5EB31
:1009D00009002BE0B9F1010F01DA4FF00109002005
:1009E000B9F1110F0090484601DD112300E00346E4
:1009F0000AAA01A90CA8FFF7ABFEDDE90C704D4671
:100A000000268346207800070AD4AB4500DA5D460D
:100A100001A8012D04DD411911F8011C302907D06E
:100A20004F4502DA17F1040F04DA012082460FE085
:100A30006D1EEEE7002F02DCED1B3E4403E0781C48
:100A4000A84200DD7D1CB81B00F1010A4FF00047F1
:100A50002078000703D4AA4501DB4FF0FF3A0021BC
:100A6000B7F1004F0DF143088DF8431024D0022058
:100A70002B23002F01DA7F422D230A21021EA0F131
:100A8000010000DC5FB197FBF1FC97FBF1F201FB89
:100A90001C7C17460CF1300C08F801CDEEE7A8F1EC
:100AA000010003702188090501D5452100E0652179
:100AB000A0F1010800F8011C09980FA9A1EB080793
:100AC000FF1D00B10120411901EBEA70A169384412
:100AD000081A401EA0612078C00602D42046AFF359
:100AE0000080099828B1D4E901219047206A401C70
:100AF00020622078C00622D52046AFF300801EE099
:100B0000002E04DBB34502DD01A8805D00E030204B
:100B1000D4E901219047206A401C2062761CAAF18A
:100B200001005FEA000A0AD100F09CF8C068016881
:100B3000405CD4E901219047206A401C2062281EB5
:100B4000A5F10105DCDC07E0D4E9012118F8010B6F
:100B50009047206A401C2062381EA7F10107F3DC91
:100B60002046AFF30080032011B041E610B5436981
:100B700013B1AFF3008001E0FFF7A8FC012010BD26
:100B8000127800F124010A7000224A700122EDE778
:100B900011684FF0FF32E9E7074B70B50D467B4413
:100BA00000F0B3F80446284600F074F910B14FF095
:100BB000FF3070BD204670BD135A000010B5203ABA
:100BC000C0F00B80B1E81850203AA0E81850B1E806
:100BD0001850A0E81850BFF4F5AF5FEA027C24BFBC
:100BE000B1E81850A0E8185044BF18C918C0BDE8B3
:100BF00010405FEA827C24BF51F8043B40F8043B7C
:100C000008BF7047D20728BF31F8023B48BF11F830
:100C1000012B28BF20F8023B48BF00F8012B70478A
:100C20004FF000020429C0F0128010F0030C3FF4D2
:100C300002ADCCF1040CBCF1020F18BF00F8012B7F
:100C4000A8BF20F8022BA1EB0C01FFF7F4BC5FEA70
:100C5000C17C24BF00F8012B00F8012B48BF00F82D
:100C6000012B704700487047E05D00200048704746
:100C7000C05D002030B5B0F10A024FEA900E71F16C
:100C800000034EEA817EB0EB0E0061EB91014FEA6A
:100C9000101E4EEA017E10EB0E0041EB11114FEADF
:100CA000102E4EEA016E10EB0E0041EB11214FEABF
:100CB000104E4EEA014E10EB0E0041EB1141401870
:100CC00041F100014FEAD00040EA41704FEAD10102
:100CD00010EB80054FEA810444EA907444EB010470
:100CE0006D1944EB0404521BA3414FF0000348BFAD
:100CF0000A3200D530BD401C41F1000130BD00007A
:100D000001694A1C02610878704700B58FB0CDE9CF
:100D100001310021059105497944CDE903101146BF
:100D20006846FFF79FFB0FB000BD0000E5FFFFFF27
:100D30002DE9F0411F46044603260168072A01F405
:100D4000006004DB08B116A505E016A503E008B1B4
:100D500015A500E015A521F010002060A069C01EB7
:100D6000A0610FB1401EA0612046AFF300804FB1DB
:100D7000D4E9012138469047206A401C2062C01CFB
:100D8000206206E0206AFAE7D4E9012115F8010B98
:100D90009047761EF8D22046AFF30080BDE8F08180
:100DA0004E414E006E616E00494E4600696E66000F
:100DB0002DE9F047814616468AB0354878440DC87B
:100DC0008DE80D0032487844801C03AC0DC884E8DF
:100DD0000D0041F69B300844372190FBF1F290FB67
:100DE000F1F5A5F1800501FB12041B3C02D564421C
:100DF000012000E00020DFF898A080460027FA4498
:100E0000AAF1BE0A0EE0E0070AD03246684607EBB8
:100E1000470101230AEB810100F049FF8DE807003B
:100E200064107F1C002CEED1194F7F44AE3F19E0B7
:100E3000E80715D007EB04100DF1180A90E80E0032
:100E40008AE80E00C068F04201D198190890324635
:100E5000012306A903A800F02AFF03AB83E80700DB
:100E60006D10641C002DE3D14FF00103324669463A
:100E7000B8F1000F03A802D000F004FF01E000F079
:100E800016FFC9E90001C9F808200AB0BDE8F087DB
:100E9000FC830000007B00F08000704710B54248E2
:100EA0005421FFF7C6FB41485421FFF7C2FB4048DD
:100EB0005421FFF7BEFB3F493B483C4A3F4B08608B
:100EC0003D490A603A491960531C0365481C106586
:100ED000012008653B48344A39A1784400F022F9E2
:100EE00020B9384878440A3800F0C1F937482F4A09
:100EF00035A1784400F016F920B9344878440A380E
:100F000000F0B5F932482A4A2FA1784400F00AF9D6
:100F100020B92F4878440A3800F0A9F94023224824
:100F2000DC000021224600F0D9F820B125487844A1
:100F3000543800F09CF91D4822464023002100F05F
:100F4000CDF820B121487844543800F090F9184881
:100F500022461023002100F0C1F8002806D01C48CA
:100F60007844BDE81040563800F081B910BD1048F3
:100F700070B5006D20F001040B4800F049F90B48F2
:100F800000F046F90A4800F043F909E0206D20F02E
:100F90000105204600F03CF9204600F078F82C4688
:100FA000002CF3D170BD0000C45C0020185D00204F
:100FB0006C5D0020FC0000200001002004010020E6
:100FC00072000000F682000077000000E28200005C
:100FD000CE8200000EB5CDE9000100F01FFB0290AB
:100FE00069460120ABBE0EBD08B5694600900220DF
:100FF000ABBE08BD1FB58DE8070069460520ABBE36
:1010000004B010BD1FB58DE80F0069460620ABBEC9
:10101000F6E708B5694600900920ABBE08BD1CB5CF
:10102000CDE9000169460A20ABBE1CBD704708B57A
:10103000694600900C20ABBE08BD00000048704718
:10104000C05D00207546FFF7F9FFAE460500694612
:10105000534620F00700854618B020B5FFF76CF91D
:10106000BDE820404FF000064FF000074FF00008A9
:101070004FF0000B21F00701AC46ACE8C009ACE82A
:10108000C009ACE8C009ACE8C0098D46704770B52E
:101090000446051F00F034F90068002C14BF4468B2
:1010A00070BD002C18BFAC423CBF20466468F8D32A
:1010B00001680A18AA4218BF456003D12A6805468C
:1010C0001144016028684119A1421CBF6C6070BDC9
:1010D0006168696021680844286070BD70B5C468A3
:1010E000A50713D0650211D4B2F5807F09D0B2F5FF
:1010F000007F06D0B2F5806F08D1012300F12401F2
:1011000006E05D1E6FF07F46B54201D3012070BD41
:101110000161C361416024F470611143C16000202A
:1011200070BD00002DE9F0410C46074616461046FA
:1011300000F06EF82078611C61280AD0722802D075
:1011400077283CD102E00125002405E00225042493
:1011500002E0082448F2020511F8010B2B2806D002
:10116000622809D011F8010C74280AD00BE045F070
:10117000030544F00204EFE745F0040544F00104E0
:10118000EAE744F0100438462146FFF723FF411CEC
:1011900015D00021316171604FF40071F560F1618B
:1011A0007061200704D530460222002100F022F9A8
:1011B000306D40F0010030653046BDE8F081002020
:1011C000FBE72DE9F0410D460646104C206DC107A6
:1011D00004D0410804D020F00104F7E722460EE0D5
:1011E000542000F0D8F807000ED0206D47F0010120
:1011F0000843542120653846FFF71BFA3A46294632
:101200003046BDE8F0418DE70020D6E7C45C002001
:101210002DE9F04704464FF000094FF0FF37C5684D
:10122000D4E90486A80707D0204600F093F9304699
:10123000FFF7DAFE002802DA3846BDE8F087280515
:1012400002D54046FFF723FF4C212046FFF7F1F976
:10125000206D20F0010020654846EEE710B50446F9
:10126000AFF300802046BDE81040FEF7F1BF10B597
:1012700000F0BAF9BDE8104000F0B0B94FF0013C01
:1012800050F8042B51F8043B9A4221D1A2EB0C03F5
:10129000934313EACC1317D150F8042B51F8043BB5
:1012A0009A4215D1A2EB0C03934313EACC130BD152
:1012B00050F8042B51F8043B9A4209D1A2EB0C03DD
:1012C000934313EACC13DBD04FF00000704700BF0C
:1012D000D01A01BAB1FA81F101F0180122FA01F035
:1012E000CB40C1F12001DBB2C0B2C01A2CFA01F32D
:1012F000D11A914311EAC311E6D17047704700003B
:1013000000487047C85D00207047704770477047BD
:1013100038B504460A4600206946AFF3008000282D
:1013200008BF38BD02460099204600F0A4F901200C
:1013300038BD012000F0F3B9F8B5AFF300800546E1
:1013400000200C46102000BF0646A819A0420DD967
:10135000324669460020AFF30080070008BF00F066
:10136000DEF90098A04218BF0546C419FFF7C8FF70
:1013700005600746F01D20F007004619284600F0DA
:1013800073F9B44208BFF8BDA21B31463868BDE806
:10139000F84000F070B970B50646FFF7B1FF056878
:1013A00006F10B0020F00704B4429CBF002070BD82
:1013B0002B466A68BAB11068A04210D304F1080144
:1013C00088423CBF5068586007D35168101941608B
:1013D0001168091B016058601460101D70BD134630
:1013E0005268002AE7D121462846FFF791FF0028DE
:1013F000DED170BD2DE9F041044616460D46476921
:10140000007B80072ED03846FFF703FE50BB3EB36B
:10141000012E02D0022E25D104E0204600F045F92D
:1014200005441DE03846FFF702FEE168002841F060
:101430001001E16005DA204600F058F80120BDE80F
:10144000F081C9030BD56268E16A914200D8114668
:10145000A26911442269891A814200DD08460544C7
:10146000002D01DA0220EAE7E16A6068E268814261
:1014700006D29103E06203D522F4003141F010025C
:10148000A6690027AE4213DCE16A814201D90B460E
:1014900000E0034603EB060C2369ACEB030CAC4500
:1014A00006DD814201D98C4600E084469C4505D189
:1014B000A760276042F02000A5620DE0AD1BE66941
:1014C000AE1B8142A66000D90846C01A281A2060C7
:1014D0005819606022F0200003490840E0600020B5
:1014E00084F84870ABE70000BFCFD7FFC16821F494
:1014F000001141F08001C1600021816001607047EE
:101500002DE9F047814614460E464FF0FF38324829
:10151000D5685769054209D03846A169FFF77FFDB4
:10152000002811DB2C48C0430540E5602B463246BD
:1015300049463846FFF75EFDA16920F00042B21A25
:1015400011440028A16103D02046FFF7CFFF404699
:10155000BDE8F08770B504460569C06A61688842D5
:1015600000D80846E16821F42011E160C90312D5D2
:10157000A84208D02246411B2846FFF7C1FF10B100
:101580004FF0FF3070BD0020E562C4E90150E06813
:1015900020F48030E060002070BD10B50446C068C3
:1015A00020F02000E060A16AA06988420DD02046AA
:1015B000FFF7D0FFE06820F4405040F01000E060FA
:1015C000A06AA0612069E062606044F24001E068C6
:1015D0008843E06010BD000010000200002801D028
:1015E00000F03CB87047000010B5014602A000F0C2
:1015F0007DF8012010BD0000534947525452454424
:101600003A2052656469726563743A2063616E279B
:1016100074206F70656E3A200000000010B5431C06
:1016200002E010F8011B71B18107FAD14FF00132CD
:1016300002C88C1A8C4314EAC211F9D0C01A0A06E7
:1016400003D0C01E10BDC01A10BD0A0401D0801EF8
:1016500010BD0902FCD0401E10BD00000149182039
:10166000ABBEFEE72600020000210160C0E90110C8
:10167000704710207047034640688C46002818BF0A
:1016800088423CBF03464068F8D318681844884233
:1016900007D00CF1030020F00700001D411A521A78
:1016A0000146081D0A60FFF7F2BC10B50146C2688A
:1016B000900703D0900607D5886A0AE0FFF7D6FAAC
:1016C00001210160881E10BD8B69486818440B69B0
:1016D000C01A91F848301BB191F84910401A10BD5A
:1016E0001103FCD50028FADD401E10BD70B505467B
:1016F0000C460A2000E06D1C00F018F835B128787F
:101700000028F8D102E0641C00F010F814B1207831
:101710000028F8D1BDE870400A2000F007B810B5E5
:1017200000F00CF8BDE81040FFF758BF08B5694657
:101730008DF800000320ABBE08BD000010B50128E5
:1017400005D0002103A0FFF7D1FF012010BD09A1A2
:10175000F8E7000053494752544D454D3A204F7524
:1017600074206F662068656170206D656D6F727999
:10177000000000003A2048656170206D656D6F7251
:101780007920636F72727570746564005FEA400C53
:1017900008BF91F0000F4FEA8C234FEAC12243EAC1
:1017A00051514FEA1C5018BF00F5F0404FEA30008D
:1017B00018BF41F000415FEA6C5C00F02980BCF189
:1017C000FF3F08BF40F080407047130C06BF120473
:1017D0004FF0100C4FF0000C130E04BF12020CF16E
:1017E000080C130F04BF12010CF1040C930F04BF7B
:1017F00092000CF1020CD30F04BF52000CF1010C4B
:1018000011464FF00002A0F11F00A0EB0C00704742
:1018100011F0004F08BF704731F000413FF4D5AFE1
:101820000B0C06BF09044FF0100C4FF0000C0B0E10
:1018300004BF09020CF1080C0B0F04BF09010CF1E5
:10184000040C8B0F04BF89000CF1020CCB0F04BFFA
:1018500049000CF1010CCCF12003A0EB0C0022FAA2
:1018600003F302FA0CF241EA030100F101007047B0
:1018700020F07F4C80EA030023F07F47ACEB0703A6
:1018800003F57C5300F0004003F1FF032DE980498C
:101890004FEA154B09B44FEA144325EA0B4E24EAEC
:1018A00003480FF2042606EB132749083E785FEA47
:1018B000320203FB0667C7F5000707FB06F64FEA8F
:1018C00054374FEAD64606F1020607FB066CCCF108
:1018D000005C4FEA1C472CEA074C07FB06F40CFBA4
:1018E00006F504EB15464FEA961634BF00204FF07C
:1018F00000404FEAD13706FB07FC4FEA1C4C0CFBBB
:101900000BF7D21B03FB0CF761EB07010CFB0EF787
:10191000B0EB074072EB17420CFB08F734BFA2EBA9
:101920000742B2EB074261EB17414FEA0C444FEA22
:10193000910706FB07FC4FEA1C4C0CFB0BF7B0EBC6
:10194000C74072EB573203FB0CF734BFA2EBC74220
:10195000B2EBC74261EB57310CFB0EF7B0EBC7009F
:1019600072EB57720CFB08F734BFA2EBC702B2EB65
:10197000C70261EB5771039F4FEA816141EA9211FF
:1019800004EBCC044FEAD1374FEA826206FB07FC36
:1019900042EA90124FEA80604FEA1C4C0CFB0BF7B6
:1019A000D21B03FB0CF761EB07010CFB0EF7B0EB4E
:1019B000074072EB17420CFB08F734BFA2EB07425B
:1019C000B2EB074261EB17414FEA8C554FEA9107A2
:1019D00004EB9C2406FB07FC4FEA1C4C0CFB0BF7AA
:1019E000B0EBC74072EB573203FB0CF734BFA2EBEE
:1019F000C742B2EBC74261EB57310CFB0EF7B0EBBD
:101A0000C70072EB57720CFB08F734BFA2EBC7029A
:101A1000B2EBC70261EB577115EB4C254FEA8161C0
:101A200041EA92114FEA82624FEAD13742EA9012BC
:101A300006FB07FC44F100044FEA80604FEA1C4CAF
:101A40000CFB0BF7D21B03FB0CF761EB07010CFB44
:101A50000EF7B0EB074072EB17420CFB08F734BFF0
:101A6000A2EB0742B2EB074261EB174115EB1C15E5
:101A70004FEA813141EA92414FEA823242EA904292
:101A80004FEA80304FEA0C7644F1000448EA034301
:101A90004EEA0B484FF0000EB2EB080C71EB030757
:101AA00024BF624639464EEB0E0E4FF0000B001875
:101AB000524149414BEB0B0BB2EB080C71EB0307A6
:101AC0007BF1000B24BF624639464EEB0E0E4FF001
:101AD000000B0018524149414BEB0B0BB2EB080CC9
:101AE00071EB03077BF1000B24BF624639464EEBD6
:101AF0000E0E51EA020718BF46F0010616EB0E76ED
:101B000055F1000254F1000103D5BDE88901BDE89B
:101B10000088BDE88901BDE80048B619524141EB93
:101B20000101A3F10103704780807F7E7D7C7B7A79
:101B30007978777676757473727171706F6E6E6D79
:101B40006C6C6B6A6A69686867666665646463631F
:101B500062616160605F5F5E5E5D5D5C5C5B5B5AA5
:101B60005A59595858575756565555555454535312
:101B700052525251515050504F4F4F4E4E4D4D4D6D
:101B80004C4C4C4B4B4B4A4A4A49494948484847B8
:101B900047474746464645454544444444434343F6
:101BA0004342424242414141002B9C4630D477009F
:101BB0002BD01CB54FEA370703B44FF010004FF09D
:101BC0001001BAF1000F06D0BCF1000FDCBF40F0ED
:101BD000080040F008014FF000000FBCBDE81040C5
:101BE0000BF1010BBBF1010F08BF5FEA170722BF22
:101BF00012F1010211F101014FF0004143F1000324
:101C000000F0004043EA00007047F9D35708D0E7DE
:101C100046EA064613F1400F4FEA16461FDD13F160
:101C2000200FDFBF16430A46002120335B42BED09F
:101C3000C3F1200746EA064602FA07F74FEA1646BE
:101C400046EA0706C3F1200722FA03F201FA07F772
:101C500021FA03F14FF0000342EA0702A7E746EA40
:101C6000020646EA06464FEA164646EA0106BCBFA9
:101C700046EA0646360C4FF000034FF000024FF0E4
:101C8000000194E72DE9804C9A46934670B491E8A0
:101C9000380007C831EA400C48BF34EA430C03D58A
:101CA000FFF7E6FDFFF780FFF0BCBDE8008C2DE9F3
:101CB000804C9A46934670B491E8380007C810F0FB
:101CC000804F08BF13F0804F03D100F005F8FFF7F5
:101CD0006BFFF0BCBDE8008C20F07F4780EA03007A
:101CE00023F07F4C07EB0C03A3F57C5300F000407E
:101CF000A3F1FE0392F0000F00F0B38095F0000F07
:101D000000F077802DE901494FEA11404FEA14466F
:101D100021EA004800FB06FC24EA064708FB06F619
:101D200007FB08F800FB07F718EB06484CEB164CCE
:101D30004FEA124B18EB07484FEA15464CEB174099
:101D400022EA0B4E0BFB06FC25EA06470EFB06F6C5
:101D500007FB0EFE0BFB07F71EEB064E4CEB164C7B
:101D60004FF000061EEB074E4CEB174B18EB0B0821
:101D700040F1000018EB0E0B58EB000840F100009A
:101D80008F1A4FF000013CBFC943661B14BFB5EB6F
:101D9000040C00213CBFC943F61B4FEA17444EEA2E
:101DA0008E0E27EA04454FEA1C4704FB07622CEA23
:101DB000074C05FB07F70CFB05F604FB0CFC16EBC8
:101DC000074642EB174216EB0C4642EB1C421BEB5C
:101DD000060658EB0202414146EA9E0601D5BDE8DF
:101DE0000189B619524141EB0101A3F10103BDE89C
:101DF00001894FEA14454FEA114724EA054621EAD2
:101E0000074C05FB07F406FB07F70CFB06F105FB87
:101E10000CFC11EB074144EB17444FEA124711EB5E
:101E20000C4144EB1C4422EA074C05FB07F206FB7D
:101E300007F70CFB06F605FB0CFC16EB074642EB1E
:101E4000174216EB0C4642EB1C456A1854F1000190
:101E500048BF7047B619524141EB0101A3F101039C
:101E6000704795F0000F37D04FEA11424FEA144700
:101E700021EA024624EA074C02FB07F106FB07F7BA
:101E80000CFB06F402FB0CFC14EB074441EB17417E
:101E90004FEA154714EB0C4441EB1C4125EA074C73
:101EA00002FB07F506FB07F70CFB06F602FB0CFC32
:101EB00016EB074645EB174516EB0C4645EB1C4267
:101EC000121951F1000148BF7047B619524141EB58
:101ED0000101A3F1010370474FEA14454FEA11478E
:101EE00024EA054621EA074C05FB07F106FB07F744
:101EF0000CFB06F24FF0000605FB0CFC12EB074250
:101F000041EB174112EB0C4251EB1C4148BF7047AB
:101F1000921841EB0101A3F101037047FEE70000B5
:101F2000014800F026BA000008010020014800F036
:101F300020BA0000300100202DED068BF0EE009A53
:101F4000B6EE00AA9FED178ADFED178A174D184CE1
:101F50009FED189A287820B101280BD0022810D0C4
:101F600015E084ED0A8A84ED098A84ED0B8A04F079
:101F7000A1FA0CE0C4ED0A8AC4ED098AC4ED0B9AFB
:101F800005E084ED0A9A84ED099A84ED0BAA00F02D
:101F90001FF802F0A5FC02F0CBF9012004F0A6FC2A
:101FA000D8E7000000000000CDCCCC3FD5000020D9
:101FB000504C0020CDCCCC3E7047802000F0F6BCC9
:101FC00072B6FEE705F044FA012004F08FFCF9E751
:101FD000254A9FED260ADFED260A11882548A1F241
:101FE000D2539FED251A142B0ED901EE901AF8EE5C
:101FF000611A31EEC02AC2EE201A90ED0A2A61EE73
:10200000821AC0ED001A01E080ED001A5188A1F299
:10201000D253142B0ED901EE901AF8EE611A71EE1C
:10202000C01A81EEA02AD0ED091A62EE211AC0ED85
:10203000011A01E080ED011AD188A1F2D252142ACE
:102040000ED901EE101AB8EE411A31EE400A80EEB8
:10205000201A90ED0B0A21EE000A80ED020A70476B
:1020600080ED021A704700003C4C00200080BB4409
:102070000000FA43504C00200000000090F820209F
:10208000012A07D0022A05D0416A41F48021416229
:1020900001207047006842690A434261002070478E
:1020A000F0B590F820500468A468012D05D0022DE9
:1020B00003D0416A41F480215DE014F0406F01D10A
:1020C000E50055D5C4F30164022C03D9416A41F4FB
:1020D000000150E00125A5401D608B684FF4C075DC
:1020E0009BB1CE6833434E6843EAC603066805EBEE
:1020F0000417F3514FF4C273076803EB04130E691E
:10210000FE50097D012905D009E00E88CB6843EA1D
:102110004653EBE70168CE5846F48076CE501179ED
:10212000D379567941EA036193791B0443EA062384
:1021300019434FF4C676036806EB041699511178DB
:10214000D37841EA0361937852781B0443EA022270
:1021500011434FF4C473026803EB0413D1500068B9
:1021600005EB0411425842F0010242500020F0BD3C
:10217000416A41F4001141620120F0BD10B590F8B0
:102180002020012A07D0022A05D0416A41F480218B
:102190004162012010BD3B48D0F8002242F001020C
:1021A000C0F80022D0F8002222F47C52C0F80022AD
:1021B000D0F800224B6A42EA0322C0F800220A7DCE
:1021C00002F01F0301229A40D0F81C329343C0F85A
:1021D0001C32CB69B3B9D0F80C329343C0F80C323F
:1021E0008C894B6864F31F434C6900EBC404C4F84A
:1021F00040320C890B6864F31F434C6900EBC40444
:10220000C4F84432CB69012B16D1D0F80C321343F9
:10221000C0F80C320C884B6864F31F434C6900EB28
:10222000C404C4F840320C89CB6864F31F434C6982
:1022300000EBC404C4F844328B69002BD0F804329C
:102240000ED01343C0F804320B69002BD0F81432BF
:1022500008D01343C0F81432096A012904D008E0F9
:102260009343EFE79343F5E7D0F81C121143C0F80E
:102270001C12D0F8001221F00101C0F80012002059
:1022800010BD000000640040704730B590F8204059
:10229000012C05D0022C03D0416A41F480215DE07D
:1022A0000468002955D02469A40754D04FF4D87489
:1022B000056804EB01142D5915F0040595600568B7
:1022C0002D594ED0ED08556005682C5904F00204D4
:1022D000D4604FF4DA74056804EB01142D5905F04D
:1022E0000F05156105682D59C5F30725956105682A
:1022F0002C59240C54614FF4DC72046802EB011277
:10230000A4581C700468A458240A5C700468A4587B
:10231000240C9C700468A258120EDA704FF4DE721E
:10232000046802EB0112A4581C710468A458240A22
:102330005C710468A458240C9C710468A258120EA5
:10234000DA71006881B1016941F02001016100206A
:1023500030BDE468A8E7416A41F400114162012000
:1023600030BD6D0D1560AFE7C16841F02001C1605F
:10237000EDE72DE9F05F0546006800244669D0F8D6
:1023800004908768D0F80CB0D0F810A0D0F818806E
:10239000F10748D0F90714D001218160B80703D5AF
:1023A000284600F05EFA0CE0780702D54FF400648E
:1023B00007E0380702D54FF4805402E0284600F0C9
:1023C0004FFAF80516D529684FF480708860B80573
:1023D00003D5284600F047FA0CE0780502D544F40E
:1023E000005407E0380502D544F4804402E0284652
:1023F00000F038FAF80316D529684FF48030886069
:10240000B80303D5284600F030FA0CE0780302D573
:1024100044F4004407E0380302D544F4803402E079
:10242000284600F021FA300707D55FEACB6004D5D3
:102430002968102044F40074C86070074FF0080742
:1024400007D55FEA0B7004D52868C760284600F0FE
:1024500099F9B00706D52868C068800702D02846D9
:1024600000F092F9700607D55FEACA6004D52968C2
:10247000102044F480640861B00607D55FEA0A7052
:1024800004D528680761284600F0BCF9F00606D597
:1024900028680069800702D0284600F0B4F9B0032C
:1024A00008D55FEAC96005D529681020486028462C
:1024B00000F0AAF9F00307D55FEA097004D528688F
:1024C0004760284600F0D2F9300446D55FEA4970EB
:1024D00040D5F00504D55FEAC87001D044F001048E
:1024E000B00504D55FEA887001D544F00204700598
:1024F00004D55FEA487001D544F00404300529D5BD
:1025000018F0700F26D008F07000402815D006DCB7
:10251000102809D020280AD0302816D10AE05028E7
:102520000ED0602811D10EE044F008040DE044F014
:1025300010040AE044F0200407E044F0400404E002
:1025400044F0800401E044F480742868816921F03B
:1025500070018161296804204860002C05D0686AF8
:10256000204368622846FFF78FFEBDE8F09F70B5F4
:10257000040003D094F8200010B104E0012070BDE5
:10258000204600F081F82068016841F001010160F7
:1025900000F006FB0546052604E000F001FB401BA9
:1025A0000A2811D820684068C007F6D02068016862
:1025B00021F00201016000F0F3FA05460BE000F0A3
:1025C000EFFA401B0A2806D9606A40F400306062C6
:1025D00084F82060D2E7206840688007EFD4207E2E
:1025E0000128206801683DD021F080010160607EF3
:1025F00001282068016838D021F040010160A07EE8
:1026000001282068016833D021F020010160E07EBC
:102610000128206801682ED041F010010160207F60
:1026200001282068016829D021F008010160607F3D
:1026300001282068016824D021F004010160D4E958
:1026400002010843D4E90412114308436168491E9A
:1026500008432168C86100206062012084F82000DE
:10266000002070BD41F08001C0E741F04001C5E7A6
:1026700041F02001CAE721F01001CFE741F0080145
:10268000D4E741F00401D9E7F0B587B0044614213E
:102690006846FDF7CEFF3649364ADFF8D0E00868D5
:1026A000D4F800C0334B022403250926103200273A
:1026B000401CF44523D10860012807D1106840F080
:1026C00000701060106800F000700590186840F00D
:1026D000010018601868694600F0010005904FF489
:1026E000C0508DE89100CDE90356234800F06AF907
:1026F00000220521142000F0F1FA142032E0DFF866
:102700007CE0F44530D1D2F800C04CF0806CC2F8C7
:1027100000C0D2F800C001280CF0806CCDF814C0C5
:10272000086007D1106840F000701060106800F079
:1027300000700590186840F002001860186869463B
:1027400000F0020005904FF440508DE89100CDE973
:1027500003560B4800F036F900220521402000F016
:10276000BDFA402000F0ACFA07B0F0BD00640040B4
:102770001400002030380240000002400068004091
:10278000000402407047000070B5054619488CB03F
:10279000854214D107AB6A460021FFF776FD154A42
:1027A00007A9684603F014FF134E0024C4EBC400CD
:1027B00006EB001002F00CF8641C062CF6DB0F4848
:1027C000854214D109AB6A460021FFF75EFD0B4A32
:1027D00009A9684603F0FCFE094D0024C4EBC400BF
:1027E00005EB001001F0F4FF641C062CF6DB0CB0C6
:1027F00070BD000008010020944C00203001002032
:10280000A44F002070477047704770B5044690F899
:102810002000012804D0606A40F40020606217E0C4
:10282000022084F820002068016821F00101016085
:1028300000F0B6F905460DE000F0B2F9401B0A2899
:1028400008D9606A40F400306062052084F82000F6
:10285000012070BD20684068C007EDD1606270BD86
:1028600070477047704770477047704770472DE951
:10287000F0410446876D00F093F9054694F8350061
:102880000026022806D08020606584F8346001208C
:10289000BDE8F0812068016821F016010160206820
:1028A000416921F080014161206C08B9A06C20B120
:1028B0002068016821F0080101602068016821F0AA
:1028C000010101600CE000F06BF9401B052807D9FD
:1028D00020206065032084F8350084F83460D7E751
:1028E00020680068C007EED194F85C103F20884053
:1028F000B860012084F8350084F834600020C7E710
:1029000090F83510022903D08021416501207047DD
:10291000052180F835100068016821F0010101608F
:102920000020704770B51F4C80280DD16169C0052B
:102930002161426AA06840F27123584302EB001003
:102940006061E060401AA0806078002501210128C4
:10295000A08840F6980205D0904202D36170A5701D
:10296000257070BD904203D36170A570217070BD59
:10297000A0F2B63140F24C42914210D80A4AA178F6
:1029800022F81100491CC8B2A0700828EFD30649EC
:10299000420001F11400FDF7FFFDA57070BD6570E8
:1029A00070BD0000AC000020284C0020044910B588
:1029B0000A68024202D00860FFF7B4FF10BD0000B1
:1029C000143C01402DE9F84FDFF89C910022A9F159
:1029D000040B03274FF00F0C09F1040AABF1040EAE
:1029E00001250B6895402B40AB426ED10C7904F069
:1029F0000304012C01D0022C15D18668540007FA7B
:102A000004F826EA0806D1F80C8008FA04F848EA27
:102A10000608C0F808804468AC430D79C5F300157A
:102A20009540254345600C79E443A40708D0C56868
:102A3000540007FA04F6B5438E68A6402E43C660DC
:102A40000C7904F00304022C11D1D40800EB8406A5
:102A5000356A5407E40E0CFA04F825EA0805D1F8A3
:102A6000108008FA04F848EA0508C6F820800568CE
:102A7000540007FA04F6B5430E7906F00306A640A3
:102A80002E4306604C6814F4403F66D0374C2568EE
:102A900045F480452560246822F0030504F4804451
:102AA0000094334C05EB0408D8F808589407260F17
:102AB0000CFA06F4A5432F4CA04201D1002424E0D7
:102AC0002D4CA04202D101241FE046E02B4CA04235
:102AD00001D1022419E02A4CA04201D1032414E0C0
:102AE000284CA04201D104240FE0274CA04201D180
:102AF00005240AE0254CA04201D1062405E0244C1F
:102B0000A04201D1072400E00824B4402C43C8F8B7
:102B10000848D9F800404D464E689C43F60200D55F
:102B20001C432C60DAF8004055464E689C43B602C0
:102B300000D51C432C60DBF800405D464E689C438A
:102B4000B60300D51C432C60DEF8004075464E6885
:102B50009C43F60300D51C432C60521C102AFFF442
:102B60003FAFBDE8F88F0000083C01404438024008
:102B70000030014000000240000402400008024012
:102B8000000C0240001002400014024000180240F5
:102B9000001C02400AB1816170470904FBE7000094
:102BA00001488068704700001800002002488168D2
:102BB0000278114481607047180000200B4810B55E
:102BC000016841F400710160016841F480610160B5
:102BD000016841F480710160032000F09FF80F202C
:102BE00000F006F800F050F8002010BD003C024054
:102BF00030B505461F4887B00024016841F0020146
:102C00000160006806A900F002000590684600F027
:102C100031F90398A8B100F04DF940001649174A60
:102C2000B0FBF1F11648491E026040F2E732C0E9FC
:102C30000324C0E90114846100F082FB040003D086
:102C400015E000F037F9E9E70D4800F0EBFB040070
:102C50000DD11D2000F034F8102D07D20022294696
:102C60001D2000F03BF80748056000E0012407B094
:102C7000204630BD4038024040420F000004004072
:102C8000B80200201C0000200C4882B0016841F40A
:102C900080410160006800F4804000900748001FF8
:102CA000016841F0805101600068002200F080500E
:102CB00000900F21901E02B000F010B8443802407E
:102CC000002809DB00F01F0201219140400980002B
:102CD00000F1E020C0F8001170470000F0B40E4B86
:102CE0001B68C3F30223C3F10704042C00D9042496
:102CF0001D1D072D01D2002300E0DB1E012606FA70
:102D000004F56D1E0D409D409E40761E164045EA1E
:102D10000601F0BC02F074BC0CED00E0064A00F0C5
:102D2000070110684FF6FF03184040EA01200349ED
:102D300008431060704700000CED00E00000FA0549
:102D40002DE9F0470D46040065D0DFF81491D9F85D
:102D50000000EFB200F00700A84207D289F8007027
:102D6000D9F8000000F00700A84254D120683D4E79
:102D7000810712D5400703D5306840F4E050306039
:102D80002078000703D5306840F460403060306838
:102D9000A16820F0F000084330602078C0072DD0F3
:102DA000304960680839012812D0022813D003285E
:102DB00011D00968890700292DDA316821F0030153
:102DC00001433160FFF7ECFE804641F2883A0EE0A5
:102DD00009688903EFE709688901ECE7FFF7E0FE7E
:102DE000A0EB0801514502D90320BDE8F087306807
:102DF000616800F00C00B0EB810FEFD1D9F8001042
:102E0000484601F00701A94207D90770006800F0A1
:102E10000700A84201D00120E7E72078400705D548
:102E20003068E16820F4E050084330602078000703
:102E300006D53068216920F4604040EAC100306066
:102E400000F058F83168084AC1F30311515CC840DA
:102E50000649086006480068FFF7CAFE0020C4E77C
:102E6000003C024008380240049000082400002082
:102E70001C0000200F2202600C4A136803F00303B9
:102E80004360136803F0F0038360136803F4E053B6
:102E9000C36012684FF4E05303EAD20202610448AF
:102EA000006800F007000860704700000838024022
:102EB000003C02400448054900680968044AC1F31F
:102EC0008221515CC840704724000020083802402D
:102ED000149000080448054900680968044AC1F3D1
:102EE0004231515CC840704724000020083802403D
:102EF00014900008154810B5006810F00C01144833
:102F000013D0431004290FD008290ED10F4C241FD1
:102F1000216801F03F022168490207D52068C0F30B
:102F20008810A0FB030106E0184610BD2168C1F31C
:102F30008811A1FB00010023FDF710FA2168C1F3FD
:102F40000141491C4900B0FBF1F010BD08380240B6
:102F50000024F4002DE9F84F040075D02078DFF844
:102F600038A3C007AAF1040548D00AF1040001689B
:102F7000C1F38101012908D00068C0F38100022853
:102F80000AD1DAF80000400206D52868800335D55A
:102F900060680028E1D031E06068B0F5803F10D073
:102FA000B0F5A02F286810D020F480302860286861
:102FB00020F4802028606068A0B1FFF7F1FD06468C
:102FC0000CE0286840F48030F4E740F4802028606A
:102FD000F7E7FFF7E5FD801B642871D828688003B8
:102FE000F7D50BE0FFF7DCFD064604E0FFF7D8FD60
:102FF000801B6428F1D828688003F7D42078DFF894
:103000009C9280074FF0000B3DD5A348001D01683E
:1030100011F00C0F08D00068C0F3810002280AD11B
:10302000DAF80000400206D42868800715D5E06869
:10303000012809D111E0E068B8B10120C9F8000009
:10304000FFF7AEFD064605E022E1FFF7A9FD801B74
:103050000228C2D828688007F7D52868216920F09F
:10306000F80040EAC10028600DE0C9F800B0FFF7A1
:1030700097FD064604E0FFF793FD801B02281FD84A
:1030800028688007F7D42078000722D5824F84482B
:103090006169703771B101210160FFF781FD06465A
:1030A00004E0FFF77DFD801B022809D838688007FF
:1030B000F7D50EE0C0F800B0FFF772FD064605E058
:1030C00082E0FFF76DFD801B02287DD838688007FD
:1030D000F7D42078400765D56F484FF000083C30A2
:1030E0000068C0000BD46C483C30016841F080514E
:1030F000016000684FF0010800F080500090694FB7
:103100003868C0050FD4386840F480703860FFF725
:1031100047FD064604E0FFF743FD801B022853D815
:103120003868C005F7D55C4FA0686C3701280FD010
:103130000528386810D020F001003860386820F089
:1031400004003860A068B0B1FFF72AFD06460EE023
:10315000386840F00100F4E740F004003860F7E719
:10316000FFF71EFD811B41F28830814263D8386829
:103170008007F5D50DE0FFF713FD064606E0FFF7E3
:103180000FFD811B41F28830814254D83868800796
:10319000F5D4B8F1000F05D03F483C30016821F06C
:1031A00080510160A069B8B33B49091D0968C1F3AA
:1031B0008101022946D00228584606D0C9F860008D
:1031C000FFF7EEFC044639E035E04F46C9F86000F1
:1031D000FFF7E6FC064604E0FFF7E2FC801B02284E
:1031E00029D828688001F7D4D4E907010843A16AE7
:1031F0002D4A490802EB0141626A41EA8211084303
:1032000094F82C1040EA0161CAF8001001203866D9
:10321000FFF7C6FC044605E03CE0FFF7C1FC001BDD
:10322000022808D828688001F7D533E0FFF7B8FCFA
:10323000001B022802D90320BDE8F88F286880010E
:10324000F4D427E00128F7D0DAF80000E26900F4AE
:10325000800191421CD1226A00F03F01914217D1B6
:1032600047F6C071626A0140B1EB821F10D1A26AB9
:103270004FF0FF3300F4403103EB5202B1EB024F49
:1032800006D194F82C1000F07060B0EB016F01D003
:103290000120D1E70020CFE7043802400000474278
:1032A000800E4742007000400000FFFF70477047EB
:1032B00070B590F83C20012A32D0012580F83C50AE
:1032C000022280F83D2002685368946823F070065B
:1032D0000B6833435360134B02689A4214D0B2F127
:1032E000804F11D0104B9A420ED0104B9A420BD007
:1032F0000F4B9A4208D00F4B9A4205D00E4B9A4280
:1033000002D00E4B9A4204D1496824F0800319433D
:10331000916080F83D50002180F83C10084670BD57
:10332000022070BD00000140000400400008004081
:10333000000C004000040140004001400018004023
:1033400010B5040003D094F83D0010B107E001204F
:1033500010BD002084F83C00204600F01FF8022039
:1033600084F83D00211D206801F0CCFC012084F888
:10337000460084F83E0084F83F0084F8400084F85A
:10338000410084F8420084F8430084F8440084F843
:10339000450084F83D00002010BD000008B500681D
:1033A0001D49B0F1804F11D01C4A90421DD10868D0
:1033B00040F0800008600868002200F08000009063
:1033C00005212C20FFF78AFC2C201FE0086840F024
:1033D000010008600868002200F00100009005214B
:1033E0001C20FFF77BFC1C2010E00D4A904211D1FD
:1033F000086840F4807008600868002200F480705B
:10340000009005212D20FFF769FC2D20BDE8084024
:10341000FFF756BC08BD000040380240001C0040C9
:103420000020004090F83D10012901D00120704794
:10343000022180F83D100168CA6842F00102CA60AA
:1034400000681149884214D0B0F1804F11D00F4963
:1034500088420ED00E4988420BD00E49884208D0CF
:103460000D49884205D00D49884202D00C49884256
:1034700004D1816801F00701062903D0016841F0F9
:10348000010101600020704700000140000400407D
:1034900000080040000C00400004014000400140D2
:1034A0000018004070B5044690F83C000025012843
:1034B00017D0012684F83C60022084F83D00206883
:1034C000826822F0770222F47F42826008685028E6
:1034D00038D00DDC20284FD005DC90B3102811D156
:1034E0004AE0022070BD302846D040280AD13BE097
:1034F00060282FD070280DD0B0F5805F03D0B0F5D4
:10350000005F12D0012584F83D60002084F83C0063
:10351000284670BDCB68D1E90121206801F063FC29
:103520002068816841F0770109E0CB68D1E9012189
:10353000206801F058FC2068816841F48041816076
:10354000E1E719E0CA684968206801F021FD5021CF
:10355000206806E0CA684968206801F02AFD6021F9
:10356000206801F04AFCCEE7CA684968206801F08B
:103570000FFD40212068F4E7226801461046F0E77D
:10358000704770B50446006801694FF00005C943F3
:10359000890715D4C168C943890711D4E91E01619F
:1035A00001202077206880698007204602D0FFF73D
:1035B000E7FF04E000F0D0F8204600F062F925773C
:1035C00020680169C943490717D4C168C94349073D
:1035D00013D46FF004010161022020772068806914
:1035E00010F4407F204602D0FFF7CAFF04E000F04D
:1035F000B3F8204600F045F9257720680169C943F2
:10360000090716D4C168C943090712D46FF008012D
:103610000161042020772068C0698007204602D01D
:10362000FFF7AEFF04E000F097F8204600F029F91C
:10363000257720680169C943C90617D4C168C94301
:10364000C90613D46FF010010161082020772068AB
:10365000C06910F4407F204602D0FFF791FF04E0DC
:1036600000F07AF8204600F00CF92577206801690F
:10367000C943C90708D1C168C943C90704D1891E14
:103680000161204600F066F920680169C943090616
:1036900009D4C168C943090605D46FF080010161EE
:1036A0002046FFF703FE20680169C943490609D493
:1036B000C168C943490605D46FF040010161204645
:1036C00000F084F920680169C94389060BD4C168F8
:1036D000C943890607D46FF0200101612046BDE887
:1036E0007040FFF7E4BD70BD70B586B0044614218C
:1036F0006846FCF79EFF144E21680023134A0224FB
:1037000009251348B14209D1116841F02001116027
:10371000116801F02001059181150BE00D4EB142B9
:1037200010D1116841F020011160116801F02001F1
:10373000059171150091CDE90143CDE90335694645
:10374000FFF740F906B070BD001C00403038024061
:103750000014024000200040704770B5044690F805
:103760003C0000260D4601280FD0012084F83C00C3
:103770006AB1042A1DD0082A2FD00C2A3FD0012676
:10378000002084F83C00304670BD022070BD2068E7
:1037900001F03CFB2068816941F0080181612068EB
:1037A000816921F004018161206881692A691143DE
:1037B00011E0206801F05AFB2068816941F4006142
:1037C00081612068816921F480618161206881695B
:1037D0002A6941EA02218161D2E7206801F07CFB7D
:1037E0002068C16941F00801C1612068C16921F008
:1037F0000401C1612068C1692A69114311E0206890
:1038000001F09EFB2068C16941F40061C16120683C
:10381000C16921F48061C1612068C1692A6941EAF6
:103820000221C161ACE710B5040003D094F83D005B
:1038300010B107E0012010BD002084F83C002046B4
:1038400000F01EF8022084F83D00211D206801F0E0
:1038500059FA012084F8460084F83E0084F83F00BD
:1038600084F8400084F8410084F8420084F8430062
:1038700084F8440084F8450084F83D00002010BD21
:103880007047704710B5044649B104290AD0082989
:103890000BD094F8410001280AD0012010BD94F803
:1038A0003E00F8E794F83F00F5E794F84000F2E7AF
:1038B0000220B1B3042938D0082939D084F8410056
:1038C0000122206801F082FA1B4920681B4A8842C5
:1038D00001D0904203D1436C43F400434364206819
:1038E000884213D0B0F1804F10D0154988420DD0D6
:1038F000144988420AD01449884207D0904205D022
:103900001249884202D01249884204D1816801F0EC
:103910000701062903D0016841F001010160002080
:1039200010BDFFE784F83E00CAE784F83F00C7E710
:1039300084F84000C4E7000000000140000401409A
:103940000004004000080040000C0040004001401E
:103950000018004030B40168B1F1804F22D1164AFE
:10396000164B11681960164B491C11601988154ACD
:10397000491C89B21980642912D300241C80518803
:10398000491C89B251803C290AD354809188491C32
:1039900089B291803C2903D39480D188491CD1807D
:1039A0001988118000680849884202D130BCFFF7AD
:1039B000FDB830BC70470000B4000020C4000020F7
:1039C000C8000020CA000020000400407047704773
:1039D00070470000F8B5016804460868CA684B697A
:1039E00010F00F0F4FF0000559D003F0010602F45C
:1039F0009077374365D0C10705D0D10503D5216C39
:103A000041F001012164410705D5D90703D0216C9C
:103A100041F002012164810705D5D90703D0216C4B
:103A200041F004012164010707D502F02001314370
:103A300003D0216C41F008012164216C00293AD0A7
:103A4000800604D5900602D5204601F0FAFA2068D7
:103A50004069216CC0F38010090700D460B3204690
:103A600001F0C8FA20684069400621D5206814306A
:103A700050E8001F21F0400140E80012002AF5D173
:103A8000A06BA8B16C490165A06BFEF739FF002857
:103A900011D0A06B016D01B0BDE8F040084783066E
:103AA0000FD593060DD52046BDE8F84001F0C9BA00
:103AB0002046FFF78DFFF8BD2046FFF789FF2564FC
:103AC000F8BD266B2023012E79D1C60677D5D60600
:103AD00075D50868486800904869400640D5A16BD4
:103AE000086840680004000CEAD0A28D8242E7D941
:103AF000E085C869B0F5807F2DD020680C3050E893
:103B0000001F21F4807140E80012002AF5D12068DE
:103B1000143050E8001F21F0010140E80012002A93
:103B2000F5D12068143050E8001F21F0400140E832
:103B30000012002AF5D184F83E30256320680C304D
:103B400050E8001F21F0100140E80012002AF5D1D2
:103B5000A06BFEF78CFEA08DE18D401A81B229E0AA
:103B6000A08DE18D401A81B2E08D0028A8D00029F7
:103B7000A6D020680C3050E8002F22F4907240E864
:103B80000026002EF5D12068143050E8002F22F0D6
:103B9000010240E80026002EF5D184F83E3025636E
:103BA00020680C3050E8002F22F0100240E800237B
:103BB000002BF5D12046FFF70AFFF8BDFFE7050609
:103BC0002BD5150629D594F83D002128F5D1A068FC
:103BD000B0F5805F01D12069B0B1206A411C21623B
:103BE000216800784860E08C401E0004000CE084EE
:103BF000E3D12068C16821F08001C1602068C168FC
:103C000041F04001C160D8E7206A0088C0F3080095
:103C10004860206A801C2062E5E74006CDD550064A
:103C2000CBD5CA68204622F04002CA6084F83D30F5
:103C300000F010F9C1E70000E54F000870B504007E
:103C400004D094F83D00002510B106E0012070BDBD
:103C500084F83C50204600F023F8242084F83D00EE
:103C60002068C16821F40051C160204601F04AFA81
:103C70002068016921F4904101612068416921F0C7
:103C80002A0141612068C16841F40051C160256486
:103C9000202084F83D0084F83E00002070BD000024
:103CA00070B586B0044614216846FCF7C2FC294E64
:103CB00021680025284A032302242848B14220D144
:103CC000254910310E6846F400260E60096801F49B
:103CD00000210591116841F001011160116801F0A6
:103CE000010105918DE838000821CDE903316946CD
:103CF000FEF768FE002205213420FEF7EFFF342096
:103D000024E0174EB14223D1134914310E6846F016
:103D100010060E60096801F010010591116841F06C
:103D200001011160116801F0010105914FF4C061BA
:103D30008DE832000721CDE903316946FEF742FEE6
:103D4000002205212520FEF7C9FF2520FEF7B8FF38
:103D500006B070BD004C0040303802400000024008
:103D60000010014090F83E30202B0ED159B152B1D5
:103D700090F83C30012B08D0012380F83C30002320
:103D8000036301F045BA012070470220704700002C
:103D900000680349884201D102F05EB97047000013
:103DA000004C00402DE9F843044690F83D001F46C2
:103DB00015460E4620284BD1C6B1BDB194F83C0043
:103DC000012845D0012084F83C004FF00008C4F8D9
:103DD0004080212084F83D00FEF7E2FEA584814664
:103DE000E584A068B0F5805F03D004E00120BDE861
:103DF000F883206920B13546002684F83C800EE027
:103E00000025FAE78021204601F01FFAA0B9ADB1E4
:103E100015F8010B21684860E08C401EE084E08CBE
:103E20004B464FF0000200970028EBD14FF04001C5
:103E3000204601F00AFA30B10320D8E736F8020B29
:103E4000C0F30800E6E7202084F83D000020CEE71C
:103E50000220CCE77047FEE70922026080ED130ADA
:103E6000A0F8541080ED050A7047D0ED000AF4EE7A
:103E7000C00AF1EE10FA01DD80ED000AD0ED000A73
:103E8000B1EE400AF4EEC00AF1EE10FA01D280ED74
:103E9000000A704700B599B0082100208A010092FD
:103EA0000290CDE903010890CDE90901501E06906A
:103EB0003D4814AB81890A0A8DF830208DF8311005
:103EC000B0F87C100A0A8DF832208DF83310B0F863
:103ED000EC100A0A8DF834208DF83510B0F85C111A
:103EE0000A0A8DF836208DF83710B0F8CC110A0A7E
:103EF0008DF840208DF84110B0F83C120A0A8DF878
:103F000042208DF84310B0F8AC020CAA010A8DF8DB
:103F100044108DF8450069462448FEF7C1F815ABFA
:103F200010AA06A92148FEF7BBF8214816AB8189E3
:103F30000A0A8DF838208DF83910B0F87C100A0A7A
:103F40008DF83A208DF83B10B0F8EC100A0A8DF885
:103F50003C208DF83D10B0F85C110A0A8DF83E2027
:103F60008DF83F10B0F8CC110A0A8DF848208DF872
:103F70004910B0F83C120A0A8DF84A208DF84B100F
:103F8000B0F8AC020EAA010A8DF84C108DF84D0065
:103F900069460848FEF784F817AB12AA06A9054837
:103FA000FEF77EF819B000BD944C002008010020F7
:103FB000A44F002030010020104810B50E490160C8
:103FC0000321416000214FF400228160C0E9031207
:103FD0004FF4401242610176012242768176C17629
:103FE00001774177FEF7C3FA002803D0BDE81040FF
:103FF000FDF7E6BF10BD000000640040080100208E
:10400000104810B50E4901600321416000214FF4B2
:1040100000228160C0E903124FF440124261017630
:10402000012242768176C17601774177FEF79FFAC9
:10403000002803D0BDE81040FDF7C2BF10BD00004E
:10404000006800403001002010B5124A00211248DB
:1040500002F088FC114C0F4A0021206024321048E5
:1040600002F080FC0B4A6060483200210D4802F0EB
:1040700079FC084AA0606C3200210B4802F072FC07
:10408000044AE06090320021084802F06BFC206195
:1040900010BD0000508F0008C51F00080000002060
:1040A000391F0008BD4A0008614B0008714700082D
:1040B00070B586B014216846FCF7BBFA2748002487
:1040C000016841F004010160016801F004010591FB
:1040D000016841F020010160016801F020010591B3
:1040E000016841F080010160016801F080010591E3
:1040F000016841F001010160016801F001010591D1
:10410000016841F0020101600068154E00F00200F4
:104110004FF478450590002229463046FEF73AFDD7
:10412000802000904FF48810CDE9010469463046A4
:10413000FEF748FC01200095CDE9010469463046B0
:104140000394FEF73FFC002205211720FEF7C6FD71
:104150001720FEF7B5FD06B070BD000030380240F4
:104160000014024010B588B01C216846FCF761FAC3
:1041700015481449002401605321C0E9011444F694
:104180001F61C0E9031480218161FFF7D9F808B1EC
:10419000FDF716FF0C48FFF746FB08B1FDF710FFCF
:1041A0006020CDE900040294002269460648049488
:1041B000FFF7D3FA08B1FDF703FF0348FFF794FABE
:1041C00008B010BD001C0040A001002010B588B050
:1041D0001C216846FCF72DFA15481449002401609B
:1041E0005321C0E9011444F61F61C0E90314802182
:1041F0008161FFF7A5F808B1FDF7E2FE0C48FFF773
:1042000012FB08B1FDF7DCFE6020CDE9000402944A
:104210000022694606480494FFF79FFA08B1FDF7AB
:10422000CFFE0348FFF760FA08B010BD0020004041
:10423000E801002010B586B00024164800940194CF
:104240000294039404944FF080410594016053213B
:10425000C0E901141049C0E903148461FFF770F844
:1042600008B1FDF7ADFE4FF4805000906946094853
:10427000FFF718F908B1FDF7A3FE049404A9054857
:104280000594FFF715F8002801D0FDF799FE06B058
:1042900010BD000058010020A08601000C4810B598
:1042A0000A4901604FF4E1314160002181600C2234
:1042B000C160C0E904128161C161FFF7BFFC002841
:1042C00003D0BDE81040FDF77BBE10BD004C0040A0
:1042D000300200200C4810B50A4901604FF4E1316A
:1042E0004160002181600C22C160C0E9041281613B
:1042F000C161FFF7A3FC002803D0BDE81040FDF723
:104300005FBE10BD0010014074020020B4EEE00A50
:10431000F1EE10FA01DDB0EE600AF1EE600AB4EEE3
:10432000E00AF1EE10FA01D2B0EE600A7047FEE743
:104330002DE9F05F00252DED028B9FEDF98AF94FF5
:104340002E4607F5A168F849C5EBC50B01EB0B1428
:1043500020680A282DD2DFE800F046A26605A209EF
:104360003775A248204601F037F85CE0E06E01287E
:1043700020D0D4ED180AB4F90E00EC4900EE100A72
:10438000C5EBC50000EB051A01EB8A00B8EEC00AC8
:10439000814602F02BFB99ED0F0A84ED050AB4F972
:1043A000080000EE900A07EB8A00F8EEE00A02F03F
:1043B0001DFB74E0E0884FF4B4714843400B00EEFD
:1043C000100AF8EE400AD6E7B4F9080000EE100A29
:1043D000C5EBC50000EB0510F8EEC00A94ED050A28
:1043E00007EB80004CE0A68159E0B4F90A000028F0
:1043F00001DD014600E04142B4F95420914200DC65
:10440000E665002800DC40429042E06D01DD401C82
:10441000E0651E2806DB0120A06584ED188A84ED86
:10442000058A00E0A665B4F9080000EE100AC5EBA5
:10443000C50000EB0510F8EEC00A94ED050A07EB85
:104440008000B4E7B4F90E00B84900EE100AC5EBDD
:10445000C50000EB051A01EB8A00D4ED180AB8EE8E
:10446000C00A814602F0C2FA99ED0F0A84ED050AEE
:10447000B4F9080000EE900A07EB8A00F8EEE00AB3
:10448000814602F0B3FAB4F9100000EE100AF8EE1B
:10449000C00A99ED0F0AFFF739FF89ED0F0A584658
:1044A000DFF88CB20BEB001420680A282DD2DFE86D
:1044B00000F04AA66A05A6093B79A64C204600F002
:1044C0008BFF60E0E06E012820D0D4ED180AB4F92B
:1044D0000E00984900EE100AC5EBC50000EB051A66
:1044E00001EB8A00B8EEC00A814602F07FFA99ED2E
:1044F0000F0A84ED050AB4F9080000EE900A08EBF3
:104500008A00F8EEE00A02F071FA78E0E08800EE46
:10451000100AB8EE400ADFED880A20EE200ADFED2F
:10452000870A60EE200AD2E7B4F9080000EE100A0C
:10453000C5EBC50000EB0511F8EEC00A94ED050AC5
:1045400008EB81004CE0A68159E0B4F90A0000288C
:1045500001DD014600E04142B4F95420914200DC03
:10456000E665002800DC40429042E06D01DD401C21
:10457000E0651E2806DB0120A06584ED188A84ED25
:10458000058A00E0A665B4F9080000EE100AC5EB44
:10459000C50000EB0511F8EEC00A94ED050A08EB22
:1045A0008100B0E7B4F90E00624900EE100AC5EBD5
:1045B000C50000EB051A01EB8A00D4ED180AB8EE2D
:1045C000C00A814602F012FA99ED0F0A84ED050A3D
:1045D000B4F9080000EE900A08EB8A00F8EEE00A51
:1045E000814602F003FAB4F9100000EE100AF8EE6A
:1045F000C00A99ED0F0AFFF789FE89ED0F0A6D1CBD
:10460000072DFFF6A0AE484C002143F2C8229FEDD3
:104610004C1A40F63C73DFED4B1A9FED4B2AC1EB71
:10462000C10004EB00100568042D07D00579012DA9
:1046300021D0022D30D0032D3ED08681491C072980
:10464000EDDB00215C46C1EBC10004EB0010056806
:10465000042D07D00579012D40D0022D4FD0032D18
:1046600074D08681491C0729EDDBBDEC028BBDE8C7
:10467000F05FFFF70FBCB0F90A50954201DD06600C
:10468000DCE7C1EBC10505EB011507EB8505F0EE95
:10469000410A95ED0F0A19E0B0F90A509D4200DD7C
:1046A0000660C1EBC10505EB011507EB8505F0EED2
:1046B000610A95ED0F0A09E0C1EBC10505EB011593
:1046C00007EB8505F0EE420A95ED0F0AFFF71EFE97
:1046D000BDEEC00A10EE105A8581AFE7B0F90A505E
:1046E000954201DD0660BDE7C1EBC10505EB011791
:1046F00008EB8705F0EE410A95ED0F0A30E0B0F9BE
:104700000A509D4200DD0660C1EBC10505EB0117B3
:1047100008EB8705F0EE610A95ED0F0A20E015E041
:1047200000000000B4520020944C002038550020B6
:10473000A44F0020405A00200000B443000000397C
:104740000068264600B047450060EA46C1EBC10557
:1047500005EB011708EB8705F0EE420A95ED0F0A0D
:10476000FFF7D4FDBDEEC00A10EE105A858179E73F
:10477000012002F0BBF8FBE7FEE70000FDEEC00AF7
:104780000521016010EE901A09B200EE901AC18165
:10479000F8EEE00A70EEC00AF5EEC00AF1EE10FA8B
:1047A00000EE901AF8EEE00A02DD30EEC00A01E0F9
:1047B00030EE600A10EE100AB0F17E5F02DAB7EE5A
:1047C000000A70479FED010A7047000000000000DA
:1047D00030B59FED3F0A90F86420C188F0EE400AA2
:1047E0003AB10279012A0AD0022A0BD0032A0ED14B
:1047F0000BE0A0F86610012180F8641030BDF3EEE4
:10480000030A04E0DFED330A01E0F7EE000AB0F935
:1048100008209FED311ADFED311A41F6FF73002AAF
:104820001EDDB0F86620914211D2A1EB02021A44BB
:1048300040F2E2439A420DDA00EE102AB8EEC00AC6
:1048400020EE010A20EE211A81EE200A02E001D9B1
:104850008A1AF1E7B5EEC00AF1EE10FA2FDA34E069
:10486000B0F866201EDA91420AD9A3EB010303F2E5
:10487000E144144440F6C215AC420DD81A4401E09C
:104880000AD28A1A00EE102AB8EEC00A20EE010AF7
:1048900020EE211A81EE200AB5EEC00AF1EE10FAE0
:1048A0000DD912E091420AD08A1A00EE102AB8EE11
:1048B000C00A20EE010A20EE211A81EE200AD0ED76
:1048C000180A30EE800A80ED180AA0F8661030BD94
:1048D0000000000000001042000000390000B44356
:1048E00070B5364D95F84000012817D195ED000AB6
:1048F000D5ED060A30EE200A85ED000A95ED010A95
:10490000D5ED070A30EE200A85ED010A95ED020A81
:10491000D5ED080A30EE200A85ED020AD5ED000A31
:104920009FED271AD5ED011A95ED020A20EE813A86
:104930009FED242ADFED242A264E01EEC13A002401
:1049400000EE023A63EE223A9FED203A83EE834A6C
:10495000DFED1F3A61EEA33A61EE811A40EEC13AF3
:1049600040EE023A85ED0C4A63EEA23A83EE834AAA
:10497000F0EE613A40EE811A40EEC13A40EE021A82
:1049800040EE023A21EEA20A63EEA23A85ED0D4A0C
:10499000C0EE030A83EE834A85ED0E4AC5ED0F0A89
:1049A00005EB840090ED0C0AC4EBC40006EB00108C
:1049B00000F02CF9641C042CF2DB70BD504C00207C
:1049C000F304353FCDCCCC3E00800E44C67D743E12
:1049D000F30435BF944C0020074840F2DC510289B3
:1049E00006488A4202D24FF0010102E002D94FF09C
:1049F00002014170704700003C4C0020D4000020B0
:104A00000A480B494089B0F5966F01D2022005E0B3
:104A1000A0F21552B2F5C77F02D803200870704784
:104A2000B0F5E16FFBD90420F8E700003C4C002012
:104A3000D4000020154810B5154A8189012310784B
:104A4000B1F5966F07D2032803D0042802D10020C5
:104A500016E0937010BDA1F21554B4F5C77F07D8C6
:104A6000032803D00428F5D1D37010BD02200AE03A
:104A7000B1F5E16FF9D9032804D00428F5D103205A
:104A8000D07010BD0520907010BD00003C4C00207F
:104A9000D4000020074840F2DC51C28906488A420F
:104AA00002D24FF0000102E003D94FF0010180F87B
:104AB000401070473C4C0020504C00202DED028BE4
:104AC0009FED238A234C2078062837D2DFE800F0B8
:104AD00003051A28303A002108E0B0EE480A01F038
:104AE0002DFDB0EE480A01F035FE0121042001F051
:104AF000F3FC0021084601F0EFFC0021012001F049
:104B0000EBFC1BE0B0EE480A01F024FE012100207E
:104B100001F0E2FC0121084601F0DEFC03200CE07C
:104B2000642002F04BFE9FED0C0A01F013FE05E03D
:104B30009FED0A0A01F00EFE05202070012001F011
:104B4000D5FEC0E7642002F039FE00210846D6E712
:104B500000000000D6000020000070C3000048C222
:104B60002DED068B03254FF4FA769FED228ADFEDBB
:104B7000228A9FED229A224CDFED229A9FED22AAF3
:104B8000217831B1012915D0022918D003292DD15E
:104B90001EE0B0EE480A02F08FFC0021022001F076
:104BA0009BFC0021032001F097FCB0EE680A01F0A5
:104BB00091FA1BE0B0EE490A02F07EFC16E0B0EE7E
:104BC000690A01F087FA304602F0F8FD25700DE021
:104BD0000121022001F080FC0121032001F07CFC76
:104BE000B0EE4A0A02F068FC01F09CFA012001F0E4
:104BF0007DFEC5E7000034430000000000001B43B9
:104C0000D700002000007A440000C8420221016061
:104C100080ED050A704710B54FF0E020006903F001
:104C2000FBF9012803D0BDE8104002F025BF10BDFC
:104C300030B593B030216846FBF7FBFC14210CA87B
:104C4000FBF7F7FC1D480025016841F08051016029
:104C5000006800F0805011901948016841F48041CB
:104C600001600068022400F480401190012003904C
:104C700010200490009406940820CDE90750A82045
:104C8000CDE9090404200B906846FEF763F908B1EA
:104C900072B6FEE70CA90F2081E831004FF4A05056
:104CA0000F904FF48050109005210CA8FEF748F8A3
:104CB000002801D072B6FEE713B030BD4038024084
:104CC000007000400248016841F4700101607047C3
:104CD00088ED00E00148FEF754BC000058010020B8
:104CE0000148FEF74EBC0000B80200200148FEF764
:104CF00048BC0000E80100200148FEF742BC00006B
:104D0000A0010020F0B50268254D264E264FDFF8A1
:104D10009CC0274B4FF0804EA84209D0704507D069
:104D2000B04205D0B84203D0604501D0984203D1CB
:104D300022F070044A682243A8421BD0704519D063
:104D4000B04217D0B84215D0604513D0984211D068
:104D5000184CA0420ED0184CA0420BD0174CA042C9
:104D600008D0174CA04205D0164CA04202D0164CD9
:104D7000A04203D122F44074CA6822434C6922F055
:104D80008002224302608A68C2620A688262A84284
:104D900001D0984201D10969016301214161F0BD4F
:104DA000000001400004004000080040000C0040EA
:104DB000000401400040014000440140004801401F
:104DC00000180040001C00400020004010B501F019
:104DD0001F010123046A8B409C430462036A8A40DA
:104DE0001343036210BD10B5846842EA032224F421
:104DF0007F440A432243826010BD826822F0700221
:104E00000A4342F00701816070470000F0B5026A72
:104E100022F001020262026A43688469114E24F0A2
:104E200073050C68104F2C4322F002058A682A4350
:104E3000B04201D0B84205D122F00805CA682A4321
:104E400022F00402B04201D0B84205D14D6923F4EA
:104E500040731D438B692B43436084614968416300
:104E60000262F0BD0000014000040140F0B5026A9A
:104E700022F010020262026A436884690D6824F419
:104E8000E64444EA05248D6822F0200242EA051235
:104E90000F4D104EA84201D0B04206D1CF6822F08B
:104EA000800242EA071222F04002A84201D0B0423A
:104EB00007D14D6923F4406343EA85038D6943EAD2
:104EC000850343608461496881630262F0BD00002C
:104ED0000000014000040140F0B5026A22F4807233
:104EE0000262026A4368C46922F4007224F0730506
:104EF0000C68124E2C438D6842EA05220E4DA842E2
:104F000001D0B04206D1CF6822F4006242EA072203
:104F100022F48062A84201D0B04207D14D6923F447
:104F2000405343EA05138D6943EA05134360C461A6
:104F30004968C1630262F0BD000001400004014005
:104F400030B5026A22F480520262036A4268C46980
:104F50000D6824F4E64444EA05248D6823F40053E4
:104F600043EA0533084DA84202D0084DA84204D1B7
:104F70004D6922F4804242EA85124260C461496868
:104F80000164036230BD00000000014000040140E4
:104F900010B5046A036A23F001030362836923F0F6
:104FA000F00343EA021324F00A020A438361026217
:104FB00010BD10B5036A23F0100303628469036A0D
:104FC00024F4704444EA023223F0A00343EA0111BE
:104FD0008261016210BD00000148FEF7FBBC0000C9
:104FE0003002002010B5806B0021C185C184FEF71E
:104FF000EFFC10BD01680C3151E8002F22F49072D3
:1050000041E80023002BF5D10168143151E8002F4D
:1050100022F0010241E80023002BF5D1016B0129A8
:1050200009D101680C3151E8002F22F0100241E84B
:105030000023002BF5D1202180F83E1000210163D0
:10504000704708B590F83E10222901D0022008BD13
:1050500081684FF48053994201D1026922B1826A7A
:1050600099421BD049B10AE00268816A5268C2F3D2
:1050700008020A80816A891C08E0016971B101682F
:10508000496801F07F011170816A491C8162C18DFC
:10509000491E0904090CC18503D019E0016849685B
:1050A000F1E70168CA6822F02002CA600168CA6894
:1050B00022F48072CA6001684A6922F001024A61E2
:1050C000202180F83E10016B012903D0FEF760FE1D
:1050D000002008BD0021016301680C3151E8002F58
:1050E00022F0100241E80023002BF5D101680A6884
:1050F000D20602D50A6849680091818DFEF767FCE7
:10510000E6E7000070B5044600680169E26821F432
:10511000405111430161A1682069E269014360695E
:10512000104301432068C26849F20C639A430A4362
:10513000C26020684169A26921F440711143416154
:1051400031492068884202D03049884202D1FDF7B7
:10515000C1FE01E0FDF7AEFEE269002319216425DE
:105160003226B2F5004F626828D0A0FB0101930FF0
:105170009200FBF7F3F80146B0FBF5F06FF0180270
:10518000504301EB800006EB0010B0FBF5F000F09F
:10519000F002B1FBF5F002EB0012B1FBF5F06FF09D
:1051A0001803584301EB800006EB0010B0FBF5F04C
:1051B00000F00F0021681044886070BDA0FB010161
:1051C00092185B41FBF7CAF80146B0FBF5F002010B
:1051D000B1FBF5F06FF01803584301EB800006EBCC
:1051E000C000B0FBF5F000F0F80002EB4002B1FBAC
:1051F000F5F0584301EB800006EBC000B0FBF5F082
:1052000000F00700D6E70000001001400014014044
:1052100081628285C28500210164222280F83E20BD
:1052200080F83C10016921B10168CA6842F48072BB
:10523000CA6001684A6942F001024A610068C168B7
:1052400041F02001C160002070472DE9F0411E4669
:10525000174688460446069D26E0681C24D025B1E2
:10526000FDF79EFC801BA8421ED920680C3050E838
:10527000001F21F4D07140E80012002AF5D1206807
:10528000143050E8001F21F0010140E80012002A0C
:10529000F5D1202084F83D0084F83E00002084F8F9
:1052A0003C000320BDE8F0812068016838EA010075
:1052B00004D00020B842D0D00020F3E70120F9E765
:1052C0000148FEF787BB00007402002070B53B4C1C
:1052D0003B4D04F130062DED048B94ED032A9FED38
:1052E000399A84ED062A94ED041ADFED379A84ED9D
:1052F000071A90ED000A84ED000AD0ED010AC4ED12
:10530000010AD0ED020AC4ED020AD0ED030AC4ED91
:10531000030AD0ED041A70EEC20AC4ED041AD0EDEF
:10532000052A31EEC11AC4ED052AC4ED080A84ED40
:10533000091A86ED020A85ED050AD4ED0A1A71EE06
:10534000A00AC4ED0A0AD4ED0B0A70EE810AC4ED7E
:105350000B0A60EE090A80EEA90A10EE100A03F0AB
:1053600079FD41EC100B00F0BFF9A06A03F072FD6B
:105370009FED168B53EC182B03F052F803F01EF838
:105380003060E86095ED050A60EE090A80EEA90A32
:1053900010EE100A03F05EFD41EC100B00F040F936
:1053A000E06A03F057FD53EC182B03F039F803F0D3
:1053B00005F870602861BDEC048B70BDD44B0020F3
:1053C000504C0020DB0F4940000034430000000037
:1053D00000000000FEE7000010B504462DED028B32
:1053E0004FF07E51D0ED0F2A12EE900A9FED768A93
:1053F000884218DCF5EEC02AF1EE10FA13D394EDD2
:10540000103A13EE100A88420DDCB5EEC03AF1EE08
:1054100010FA08D394ED0D2A94ED0C1AB4EEC12ABB
:10542000F1EE10FA04D284ED058ABDEC028B10BDBA
:1054300094ED0A0AD4ED0B0AB4EE600AF1EE10FA0C
:1054400004D121EE020A84ED050AEEE770EEC01ADF
:10545000F5EEC01AF1EE10FA01DC70EE601AB0EE53
:10546000004AF4EEC00A62EEA12A23EE213A71EE60
:10547000E23A62EE845A73EEC34A62EE023A23EED7
:10548000043A41EE413A83EEA55AD4ED0E3A63EE6A
:10549000A33AB0EE636A02EE426AC6EE035AF1EE38
:1054A00010FA06DD94ED183AB4EEC03AF1EE10FAB7
:1054B00023D3F4EEC00AF1EE10FA06D294ED183AB6
:1054C000B4EEC03AF1EE10FA17DCF4EEC00AF1EED9
:1054D00010FA06DD94ED183AB4EEE03AF1EE10FA67
:1054E0000BDCF4EEC00AF1EE10FA09D294ED183A92
:1054F000B4EEE03AF1EE10FA02D284ED051A3CE087
:1055000094ED183A73EE400AF5EEC00AF1EE10FA87
:1055100001DC70EE430AF4EEE20AF1EE10FA08D272
:1055200021EE010A25EE041A01EE200A10EE100AFF
:1055300018E032EEA40AB4EEE00AF1EE10FA02DD51
:1055400084ED052A19E031EEE00A25EE841AB5EE65
:10555000C00AF1EE10FA01DC30EEE10A41EE403A09
:1055600013EE900A03F076FC41EC100B00F020F9EA
:1055700051EC100B02F022FF606194ED0B0AD4EDA8
:105580000A0AB4EEE00AF1EE10FA05D2D4ED050AEB
:10559000F1EE600AC4ED050AD4ED180A0B4930EEAD
:1055A000C00AB0EEC00A10EE100A884203DA0120E9
:1055B000606484ED058A10EE100A88427FF745AFDB
:1055C0000020606431E7000000000000000040405F
:1055D00003B401984100009850EAC12018BF04208C
:1055E0004A0D18BF40F0010040F2FF72B2EB515F6C
:1055F00008BF40F00200012808BF052002B0704734
:105600000907090E002804DB00F1E02080F80014EF
:10561000704700F00F0000F1E02080F8141D704783
:1056200010B52F499FED2C1B2DED020B84B0059872
:1056300020F000408842D8BF9DED040B2DDD2949A4
:10564000884209D1049840B94FF00100FBF720F8D7
:1056500000F0E2FC06B010BD05DB9DED040B00F090
:10566000CFFC06B010BD68469DED040B00F0E0F8DD
:1056700010F0030004BF9DED021B9DED000B0CD04C
:1056800001280ED09DED021B9DED000B022817D0C6
:10569000012000F01DFC06B010BD00F0E5FA06B0D8
:1056A00010BD9DED021B9DED000B012000F010FCD4
:1056B00051EC100B02F076FE06B041EC100B10BD61
:1056C00000F0D2FA51EC100B02F06CFE06B041EC87
:1056D000100B10BD000000000000000000000000E2
:1056E000FB21E93F0000F07F10B52F499FED2C1BF7
:1056F0002DED020B84B0059820F000408842DCBFFD
:1057000000209DED040B32DD2849884209D1049820
:1057100040B94FF00100FAF7BBFF00F07DFC06B086
:1057200010BD05DB9DED040B00F06AFC06B010BD5A
:1057300068469DED040B00F07BF810F0030011D0DB
:10574000012818D09DED021B9DED000B02281AD0F8
:1057500000F08AFA51EC100B02F024FE06B041EC86
:10576000100B10BD9DED021B9DED000B012000F004
:10577000AFFB06B010BD9DED021B9DED000B00F0D0
:1057800073FA06B010BD012000F0A2FB51EC100B23
:1057900002F008FE06B041EC100B10BD0000000046
:1057A0000000000000000000FB21E93F0000F07F46
:1057B00000B52DED048BB0EE409AF0EE609A83B008
:1057C00051EC190B03F090F941EC180B18EE100A8C
:1057D00018EE901A8DED008B002818BF01200843A9
:1057E00020F00040C0F17F6000F1E040C00F14D015
:1057F00019EE101A19EE900A8DED009B002918BFC2
:105800000121084320F00040C0F17F6000F1E0403A
:10581000C00F04BF0120FAF73BFFB0EE480A03B007
:10582000F0EE680ABDEC048B00BD00000000000033
:105830002DE9F14F04462DED020B2DED088B8AB0BA
:105840009FEDE70B80ED020B139EE74826F0004525
:1058500085420ADC9DED120B002084ED000B0AB09E
:10586000BDEC088B03B0BDE8F08FE0489FEDE0ABE6
:105870009FEDE1BBA84247DDE14F9FEDE39B9FED2C
:10588000E48B9DED120B53EC1A2B51EC100B002EF8
:105890001CDD03F0F5F941EC100BBD4208D053ECD0
:1058A0001B2B51EC100B03F0EBF9C4E900010BE0EA
:1058B00053EC192B51EC100B03F0E2F953EC182BBD
:1058C00003F0DEF9C4E900010120C8E702F0A8FDF9
:1058D00041EC100BBD4208D053EC1B2B51EC100BCC
:1058E00002F09EFDC4E900010BE053EC192B51ECD2
:1058F000100B02F095FD53EC182B02F091FDC4E95A
:1059000000014FF0FF30AAE7C348A84279DB9DEDC4
:10591000120B51EC100B00F005FE41EC180B9FED43
:10592000C00B53EC102B02F0D5FF9FEDBF1B53ECC7
:10593000112B02F075FD02F073FF074602F09FFF86
:1059400041EC190B53EC1A2B02F0C4FF53EC182B4B
:1059500003F0BEF841EC180B53EC1B2B51EC190B68
:1059600002F0B8FFDFF8C8A241EC100B4FEA15585F
:105970000125FA4453EC102B51EC180B03F080F97D
:10598000032DC4E900013DD0C1F30A5005EB4511D8
:10599000A8EB00001139814234DA0AEB051BB0EEA6
:1059A00048AA9BED000BF0EE68AA53EC102B51ECCB
:1059B000190B02F08FFF41EC1B0B51EC1A0B53EC4F
:1059C0001B2B03F05DF941EC180B51EC1A0B53EC57
:1059D000182B03F055F953EC1B2B03F051F99BEDF9
:1059E000020B41EC1A0B53EC102B51EC190B02F08B
:1059F00071FF53EC1A2B03F043F941EC100B6D1CB3
:105A0000B8E70EE0002EA8BF3846BFF628AF94EDE9
:105A1000000B51EC100B02F0C5FCC4E90001784208
:105A20001DE7C6F3130040F4801EC6F30A50A0F22F
:105A3000F530471100F01F05C5F12000DDF848B032
:105A400008900020069007900520EC467949002D2B
:105A500007EB0002794408BF51F8221009D051F831
:105A6000223001EB8201AB404A68089922FA01F129
:105A70001943A1FB0E26A1FB0B131A449A4234BF13
:105A80000123002303EB06080CEB8003D3E901A6F6
:105A90000E448E4234BF0121002192448A4411B148
:105AA000924502D903E0924501D2012100E0002194
:105AB000C3E901A641444CF82010011EA0F10100E9
:105AC000C4DC029800F10050850F0298DDE90367FD
:105AD0008000DDF8148002F0D2FE41EC1A0B304653
