:020000040800F2
:10000000F869002029030008F9360008512C00087F
:10001000D3310008D706000835450008000000006D
:10002000000000000000000000000000690200085D
:100030002309000800000000C50200083D3C00083C
:100040004303000843030008430300084303000878
:100050004303000843030008430300084303000868
:10006000430300084303000843030008B9070008DE
:1000700043030008C507000843030008D107000830
:10008000DD070008E90700084303000843030008F0
:10009000D9060008430300084303000825090008A7
:1000A0004303000843030008430300084303000818
:1000B000FD3C0008093D0008430300084303000815
:1000C00043030008430300084303000843030008F8
:1000D00043030008714200087D4200084303000802
:1000E00043030008430300084303000843030008D8
:1000F000430300084303000843030008F507000812
:1001000043030008430300084303000843030008B7
:10011000493E0008553E0008430300084303000819
:1001200043030008430300080108000843030008D4
:100130004303000843030008430300084303000887
:10014000E5060008430300084303000843030008D2
:1001500043030008430300080D0800084303000898
:100160004303000843030008430300084303000857
:100170004303000843030008430300080000000095
:10018000430300084303000800F002F800F05CF8A5
:100190000AA090E8000C82448344AAF10107DA45E2
:1001A00001D100F051F8AFF2090EBAE80F0013F0D8
:1001B000010F18BFFB1A43F0010318474C800000E1
:1001C0006C8000000A444FF0000C10F8013B13F063
:1001D000070408BF10F8014B1D1108BF10F8015BA0
:1001E000641E05D010F8016B641E01F8016BF9D193
:1001F00013F0080F1EBF10F8014BAD1C0C1B09D1EA
:100200006D1E58BF01F801CBFAD505E014F8016B5B
:1002100001F8016B6D1EF9D59142D6D370470000ED
:100220000023002400250026103A28BF78C1FBD8FF
:10023000520728BF30C148BF0B6070471FB507F099
:100240009AFE1FBD10B510BD00F010FA1146FFF761
:10025000F5FF05F043FB00F02EFA03B4FFF7F2FFC1
:1002600003BC00F031FA00002C4B19680868B0E8B4
:10027000F04F80F30988BFF36F8F4FF0000080F3D9
:10028000118870470000000008480068006880F38B
:1002900008884FF0000080F3148862B661B6BFF39F
:1002A0004F8FBFF36F8F00DF00BF00BF08ED00E08E
:1002B000DFF80C00016841F470010160704700BF75
:1002C00088ED00E0EFF30980BFF36F8F134B1A68DE
:1002D0001EF0100F08BF20ED108A20E9F04F1060CB
:1002E00009B44FF0500080F31188BFF34F8FBFF374
:1002F0006F8F06F099FB4FF0000080F3118809BC66
:1003000019680868B0E8F04F1EF0100F08BFB0EC95
:10031000108A80F30988BFF36F8F70473C0000207C
:10032000EFF30580704700000948804709480047FF
:10033000FEE7FEE7FEE7FEE7FEE7FEE7FEE7FEE795
:10034000FEE7FEE704480549054A064B70470000F2
:10035000ED3C000889010008F8630020F8690020DE
:10036000F8650020F865002053EA020C00F069806F
:100370002DE9F04B4FF00006002B1FBFB3FA83F5B9
:1003800003FA05F424FA05F65E4012BF1643B2FAEA
:1003900082F502FA05F4C5F120051EBF22FA05FC1C
:1003A00044EA0C04203556EA044C4FEA144418BFC2
:1003B000641C4FF000084FF00009904271EB030CF1
:1003C00039D3002919BFB1FA81F701FA07F6B0FA5B
:1003D00080F700FA07F6C7F120071EBF20FA07FCD6
:1003E00046EA0C062037B6FBF4FCA7EB0507103FE6
:1003F00007F01F0BCBF120060CFA0BFB2CFA06F6CC
:1004000044BFB3460026202FA4BF5E464FF0000B2A
:100410005BEA060C08BF4FF0010B19EB0B09ABFBB5
:10042000027C48EB0608C01B06FB02CC0BFB03CC8E
:1004300071EB0C01C1E70B46024641464846BDE858
:10044000F08B13B54FF000004FF00001AFF30080C8
:10045000BDE81C40704740EA010310B59B070FD16F
:10046000042A0DD310C808C9121F9C42F8D020BA24
:1004700019BA884201D9012010BD4FF0FF3010BDDC
:100480001AB1D30703D0521C07E0002010BD10F8AA
:10049000013B11F8014B1B1B07D110F8013B11F870
:1004A000014B1B1B01D1921EF1D1184610BD032A2E
:1004B00040F2308010F0030C00F0158011F8013B81
:1004C000BCF1020F624498BF11F801CB00F8013B68
:1004D00038BF11F8013BA2F1040298BF00F801CB2C
:1004E00038BF00F8013B11F0030300F08480083AA4
:1004F000C0F0088051F8043B083A51F804CBA0E85A
:100500000810F5E7121D5CBF51F8043B40F8043BAE
:10051000AFF30080D20724BF11F8013B11F801CBE3
:1005200048BF11F8012B24BF00F8013B00F801CBB4
:1005300048BF00F8012B704702F0FF0343EA032293
:1005400042EA024200F002B84FF000020429C0F073
:10055000128010F0030C00F01B80CCF1040CBCF1F5
:10056000020F18BF00F8012BA8BF20F8022BA1EB47
:100570000C0100F00DB85FEAC17C24BF00F8012B2C
:1005800000F8012B48BF00F8012B70474FF0000224
:1005900000B5134694469646203922BFA0E80C5079
:1005A000A0E80C50B1F12001BFF4F7AF090728BF54
:1005B000A0E80C5048BF0CC05DF804EB890028BFD0
:1005C00040F8042B08BF704748BF20F8022B11F0F9
:1005D000804F18BF00F8012B704770477047704775
:1005E00010B500F03BF8006810BD10B5044600F0EF
:1005F00035F8046010BD10B5203AC0F00B80B1E8AA
:100600001850203AA0E81850B1E81850A0E8185047
:10061000BFF4F5AF5FEA027C24BFB1E81850A0E850
:10062000185044BF18C918C0BDE810405FEA827C6A
:1006300024BF51F8043B40F8043B08BF7047D20781
:1006400028BF31F8023B48BF11F8012B28BF20F822
:10065000023B48BF00F8012B70470000004870477C
:100660009863002000487047986300207546FFF7A4
:10067000F9FFAE4605006946534620F0070085465F
:1006800018B020B5FFF75EFEBDE820404FF0000631
:100690004FF000074FF000084FF0000B21F007016A
:1006A000AC46ACE8C009ACE8C009ACE8C009ACE8AD
:1006B000C0098D46704710B50446AFF30080204650
:1006C000BDE81040FFF7C9BD01491820ABBEFEE7E9
:1006D000260002007047FEE7014800F060BB000002
:1006E00068010020014800F05ABB00009001002082
:1006F0002DED068B9FED188ADFED188ADFED189A35
:10070000184D194C9FED199A9FED19AA287820B120
:1007100001280BD0022810D015E084ED0D8A84ED5D
:100720000C8A84ED0E8A04F067FE0CE0C4ED0D8A9D
:10073000C4ED0C8AC4ED0E9A05E084ED0D9A84EDAB
:100740000C9A84ED0EAA00F0F9F803F0B9F8012034
:1007500005F03AF9DAE70000000000000000C844A4
:100760000000FA44E3000020844F00200000C8434A
:100770000000FA430C4F0D4C0D4D0E4E2078397889
:10078000884203D004F0C0FE20783870A878B168A1
:10079000884204D0207804F0B7FEA878B0600A2020
:1007A00005F012F9EAE70000E6000020E40000206E
:1007B000EE00002000000020014800F0CDBD000048
:1007C000D0030020014800F0C7BD00001003002046
:1007D000014800F0C1BD000070030020014800F096
:1007E000BBBD000050050020014800F0B5BD000071
:1007F000B0050020014800F0AFBD0000300400202B
:10080000014800F0A9BD0000F0040020014800F0FC
:10081000A3BD00009004002001681823CAB2103A5A
:10082000B2FBF3F2054B6FF30901032A9B5CC3652E
:1008300000D9091D816508467047000088800008BE
:1008400010B5014600208B698A6A4FF0C07453B11D
:10085000B3F5005F15D072B1012A0CD0022A0AD07C
:10086000032A09D104E01AB1012A06D0022A03D1D1
:10087000C96AC90100D5012010BDC96AA142FAD0D8
:1008800010BD002AF7D0012AF2D0022AF3D0032AA1
:10089000F3D010BD30B50468256825F480252560A7
:1008A000046863608368402B036803D09960006824
:1008B000C26030BD9A600068C16030BD70B504464A
:1008C00090F8660094F8CA10884229D194F867001D
:1008D00094F8CB10884223D194F8680084F8CE00B5
:1008E000102204F1690104F1CF00FFF7E0FD94F854
:1008F0007A0094F80C61D4F8CF50D4F8D310D4F81F
:10090000D720D4F8DB30B0420AD194F87B0094F8B9
:100910000D41A04204D12846BDE8704003F092BDCD
:1009200070BD7047802000F0CDBE72B6FEE705F0C6
:100930006BFE012005F048F8F9E7000010B55549B5
:100940002DED048B0888A0F5AF629FED530ADFED13
:10095000530A9FED531A534CC82A0ED901EE900A40
:10096000F8EE611A31EEC02AC2EE201A94ED0D2A7B
:1009700061EE821AC4ED061A01E084ED061A488879
:10098000A0F5AF62C82A0ED901EE900AF8EE611AFE
:1009900071EEC01A81EEA02AD4ED0C1A62EE211A73
:1009A000C4ED071A01E084ED071AC888A0F5AF610D
:1009B000C8290ED901EE100AB8EE411A31EE400AEC
:1009C00080EE201A94ED0E0A21EE000A84ED080A4A
:1009D00001E084ED081A94ED050A9FED339ADFEDEE
:1009E000338A60EE090A80EEA80A10EE100A07F0BA
:1009F00051FA41EC100B03F013FE51EC100B06F012
:100A00004BFD94ED050A08EE100A60EE090A80EE2F
:100A1000A80A10EE100A07F03DFA41EC100B03F0A3
:100A200063FE51EC100B06F037FD00EE100A94F84F
:100A30004C0001280ED094ED060A84ED000A94EDD6
:100A4000070A84ED010A94ED080A84ED020ABDEC60
:100A5000048B10BDD4ED090A94ED0A1A94ED062A10
:100A600060EE881A41EE401A20EE800A01EE080A74
:100A700071EE821AC4ED001AD4ED070A30EE200A96
:100A800084ED010A94ED080AD4ED0B0A30EE200A39
:100A9000DBE70000704F00200080BB440000FA43F9
:100AA00000000000844F0020DB0F49400000344369
:100AB00004F06EFE0A2004F087FFF9E790F820208A
:100AC000012A07D0022A05D0416A41F480214162FF
:100AD00001207047006842690A4342610020704764
:100AE000F0B590F820500468A468012D05D0022DBF
:100AF00003D0416A41F4802153E014F0406F01D1EA
:100B0000E5004BD5C4F30164022C03D9416A41F4DA
:100B1000000146E00125A5401D608B684FF4C075BB
:100B20009BB1CE6833434E6843EAC603066805EBC3
:100B30000417F3514FF4C273076803EB04130E69F3
:100B4000FE50097D012905D009E00E88CB6843EAF3
:100B50004653EBE70168CE5846F48076CE501179C3
:100B6000D2F805304FF4C67641EA0323016806EB5C
:100B700004168B511178D2F801204FF4C47341EA66
:100B80000221026803EB0413D150006805EB041145
:100B9000425842F0010242500020F0BD416A41F447
:100BA000001141620120F0BD10B590F82020012A0B
:100BB00007D0022A05D0416A41F480214162012018
:100BC00010BD3B48D0F8002242F00102C0F80022DC
:100BD000D0F8002222F47C52C0F80022D0F8002283
:100BE0004B6A42EA0322C0F800220A7D02F01F038A
:100BF00001229A40D0F81C329343C0F81C32CB69D2
:100C0000B3B9D0F80C329343C0F80C328C894B68DE
:100C100064F31F434C6900EBC404C4F840320C89F0
:100C20000B6864F31F434C6900EBC404C4F84432FE
:100C3000CB69012B16D1D0F80C321343C0F80C321B
:100C40000C884B6864F31F434C6900EBC404C4F880
:100C500040320C89CB6864F31F434C6900EBC40439
:100C6000C4F844328B69002BD0F804320ED0134301
:100C7000C0F804320B69002BD0F8143208D01343AB
:100C8000C0F81432096A012904D008E09343EFE761
:100C90009343F5E7D0F81C121143C0F81C12D0F8AA
:100CA000001221F00101C0F80012002010BD000068
:100CB00000640040704730B590F82040012C05D00A
:100CC000022C03D0416A41F480215DE004680029D0
:100CD00055D02469A40754D04FF4D874056804EBA8
:100CE00001142D5915F00405956005682D594ED055
:100CF000ED08556005682C5904F00204D4604FF4E7
:100D0000DA74056804EB01142D5905F00F0515611F
:100D100005682D59C5F30725956105682C59240CE4
:100D200054614FF4DC72046802EB0112A4581C7089
:100D30000468A458240A5C700468A458240C9C70AD
:100D40000468A258120EDA704FF4DE72046802EBE7
:100D50000112A4581C710468A458240A5C71046828
:100D6000A458240C9C710468A258120EDA71006811
:100D700081B1016941F020010161002030BDE468CA
:100D8000A8E7416A41F400114162012030BD6D0DB8
:100D90001560AFE7C16841F02001C160EDE72DE9C2
:100DA000F05F0546006800244669D0F80490876823
:100DB000D0F80CB0D0F810A0D0F81880F10748D0C7
:100DC000F90714D001218160B80703D5284600F047
:100DD00062FA0CE0780702D54FF4006407E03807A8
:100DE00002D54FF4805402E0284600F053FAF8058B
:100DF00016D529684FF480708860B80503D5284659
:100E000000F04BFA0CE0780502D544F4005407E0FA
:100E1000380502D544F4804402E0284600F03CFA4C
:100E2000F80316D529684FF480308860B80303D5DD
:100E3000284600F034FA0CE0780302D544F400446C
:100E400007E0380302D544F4803402E0284600F07D
:100E500025FA300707D55FEACB6004D52968102052
:100E600044F40074C86070074FF0080707D55FEAC4
:100E70000B7004D52868C760284600F099F9B007C0
:100E800006D52868C068800702D0284600F092F98D
:100E9000700607D55FEACA6004D52968102044F4BB
:100EA00080640861B00607D55FEA0A7004D5286837
:100EB0000761284600F0C0F9F00606D528680069E9
:100EC000800702D0284600F0B8F9B00308D55FEAE1
:100ED000C96005D5296810204860284600F0AEF9A1
:100EE000F00307D55FEA097004D5286847602846F3
:100EF00000F0D6F9300446D55FEA497040D5F005D8
:100F000004D55FEAC87001D044F00104B00504D5EF
:100F10005FEA887001D544F00204700504D55FEAE9
:100F2000487001D544F00404300529D518F0700F3D
:100F300026D008F07000402815D006DC102809D013
:100F400020280AD0302816D10AE050280ED0602878
:100F500011D10EE044F008040DE044F010040AE062
:100F600044F0200407E044F0400404E044F080042E
:100F700001E044F480742868816921F07001816186
:100F8000296804204860002C05D0686A2043686204
:100F90002846FFF78FFEBDE8F09F70B5040003D030
:100FA00094F8200010B104E0012070BD204600F04C
:100FB00081F82068016841F00101016000F07CFCCB
:100FC0000546052604E000F077FC401B0A2811D8EE
:100FD00020684068C007F6D02068016821F002014F
:100FE000016000F069FC05460BE000F065FC401B69
:100FF0000A2806D9606A40F40030606284F82060F4
:10100000D2E7206840688007EFD4207E012820685E
:1010100001683DD021F080010160607E01282068D8
:10102000016838D021F040010160A07E01282068CD
:10103000016833D021F020010160E07E01282068A2
:1010400001682ED041F010010160207F0128206846
:10105000016829D021F008010160607F0128206823
:10106000016824D021F004010160D4E902010843A1
:10107000D4E90412114308436168491E08432168FA
:10108000C86100206062012084F82000002070BD4B
:1010900041F08001C0E741F04001C5E741F0200187
:1010A000CAE721F01001CFE741F00801D4E741F091
:1010B0000401D9E7F0B587B0044614216846FFF76C
:1010C00065FA3649364ADFF8D0E00868D4F800C03F
:1010D000334B02240325092610320027401CF44517
:1010E00023D10860012807D1106840F0007010601B
:1010F000106800F000700590186840F0010018605A
:101100001868694600F0010005904FF4C0508DE862
:101110009100CDE90356234800F0E0FA00220521B2
:10112000142000F067FC142032E0DFF87CE0F44586
:1011300030D1D2F800C04CF0806CC2F800C0D2F8B8
:1011400000C001280CF0806CCDF814C0086007D1F5
:10115000106840F000701060106800F0007005909A
:10116000186840F0020018601868694600F0020034
:1011700005904FF440508DE89100CDE903560B489F
:1011800000F0ACFA00220521402000F033FC4020A2
:1011900000F022FC07B0F0BD0064004028000020F1
:1011A0003038024000000240006800400004024065
:1011B0007047000070B505461B488CB0854216D1BB
:1011C00007AB6A460021FFF776FD174A07A9684674
:1011D00004F00CFA154E002404EB840000EBC4006C
:1011E00006EB800002F0E8FA641C072CF4DB1048E0
:1011F000854216D109AB6A460021FFF75CFD0C4A17
:1012000009A9684604F0F2F90A4D002404EB8400B1
:1012100000EBC40005EB800002F0CEFA641C072C42
:10122000F4DB0CB070BD000068010020D44F00203A
:10123000900100204051002070477047704770B502
:10124000044690F82000012804D0606A40F4002091
:10125000606217E0022084F820002068016821F015
:101260000101016000F028FB05460DE000F024FBC1
:10127000401B0A2808D9606A40F4003060620520EB
:1012800084F82000012070BD20684068C007EDD1BF
:10129000606270BD70477047704770477047704715
:1012A00070472DE9F0410446876D00F005FB0546C7
:1012B00094F835000026022806D08020606584F866
:1012C00034600120BDE8F0812068016821F016013A
:1012D00001602068416921F080014161206C08B9FA
:1012E000A06C20B12068016821F00801016020682D
:1012F000016821F0010101600CE000F0DDFA401B03
:10130000052807D920206065032084F8350084F87B
:101310003460D7E720680068C007EED194F85C100D
:101320003F208840B860012084F8350084F834609C
:101330000020C7E790F83510022903D080214165CD
:1013400001207047052180F835100068016821F000
:1013500001010160002070472DE9F84304464FF079
:101360000009CDF8009063484FF41651A56D006850
:10137000B0FBF1F72E6894F85C20082101FA02F026
:1013800030420FD02068026852070BD5026822F065
:101390000402026094F85C008140A960606D40F036
:1013A0000100606594F85C104FF0010808FA01F044
:1013B000304208D021684969090604D5A860606DEB
:1013C00040F00200606594F85C10042088403042D0
:1013D00008D021680968890704D5A860606D40F0CD
:1013E0000400606594F85C1010208840304218D0EA
:1013F00021680968090714D5A860206801684903B5
:1014000004D50068000308D5A16C07E00168C90590
:1014100003D4016821F008010160216C09B1204664
:10142000884794F85C1020208840304231D02168F1
:101430000968C9062DD5A86094F8350005282068EC
:10144000016806D0490347D5006800031DD4616CCC
:101450001CE021F0160101602068416921F0800143
:101460004161206C08B9A06C20B12068016821F0AE
:101470000801016094F85C103F208840A86084F85F
:10148000358084F83490216D1FE0E16B09B120466E
:101490008847606D00282BD0606DC00714D00520F0
:1014A00084F835002068016821F00101016000988E
:1014B000401C0090B84203D820680068C007F6D1ED
:1014C00084F8358084F83490E16C002910D001B0A4
:1014D0002046BDE8F04308470168C905D5D4016836
:1014E00021F01001016084F8358084F83490CCE755
:1014F000BDE8F883380000202DE9F041044600F0F3
:10150000DBF905465CB1022084F83500002684F83A
:1015100034602068016821F0010101600DE00120C4
:10152000BDE8F08100F0C8F9401B052805D920204E
:101530006065032084F83500F2E720680068C00782
:10154000F0D121680A6820480240D4E90103184319
:10155000D4E903352B43184363691843A36918433F
:10156000E3691843236A18431043626A042A03D1CB
:10157000D4E90B231A431043086020684069656A68
:1015800020F0070128460D43012704280CD1A06A4A
:101590000543E06A40B12046FFF752F920B14020F0
:1015A000606584F83570BAE7206845612046FFF72A
:1015B00033F994F85C203F2191408160666584F89E
:1015C00035700020ACE700003F8010F02DE9F041BD
:1015D0000446866D90F83400002501280DD00120C6
:1015E00084F8340094F835700020012F07D084F877
:1015F000340002252846BDE8F0810220FBE70227DF
:1016000084F8357060652046FFF744F994F85C1063
:101610003F208840B0602068016841F016010160F9
:10162000206C20B12068016841F008010160206849
:10163000016841F001010160DCE7000070B51F4C5A
:1016400080280DD16169C0052161426AA06840F21D
:101650007123584302EB00106061E060401AA080E3
:101660006078002501210128A08840F6980205D065
:10167000904202D36170A570257070BD904203D373
:101680006170A570217070BDA0F2B63140F24C427D
:10169000914210D80A4AA17822F81100491CC8B218
:1016A000A0700828EFD30649420001F11400FEF7AC
:1016B000FEFEA57070BD657070BD0000BC0000200E
:1016C0005C4F0020044910B50A68024202D008604D
:1016D000FFF7B4FF10BD0000143C01402DE9F84FA6
:1016E000DFF89C910022A9F1040B03274FF00F0CA7
:1016F00009F1040AABF1040E01250B6895402B405B
:10170000AB426ED10C7904F00304012C01D0022C01
:1017100015D18668540007FA04F826EA0806D1F8BD
:101720000C8008FA04F848EA0608C0F80880446803
:10173000AC430D79C5F300159540254345600C7900
:10174000E443A40708D0C568540007FA04F6B5437B
:101750008E68A6402E43C6600C7904F00304022C68
:1017600011D1D40800EB8406356A5407E40E0CFA54
:1017700004F825EA0805D1F8108008FA04F848EAC8
:101780000508C6F820800568540007FA04F6B5433A
:101790000E7906F00306A6402E4306604C6814F44A
:1017A000403F66D0374C256845F480452560246865
:1017B00022F0030504F480440094334C05EB040844
:1017C000D8F808589407260F0CFA06F4A5432F4CB6
:1017D000A04201D1002424E02D4CA04202D10124DA
:1017E0001FE046E02B4CA04201D1022419E02A4C14
:1017F000A04201D1032414E0284CA04201D10424CA
:101800000FE0274CA04201D105240AE0254CA0425C
:1018100001D1062405E0244CA04201D1072400E0B8
:101820000824B4402C43C8F80848D9F800404D4675
:101830004E689C43F60200D51C432C60DAF8004049
:1018400055464E689C43B60200D51C432C60DBF81D
:1018500000405D464E689C43B60300D51C432C6097
:10186000DEF8004075464E689C43F60300D51C43E5
:101870002C60521C102AFFF43FAFBDE8F88F000027
:10188000083C014044380240003001400000024062
:101890000004024000080240000C02400010024018
:1018A0000014024000180240001C02400AB181618D
:1018B00070470904FBE7000001488068704700009A
:1018C0002C00002002488168027811448160704732
:1018D0002C0000200B4810B5016841F40071016034
:1018E000016841F480610160016841F48071016028
:1018F000032000F09FF80F2000F006F800F050F8E9
:10190000002010BD003C024030B505461F4887B09E
:101910000024016841F002010160006806A900F09E
:1019200002000590684600F031F90398A8B100F074
:101930004DF940001649174AB0FBF1F11648491E0F
:10194000026040F2E732C0E90324C0E90114846177
:1019500000F082FB040003D015E000F037F9E9E75E
:101960000D4800F0C3FB04000DD11D2000F034F839
:10197000102D07D2002229461D2000F03BF8074811
:10198000056000E0012407B0204630BD4038024029
:1019900040420F00000400401006002030000020EC
:1019A0000C4882B0016841F480410160006800F495
:1019B000804000900748001F016841F0805101609D
:1019C0000068002200F0805000900F21901E02B0AD
:1019D00000F010B844380240002809DB00F01F0274
:1019E000012191404009800000F1E020C0F8001181
:1019F00070470000F0B40E4B1B68C3F30223C3F121
:101A00000704042C00D904241D1D072D01D2002336
:101A100000E0DB1E012606FA04F56D1E0D409D4018
:101A20009E40761E164045EA0601F0BC02F0E6BD77
:101A30000CED00E0064A00F0070110684FF6FF03C6
:101A4000184040EA01200349084310607047000035
:101A50000CED00E00000FA052DE9F0470D4604000A
:101A600065D0DFF81491D9F80000EFB200F007005C
:101A7000A84207D289F80070D9F8000000F00700EA
:101A8000A84254D120683D4E810712D5400703D5A6
:101A9000306840F4E05030602078000703D53068AB
:101AA00040F4604030603068A16820F0F0000843E6
:101AB00030602078C0072DD030496068083901288F
:101AC00012D0022813D0032811D0096889070029F1
:101AD0002DDA316821F0030101433160FFF7ECFE9C
:101AE000804641F2883A0EE009688903EFE7096809
:101AF0008901ECE7FFF7E0FEA0EB0801514502D9B0
:101B00000320BDE8F0873068616800F00C00B0EB9E
:101B1000810FEFD1D9F80010484601F00701A94222
:101B200007D90770006800F00700A84201D0012023
:101B3000E7E72078400705D53068E16820F4E050F9
:101B4000084330602078000706D53068216920F40A
:101B5000604040EAC100306000F058F83168084A3F
:101B6000C1F30311515CC84006490860064800688B
:101B7000FFF7CAFE0020C4E7003C024008380240DC
:101B80009080000838000020300000200F22026002
:101B90000C4A136803F003034360136803F0F00377
:101BA0008360136803F4E053C36012684FF4E0539A
:101BB00003EAD20202610448006800F007000860EE
:101BC0007047000008380240003C024004480549C4
:101BD00000680968044AC1F38221515CC84070471B
:101BE0003800002008380240A08000080448054959
:101BF00000680968044AC1F34231515CC84070472B
:101C00003800002008380240A0800008154810B5B0
:101C1000006810F00C01144813D0431004290FD0B1
:101C200008290ED10F4C241F216801F03F022168C2
:101C3000490207D52068C0F38810A0FB030106E025
:101C4000184610BD2168C1F38811A1FB00010023D3
:101C5000FEF78AFB2168C1F30141491C4900B0FB32
:101C6000F1F010BD083802400024F4002DE9F84FCF
:101C7000040075D02078DFF838A3C007AAF1040566
:101C800048D00AF104000168C1F38101012908D09C
:101C90000068C0F3810002280AD1DAF8000040028F
:101CA00006D52868800335D560680028E1D031E08A
:101CB0006068B0F5803F10D0B0F5A02F286810D034
:101CC00020F480302860286820F480202860606834
:101CD000A0B1FFF7F1FD06460CE0286840F4803023
:101CE000F4E740F480202860F7E7FFF7E5FD801B6C
:101CF000642871D828688003F7D50BE0FFF7DCFD76
:101D0000064604E0FFF7D8FD801B6428F1D8286858
:101D10008003F7D42078DFF89C9280074FF0000B07
:101D20003DD5A348001D016811F00C0F08D00068D4
:101D3000C0F3810002280AD1DAF80000400206D47C
:101D40002868800715D5E068012809D111E0E0680E
:101D5000B8B10120C9F80000FFF7AEFD064605E066
:101D600022E1FFF7A9FD801B0228C2D8286880075E
:101D7000F7D52868216920F0F80040EAC100286002
:101D80000DE0C9F800B0FFF797FD064604E0FFF745
:101D900093FD801B02281FD828688007F7D420787D
:101DA000000722D5824F84486169703771B10121E3
:101DB0000160FFF781FD064604E0FFF77DFD801B13
:101DC000022809D838688007F7D50EE0C0F800B0BF
:101DD000FFF772FD064605E082E0FFF76DFD801B10
:101DE00002287DD838688007F7D42078400765D569
:101DF0006F484FF000083C300068C0000BD46C48BE
:101E00003C30016841F08051016000684FF00108EA
:101E100000F080500090694F3868C0050FD43868D2
:101E200040F480703860FFF747FD064604E0FFF796
:101E300043FD801B022853D83868C005F7D55C4F96
:101E4000A0686C3701280FD00528386810D020F022
:101E500001003860386820F004003860A068B0B134
:101E6000FFF72AFD06460EE0386840F00100F4E76F
:101E700040F004003860F7E7FFF71EFD811B41F2D8
:101E80008830814263D838688007F5D50DE0FFF7C8
:101E900013FD064606E0FFF70FFD811B41F2883077
:101EA000814254D838688007F5D4B8F1000F05D0C6
:101EB0003F483C30016821F080510160A069B8B30F
:101EC0003B49091D0968C1F38101022946D0022856
:101ED000584606D0C9F86000FFF7EEFC044639E02A
:101EE00035E04F46C9F86000FFF7E6FC064604E01F
:101EF000FFF7E2FC801B022829D828688001F7D46C
:101F0000D4E907010843A16A2D4A490802EB0141BF
:101F1000626A41EA8211084394F82C1040EA016198
:101F2000CAF8001001203866FFF7C6FC044605E039
:101F30003CE0FFF7C1FC001B022808D8286880019C
:101F4000F7D533E0FFF7B8FC001B022802D90320C5
:101F5000BDE8F88F28688001F4D427E00128F7D085
:101F6000DAF80000E26900F4800191421CD1226A93
:101F700000F03F01914217D147F6C071626A0140FB
:101F8000B1EB821F10D1A26A4FF0FF3300F4403151
:101F900003EB5202B1EB024F06D194F82C1000F083
:101FA0007060B0EB016F01D00120D1E70020CFE7D6
:101FB0000438024000004742800E47420070004053
:101FC0000000FFFF7047704770B590F83C20012A71
:101FD00032D0012580F83C50022280F83D20026872
:101FE0005368946823F070060B6833435360134BB7
:101FF00002689A4214D0B2F1804F11D0104B9A422D
:102000000ED0104B9A420BD00F4B9A4208D00F4B78
:102010009A4205D00E4B9A4202D00E4B9A4204D1FE
:10202000496824F080031943916080F83D500021F5
:1020300080F83C10084670BD022070BD00000140D1
:102040000004004000080040000C00400004014073
:10205000004001400018004010B5040003D094F87F
:102060003D0010B107E0012010BD002084F83C00C5
:10207000204600F01FF8022084F83D00211D206852
:1020800001F048FE012084F8460084F83E0084F800
:102090003F0084F8400084F8410084F8420084F84E
:1020A000430084F8440084F8450084F83D00002093
:1020B00010BD000008B50068B0F1804F12D10A4889
:1020C000016841F0010101600068002200F0010098
:1020D000009005211C20FFF78DFCBDE808401C2066
:1020E000FFF77ABC08BD00004038024090F83D1070
:1020F000012901D001207047022180F83D100168BC
:10210000CA6842F00102CA6000681149884214D0CE
:10211000B0F1804F11D00F4988420ED00E4988424D
:102120000BD00E49884208D00D49884205D00D4990
:10213000884202D00C49884204D1816801F007012D
:10214000062903D0016841F00101016000207047B9
:10215000000001400004004000080040000C004066
:1021600000040140004001400018004070B50446E2
:1021700090F83C000025012817D0012684F83C6027
:10218000022084F83D002068826822F0770222F461
:102190007F4282600868502838D00DDC20284FD05C
:1021A00005DC90B3102811D14AE0022070BD302820
:1021B00046D040280AD13BE060282FD070280DD0AF
:1021C000B0F5805F03D0B0F5005F12D0012584F830
:1021D0003D60002084F83C00284670BDCB68D1E902
:1021E0000121206801F0FAFD2068816841F0770143
:1021F00009E0CB68D1E90121206801F0EFFD2068FA
:10220000816841F480418160E1E719E0CA6849686A
:10221000206801F0F5FD5021206806E0CA68496891
:10222000206801F0FEFD6021206801F0E1FDCEE7AD
:10223000CA684968206801F0E3FD40212068F4E79E
:10224000226801461046F0E7704770B50446006802
:1022500001694FF00005C943890715D4C168C94316
:10226000890711D4E91E0161012020772068806967
:102270008007204602D0FFF7E7FF04E000F098F85F
:10228000204600F096F8257720680169C943490780
:1022900017D4C168C943490713D46FF00401016121
:1022A000022020772068806910F4407F204602D009
:1022B000FFF7CAFF04E000F07BF8204600F079F851
:1022C000257720680169C943090716D4C168C94345
:1022D000090712D46FF008010161042020772068FB
:1022E000C0698007204602D0FFF7AEFF04E000F08F
:1022F0005FF8204600F05DF8257720680169C94342
:10230000C90617D4C168C943C90613D46FF01001B8
:102310000161082020772068C06910F4407F2046C2
:1023200002D0FFF791FF04E000F042F8204600F0F1
:1023300040F8257720680169C943C90708D1C168F9
:10234000C943C90704D1891E0161204600F032F853
:1023500020680169C943090609D4C168C94309064F
:1023600005D46FF0800101612046FFF72BFE206845
:102370000169C943490609D4C168C943490605D45E
:102380006FF040010161204600F050F820680169BB
:10239000C94389060BD4C168C943890607D46FF0C5
:1023A000200101612046BDE87040FFF70CBE70BD02
:1023B0007047704730B40168B1F1804F22D1164A9E
:1023C000164B11681960164B491C11601988154A83
:1023D000491C89B21980642912D300241C805188B9
:1023E000491C89B251803C290AD354809188491CE8
:1023F00089B291803C2903D39480D188491CD18033
:102400001988118000680849884202D130BCFFF762
:1024100059BA30BC70470000C4000020D40000202E
:10242000D8000020DA00002000040040704738B5D2
:10243000044690F83E00202826D171B16AB194F884
:102440003C00012820D0012084F83C002063204675
:1024500001F0C2FE010002D005E0012038BD206B72
:10246000012802D00121084638BD20680268406872
:10247000009020680C3050E8002F42F0100240E835
:102480000023002BF5D1EEE7022038BD70B50446DD
:1024900026480D4684420ED1254803F017FC2449F6
:1024A000642266312148FFF7C2FF224800680168B4
:1024B00021F008010160204884420FD129461F48BD
:1024C00003F004FC1D49642266311B48FFF7AFFF8F
:1024D0001B480068016821F0080101601948844226
:1024E0000FD12946184803F0F1FB174964226631E1
:1024F0001448FFF79CFF15480068016821F00801A7
:102500000160134884420FD12946124803F0DEFBD4
:102510001049642266310E48FFF789FF0E480068B3
:10252000016821F00801016070BD000088020020F0
:102530000C5E0020F0040020CC0200201C5F002074
:1025400050050020000200202C6000201003002015
:10255000440200203C610020D003002070470000AE
:10256000F8B5016804460868CA684B6910F00F0F97
:102570004FF0000559D003F0010602F4907737437D
:1025800065D0C10705D0D10503D5216C41F001010B
:102590002164410705D5D90703D0216C41F0020120
:1025A0002164810705D5D90703D0216C41F00401CE
:1025B0002164010707D502F02001314303D0216CCB
:1025C00041F008012164216C00293AD0800604D52D
:1025D000900602D5204601F019FD20684069216C63
:1025E000C0F38010090700D460B3204601F0D9FC85
:1025F00020684069400621D52068143050E8001F4B
:1026000021F0400140E80012002AF5D1A06BA8B1EA
:102610006C490165A06BFEF78DFE002811D0A06B00
:10262000016D01B0BDE8F040084783060FD5930661
:102630000DD52046BDE8F84001F0E8BC2046FFF784
:102640008DFFF8BD2046FFF789FF2564F8BD266B96
:102650002023012E79D1C60677D5D60675D5086810
:10266000486800904869400640D5A16B08684068FA
:102670000004000CEAD0A28D8242E7D9E085C86947
:10268000B0F5807F2DD020680C3050E8001F21F479
:10269000807140E80012002AF5D12068143050E81B
:1026A000001F21F0010140E80012002AF5D1206846
:1026B000143050E8001F21F0400140E80012002AC9
:1026C000F5D184F83E30256320680C3050E8001FB7
:1026D00021F0100140E80012002AF5D1A06BFEF7AE
:1026E000E0FDA08DE18D401A81B229E0A08DE18D41
:1026F000401A81B2E08D0028A8D00029A6D0206819
:102700000C3050E8002F22F4907240E80026002E92
:10271000F5D12068143050E8002F22F0010240E883
:102720000026002EF5D184F83E30256320680C3059
:1027300050E8002F22F0100240E80023002BF5D1D2
:102740002046FFF7A3FEF8BDFFE705062BD51506CB
:1027500029D594F83D002128F5D1A068B0F5805F17
:1027600001D12069B0B1206A411C21622168007842
:102770004860E08C401E0004000CE084E3D1206837
:10278000C16821F08001C1602068C16841F040014A
:10279000C160D8E7206A0088C0F308004860206A5A
:1027A000801C2062E5E74006CDD55006CBD5CA682F
:1027B000204622F04002CA6084F83D3000F046FA1C
:1027C000C1E70000613E000870B5040004D094F831
:1027D0003D00002510B106E0012070BD84F83C509A
:1027E000204600F023F8242084F83D002068C168CA
:1027F00021F40051C160204601F068FC20680169A5
:1028000021F4904101612068416921F02A01416170
:102810002068C16841F40051C1602564202084F81B
:102820003D0084F83E00002070BD00002DE9F04F0F
:1028300087B0044614216846FDF7A8FED348DFF8A8
:10284000488310380221D4F800C0D04B0322002561
:102850008E0607154FF0080E4FF04009C44559D1B8
:10286000D3F800C0AA464CF4002CC3F800C01B6883
:1028700003F400230593036843F004030360006836
:1028800000F00400059090028DE82300CDE9032EAE
:102890006946BF48FEF722FFDFF8FC82BD4940468B
:1028A000C8F80010C0E90165C0E90357C8F8145022
:1028B000C8F81850C8F81C50C8F82050C8F8245060
:1028C000FEF71AFE08B1FEF730F8B34DB148C4F870
:1028D000388060353030C8F8384085E84102C5E9B5
:1028E00003A7C5F814A0C5F818A0C5F81CA0C5F822
:1028F00020A02846C5F824A0FEF7FEFD08B1FEF78B
:1029000014F86563002201213420AC63FFF772F8EC
:10291000342074E0DFF88482C44576D1D3F800C057
:102920004CF4801CC3F800C01B6803F480130593AB
:10293000036843F004030360036803F00403059392
:10294000036843F0080303600068884600F008004D
:1029500005904FF48050CDE90008CDE9025293462E
:10296000F2466946CDF810E08948FEF7B7FE04202C
:10297000CDE90008CDE9025B6946CDF810A0884892
:10298000FEF7ACFEDFF81082824908F1C00830394A
:102990004046C8F80010C0E90165C0E90357C8F80F
:1029A0001450C8F81850C8F81C50C8F82050B24647
:1029B000C8F82450FEF7A0FD08B1FDF7B6FF794E28
:1029C000C4F83880C8F83840C6F80890C6E90357FC
:1029D0007561B5616F48F561356278307562C6E939
:1029E000000A3046FEF788FD08B1FDF79EFF6663DA
:1029F000002201213520B463FEF7FCFF3520FEF7ED
:102A0000EBFF07B0BDE8F08FFFE7DFF89C814FF0E8
:102A1000070BC44558D15D4B1B1DD3F800C04CF0CB
:102A2000100CC3F800C01B6803F010030593036883
:102A300043F001030360006800F0010005904FF4CB
:102A4000C0608DE82300CDE9032B69465748FEF7A7
:102A500045FEDFF85081564908F16008404688E895
:102A60004202C0E90357C8F81450C8F81850C8F813
:102A70001C50C8F82050B946C8F82450FEF73CFD59
:102A800008B1FDF752FF474F4948C4F83480C037BA
:102A90007838C8F838403860C7E90165C7E9035994
:102AA0007D61BD61FD613D6238467D62FEF724FDBA
:102AB00008B1FDF73AFFA763002205212520BC637A
:102AC000FEF798FF25209AE7DFF8E880C44598D103
:102AD000D3F800C0AA464CF4003CC3F800C01B6801
:102AE00003F400330593036843F0080303600068B0
:102AF00000F00800059060208DE82300CDE9032B4D
:102B000069462748FEF7EAFD2249DFF8AC804831E4
:102B10004046C8F80010C0E90165C0E90357C8F88D
:102B20001450C8F81850C8F81C50C8F82050C8F8FD
:102B30002450FEF7E1FC08B1FDF7F7FE1E4D1548E5
:102B4000C4F8388060356030C8F8384085E8410204
:102B5000C5E903A7C5F814A0C5F818A0C5F81CA0BE
:102B6000C5F820A02846C5F824A0FEF7C5FC08B18A
:102B7000FDF7DBFE6563002205212620AC63FEF72E
:102B800039FF26203BE70000004C0040403802405F
:102B90000008024040600240100300200050004046
:102BA000000C0240300400200010014000000240F0
:102BB000B864024000440040500500207047704750
:102BC000F7B5044690F83D00202837D1019991B31C
:102BD0008AB394F83C00012830D0012084F83C00EE
:102BE0002162A284E28400252564212084F83D002E
:102BF000636B1348D863636B12481864636B1248A5
:102C0000D864606B134605652668606B321DFEF75D
:102C1000DDFC21686FF04000086084F83C502068BB
:102C2000143050E8001F41F0800140E80012002AF3
:102C3000F5D10020FEBDFFE70120FBE70220F9E708
:102C4000573F0008993F0008713E000870477047E1
:102C5000FEE70722827080ED050A018380ED040AF9
:102C60007047D0ED000AF4EEC00AF1EE10FA01DD73
:102C700080ED000AD0ED000AB1EE400AF4EEC00A81
:102C8000F1EE10FA01D280ED000A704700B599B05C
:102C9000082100208A0100920290CDE903010890EA
:102CA000CDE90901501E06903C4814AB41890A0A3F
:102CB0008DF830208DF83110C18F0A0A8DF832203E
:102CC0008DF83310B0F872100A0A8DF834208DF8A0
:102CD0003510B0F8A6100A0A8DF836208DF8371096
:102CE000B0F8DA100A0A8DF840208DF84110B0F8DB
:102CF0000E110A0A8DF842208DF84310B0F84201F7
:102D00000CAA010A8DF844108DF845006946244844
:102D1000FDF7E6FE15AB10AA06A92148FDF7E0FE77
:102D2000204816AB41890A0A8DF838208DF83910F1
:102D3000C18F0A0A8DF83A208DF83B10B0F8721056
:102D40000A0A8DF83C208DF83D10B0F8A6100A0A4A
:102D50008DF83E208DF83F10B0F8DA100A0A8DF891
:102D600048208DF84910B0F80E110A0A8DF84A2053
:102D70008DF84B10B0F842010EAA010A8DF84C10E4
:102D80008DF84D0069460848FDF7AAFE17AB12AA58
:102D900006A90548FDF7A4FE19B000BDD44F0020D8
:102DA000680100204051002090010020104810B51B
:102DB0000E4901600321416000214FF4002281602F
:102DC000C0E903124FF440124261017601224276BB
:102DD0008176C17601774177FEF7DFF8002803D0CE
:102DE000BDE81040FDF7A1BD10BD0000006400402B
:102DF00068010020104810B50E49016003214160B0
:102E000000214FF400228160C0E903124FF4401208
:102E100042610176012242768176C176017741775F
:102E2000FEF7BBF8002803D0BDE81040FDF77DBDDC
:102E300010BD00000068004090010020294808B53E
:102E4000016841F480010160016801F48001009192
:102E5000016841F4001101600068002200F40010D4
:102E6000009005210B20FEF7C5FD0B20FEF7B4FDF9
:102E7000002205210D20FEF7BDFD0D20FEF7ACFD63
:102E8000002205210F20FEF7B5FD0F20FEF7A4FD5F
:102E9000002205211020FEF7ADFD1020FEF79CFD5D
:102EA000002205211120FEF7A5FD1120FEF794FD5B
:102EB000002205212F20FEF79DFD2F20FEF78CFD1F
:102EC000002205213A20FEF795FD3A20FEF784FD09
:102ED000002205214620FEF78DFDBDE80840462072
:102EE000FEF77ABD3038024010B5194A0021194862
:102EF00002F0A6FD184C164A0021E0602432174863
:102F000002F09EFD124A206148320021144802F06E
:102F100097FD0F4A60616C320021124802F090FD6B
:102F20000B4AA061903200210F4802F089FD084A47
:102F3000E061B43200210D4802F082FD044A2062B3
:102F4000D83200210A4802F07BFD606210BD00000B
:102F50008C7F00082F09000800000020F1060008FF
:102F6000B10A0008DD3A0008D531000875070008ED
:102F7000F1360008F0B587B014216846FDF706FB6E
:102F800036480024016841F020010160016801F029
:102F900020010591016841F080010160016801F0A4
:102FA00080010591016841F040010160016801F074
:102FB00040010591016841F002010160016801F0E2
:102FC00002010591016841F001010160016801F011
:102FD00001010591016841F004010160016801F0FF
:102FE00004010591016841F00801016000681C4E70
:102FF00000F008004FF4784505900022294630463D
:10300000FEF754FC174F002201213846FEF74EFC14
:10301000802000904FF48810CDE9010469463046C5
:10302000FEF75CFB00950125CDE901546946304669
:103030000394FEF753FB0095CDE9015469463846E9
:103040000394FEF74BFB002205211720FEF7D2FC6C
:103050001720FEF7C1FC07B0F0BD00003038024079
:10306000001402400018024010B586B00024164833
:10307000009401940294039404944FF080410594C9
:1030800001605321C0E901141049C0E903148461AF
:10309000FEF7E2FF08B1FDF748FC4FF480500090C6
:1030A00069460948FFF762F808B1FDF73EFC049451
:1030B00004A905480594FEF787FF002801D0FDF715
:1030C00034FC06B010BD0000B8010020A08601004D
:1030D0000C4810B50A4901604FF4E131416000210C
:1030E00081600C22C160C0E904128161C161FFF7F7
:1030F0006BFB002803D0BDE81040FDF716BC10BDE7
:10310000004C0040000200200C4810B50A49016044
:103110004FF4E1314160002181600C22C160C0E9BF
:1031200004128161C161FFF74FFB002803D0BDE8A5
:103130001040FDF7FABB10BD0050004044020020D3
:103140000C4810B50A4901604FF4E131416000219B
:1031500081600C22C160C0E904128161C161FFF786
:1031600033FB002803D0BDE81040FDF7DEBB10BDE7
:1031700000100140880200200C4810B50A49016087
:103180004FF4E1314160002181600C22C160C0E94F
:1031900004128161C161FFF717FB002803D0BDE86D
:1031A0001040FDF7C2BB10BD00440040CC0200201F
:1031B000B4EEE00AF1EE10FA01DDB0EE600AF1EED5
:1031C000600AB4EEE00AF1EE10FA01D2B0EE600A45
:1031D0007047FEE700F004F8012002F0F5FBF9E784
:1031E0002DE9F04F00202DED068B81B08046DFF8F1
:1031F000F4B39FEDFD9B9FEDFEAAABF5367606F589
:10320000B667814600EB8001FA4801EBC80500EB88
:103210008504A078082876D2DFE800F00475E4077A
:10322000444D829AA4F80A906DE0E06A01281DD10D
:10323000A08800EE100AB4F90C00F8EE400A00EE87
:10324000100A0BEBC5008246B8EEC00A02F03CFC47
:103250009AED110A84ED040AB4F9060000EE900A12
:1032600006EBC500F8EEE00A02F02EFCB4F90C0003
:10327000D4ED090A00EE100A0BEBC5008246B8EE49
:10328000C00A02F021FC9AED110A84ED040AB4F997
:10329000060000EE900AF8EEE00A06EBC50002F028
:1032A00013FC30E0B4F9060000EE100AF8EEC00A94
:1032B00094ED040A16E0B4F90C00D4ED090A00EE0E
:1032C000100A0BEBC5008246B8EEC00A02F0FCFB08
:1032D0009AED110A84ED040AB4F9060000EE900A92
:1032E000F8EEE00A06EBC500824602F0EDFBB4F909
:1032F0000E0000EE100AF8EEC00A9AED110AFFF770
:1033000057FF8AED110ADFF8F0A20AEB8504A078D6
:10331000082870D2DFE800F070E7FE73B4BDFDFC52
:10332000B4F90C00D4ED090A00EE100A0BEBC5004D
:103330008246B8EEC00A02F0C7FBB4F90E0000EEF8
:10334000100AF8EEC00A9AED110AFFF731FF9CE768
:10335000DFF8A0A2B4F9180004F00BFB53EC192B12
:1033600004F06EFB41EC180BB4F90800002800DCF7
:10337000404204F0FEFA53EC182B04F025FB01D870
:10338000C4F82090B4F9180004F0F3FAB0EE491A2A
:10339000F0EE691A53EC112B04F052FB41EC180BC0
:1033A000B4F90800002800DC404204F0E2FA53ECD3
:1033B000182B04F043FC0AD3B4F90800002800DC01
:1033C00040423AF92510884201DA206A02E0206A78
:1033D000401C20621E2805DB0120E06184ED09AA63
:1033E00084ED04AAB4F9060000EE100AF8EEC00A53
:1033F00094ED040A51E776E0A4F80A9073E0E06ADD
:1034000001281FD1A08800EE100AB4F90C00F8EED4
:10341000400A00EE100A794800EBC500B8EEC00A79
:10342000009002F051FB009890ED110A84ED040A1F
:10343000B4F9060000EE900A07EBC500F8EEE00ACA
:1034400002F042FBB4F90C00D4ED090A00EE100AB8
:103450006A4800EBC500B8EEC00A009002F034FBE9
:10346000009890ED110A84ED040AB4F9060000EE0C
:10347000900AF8EEE00A07EBC50002F025FB32E007
:10348000B4F9060000EE100AF8EEC00A94ED040A42
:1034900018E0B4F90C00D4ED090A00EE100A574800
:1034A00000EBC500B8EEC00A009002F00DFB0098DA
:1034B00090ED110A84ED040AB4F9060000EE900ABA
:1034C000F8EEE00A07EBC505284602F0FDFAB4F96C
:1034D0000E0000EE100AF8EEC00A95ED110AFFF793
:1034E00067FE85ED110A08F1010080460728FFF606
:1034F00089AE404D002242F69A1840F67B4B02EB13
:10350000820000EBC20105EB81008378012B02E011
:1035100046E02BE0A1E008D0C378012B61D0022B5C
:103520006ED0032B6DD0A0F80A90521C072AE6DB60
:103530000022544602EB820000EBC20104EB810042
:103540008378012B08D0C378012B78D0022B77D059
:10355000032B76D0A0F80A90521C072AEADB01B0B0
:10356000BDEC068BBDE8F04FFFF790BBB4F90C0043
:10357000D4ED090A00EE100A204800EBC500B8EEB1
:10358000C00A009002F0A0FAB4F90E0000EE100A92
:103590000098F8EEC00A90ED110AFFF709FE62E705
:1035A000B4F9180004F0E5F953EC192B04F048FACB
:1035B00041EC180BB4F90800002800DC404204F08C
:1035C000D8F953EC182B04F0FFF901D8C4F8209077
:1035D000B4F9180004F0CDF9B0EE491AF0EE691A0A
:1035E00010E043E084550020000000000000F83F98
:1035F00000000000D44F002040510020345B002028
:103600004BE04CE053EC112B04F01AFA41EC180B90
:10361000B4F90800002800DC404204F0AAF953EC99
:10362000182B04F00BFB0DD3B4F90800002800DCC4
:1036300040423AF92510884204DA206A05E036E073
:103640004CE04DE0206A401C20621E2805DB012072
:10365000E06184ED09AA84ED04AAB4F9060000EE45
:10366000100AF8EEC00A94ED040A04E7434618E095
:1036700006EBC10191ED110A09E000EE103A06EBEC
:10368000C101F8EEC00A91ED110AFFF791FDBDEE00
:10369000C00A10EE101A418147E75B4601E047F28D
:1036A000305325F82130046B012CE6D1E0E7434686
:1036B00018E007EBC10191ED110A09E000EE103AA4
:1036C00007EBC101F8EEC00A91ED110AFFF770FD9A
:1036D000BDEEC00A10EE101A41813DE75B4601E0E5
:1036E00047F2305324F82130056B012DE6D1E0E795
:1036F000012002F069F9FBE7FEE70000FDEEC00AD9
:103700000522827010EE902A8281C18190ED091A03
:1037100071EE400AF5EEC00AF1EE10FA01DC70EE2F
:10372000410A044910EE900A884201DA01207047EC
:10373000002070470000A040BDEEE01A0621817015
:1037400011EE101ABDEEC00A818110EE101AC1816F
:1037500090ED091A31EE600AB5EEC00AF1EE10FAEA
:1037600001DC30EEC10A044910EE100A884201DA89
:1037700001207047002070470000A040FDEEC00A05
:103780000321817010EE901A818190ED091A71EE7B
:10379000400AF5EEC00AF1EE10FA01DC70EE410AC3
:1037A000044910EE900A884201DA01207047002097
:1037B000704700000000A04030B59FED3D0A90F832
:1037C00028208188F0EE400A3AB1C278012A09D057
:1037D000022A0AD0032A0DD10AE04185012180F88E
:1037E000281030BDF3EE030A04E0DFED320A01E0F9
:1037F000F7EE000AB0F906209FED2F1ADFED2F1A21
:1038000041F6FF73002A1DDD428D914211D2A1EBDA
:1038100002021A4440F2E2439A420DDA00EE102A04
:10382000B8EEC00A20EE010A20EE211A81EE200A2D
:1038300002E001D98A1AF1E7B5EEC00AF1EE10FAFA
:103840002EDA33E0428D1EDA91420AD9A3EB01034E
:1038500003F2E144144440F6C215AC420DD81A44B8
:1038600001E00AD28A1A00EE102AB8EEC00A20EE51
:10387000010A20EE211A81EE200AB5EEC00AF1EE0F
:1038800010FA0DD912E091420AD08A1A00EE102ADD
:10389000B8EEC00A20EE010A20EE211A81EE200ABD
:1038A000D0ED090A30EE800A80ED090A418530BD6D
:1038B0000000000000001042000000390000B44386
:1038C00070B52E4D9FED2E1A9FED2E2AD5ED000AD4
:1038D000D5ED011A95ED020A20EE813ADFED2A2A94
:1038E0002D4E002401EEC13A00EE023A63EE223A78
:1038F0009FED263A83EE834ADFED253AC4EE234A54
:103900009FED244A21EE844A61EE811A00EEC14AFD
:1039100000EE024AC5ED0F4A64EE224A84EE834A65
:10392000C4EE234AB0EE614A40EE811A00EEC14A6D
:1039300040EE021A00EE024A61EEA20AC5ED104AFC
:1039400064EE224A80EE830A84EE834AC0EE230AA4
:10395000C4EE234AC5ED114AC5ED120A05EB8400F9
:1039600090ED0F0A04EB840000EBC40006EB80002E
:1039700000F03EF9641C042CF0DB70BD844F002085
:10398000F304353FCDCCCC3E00800E44C67D743E62
:1039900000007A44F30435BFD44F0020074840F2BA
:1039A000DC51028906488A4202D24FF0010102E04E
:1039B00002D94FF00201417070470000704F0020A3
:1039C000E20000200B484089B0F5966F09D3A0F2C1
:1039D000155300220849B3F5C77F03D804200870A7
:1039E000CA707047B0F5E16FFBD9052008708A7086
:1039F00070470000704F0020E20000201248134A78
:103A000081891078B1F5966F07D201210BE0917092
:103A100070470528FCD1D1707047A1F21553B3F55A
:103A2000C77F03D802210428F3D1F0E7B1F5E16F95
:103A3000F2D9042804D00528EED10320D0707047B5
:103A40000420907070470000704F0020E2000020BA
:103A5000074840F2DC51C28906488A4202D24FF040
:103A6000000102E003D94FF0010180F84C107047CB
:103A7000704F0020844F0020F0B4164EAA2300247B
:103A80003370FF237370B0702546F2700420234614
:103A900005E0CF5C3754401C5B1CC0B2DBB29342E4
:103AA000F7D3F2780021121D06E0735C2344DCB2E8
:103AB0002B19491CDDB2C9B28A42F6D83454401CD5
:103AC000C0B204493554F0BC401CC2B20248FFF7F2
:103AD00077B800004C620020880200202DED028B98
:103AE0004FF480573B4D9FED3C8ADFED3C8A3C4EC6
:103AF000DFF8F0803C4C41F28839287830B1012859
:103B000015D0022823D0032855D158E0B0EE680A1A
:103B100001F034FD002239464046FDF7C7FE002083
:103B200001F08AFA9FED310A01F00CFE43E0002219
:103B300039464046FDF7BAFEB0EE480A01F01EFDD8
:103B4000642001F057FE484601F076FA33E0002287
:103B500039464046FDF7AAFE484601F06DFA606816
:103B6000012801D038B126E0206800BBB0EE680A19
:103B700001F004FD1FE0206810B101280CD01AE00C
:103B8000B0EE480A01F0FAFC08B1642011E03046BA
:103B900001F030FE20600EE0B0EE680A01F0EEFCAD
:103BA00030B1642001F026FE20600120606002E058
:103BB000304601F01FFE012001F006FF9DE7484658
:103BC00001F03AFA012239464046FDF76FFE002027
:103BD000ECE70000E5000020000000000000E642E5
:103BE00024FAFFFF001402400000002000404E4570
:103BF0000221817080ED040AB0F9060000EE900AFF
:103C0000F8EEE00A70EEC00AF5EEC00AF1EE10FA26
:103C100000EE900AF8EEE00A02DD30EEC00A01E0A4
:103C200030EE600A044910EE100A884201DA0120E1
:103C300070470020704700000000A04010B54FF012
:103C4000E020006903F06CFA012803D0BDE81040C1
:103C500002F096BF10BD000030B593B03021684629
:103C6000FCF794FC14210CA8FCF790FC1D480025DF
:103C7000016841F080510160006800F080501190AF
:103C80001948016841F4804101600068022400F491
:103C9000804011900120039010200490009406941D
:103CA0000820CDE90750A820CDE9090404200B9095
:103CB0006846FDF7DBFF08B172B6FEE70CA90F20DE
:103CC00081E831004FF4A0500F904FF480501090D5
:103CD00005210CA8FDF7C0FE002801D072B6FEE752
:103CE00013B030BD40380240007000400248016807
:103CF00041F470010160704788ED00E00148FEF773
:103D0000A4BA0000B80100200148FEF79EBA0000E6
:103D100010060020F0B50268254D264E264FDFF82C
:103D20009CC0274B4FF0804EA84209D0704507D069
:103D3000B04205D0B84203D0604501D0984203D1CB
:103D400022F070044A682243A8421BD0704519D063
:103D5000B04217D0B84215D0604513D0984211D068
:103D6000184CA0420ED0184CA0420BD0174CA042C9
:103D700008D0174CA04205D0164CA04202D0164CD9
:103D8000A04203D122F44074CA6822434C6922F055
:103D90008002224302608A68C2620A688262A84284
:103DA00001D0984201D10969016301214161F0BD4F
:103DB000000001400004004000080040000C0040EA
:103DC000000401400040014000440140004801401F
:103DD00000180040001C00400020004010B584681E
:103DE00042EA032224F47F440A432243826010BD46
:103DF000826822F070020A4342F007018160704736
:103E000010B5046A036A23F001030362836923F097
:103E1000F00343EA021324F00A020A4383610262B8
:103E200010BD10B5036A23F0100303628469036AAE
:103E300024F4704444EA023223F0A00343EA01115F
:103E40008261016210BD00000148FEF789BB0000DD
:103E5000000200200148FEF783BB0000440200205E
:103E600010B5806B0021C185C184FEF777FB10BDC2
:103E700070B5846B2068406994F83D10C0F3C010A1
:103E80000025212904D118B1E584204600F0B0F8BE
:103E90002068406994F83E10C0F38010222904D1B4
:103EA00018B1E585204600F07CF8206C40F0100049
:103EB00020642046FEF752FB70BD10B50146806BB2
:103EC00009680968C9052FD40021C18501680C3132
:103ED00051E8002F22F4807241E80023002BF5D135
:103EE0000168143151E8002F22F0010241E800235B
:103EF000002BF5D10168143151E8002F22F0400267
:103F000041E80023002BF5D1202180F83E10016B01
:103F1000012909D101680C3151E8002F22F010026B
:103F200041E80023002BF5D1016B012902D0FEF7F7
:103F300045FE10BD818DFEF7A9FA10BD10B5806B4E
:103F4000016B012902D0FEF73AFE10BD818D4908B0
:103F5000FEF79CFA10BD10B50146806B0968096830
:103F6000C90516D40021C1840168143151E8002F1D
:103F700022F0800241E80023002BF5D101680C31CA
:103F800051E8002F42F0400241E80023002BF5D118
:103F900010BDFEF75BFE10BD10B5806BFEF757FE3F
:103FA00010BD01680C3151E8002F22F4907241E8F5
:103FB0000023002BF5D10168143151E8002F22F0C5
:103FC000010241E80023002BF5D1016B012909D141
:103FD00001680C3151E8002F22F0100241E8002363
:103FE000002BF5D1202180F83E100021016370479D
:103FF00001680C3151E8002F22F0C00241E8002393
:10400000002BF5D1202180F83D10704708B590F8BD
:104010003E10222901D0022008BD81684FF4805350
:10402000994201D1026922B1826A99421BD049B1F9
:104030000AE00268816A5268C2F308020A80816A53
:10404000891C08E0016971B10168496801F07F01CC
:104050001170816A491C8162C18D491E0904090CD5
:10406000C18503D019E001684968F1E70168CA68B1
:1040700022F02002CA600168CA6822F48072CA6015
:1040800001684A6922F001024A61202180F83E104D
:10409000016B012903D0FEF791FD002008BD00212E
:1040A000016301680C3151E8002F22F0100241E851
:1040B0000023002BF5D101680A68D20602D50A68F0
:1040C00049680091818DFEF7E1F9E6E770B5044695
:1040D00000680169E26821F4405111430161A1685F
:1040E0002069E26901436069104301432068C268A6
:1040F00049F20C639A430A43C26020684169A2698D
:1041000021F440711143416131492068884202D055
:104110003049884202D1FDF769FD01E0FDF756FD07
:10412000E2690023192164253226B2F5004F626846
:1041300028D0A0FB0101930F9200FCF715F901466E
:10414000B0FBF5F06FF01802504301EB800006EB76
:104150000010B0FBF5F000F0F002B1FBF5F002EB5F
:104160000012B1FBF5F06FF01803584301EB80002B
:1041700006EB0010B0FBF5F000F00F0021681044D2
:10418000886070BDA0FB010192185B41FCF7ECF860
:104190000146B0FBF5F00201B1FBF5F06FF018033A
:1041A000584301EB800006EBC000B0FBF5F000F0D7
:1041B000F80002EB4002B1FBF5F0584301EB800040
:1041C00006EBC000B0FBF5F000F00700D6E70000FA
:1041D000001001400014014037B582B01346039A25
:1041E00082628385002504460564222084F83E000F
:1041F000A16B1C48C863A16B1B480864A16B1B48DA
:10420000C864A06B05652168A06B091DFDF7DEF988
:10421000206801684068009084F83C50206948B1EB
:1042200020680C3050E8001F41F4807140E8001213
:10423000002AF5D12068143050E8001F41F0010138
:1042400040E80012002AF5D12068143050E8001F21
:1042500041F0400140E80012002AF5D105B00020ED
:1042600030BD0000BB3E00083D3F0008713E000825
:104270000148FEF775B90000880200200148FEF7EA
:104280006FB90000CC02002006480D210A2200F878
:10429000CA1F00234270837080F8422080F84310C8
:1042A000704700002C6000200748552100F8CA1F05
:1042B000AA214170012181700D2180F842100A214C
:1042C00080F84310704700003C61002070B5554CE9
:1042D000554D2DED088B94ED031A84ED061AD4ED9F
:1042E000040AC4ED070A90ED000A84ED000AD0ED3F
:1042F000011AC4ED011AD0ED021AC4ED021A90EDB4
:10430000032A84ED032AD0ED041A32EE411AC4EDDB
:10431000041AD0ED052A71EEE00AC4ED052A84EDF9
:10432000081AC4ED090A85ED050AD4ED0A1A31EE22
:10433000811A84ED0A1A94ED0B1A71EE200AC4ED6D
:104340000B0A9FED3ABADFED3ABA60EE0B0A80EE47
:10435000AB0A10EE100A03F09DFD41EC100B00F0CB
:104360005FF995ED050A60EE0B0A80EEAB0A10EEE0
:10437000100A03F08FFD41EC100B00F0B5F99FED32
:104380002D8B51EC100B53EC182B03F059FB41EC27
:10439000190BA06A03F07EFD9FED28AB53EC1A2B9E
:1043A00003F08EFC53EC192B03F0A8F803F074F81B
:1043B000E86095ED050A60EE0B0A80EEAB0A10EEA0
:1043C000100A03F067FD41EC100B00F08DF995ED3C
:1043D000050A60EE0B0A80EEAB0A10EE100A03F03D
:1043E00059FD41EC100B00F01BF953EC182B51EC6C
:1043F000100B03F025FB41EC190BE06A03F04AFDBA
:1044000053EC1A2B03F05CFC53EC192B03F058FC13
:1044100053EC182B03F072F803F03EF82861BDEC62
:10442000088B70BD2C4F0020844F0020DB0F4940CB
:10443000000034430000000000005640000000006F
:104440000000000070B5314D00EE100A2DED028B1A
:1044500085E80F00B8EEC00A2D4801F0EDF9BDEE79
:10446000C00A05F120042A4884ED000A95ED010AEE
:104470001830B8EEC00A01F0DFF9BDEEC00A2448DA
:1044800084ED010A95ED020A3030B8EEC00A01F061
:10449000D3F9BDEEC00A1E4884ED020A95ED030A69
:1044A0004830B8EEC00A01F0C7F9BDEEC08A84ED0D
:1044B000038A206803F05DFA9FED161B53EC112B65
:1044C00003F0BEFA9FED151B53EC112B03F016F809
:1044D00003F020FA10352860606803F04AFA9FED77
:1044E000111B53EC112B03F0ABFA9FED101B53EC97
:1044F000112B03F003F803F00DFA6860A068A860C0
:1045000085ED038ABDEC028B70BD0000986200202F
:104510000801002014AE47E17A14FE3F33333333F1
:1045200033D354407B14AE47E17AFC3FCDCCCCCCA6
:10453000CCCC2740FEE700000448AA2100F8CA1F9F
:10454000FF21417002218170704700000C5E002045
:104550000448AA2100F8CA1FFF214170022181707E
:10456000704700001C5F002030B50422827080ED8F
:10457000040AC181B0F9062000EE902AF8EEE00AA4
:1045800070EEC00AF5EEC00AF1EE10FA00EE902AC5
:10459000F8EEE00A02DD30EEC00A01E030EE600A1B
:1045A000094D10EE104AAC4201DA01230AE0521C18
:1045B000022A07D8B0F90800002800DC40428842EF
:1045C00000DB0023184630BD0000A04003B4019872
:1045D0004100009850EAC12018BF04204A0D18BFBE
:1045E00040F0010040F2FF72B2EB515F08BF40F0B3
:1045F0000200012808BF052002B070470907090E14
:10460000002804DB00F1E02080F80014704700F07F
:104610000F0000F1E02080F8141D7047000000003A
:1046200010B52F499FED2C1B2DED020B84B0059882
:1046300020F000408842D8BF9DED040B2DDD2949B4
:10464000884209D1049840B94FF00100FBF7CDFF33
:1046500000F0A2FC06B010BD05DB9DED040B00F0E0
:104660008FFC06B010BD68469DED040B00F0A0F86D
:1046700010F0030004BF9DED021B9DED000B0CD05C
:1046800001280ED09DED021B9DED000B022817D0D6
:10469000012000F0DDFB06B010BD00F0A5FA06B069
:1046A00010BD9DED021B9DED000B012000F0D0FB25
:1046B00051EC100B02F0E4FE06B041EC100B10BD03
:1046C00000F092FA51EC100B02F0DAFE06B041EC69
:1046D000100B10BD000000000000000000000000F2
:1046E000FB21E93F0000F07F10B52F499FED2C1B07
:1046F0002DED020B84B0059820F000408842DCBF0D
:1047000000209DED040B32DD2849884209D1049830
:1047100040B94FF00100FBF768FF00F03DFC06B028
:1047200010BD05DB9DED040B00F02AFC06B010BDAA
:1047300068469DED040B00F03BF810F0030011D02B
:10474000012818D09DED021B9DED000B02281AD008
:1047500000F04AFA51EC100B02F092FE06B041EC68
:10476000100B10BD9DED021B9DED000B012000F014
:104770006FFB06B010BD9DED021B9DED000B00F020
:1047800033FA06B010BD012000F062FB51EC100BB3
:1047900002F076FE06B041EC100B10BD00000000E8
:1047A0000000000000000000FB21E93F0000F07F56
:1047B0002DE9F14F04462DED020B2DED088B8AB04B
:1047C0009FEDE70B80ED020B139EE74826F00045B6
:1047D00085420ADC9DED120B002084ED000B0AB02F
:1047E000BDEC088B03B0BDE8F08FE0489FEDE0AB77
:1047F0009FEDE1BBA84247DDE14F9FEDE39B9FEDBD
:10480000E48B9DED120B53EC1A2B51EC100B002E88
:104810001CDD03F055FA41EC100BBD4208D053ECFF
:104820001B2B51EC100B03F04BFAC4E900010BE019
:1048300053EC192B51EC100B03F042FA53EC182BEC
:1048400003F03EFAC4E900010120C8E702F056FE79
:1048500041EC100BBD4208D053EC1B2B51EC100B5C
:1048600002F04CFEC4E900010BE053EC192B51ECB3
:10487000100B02F043FE53EC182B02F03FFEC4E98C
:1048800000014FF0FF30AAE7C348A84279DB9DED55
:10489000120B51EC100B00F049FE41EC180B9FED90
:1048A000C00B53EC102B03F0CBF89FEDBF1B53EC68
:1048B000112B02F023FE03F02DF8074603F059F800
:1048C00041EC190B53EC1A2B03F0BAF853EC182BEC
:1048D00003F0EAF941EC180B53EC1B2B51EC190BCC
:1048E00003F0AEF8DFF8C8A241EC100B4FEA155800
:1048F0000125FA4453EC102B51EC180B03F0E0F9AE
:10490000032DC4E900013DD0C1F30A5005EB451168
:10491000A8EB00001139814234DA0AEB051BB0EE36
:1049200048AA9BED000BF0EE68AA53EC102B51EC5B
:10493000190B03F085F841EC1B0B51EC1A0B53ECEF
:104940001B2B03F0BDF941EC180B51EC1A0B53EC87
:10495000182B03F0B5F953EC1B2B03F0B1F99BEDC9
:10496000020B41EC1A0B53EC102B51EC190B03F01A
:1049700067F853EC1A2B03F0A3F941EC100B6D1CF4
:10498000B8E70EE0002EA8BF3846BFF628AF94ED7A
:10499000000B51EC100B02F073FDC4E900017842EA
:1049A0001DE7C6F3130040F4801EC6F30A50A0F2C0
:1049B000F530471100F01F05C5F12000DDF848B0C3
:1049C00008900020069007900520EC467949002DBC
:1049D00007EB0002794408BF51F8221009D051F8C2
:1049E000223001EB8201AB404A68089922FA01F1BA
:1049F0001943A1FB0E26A1FB0B131A449A4234BFA4
:104A00000123002303EB06080CEB8003D3E901A686
:104A10000E448E4234BF0121002192448A4411B1D8
:104A2000924502D903E0924501D2012100E0002124
:104A3000C3E901A641444CF82010011EA0F1010079
:104A4000C4DC029800F10050850F0298DDE903678D
:104A50008000DDF8148002F08CFF41EC1A0B304628
:104A600002F09EFF9FED541B53EC112B02F0E8FF68
:104A700041EC1B0B384602F093FF9FED511B53ECAA
:104A8000112B02F0DDFF41EC180B404602F088FFCD
:104A90009FED4D1B53EC112B02F0D2FF41EC190B93
:104AA00051EC180B53EC192B02F028FD53EC1B2B87
:104AB00002F024FD53EC1A2B02F020FDCDE9080191
:104AC000002008909DED080B53EC1A2B51EC100BB5
:104AD00003F0F6F853EC1B2B03F0F2F853EC182B11
:104AE00003F0EEF853EC192B03F0DEF89FED381BC2
:104AF00053EC112B02F0A4FF9FED370B41EC180B88
:104B000053EC102B9DED080B51EC100B02F098FFAD
:104B100053EC182B02F0F2FC9FED310B41EC180B1B
:104B200053EC102B9DED080B51EC100B02F088FF9D
:104B300053EC182B02F0E2FC41EC100B139810F030
:104B4000004F06D06D4251EC100B02F099FC41EC85
:104B5000100B284684ED000B41E600000000000029
:104B60000000000000000000FB21E93F7CD902406A
:104B700000004054FB21F93F3163621A61B4D03D1B
:104B8000FB21F93F000000000000601A61B4D03D35
:104B90007370032E8A19A33BFB21394100000000EA
:104BA00083C8C96D305FE43F000000000000E03FB3
:104BB000E237000030370000000000000000103E27
:104BC000000000000000103C000000000000103A4F
:104BD000182D4454FB21F93D3326A611460B113CF8
:104BE00000000054FB21F93D10B52DED040B2DED17
:104BF000088B82B0B0EE419AF0EE619A0B9820F0EB
:104C000000449FED4BABB4F1795F11DA9DED0A0BD7
:104C100051EC100B02F07EFE002801BFB0EE4A0AF4
:104C2000F0EE6A0A02B0BDEC088B04BF04B010BD00
:104C30009DED0A0B53EC102B51EC100B02F000FF12
:104C400041EC180B3C480621B0EE480AF0EE680A29
:104C5000784400F081F853EC182B51EC100B02F063
:104C6000EFFE9DED0A0B41EC1B0B53EC192B51ECA5
:104C7000100B02F0E5FE41EC190B53EC1B2B51EC31
:104C8000180B02F0DDFE53EC192B03F019F89FED21
:104C90002C0B41EC190B53EC102B51EC180B02F0C0
:104CA000CFFE41EC100B2848844210DA53EC192B4C
:104CB00051EC100B03F004F853EC1A2B02F0F4FF44
:104CC00041EC100B02B0BDEC088B04B010BD1F48C6
:104CD000A042BCBF9FED1E1B8DED001B06DBA4F5A3
:104CE00000100190002000909DED001B51EC100B76
:104CF00053EC112B02F0E4FF9DED000B41EC180B7F
:104D000053EC102B51EC1A0B02F0DAFF41EC1A0BAA
:104D100053EC192B51EC180B02F0D2FF53EC1A2B69
:104D200002F0C2FF41EC100BCCE7000000000000D5
:104D3000000000000000F03F5434000000000000BC
:104D4000000000000000E03F3333D33F0000E93FA4
:104D5000000000000000D23F70B504462DED028B2C
:104D60004D1E00EBC500B0EE408AF0EE608A90ED7B
:104D7000000B35F0060017D053EC182B51EC100B3C
:104D800002F05EFE41EC100B6D1E04EBC50090EDD1
:104D9000001B51EC100B53EC112B02F0AFFB41EC5C
:104DA000100B35F00600E7D1022D36D0042D1CD0B3
:104DB000062D1CBFBDEC028B70BD53EC182B51ECC3
:104DC000100B02F03DFE94ED0A1B53EC112B02F088
:104DD00095FB53EC182B02F033FE94ED081B53ECBB
:104DE000112B02F08BFB41EC100B53EC182B51EC08
:104DF000100B02F025FE94ED061B53EC112B02F074
:104E00007DFB53EC182B02F01BFE94ED040B53ECCE
:104E1000102B02F073FB41EC100B53EC182B51ECF0
:104E2000100B02F00DFE94ED021B53EC112B02F05F
:104E300065FB53EC182B02F003FE94ED001B53ECC2
:104E4000112B02F05BFBBDEC028B41EC100B70BD33
:104E500031B504462DED040B2DED0A8BB0EE41BAB1
:104E6000F0EE61BA0B989DED0A0B20F00040B0F116
:104E7000795F0DDA51EC100BFFF7A8FB042808BF8F
:104E800000F09AF89DED0A0BBDEC0A8B05B030BD21
:104E900053EC102B51EC100B02F0D2FD41EC180B2F
:104EA0009DED0A0B53EC182B51EC100B02F0C8FDD2
:104EB00041EC190B2C48B0EE480AF0EE680A0521C7
:104EC0007844FFF749FF9FED2ACBB0EE40AAF0EE01
:104ED00060AA9CB353EC1C2B51EC190B02F0B0FDF3
:104EE00041EC1C0B53EC1A2B51EC190B02F0A8FDF2
:104EF0009FED210B41EC190B53EC102B51EC1B0BCC
:104F000002F09EFD53EC192B02F0DAFE53EC182B45
:104F100002F096FD53EC1B2B02F0D2FE53EC1C2B3F
:104F200002F0CEFE9DED0A1B53EC112B02F0BCFEED
:104F3000BDEC0A8B05B041EC100B30BDFFE753EC24
:104F40001A2B51EC180B02F07BFD53EC1C2B02F0DA
:104F5000D5FA53EC192B02F073FD9DED0A1B53ECAF
:104F6000112B02F0CBFAE3E7DC3200000000000076
:104F7000495555555555C5BF000000000000E03F9C
:104F800010B553EC102B51EC100B02F0B7FA41ECBA
:104F9000100B10BD000000009FED050B10B553EC89
:104FA000102B51EC100B02F05DFB41EC100B10BD0F
:104FB00000000000000000009FED050B10B553EC51
:104FC000102B51EC100B02F03BFD41EC100B10BD0F
:104FD000000000000000001070B5044690F8660064
:104FE00094F8CA10884223D194F8670094F8CB1043
:104FF00088421DD104F1CF00182204F16801054652
:10500000FBF755FA182229460A48FBF750FA94F89C
:10501000800094F80C1188420AD194F8810094F829
:105020000D11884204D1BDE870400248FFF74EB927
:1050300070BD00008062002010B50446604200EEA2
:10504000100A0748B8EEC00AFEF7D2FD00EE104A7B
:105050000348BDE81040B8EEC00A3430FEF7C8BDC2
:105060004051002010B5354901202DED068BF2EEA0
:10507000082AC8709FED348A81F8370081F86B00E8
:10508000DFED2F8A9FED2F9ADFED309A9FED30AA4A
:1050900081F89F00F0EE683AB0EE493AB0EE482A47
:1050A000F0EE481AB0EE481AF0EE690AB0EE4A0A7D
:1050B0000421284800F0F6FD2648F0EE683AB0EEEC
:1050C000493AF2EE082AB0EE482AF0EE481AB0EE5D
:1050D000481AF0EE690AB0EE4A0A0421683000F07E
:1050E000E1FD1C48F0EE683AB0EE493AF2EE082ACB
:1050F000B0EE482AF0EE481AB0EE481AF0EE690A0F
:10510000B0EE4A0A0421D03000F0CCFDF0EE683A4F
:10511000B0EE493AB0EE482AF0EE481AB0EE481A1E
:10512000F0EE690AB0EE4A0ABDEC068BF2EE082AF0
:105130000421BDE81040084800F0B4BDD44F002061
:10514000CDCC4C3ECDCCCC3D0000000000008044D6
:1051500000008046AC520020E453002010B569489E
:1051600001212DED048B0222C17080F8371080F8E8
:105170006B1080F89F20032280F8D32001634166E2
:10518000C0F89810C0F8CC109FED5F8AF0EE483A56
:10519000DFED5E9AF2EE0C2AB0EE482AB0EE693AE4
:1051A000F0EE481AB0EE481ADFED598AF0EE680AC0
:1051B0009FED589AC0F8FC100421B0EE490A5648F9
:1051C00000F070FD5448F0EE483AB0EE693AF2EE65
:1051D0000C2AB0EE482AF0EE481AB0EE481AF0EE6B
:1051E000680AB0EE490A0421683000F05BFDF0EE79
:1051F000483ADFED4A9A4848F2EE082AB0EE693A9A
:10520000B0EE482AF0EE481AB0EE481AF0EE680AFE
:10521000B0EE490A0421D03000F044FDF0EE483AE7
:10522000B0EE693AF2EE082AB0EE482AF0EE481ADB
:10523000B0EE481AF0EE680A9FED390A04213948A9
:1052400000F030FDF0EE483AB0EE483ADFED362A95
:10525000B0EE482AF0EE481AB0EE481AF0EE680AAE
:105260009FED320A0421324800F01CFDDFED318A47
:105270009FED319ADFED319AF0EE683AB0EE483AA0
:10528000F2EE082AB0EE482AF0EE481AB0EE481ABC
:10529000F0EE490AB0EE690A0421294800F002FD47
:1052A0002748F0EE683AD038B0EE483AC0ED378A79
:1052B000F2EE082AB0EE482AF0EE481AB0EE481A8C
:1052C000F0EE490AB0EE690A042100F59C7000F086
:1052D000E9FCF0EE683AB0EE483AB0EE482AF0EE5B
:1052E000481AB0EE481ABDEC048B0421F2EE082AED
:1052F0009FED140A1248BDE81040F0EE400AD0308D
:1053000000F0D0BC4051002000000000CDCC4C3D4E
:1053100000008044000080465C580020CDCCCC3D8D
:1053200000000046E4530020666636400060EA460E
:10533000FC5900209A99993E0000004400803B45AA
:10534000045C00200000484400B58BB0002001211F
:10535000CDE906010891009001900290039005901C
:10536000049069460C48FBF71FFC0B48FBF767FFEE
:1053700002210948FBF7A2FB0E200990059069461F
:105380000648FBF711FC0548FBF759FF02210348CB
:10539000FBF794FB0BB000BD6801002090010020DA
:1053A00014489FED130A002180ED0D0A80ED0C0AD0
:1053B00080ED0E0A80ED000A80ED010A80ED020A00
:1053C00080ED030A80ED040A80ED050A80ED090AEC
:1053D00080ED0A0A80ED0B0A80F84C1080ED0F0A70
:1053E00080ED100A80ED110A80ED120A704700006E
:1053F00000000000844F002006489FED050A80ED64
:10540000000A80ED010A80ED020AFEF759BA000099
:1054100000000000844F00202DE9F04704460021E1
:1054200090F8660094F8CA200B4604F16A06904290
:1054300014D194F8670094F8CB2090420ED194F8E0
:10544000680084F8CD0094F8690084F8CE00825D8D
:1054500084F80121721C805C84F80201208894F891
:10546000CE200025801F04F1660704F1CF09824297
:105470003ADC002002F1040C09E004EB0008401CB7
:1054800098F86680C0B24144C9B20B44DBB284458F
:10549000F3D84BB394F80101884225D194F8020166
:1054A000984221D10120C4F8080116480178491C0E
:1054B000017031464846FAF7CEFF30B194F8CE205D
:1054C00031464846FAF7F3FF01E0C4F8045194F876
:1054D000CD00F12814D0F22812D0F32810D148467C
:1054E000BDE8F04700F02EB864213846C4F80451F6
:1054F000FBF72AF84846BDE8F0473221FBF724B80D
:10550000BDE8F087EE000020074908B50A78521C74
:105510000A7048700888ADF8000002226946F2203F
:10552000FEF7AAFA08BD0000EC00002082B0CDE929
:10553000000121F0004001909DED000B02B051EC04
:10554000100B70470B49D1F80821012A10D191F8AE
:10555000CD10F3290CD1084902780A7042784A70BC
:1055600082788A70C278CA70891E4068C1F80600C5
:10557000704700000C5E0020EE00002070B5B5EE14
:10558000C00A1649F1EE10FA154D01F1680012D16A
:10559000D1F8841031B1FEF7F1F850B100240120A8
:1055A000286011E040F6B8319FED0E0AFDF751FB7F
:1055B0000AE00124F3E710EE102A0B4B9A4203D1C4
:1055C0002A68012A02D00124204670BD0022C1F8B9
:1055D0008420FEF7D3F80446F6E70000405100208F
:1055E000E80000200000FAC30000E64230B5514B4D
:1055F0009A424DD10468504BA4F20124072C47D2A3
:10560000DFE804F0040E181D222D3A000C8864BA5D
:105610009C804C8864BADC808C8864BA1C8137E03A
:105620000C8864BA1C874C8864BA5C878C8864BA1E
:105630009C872DE00C8864BA23F86C4F08E00C8836
:1056400064BA23F8A04F03E00C8864BA23F8D44F5F
:105650004C8864BA5C808C8864BA9C8018E00C88A2
:1056600064BAA3F808414C8864BAA3F80A418C884C
:1056700064BAA3F80C410BE00C8864BAA3F83C416F
:105680004C8864BAA3F83E418C8864BAA3F84041C0
:105690002A4B9A4214D102682948A2F20122072A11
:1056A0000ED2DFE802F0040E181D282D3A000A88F9
:1056B00052BA82804A8852BAC280898849BA018126
:1056C00030BD0A8852BA02874A8852BA428789880E
:1056D00049BA818730BD0A8852BA20F86C2F03E09E
:1056E0000A8852BA20F8A02F4A8852BA4280898884
:1056F00049BA818030BD0A8852BA20F8D42FF3E726
:105700000A8852BAA0F808214A8852BAA0F80A2199
:10571000898849BAA0F80C1130BD0A8852BAA0F89D
:105720003C214A8852BAA0F83E21898849BAA0F89B
:10573000401130BD68010020D44F002090010020AE
:105740004051002010B52DED020B6846DFED0A0A2E
:105750009FED0A0A00F093F8DDED000A084910EE0B
:10576000900A08440749884204D808489FED060A71
:10577000FDF7E2FF1CBD00000000FA4400C08F45A9
:10578000000006BB00C095000000484410520020F5
:10579000124840F628219FED120AB0F8D400A0F577
:1057A000FA60884215D80F488088A0F5AF61C829F3
:1057B0000FD900EE100ADFED0C0A9FED0C1AB8EEBF
:1057C000400A30EE600AC0EE010A9FED090A20EEA1
:1057D000800A0248D030FEF70BBA0000405100208A
:1057E00000000000704F00200080BB440000FA431E
:1057F0000000484410B540F2DC540D4A40F67B41AD
:10580000E0420BD100EE100A1046B8EEC00AFEF7D7
:10581000ABFE08B9012303E0002301E0642801D0B6
:10582000184610BD9FED030A1046FDF767FFF3E72A
:10583000DC5100200000C842D0ED000A90ED041AAF
:1058400070EE810AC0ED010A90ED051A70EE811A22
:1058500080EEA11A80ED031AD0ED021A30EE612A13
:10586000B0EE610AF7EE001A01EE020A31EEC11A3B
:1058700061EE200A80ED020AC0ED000A7047B4EE26
:10588000E00AF1EE10FA13DD90ED001AB4EEC01A42
:10589000F1EE10FA02DCB0EE410A01E080ED000A00
:1058A000B4EEE00AF1EE10FA01D2C0ED000A704742
:1058B000FDD290ED001AB4EEE01AF1EE10FA02DC1F
:1058C000F0EE410A01E0C0ED000AF4EEC00AF1EE8C
:1058D00010FAECD280ED000A70470000FBF7FAFFE7
:1058E000FEF7BAF9FDF746FBFDF7A8FAFDF75EFAF9
:1058F000FDF780FAFDF7B8FBFDF7EAFBFDF720FCAA
:10590000FDF702FCFDF738FC2248FCF7EFFBFEF741
:1059100013FEFEF71DFEFEF7B7FCFEF7C5FC642282
:105920001D491E48FCF783FD1D480068016821F0F1
:105930000801016064221B491B48FCF778FD1B48E5
:105940000068016821F008010160642218491948C3
:10595000FCF76DFD18480068016821F0080101603E
:10596000642216491648FCF762FD16480068016873
:1059700021F008010160FFF7E7FCFFF773FBFFF779
:10598000EDFBFFF70DFD00F02DF8FDF7ADFA00F08F
:105990003BF8FEE7B8010020725E0020880200207C
:1059A000F0040020825F0020CC020020500500207F
:1059B000926000200002002010030020A26100205D
:1059C00044020020D003002010B5EFF3058111B18F
:1059D0006FF0050403E0002408B100F073FF2046D7
:1059E00010BD0000EFF3058010B16FF005007047A7
:1059F0000448016811B14FF0FF3070470121016088
:105A0000002070478C00002010B5EFF3058010B126
:105A10006FF0050010BD08480168012902D04FF061
:105A2000FF3010BD054A002182F8141D02210160DB
:105A300000F0B0FF002010BD8C0000200BE000E063
:105A40002DE9FF410B464FF00005EFF3058103956B
:105A500049BB40B38026182100244AB3176807B118
:105A60003C46976907B139464F1E382F02D2177945
:105A7000FF0703D0002004B0BDE8F081576907B1EB
:105A8000BE08D2F808C0BCF1000F0DD0D5685C2D5F
:105A900018D312693AB137B18DE806103246214663
:105AA00001F011FB03900DE0D7685FB912694AB9A4
:105AB00003AACDE90012B2B2214601F0D7FA0128BB
:105AC00000D003950398D6E700B530EE601AC0ED1C
:105AD000090A80ED060A014680ED0C1A90F8640070
