:020000040800F2
:1000000018630020E9020008DD2D0008BB24000869
:10001000932900083F060008A939000800000000E5
:10002000000000000000000000000000290200089D
:10003000D906000800000000850200086B320008A5
:100040000303000803030008030300080303000878
:100050000303000803030008030300080303000868
:100060000303000803030008030300080303000858
:100070000303000803030008030300080303000848
:100080000303000803030008030300080303000838
:10009000410600080303000803030008DB0600080C
:1000A0000303000803030008030300080303000818
:1000B0002933000835330008030300080303000850
:1000C00003030008030300080303000803030008F8
:1000D00003030008030300080303000803030008E8
:1000E00003030008030300080303000803030008D8
:1000F0004D330008413300080303000803030008E0
:1001000003030008030300080303000803030008B7
:100110002D3600080303000803030008030300084A
:100120000303000803030008030300080303000897
:100130000303000803030008030300080303000887
:100140004D0600080303000803030008030300082A
:100150000303000803030008030300080303000867
:100160000303000803030008030300080303000857
:100170000303000803030008030300080000000055
:10018000030300080303000800F002F800F03CF845
:100190000AA090E8000C82448344AAF10107DA45E2
:1001A00001D100F031F8AFF2090EBAE80F0013F0F8
:1001B000010F18BFFB1A43F0010318472075000018
:1001C00040750000103A24BF78C878C1FAD85207A9
:1001D00024BF30C830C144BF04680C6070470000C1
:1001E0000023002400250026103A28BF78C1FBD840
:1001F000520728BF30C148BF0B6070471FB507F0DA
:1002000054F91FBD10B510BD00F0E4F91146FFF719
:10021000F5FF04F017FE00F002FA03B4FFF7F2FF57
:1002200003BC00F005FA00002C4B19680868B0E820
:10023000F04F80F30988BFF36F8F4FF0000080F319
:10024000118870470000000008480068006880F3CB
:1002500008884FF0000080F3148862B661B6BFF3DF
:100260004F8FBFF36F8F00DF00BF00BF08ED00E0CE
:10027000DFF80C00016841F470010160704700BFB5
:1002800088ED00E0EFF30980BFF36F8F134B1A681E
:100290001EF0100F08BF20ED108A20E9F04F10600B
:1002A00009B44FF0500080F31188BFF34F8FBFF3B4
:1002B0006F8F05F005FE4FF0000080F3118809BC38
:1002C00019680868B0E8F04F1EF0100F08BFB0ECD6
:1002D000108A80F30988BFF36F8F704728000020D1
:1002E000EFF3058070470000094880470948004740
:1002F000FEE7FEE7FEE7FEE7FEE7FEE7FEE7FEE7D6
:10030000FEE7FEE704480549054A064B7047000032
:100310001933000889010008185D002018630020C7
:10032000185F0020185F002053EA020C00F069807B
:100330002DE9F04B4FF00006002B1FBFB3FA83F5F9
:1003400003FA05F424FA05F65E4012BF1643B2FA2A
:1003500082F502FA05F4C5F120051EBF22FA05FC5C
:1003600044EA0C04203556EA044C4FEA144418BF02
:10037000641C4FF000084FF00009904271EB030C31
:1003800039D3002919BFB1FA81F701FA07F6B0FA9B
:1003900080F700FA07F6C7F120071EBF20FA07FC16
:1003A00046EA0C062037B6FBF4FCA7EB0507103F26
:1003B00007F01F0BCBF120060CFA0BFB2CFA06F60C
:1003C00044BFB3460026202FA4BF5E464FF0000B6B
:1003D0005BEA060C08BF4FF0010B19EB0B09ABFBF6
:1003E000027C48EB0608C01B06FB02CC0BFB03CCCF
:1003F00071EB0C01C1E70B46024641464846BDE899
:10040000F08B13B54FF000004FF00001AFF3008008
:10041000BDE81C407047032A40F2308010F0030C06
:1004200000F0158011F8013BBCF1020F624498BF47
:1004300011F801CB00F8013B38BF11F8013BA2F1E4
:10044000040298BF00F801CB38BF00F8013B11F05F
:10045000030300F06280083AC0F0088051F8043BC2
:10046000083A51F804CBA0E80810F5E7121D5CBF6C
:1004700051F8043B40F8043BAFF30080D20724BF9F
:1004800011F8013B11F801CB48BF11F8012B24BF33
:1004900000F8013B00F801CB48BF00F8012B704782
:1004A00002F0FF0343EA032242EA024200F069B885
:1004B0004FF0000200B5134694469646203922BFFD
:1004C000A0E80C50A0E80C50B1F12001BFF4F7AF48
:1004D000090728BFA0E80C5048BF0CC05DF804EB2A
:1004E000890028BF40F8042B08BF704748BF20F898
:1004F000022B11F0804F18BF00F8012B7047704796
:100500007047704710B500F05DF8006810BD10B579
:10051000044600F057F8046010BD10B5203AC0F052
:100520000B80B1E81850203AA0E81850B1E81850F4
:10053000A0E81850BFF4F5AF5FEA027C24BFB1E831
:100540001850A0E8185044BF18C918C0BDE81040A2
:100550005FEA827C24BF51F8043B40F8043B08BFAB
:100560007047D20728BF31F8023B48BF11F8012B72
:1005700028BF20F8023B48BF00F8012B70474FF01E
:1005800000020429C0F0128010F0030C3FF492AF77
:10059000CCF1040CBCF1020F18BF00F8012BA8BF6E
:1005A00020F8022BA1EB0C01FFF784BF5FEAC17CAE
:1005B00024BF00F8012B00F8012B48BF00F8012BE5
:1005C0007047000000487047B45C00200048704746
:1005D000B45C00207546FFF7F9FFAE46050069469A
:1005E000534620F00700854618B020B5FFF78AFE75
:1005F000BDE820404FF000064FF000074FF0000824
:100600004FF0000B21F00701AC46ACE8C009ACE8A4
:10061000C009ACE8C009ACE8C0098D46704710B508
:100620000446AFF300802046BDE81040FFF7F5BD5B
:1006300001491820ABBEFEE7260002007047FEE726
:10064000014800F026BA0000F8000020014800F040
:1006500020BA0000200100202DED068BF0EE009A5C
:10066000B6EE00AA9FED178ADFED178A174D184CDA
:100670009FED189A287820B101280BD0022810D0BD
:1006800015E084ED0A8A84ED098A84ED0B8A04F072
:100690002FFA0CE0C4ED0A8AC4ED098AC4ED0B9A66
:1006A00005E084ED0A9A84ED099A84ED0BAA00F026
:1006B0001FF802F047FC02F06DF9012004F0F2FB94
:1006C000D8E7000000000000CDCCCC3FD5000020D2
:1006D000404C0020CDCCCC3E7047802000F0F6BCD2
:1006E00072B6FEE705F090F9012004F0DBFBF9E7B4
:1006F000254A9FED260ADFED260A11882548A1F23A
:10070000D2539FED251A142B0ED901EE901AF8EE54
:10071000611A31EEC02AC2EE201A90ED0A2A61EE6B
:10072000821AC0ED001A01E080ED001A5188A1F292
:10073000D253142B0ED901EE901AF8EE611A71EE15
:10074000C01A81EEA02AD0ED091A62EE211AC0ED7E
:10075000011A01E080ED011AD188A1F2D252142AC7
:100760000ED901EE101AB8EE411A31EE400A80EEB1
:10077000201A90ED0B0A21EE000A80ED020A704764
:1007800080ED021A704700002C4C00200080BB4412
:100790000000FA43404C00200000000090F82020A8
:1007A000012A07D0022A05D0416A41F48021416222
:1007B00001207047006842690A4342610020704787
:1007C000F0B590F820500468A468012D05D0022DE2
:1007D00003D0416A41F480215DE014F0406F01D103
:1007E000E50055D5C4F30164022C03D9416A41F4F4
:1007F000000150E00125A5401D608B684FF4C075D5
:100800009BB1CE6833434E6843EAC603066805EBE6
:100810000417F3514FF4C273076803EB04130E6916
:10082000FE50097D012905D009E00E88CB6843EA16
:100830004653EBE70168CE5846F48076CE501179E6
:10084000D379567941EA036193791B0443EA06237D
:1008500019434FF4C676036806EB041699511178D4
:10086000D37841EA0361937852781B0443EA022269
:1008700011434FF4C473026803EB0413D1500068B2
:1008800005EB0411425842F0010242500020F0BD35
:10089000416A41F4001141620120F0BD10B590F8A9
:1008A0002020012A07D0022A05D0416A41F4802184
:1008B0004162012010BD3B48D0F8002242F0010205
:1008C000C0F80022D0F8002222F47C52C0F80022A6
:1008D000D0F800224B6A42EA0322C0F800220A7DC7
:1008E00002F01F0301229A40D0F81C329343C0F853
:1008F0001C32CB69B3B9D0F80C329343C0F80C3238
:100900008C894B6864F31F434C6900EBC404C4F842
:1009100040320C890B6864F31F434C6900EBC4043C
:10092000C4F84432CB69012B16D1D0F80C321343F2
:10093000C0F80C320C884B6864F31F434C6900EB21
:10094000C404C4F840320C89CB6864F31F434C697B
:1009500000EBC404C4F844328B69002BD0F8043295
:100960000ED01343C0F804320B69002BD0F81432B8
:1009700008D01343C0F81432096A012904D008E0F2
:100980009343EFE79343F5E7D0F81C121143C0F807
:100990001C12D0F8001221F00101C0F80012002052
:1009A00010BD000000640040704730B590F8204052
:1009B000012C05D0022C03D0416A41F480215DE076
:1009C0000468002955D02469A40754D04FF4D87482
:1009D000056804EB01142D5915F0040595600568B0
:1009E0002D594ED0ED08556005682C5904F00204CD
:1009F000D4604FF4DA74056804EB01142D5905F046
:100A00000F05156105682D59C5F307259561056822
:100A10002C59240C54614FF4DC72046802EB01126F
:100A2000A4581C700468A458240A5C700468A45874
:100A3000240C9C700468A258120EDA704FF4DE7217
:100A4000046802EB0112A4581C710468A458240A1B
:100A50005C710468A458240C9C710468A258120E9E
:100A6000DA71006881B1016941F020010161002063
:100A700030BDE468A8E7416A41F4001141620120F9
:100A800030BD6D0D1560AFE7C16841F02001C16058
:100A9000EDE72DE9F05F0546006800244669D0F8CF
:100AA00004908768D0F80CB0D0F810A0D0F8188067
:100AB000F10748D0F90714D001218160B80703D5A8
:100AC000284600F05EFA0CE0780702D54FF4006487
:100AD00007E0380702D54FF4805402E0284600F0C2
:100AE0004FFAF80516D529684FF480708860B8056C
:100AF00003D5284600F047FA0CE0780502D544F407
:100B0000005407E0380502D544F4804402E028464A
:100B100000F038FAF80316D529684FF48030886061
:100B2000B80303D5284600F030FA0CE0780302D56C
:100B300044F4004407E0380302D544F4803402E072
:100B4000284600F021FA300707D55FEACB6004D5CC
:100B50002968102044F40074C86070074FF008073B
:100B600007D55FEA0B7004D52868C760284600F0F7
:100B700099F9B00706D52868C068800702D02846D2
:100B800000F092F9700607D55FEACA6004D52968BB
:100B9000102044F480640861B00607D55FEA0A704B
:100BA00004D528680761284600F0BCF9F00606D590
:100BB00028680069800702D0284600F0B4F9B00325
:100BC00008D55FEAC96005D5296810204860284625
:100BD00000F0AAF9F00307D55FEA097004D5286888
:100BE0004760284600F0D2F9300446D55FEA4970E4
:100BF00040D5F00504D55FEAC87001D044F0010487
:100C0000B00504D55FEA887001D544F00204700590
:100C100004D55FEA487001D544F00404300529D5B5
:100C200018F0700F26D008F07000402815D006DCB0
:100C3000102809D020280AD0302816D10AE05028E0
:100C40000ED0602811D10EE044F008040DE044F00D
:100C500010040AE044F0200407E044F0400404E0FB
:100C600044F0800401E044F480742868816921F034
:100C700070018161296804204860002C05D0686AF1
:100C8000204368622846FFF78FFEBDE8F09F70B5ED
:100C9000040003D094F8200010B104E0012070BDDE
:100CA000204600F081F82068016841F001010160F0
:100CB00000F006FB0546052604E000F001FB401BA2
:100CC0000A2811D820684068C007F6D0206801685B
:100CD00021F00201016000F0F3FA05460BE000F09C
:100CE000EFFA401B0A2806D9606A40F400306062BF
:100CF00084F82060D2E7206840688007EFD4207E27
:100D00000128206801683DD021F080010160607EEB
:100D100001282068016838D021F040010160A07EE0
:100D200001282068016833D021F020010160E07EB5
:100D30000128206801682ED041F010010160207F59
:100D400001282068016829D021F008010160607F36
:100D500001282068016824D021F004010160D4E951
:100D600002010843D4E90412114308436168491E93
:100D700008432168C86100206062012084F82000D7
:100D8000002070BD41F08001C0E741F04001C5E79F
:100D900041F02001CAE721F01001CFE741F008013E
:100DA000D4E741F00401D9E7F0B587B00446142137
:100DB0006846FFF77DFB3649364ADFF8D0E0086821
:100DC000D4F800C0334B0224032509261032002733
:100DD000401CF44523D10860012807D1106840F079
:100DE00000701060106800F000700590186840F006
:100DF000010018601868694600F0010005904FF482
:100E0000C0508DE89100CDE90356234800F06AF9FF
:100E100000220521142000F0F1FA142032E0DFF85E
:100E20007CE0F44530D1D2F800C04CF0806CC2F8C0
:100E300000C0D2F800C001280CF0806CCDF814C0BE
:100E4000086007D1106840F000701060106800F072
:100E500000700590186840F0020018601868694634
:100E600000F0020005904FF440508DE89100CDE96C
:100E700003560B4800F036F900220521402000F00F
:100E8000BDFA402000F0ACFA07B0F0BD00640040AD
:100E9000140000203038024000000240006800408A
:100EA000000402407047000070B5054619488CB038
:100EB000854214D107AB6A460021FFF776FD154A3B
:100EC00007A9684603F094FE134E0024C4EBC40047
:100ED00006EB001001F0AEFF641C062CF6DB0F4899
:100EE000854214D109AB6A460021FFF75EFD0B4A2B
:100EF00009A9684603F07CFE094D0024C4EBC40038
:100F000005EB001001F096FF641C062CF6DB0CB01C
:100F100070BD0000F8000020844C0020200100205B
:100F2000944F002070477047704770B5044690F8A2
:100F30002000012804D0606A40F40020606217E0BD
:100F4000022084F820002068016821F0010101607E
:100F500000F0B6F905460DE000F0B2F9401B0A2892
:100F600008D9606A40F400306062052084F82000EF
:100F7000012070BD20684068C007EDD1606270BD7F
:100F800070477047704770477047704770472DE94A
:100F9000F0410446876D00F093F9054694F835005A
:100FA0000026022806D08020606584F83460012085
:100FB000BDE8F0812068016821F016010160206819
:100FC000416921F080014161206C08B9A06C20B119
:100FD0002068016821F0080101602068016821F0A3
:100FE000010101600CE000F06BF9401B052807D9F6
:100FF00020206065032084F8350084F83460D7E74A
:1010000020680068C007EED194F85C103F2088404B
:10101000B860012084F8350084F834600020C7E708
:1010200090F83510022903D08021416501207047D6
:10103000052180F835100068016821F00101016088
:101040000020704770B51F4C80280DD16169C00524
:101050002161426AA06840F27123584302EB0010FC
:101060006061E060401AA0806078002501210128BD
:10107000A08840F6980205D0904202D36170A57016
:10108000257070BD904203D36170A570217070BD52
:10109000A0F2B63140F24C42914210D80A4AA178EF
:1010A00022F81100491CC8B2A0700828EFD30649E5
:1010B000420001F11400FFF7AEF9A57070BD657034
:1010C00070BD0000AC000020184C0020044910B591
:1010D0000A68024202D00860FFF7B4FF10BD0000AA
:1010E000143C01402DE9F84FDFF89C910022A9F152
:1010F000040B03274FF00F0C09F1040AABF1040EA7
:1011000001250B6895402B40AB426ED10C7904F061
:101110000304012C01D0022C15D18668540007FA73
:1011200004F826EA0806D1F80C8008FA04F848EA20
:101130000608C0F808804468AC430D79C5F3001573
:101140009540254345600C79E443A40708D0C56861
:10115000540007FA04F6B5438E68A6402E43C660D5
:101160000C7904F00304022C11D1D40800EB84069E
:10117000356A5407E40E0CFA04F825EA0805D1F89C
:10118000108008FA04F848EA0508C6F820800568C7
:10119000540007FA04F6B5430E7906F00306A6409C
:1011A0002E4306604C6814F4403F66D0374C2568E7
:1011B00045F480452560246822F0030504F480444A
:1011C0000094334C05EB0408D8F808589407260F10
:1011D0000CFA06F4A5432F4CA04201D1002424E0D0
:1011E0002D4CA04202D101241FE046E02B4CA0422E
:1011F00001D1022419E02A4CA04201D1032414E0B9
:10120000284CA04201D104240FE0274CA04201D178
:1012100005240AE0254CA04201D1062405E0244C17
:10122000A04201D1072400E00824B4402C43C8F8B0
:101230000848D9F800404D464E689C43F60200D558
:101240001C432C60DAF8004055464E689C43B602B9
:1012500000D51C432C60DBF800405D464E689C4383
:10126000B60300D51C432C60DEF8004075464E687E
:101270009C43F60300D51C432C60521C102AFFF43B
:101280003FAFBDE8F88F0000083C01404438024001
:10129000003001400000024000040240000802400B
:1012A000000C0240001002400014024000180240EE
:1012B000001C02400AB1816170470904FBE700008D
:1012C00001488068704700001800002002488168CB
:1012D0000278114481607047180000200B4810B557
:1012E000016841F400710160016841F480610160AE
:1012F000016841F480710160032000F09FF80F2025
:1013000000F006F800F050F8002010BD003C02404C
:1013100030B505461F4887B00024016841F002013E
:101320000160006806A900F002000590684600F020
:1013300031F90398A8B100F04DF940001649174A59
:10134000B0FBF1F11648491E026040F2E732C0E9F5
:101350000324C0E90114846100F082FB040003D07F
:1013600015E000F037F9E9E70D4800F0EBFB040069
:101370000DD11D2000F034F8102D07D2002229468F
:101380001D2000F03BF80748056000E0012407B08D
:10139000204630BD4038024040420F00000400406B
:1013A000A80200201C0000200C4882B0016841F413
:1013B00080410160006800F4804000900748001FF1
:1013C000016841F0805101600068002200F0805007
:1013D00000900F21901E02B000F010B84438024077
:1013E000002809DB00F01F02012191404009800024
:1013F00000F1E020C0F8001170470000F0B40E4B7F
:101400001B68C3F30223C3F10704042C00D904248E
:101410001D1D072D01D2002300E0DB1E012606FA68
:1014200004F56D1E0D409D409E40761E164045EA17
:101430000601F0BC02F0CEBB0CED00E0064A00F065
:10144000070110684FF6FF03184040EA01200349E6
:1014500008431060704700000CED00E00000FA0542
:101460002DE9F0470D46040065D0DFF81491D9F856
:101470000000EFB200F00700A84207D289F8007020
:10148000D9F8000000F00700A84254D120683D4E72
:10149000810712D5400703D5306840F4E050306032
:1014A0002078000703D5306840F460403060306831
:1014B000A16820F0F000084330602078C0072DD0EC
:1014C000304960680839012812D0022813D0032857
:1014D00011D00968890700292DDA316821F003014C
:1014E00001433160FFF7ECFE804641F2883A0EE09E
:1014F00009688903EFE709688901ECE7FFF7E0FE77
:10150000A0EB0801514502D90320BDE8F0873068FF
:10151000616800F00C00B0EB810FEFD1D9F800103A
:10152000484601F00701A94207D90770006800F09A
:101530000700A84201D00120E7E72078400705D541
:101540003068E16820F4E0500843306020780007FC
:1015500006D53068216920F4604040EAC10030605F
:1015600000F058F83168084AC1F30311515CC840D3
:101570000649086006480068FFF7CAFE0020C4E775
:10158000003C024008380240747500082400002026
:101590001C0000200F2202600C4A136803F00303B2
:1015A0004360136803F0F0038360136803F4E053AF
:1015B000C36012684FF4E05303EAD20202610448A8
:1015C000006800F00700086070470000083802401B
:1015D000003C02400448054900680968044AC1F318
:1015E0008221515CC8407047240000200838024026
:1015F000847500080448054900680968044AC1F375
:101600004231515CC8407047240000200838024035
:1016100084750008154810B5006810F00C011448D6
:1016200013D0431004290FD008290ED10F4C241FCA
:10163000216801F03F022168490207D52068C0F304
:101640008810A0FB030106E0184610BD2168C1F315
:101650008811A1FB00010023FEF766FE2168C1F39B
:101660000141491C4900B0FBF1F010BD08380240AF
:101670000024F4002DE9F84F040075D02078DFF83D
:1016800038A3C007AAF1040548D00AF10400016894
:10169000C1F38101012908D00068C0F3810002284C
:1016A0000AD1DAF80000400206D52868800335D553
:1016B00060680028E1D031E06068B0F5803F10D06C
:1016C000B0F5A02F286810D020F48030286028685A
:1016D00020F4802028606068A0B1FFF7F1FD064685
:1016E0000CE0286840F48030F4E740F48020286063
:1016F000F7E7FFF7E5FD801B642871D828688003B1
:10170000F7D50BE0FFF7DCFD064604E0FFF7D8FD58
:10171000801B6428F1D828688003F7D42078DFF88C
:101720009C9280074FF0000B3DD5A348001D016837
:1017300011F00C0F08D00068C0F3810002280AD114
:10174000DAF80000400206D42868800715D5E06862
:10175000012809D111E0E068B8B10120C9F8000002
:10176000FFF7AEFD064605E022E1FFF7A9FD801B6D
:101770000228C2D828688007F7D52868216920F098
:10178000F80040EAC10028600DE0C9F800B0FFF79A
:1017900097FD064604E0FFF793FD801B02281FD843
:1017A00028688007F7D42078000722D5824F844824
:1017B0006169703771B101210160FFF781FD064653
:1017C00004E0FFF77DFD801B022809D838688007F8
:1017D000F7D50EE0C0F800B0FFF772FD064605E051
:1017E00082E0FFF76DFD801B02287DD838688007F6
:1017F000F7D42078400765D56F484FF000083C309B
:101800000068C0000BD46C483C30016841F0805146
:10181000016000684FF0010800F080500090694FAF
:101820003868C0050FD4386840F480703860FFF71E
:1018300047FD064604E0FFF743FD801B022853D80E
:101840003868C005F7D55C4FA0686C3701280FD009
:101850000528386810D020F001003860386820F082
:1018600004003860A068B0B1FFF72AFD06460EE01C
:10187000386840F00100F4E740F004003860F7E712
:10188000FFF71EFD811B41F28830814263D8386822
:101890008007F5D50DE0FFF713FD064606E0FFF7DC
:1018A0000FFD811B41F28830814254D8386880078F
:1018B000F5D4B8F1000F05D03F483C30016821F065
:1018C00080510160A069B8B33B49091D0968C1F3A3
:1018D0008101022946D00228584606D0C9F8600086
:1018E000FFF7EEFC044639E035E04F46C9F86000EA
:1018F000FFF7E6FC064604E0FFF7E2FC801B022847
:1019000029D828688001F7D4D4E907010843A16ADF
:101910002D4A490802EB0141626A41EA82110843FB
:1019200094F82C1040EA0161CAF8001001203866D2
:10193000FFF7C6FC044605E03CE0FFF7C1FC001BD6
:10194000022808D828688001F7D533E0FFF7B8FCF3
:10195000001B022802D90320BDE8F88F2868800107
:10196000F4D427E00128F7D0DAF80000E26900F4A7
:10197000800191421CD1226A00F03F01914217D1AF
:1019800047F6C071626A0140B1EB821F10D1A26AB2
:101990004FF0FF3300F4403103EB5202B1EB024F42
:1019A00006D194F82C1000F07060B0EB016F01D0FC
:1019B0000120D1E70020CFE7043802400000474271
:1019C000800E4742007000400000FFFF70477047E4
:1019D00070B590F83C20012A32D0012580F83C50A7
:1019E000022280F83D2002685368946823F0700654
:1019F0000B6833435360134B02689A4214D0B2F120
:101A0000804F11D0104B9A420ED0104B9A420BD0FF
:101A10000F4B9A4208D00F4B9A4205D00E4B9A4278
:101A200002D00E4B9A4204D1496824F08003194336
:101A3000916080F83D50002180F83C10084670BD50
:101A4000022070BD0000014000040040000800407A
:101A5000000C00400004014000400140001800401C
:101A600010B5040003D094F83D0010B107E0012048
:101A700010BD002084F83C00204600F01FF8022032
:101A800084F83D00211D206801F066FC012084F8E7
:101A9000460084F83E0084F83F0084F8400084F853
:101AA000410084F8420084F8430084F8440084F83C
:101AB000450084F83D00002010BD000008B5006816
:101AC0001D49B0F1804F11D01C4A90421DD10868C9
:101AD00040F0800008600868002200F0800000905C
:101AE00005212C20FFF78AFC2C201FE0086840F01D
:101AF000010008600868002200F001000090052144
:101B00001C20FFF77BFC1C2010E00D4A904211D1F5
:101B1000086840F4807008600868002200F4807053
:101B2000009005212D20FFF769FC2D20BDE808401D
:101B3000FFF756BC08BD000040380240001C0040C2
:101B40000020004090F83D10012901D0012070478D
:101B5000022180F83D100168CA6842F00102CA60A3
:101B600000681149884214D0B0F1804F11D00F495C
:101B700088420ED00E4988420BD00E49884208D0C8
:101B80000D49884205D00D49884202D00C4988424F
:101B900004D1816801F00701062903D0016841F0F2
:101BA0000101016000207047000001400004004076
:101BB00000080040000C00400004014000400140CB
:101BC0000018004070B5044690F83C00002501283C
:101BD00017D0012684F83C60022084F83D0020687C
:101BE000826822F0770222F47F42826008685028DF
:101BF00038D00DDC20284FD005DC90B3102811D14F
:101C00004AE0022070BD302846D040280AD13BE08F
:101C100060282FD070280DD0B0F5805F03D0B0F5CC
:101C2000005F12D0012584F83D60002084F83C005C
:101C3000284670BDCB68D1E90121206801F0FDFB89
:101C40002068816841F0770109E0CB68D1E9012182
:101C5000206801F0F2FB2068816841F480418160D6
:101C6000E1E719E0CA684968206801F0BBFC50212F
:101C7000206806E0CA684968206801F0C4FC602159
:101C8000206801F0E4FBCEE7CA684968206801F0EB
:101C9000A9FC40212068F4E7226801461046F0E7DD
:101CA000704770B50446006801694FF00005C943EC
:101CB000890715D4C168C943890711D4E91E016198
:101CC00001202077206880698007204602D0FFF736
:101CD000E7FF04E000F0D0F8204600F062F9257735
:101CE00020680169C943490717D4C168C943490736
:101CF00013D46FF00401016102202077206880690D
:101D000010F4407F204602D0FFF7CAFF04E000F045
:101D1000B3F8204600F045F9257720680169C943EA
:101D2000090716D4C168C943090712D46FF0080126
:101D30000161042020772068C0698007204602D016
:101D4000FFF7AEFF04E000F097F8204600F029F915
:101D5000257720680169C943C90617D4C168C943FA
:101D6000C90613D46FF010010161082020772068A4
:101D7000C06910F4407F204602D0FFF791FF04E0D5
:101D800000F07AF8204600F00CF925772068016908
:101D9000C943C90708D1C168C943C90704D1891E0D
:101DA0000161204600F066F920680169C94309060F
:101DB00009D4C168C943090605D46FF080010161E7
:101DC0002046FFF703FE20680169C943490609D48C
:101DD000C168C943490605D46FF04001016120463E
:101DE00000F084F920680169C94389060BD4C168F1
:101DF000C943890607D46FF0200101612046BDE880
:101E00007040FFF7E4BD70BD70B586B00446142184
:101E10006846FEF74DFB144E21680023134A022446
:101E200009251348B14209D1116841F02001116020
:101E3000116801F02001059181150BE00D4EB142B2
:101E400010D1116841F020011160116801F02001EA
:101E5000059171150091CDE90143CDE9033569463E
:101E6000FFF740F906B070BD001C0040303802405A
:101E70000014024000200040704770B5044690F8FE
:101E80003C0000260D4601280FD0012084F83C00BC
:101E90006AB1042A1DD0082A2FD00C2A3FD001266F
:101EA000002084F83C00304670BD022070BD2068E0
:101EB00001F0D6FA2068816941F00801816120684B
:101EC000816921F004018161206881692A691143D7
:101ED00011E0206801F0F4FA2068816941F40061A2
:101EE00081612068816921F4806181612068816954
:101EF0002A6941EA02218161D2E7206801F016FBDC
:101F00002068C16941F00801C1612068C16921F000
:101F10000401C1612068C1692A69114311E0206888
:101F200001F038FB2068C16941F40061C16120689B
:101F3000C16921F48061C1612068C1692A6941EAEF
:101F40000221C161ACE710B5040003D094F83D0054
:101F500010B107E0012010BD002084F83C002046AD
:101F600000F01EF8022084F83D00211D206801F0D9
:101F7000F3F9012084F8460084F83E0084F83F001D
:101F800084F8400084F8410084F8420084F843005B
:101F900084F8440084F8450084F83D00002010BD1A
:101FA0007047704710B5044649B104290AD0082982
:101FB0000BD094F8410001280AD0012010BD94F8FC
:101FC0003E00F8E794F83F00F5E794F84000F2E7A8
:101FD0000220B1B3042938D0082939D084F841004F
:101FE0000122206801F01CFA1B4920681B4A884224
:101FF00001D0904203D1436C43F400434364206812
:10200000884213D0B0F1804F10D0154988420DD0CE
:10201000144988420AD01449884207D0904205D01A
:102020001249884202D01249884204D1816801F0E5
:102030000701062903D0016841F001010160002079
:1020400010BDFFE784F83E00CAE784F83F00C7E709
:1020500084F84000C4E70000000001400004014093
:102060000004004000080040000C00400040014017
:102070000018004030B40168B1F1804F22D1164AF7
:10208000164B11681960164B491C11601988154AC6
:10209000491C89B21980642912D300241C805188FC
:1020A000491C89B251803C290AD354809188491C2B
:1020B00089B291803C2903D39480D188491CD18076
:1020C0001988118000680849884202D130BCFFF7A6
:1020D000FDB830BC70470000B4000020C4000020F0
:1020E000C8000020CA00002000040040704770476C
:1020F00070470000F8B5016804460868CA684B6973
:1021000010F00F0F4FF0000559D003F0010602F454
:102110009077374365D0C10705D0D10503D5216C31
:1021200041F001012164410705D5D90703D0216C95
:1021300041F002012164810705D5D90703D0216C44
:1021400041F004012164010707D502F02001314369
:1021500003D0216C41F008012164216C00293AD0A0
:10216000800604D5900602D5204601F094FA206836
:102170004069216CC0F38010090700D460B3204689
:1021800001F062FA20684069400621D520681430C9
:1021900050E8001F21F0400140E80012002AF5D16C
:1021A000A06BA8B16C490165A06BFEF739FF002850
:1021B00011D0A06B016D01B0BDE8F0400847830667
:1021C0000FD593060DD52046BDE8F84001F063BA5F
:1021D0002046FFF78DFFF8BD2046FFF789FF2564F5
:1021E000F8BD266B2023012E79D1C60677D5D606F9
:1021F00075D50868486800904869400640D5A16BCD
:10220000086840680004000CEAD0A28D8242E7D939
:10221000E085C869B0F5807F2DD020680C3050E88B
:10222000001F21F4807140E80012002AF5D12068D7
:10223000143050E8001F21F0010140E80012002A8C
:10224000F5D12068143050E8001F21F0400140E82B
:102250000012002AF5D184F83E30256320680C3046
:1022600050E8001F21F0100140E80012002AF5D1CB
:10227000A06BFEF78CFEA08DE18D401A81B229E0A3
:10228000A08DE18D401A81B2E08D0028A8D00029F0
:10229000A6D020680C3050E8002F22F4907240E85D
:1022A0000026002EF5D12068143050E8002F22F0CF
:1022B000010240E80026002EF5D184F83E30256367
:1022C00020680C3050E8002F22F0100240E8002374
:1022D000002BF5D12046FFF70AFFF8BDFFE7050602
:1022E0002BD5150629D594F83D002128F5D1A068F5
:1022F000B0F5805F01D12069B0B1206A411C216234
:10230000216800784860E08C401E0004000CE084E6
:10231000E3D12068C16821F08001C1602068C168F4
:1023200041F04001C160D8E7206A0088C0F308008E
:102330004860206A801C2062E5E74006CDD5500643
:10234000CBD5CA68204622F04002CA6084F83D30EE
:1023500000F0B2F8C1E700003936000870B504009B
:1023600004D094F83D00002510B106E0012070BDB6
:1023700084F83C50204600F023F8242084F83D00E7
:102380002068C16821F40051C160204601F0E4F9E1
:102390002068016921F4904101612068416921F0C0
:1023A0002A0141612068C16841F40051C16025647F
:1023B000202084F83D0084F83E00002070BD00001D
:1023C00070B586B0044614216846FEF771F8264EB3
:1023D00021680025254A032302242548B14223D140
:1023E000224910310E6846F400260E60096801F497
:1023F00000210591116841F001011160116801F09F
:10240000010105918DE838000821CDE903316946C5
:10241000FEF768FE002205213420FEF7EFFF34208E
:10242000FEF7DEFF06B070BD124EB142FAD10F4981
:1024300014310E6846F010060E60096801F01001B4
:102440000591116841F001011160116801F001016D
:1024500005914FF4C0618DE832000721CDE90331C9
:102460006946FEF73FFEDDE7004C00403038024091
:10247000000002400010014090F83E30202B0ED1A9
:1024800059B152B190F83C30012B08D0012380F8AB
:102490003C300023036301F0E5B9012070470220BE
:1024A0007047000000680349884201D102F0C0B8BB
:1024B00070470000004C00407047FEE709220260B0
:1024C00080ED130AA0F8541080ED050A7047D0ED96
:1024D000000AF4EEC00AF1EE10FA01DD80ED000A08
:1024E000D0ED000AB1EE400AF4EEC00AF1EE10FAA7
:1024F00001D280ED000A704700B599B00821002094
:102500008A0100920290CDE903010890CDE909010A
:10251000501E06903D4814AB81890A0A8DF8302080
:102520008DF83110B0F87C100A0A8DF832208DF841
:102530003310B0F8EC100A0A8DF834208DF83510FD
:10254000B0F85C110A0A8DF836208DF83710B0F813
:10255000CC110A0A8DF840208DF84110B0F83C12D9
:102560000A0A8DF842208DF84310B0F8AC020CAA8C
:10257000010A8DF844108DF8450069462448FEF79D
:102580001FF915AB10AA06A92148FEF719F9214831
:1025900016AB81890A0A8DF838208DF83910B0F809
:1025A0007C100A0A8DF83A208DF83B10B0F8EC1038
:1025B0000A0A8DF83C208DF83D10B0F85C110A0A2B
:1025C0008DF83E208DF83F10B0F8CC110A0A8DF836
:1025D00048208DF84910B0F83C120A0A8DF84A20BC
:1025E0008DF84B10B0F8AC020EAA010A8DF84C1011
:1025F0008DF84D0069460848FEF7E2F817AB12AABD
:1026000006A90548FEF7DCF819B000BD844C00208F
:10261000F8000020944F002020010020104810B541
:102620000E4901600321416000214FF400228160C6
:10263000C0E903124FF44012426101760122427652
:102640008176C17601774177FEF721FB002803D020
:10265000BDE81040FEF744B810BD00000064004023
:10266000F8000020104810B50E49016003214160B8
:1026700000214FF400228160C0E903124FF44012A0
:1026800042610176012242768176C17601774177F7
:10269000FEF7FDFA002803D0BDE81040FEF720B891
:1026A00010BD0000006800402001002010B5124A53
:1026B0000021124802F032FC114C0F4A0021206028
:1026C0002432104802F02AFC0B4A60604832002194
:1026D0000D4802F023FC084AA0606C3200210B4830
:1026E00002F01CFC044AE06090320021084802F02D
:1026F00015FC206110BD0000C0740008E50600084C
:10270000000000205906000821310008C5310008EA
:10271000D52D000870B586B014216846FDF7C8FEB7
:1027200027480024016841F004010160016801F0BC
:1027300004010591016841F020010160016801F088
:1027400020010591016841F080010160016801F0FC
:1027500080010591016841F001010160016801F00B
:1027600001010591016841F0020101600068154E08
:1027700000F002004FF478450590002229463046CB
:10278000FEF798FD802000904FF48810CDE90104F9
:1027900069463046FEF7A6FC01200095CDE901040C
:1027A000694630460394FEF79DFC00220521172060
:1027B000FEF724FE1720FEF713FE06B070BD0000E2
:1027C000303802400014024010B588B01C21684621
:1027D000FDF76EFE15481449002401605321C0E93D
:1027E000011444F61F61C0E9031480218161FFF7E1
:1027F00037F908B1FDF774FF0C48FFF7A4FB08B1E7
:10280000FDF76EFF6020CDE90004029400226946C6
:1028100006480494FFF731FB08B1FDF761FF034858
:10282000FFF7F2FA08B010BD001C00409001002034
:1028300010B588B01C216846FDF73AFE15481449CA
:10284000002401605321C0E9011444F61F61C0E96E
:10285000031480218161FFF703F908B1FDF740FF00
:102860000C48FFF770FB08B1FDF73AFF6020CDE997
:10287000000402940022694606480494FFF7FDFA1A
:1028800008B1FDF72DFF0348FFF7BEFA08B010BDF1
:1028900000200040D801002010B586B00024164862
:1028A000009401940294039404944FF080410594A1
:1028B00001605321C0E901141049C0E90314846187
:1028C000FFF7CEF808B1FDF70BFF4FF480500090F2
:1028D00069460948FFF776F908B1FDF701FF04944E
:1028E00004A905480594FFF773F8002801D0FDF707
:1028F000F7FE06B010BD000048010020A0860100D0
:102900000C4810B50A4901604FF4E13141600021E3
:1029100081600C22C160C0E904128161C161FFF7CE
:102920001DFD002803D0BDE81040FDF7D9BE10BD45
:10293000004C0040200200200C4810B50A490160FC
:102940004FF4E1314160002181600C22C160C0E997
:1029500004128161C161FFF701FD002803D0BDE8C9
:102960001040FDF7BDBE10BD001001406402002004
:10297000B4EEE00AF1EE10FA01DDB0EE600AF1EE1D
:10298000600AB4EEE00AF1EE10FA01D2B0EE600A8D
:102990007047FEE72DE9F05F00252DED028B9FEDDE
:1029A000F98AF94F2E4607F5A168F849C5EBC50B22
:1029B00001EB0B1420680A282DD2DFE800F046A2B4
:1029C0006605A2093775A248204600F0EFFF5CE0DB
:1029D000E06E012820D0D4ED180AB4F90E00EC49BD
:1029E00000EE100AC5EBC50000EB051A01EB8A00EA
:1029F000B8EEC00A814602F0D5FA99ED0F0A84EDCF
:102A0000050AB4F9080000EE900A07EB8A00F8EE18
:102A1000E00A02F0C7FA74E0E0884FF4B47148436A
:102A2000400B00EE100AF8EE400AD6E7B4F90800B1
:102A300000EE100AC5EBC50000EB0510F8EEC00A69
:102A400094ED050A07EB80004CE0A68159E0B4F94B
:102A50000A00002801DD014600E04142B4F954209B
:102A6000914200DCE665002800DC40429042E06DC7
:102A700001DD401CE0651E2806DB0120A06584ED19
:102A8000188A84ED058A00E0A665B4F9080000EE16
:102A9000100AC5EBC50000EB0510F8EEC00A94ED76
:102AA000050A07EB8000B4E7B4F90E00B84900EE60
:102AB000100AC5EBC50000EB051A01EB8A00D4ED46
:102AC000180AB8EEC00A814602F06CFA99ED0F0AB6
:102AD00084ED050AB4F9080000EE900A07EB8A00BD
:102AE000F8EEE00A814602F05DFAB4F9100000EE5B
:102AF000100AF8EEC00A99ED0F0AFFF739FF89EDC9
:102B00000F0A5846DFF88CB20BEB001420680A2835
:102B10002DD2DFE800F04AA66A05A6093B79A64C4B
:102B2000204600F043FF60E0E06E012820D0D4EDA5
:102B3000180AB4F90E00984900EE100AC5EBC5005A
:102B400000EB051A01EB8A00B8EEC00A814602F0DC
:102B500029FA99ED0F0A84ED050AB4F9080000EE90
:102B6000900A08EB8A00F8EEE00A02F01BFA78E01F
:102B7000E08800EE100AB8EE400ADFED880A20EE89
:102B8000200ADFED870A60EE200AD2E7B4F90800D8
:102B900000EE100AC5EBC50000EB0511F8EEC00A07
:102BA00094ED050A08EB81004CE0A68159E0B4F9E8
:102BB0000A00002801DD014600E04142B4F954203A
:102BC000914200DCE665002800DC40429042E06D66
:102BD00001DD401CE0651E2806DB0120A06584EDB8
:102BE000188A84ED058A00E0A665B4F9080000EEB5
:102BF000100AC5EBC50000EB0511F8EEC00A94ED14
:102C0000050A08EB8100B0E7B4F90E00624900EE56
:102C1000100AC5EBC50000EB051A01EB8A00D4EDE4
:102C2000180AB8EEC00A814602F0BCF999ED0F0A05
:102C300084ED050AB4F9080000EE900A08EB8A005A
:102C4000F8EEE00A814602F0ADF9B4F9100000EEAA
:102C5000100AF8EEC00A99ED0F0AFFF789FE89ED18
:102C60000F0A6D1C072DFFF6A0AE484C002143F261
:102C7000C8229FED4C1A40F63C73DFED4B1A9FEDD6
:102C80004B2AC1EBC10004EB00100568042D07D0EE
:102C90000579012D21D0022D30D0032D3ED0868123
:102CA000491C0729EDDB00215C46C1EBC10004EBA8
:102CB00000100568042D07D00579012D40D0022DA4
:102CC0004FD0032D74D08681491C0729EDDBBDEC64
:102CD000028BBDE8F05FFFF70FBCB0F90A509542D8
:102CE00001DD0660DCE7C1EBC10505EB011507EB73
:102CF0008505F0EE410A95ED0F0A19E0B0F90A508A
:102D00009D4200DD0660C1EBC10505EB011507EB37
:102D10008505F0EE610A95ED0F0A09E0C1EBC105EA
:102D200005EB011507EB8505F0EE420A95ED0F0A5C
:102D3000FFF71EFEBDEEC00A10EE105A8581AFE708
:102D4000B0F90A50954201DD0660BDE7C1EBC1054F
:102D500005EB011708EB8705F0EE410A95ED0F0A28
:102D600030E0B0F90A509D4200DD0660C1EBC105BC
:102D700005EB011708EB8705F0EE610A95ED0F0AE8
:102D800020E015E000000000A4520020844C002048
:102D900028550020944F0020305A00200000B443F2
:102DA000000000390068264600B047450060EA464A
:102DB000C1EBC10505EB011708EB8705F0EE420AF0
:102DC00095ED0F0AFFF7D4FDBDEEC00A10EE105AC4
:102DD000858179E7012002F065F8FBE7FEE7000056
:102DE000FDEEC00A0521016010EE901A09B200EE56
:102DF000901AC181F8EEE00A70EEC00AF5EEC00A42
:102E0000F1EE10FA00EE901AF8EEE00A02DD30EE74
:102E1000C00A01E030EE600A10EE100AB0F17E5FE9
:102E200002DAB7EE000A70479FED010A7047000012
:102E30000000000030B59FED3F0A90F86420C18883
:102E4000F0EE400A3AB10279012A0AD0022A0BD0E8
:102E5000032A0ED10BE0A0F86610012180F864105F
:102E600030BDF3EE030A04E0DFED330A01E0F7EED4
:102E7000000AB0F908209FED311ADFED311A41F652
:102E8000FF73002A1EDDB0F86620914211D2A1EB3B
:102E900002021A4440F2E2439A420DDA00EE102A8E
:102EA000B8EEC00A20EE010A20EE211A81EE200AB7
:102EB00002E001D98A1AF1E7B5EEC00AF1EE10FA84
:102EC0002FDA34E0B0F866201EDA91420AD9A3EB7B
:102ED000010303F2E144144440F6C215AC420DD89C
:102EE0001A4401E00AD28A1A00EE102AB8EEC00A8B
:102EF00020EE010A20EE211A81EE200AB5EEC00A6A
:102F0000F1EE10FA0DD912E091420AD08A1A00EEC1
:102F1000102AB8EEC00A20EE010A20EE211A81EE36
:102F2000200AD0ED180A30EE800A80ED180AA0F8C9
:102F3000661030BD000000000000104200000039A3
:102F40000000B44370B5364D95F84000012817D104
:102F500095ED000AD5ED060A30EE200A85ED000A4F
:102F600095ED010AD5ED070A30EE200A85ED010A3C
:102F700095ED020AD5ED080A30EE200A85ED020A29
:102F8000D5ED000A9FED271AD5ED011A95ED020A3D
:102F900020EE813A9FED242ADFED242A264E01EE11
:102FA000C13A002400EE023A63EE223A9FED203A45
:102FB00083EE834ADFED1F3A61EEA33A61EE811A98
:102FC00040EEC13A40EE023A85ED0C4A63EEA23A79
:102FD00083EE834AF0EE613A40EE811A40EEC13A48
:102FE00040EE021A40EE023A21EEA20A63EEA23A45
:102FF00085ED0D4AC0EE030A83EE834A85ED0E4A45
:10300000C5ED0F0A05EB840090ED0C0AC4EBC4007B
:1030100006EB001000F024F9641C042CF2DB70BDF8
:10302000404C0020F304353FCDCCCC3E00800E4414
:10303000C67D743EF30435BF844C0020074840F23F
:10304000DC51028906488A4202D24FF0010102E0B7
:1030500002D94FF002014170704700002C4C002053
:10306000D40000200A484089B0F5966F01D201F0E3
:103070001DBBA0F215520749B2F5C77F01D8032046
:1030800003E0B0F5E16F01D904200870704700003B
:103090002C4C0020D400002030B51548154A0123DF
:1030A00081891078B1F5966F08D2032804D00428DE
:1030B00001D10020D07030BD937030BDA1F2155504
:1030C0000224B5F5C77F07D8032803D00428F4D11C
:1030D000D37030BD947030BDB1F5E16FFBD90328DA
:1030E00003D00428F7D1D47030BD0520907030BDD6
:1030F0002C4C0020D4000020074840F2DC51C2894B
:1031000006488A4202D24FF0000102E003D94FF094
:10311000010180F8401070472C4C0020404C0020EA
:103120002DED028B9FED238A234C2078062837D281
:10313000DFE800F003051A28303A002108E0B0EE7D
:10314000480A01F019FDB0EE480A01F013FE012112
:10315000042001F0DFFC0021084601F0DBFC002127
:10316000012001F0D7FC1BE0B0EE480A01F002FE9E
:103170000121002001F0CEFC0121084601F0CAFC2B
:1031800003200CE0642002F0E9FD9FED0C0A01F041
:10319000F1FD05E09FED0A0A01F0ECFD052020702D
:1031A000012001F07FFEC0E7642002F0D7FD00217E
:1031B0000846D6E700000000D6000020000070C3DB
:1031C000000048C22DED068B4FF4FA751E4C9FEDA2
:1031D0001F8ADFED1F8A9FED1F9ADFED1F9A9FED7B
:1031E0001FAA217821B1012913D0022927D113E088
:1031F000B0EE480A02F03EFC0021022001F08AFCF9
:103200000021032001F086FCB0EE680A01F09AFA72
:1032100015E0B0EE490A10E0B0EE690A01F092FA4A
:10322000284602F09BFD0121022001F073FC0121E0
:10323000032001F06FFCB0EE4A0A02F01BFC0120F3
:1032400001F030FECDE70000D7000020000034433D
:103250000000000000001B4300007A440000C84248
:103260000221016080ED050A704710B54FF0E020A3
:10327000006903F0A1F9012803D0BDE8104002F075
:10328000CBBE10BD30B593B030216846FDF710F9C4
:1032900014210CA8FDF70CF91D480025016841F028
:1032A00080510160006800F0805011901948016859
:1032B00041F4804101600068022400F480401190D4
:1032C0000120039010200490009406940820CDE97A
:1032D0000750A820CDE9090404200B906846FEF7AA
:1032E000C9F908B172B6FEE70CA90F2081E83100D8
:1032F0004FF4A0500F904FF48050109005210CA86F
:10330000FEF7AEF8002801D072B6FEE713B030BD6C
:1033100040380240007000400248016841F47001EA
:103320000160704788ED00E00148FEF7BABC00007C
:10333000480100200148FEF7B4BC0000A8020020AC
:103340000148FEF7AEBC0000D80100200148FEF79E
:10335000A8BC000090010020F0B50268254D264E63
:10336000264FDFF89CC0274B4FF0804EA84209D073
:10337000704507D0B04205D0B84203D0604501D0B7
:10338000984203D122F070044A682243A8421BD01D
:10339000704519D0B04217D0B84215D0604513D04F
:1033A000984211D0184CA0420ED0184CA0420BD01D
:1033B000174CA04208D0174CA04205D0164CA04292
:1033C00002D0164CA04203D122F44074CA682243B2
:1033D0004C6922F08002224302608A68C2620A6855
:1033E0008262A84201D0984201D10969016301219A
:1033F0004161F0BD000001400004004000080040B1
:10340000000C004000040140004001400044014025
:103410000048014000180040001C0040002000400F
:1034200010B501F01F010123046A8B409C43046224
:10343000036A8A401343036210BD10B5846842EAF0
:10344000032224F47F440A432243826010BD826831
:1034500022F070020A4342F00701816070470000C9
:10346000F0B5026A22F001020262026A43688469CE
:10347000114E24F073050C68104F2C4322F0020506
:103480008A682A43B04201D0B84205D122F008052B
:10349000CA682A4322F00402B04201D0B84205D1E2
:1034A0004D6923F440731D438B692B434360846152
:1034B000496841630262F0BD000001400004014020
:1034C000F0B5026A22F010020262026A436884695F
:1034D0000D6824F4E64444EA05248D6822F02002B5
:1034E00042EA05120F4D104EA84201D0B04206D15B
:1034F000CF6822F0800242EA071222F04002A8427E
:1035000001D0B04207D14D6923F4406343EA8503FB
:103510008D6943EA8503436084614968816302627F
:10352000F0BD00000000014000040140F0B5026A57
:1035300022F480720262026A4368C46922F4007253
:1035400024F073050C68124E2C438D6842EA052264
:103550000E4DA84201D0B04206D1CF6822F40062DD
:1035600042EA072222F48062A84201D0B04207D189
:103570004D6923F4405343EA05138D6943EA05136B
:103580004360C4614968C1630262F0BD000001404C
:103590000004014030B5026A22F480520262036ADC
:1035A0004268C4690D6824F4E64444EA05248D6841
:1035B00023F4005343EA0533084DA84202D0084DD6
:1035C000A84204D14D6922F4804242EA8512426049
:1035D000C46149680164036230BD0000000001401D
:1035E0000004014010B5046A036A23F0010303627A
:1035F000836923F0F00343EA021324F00A020A432A
:103600008361026210BD10B5036A23F010030362E8
:103610008469036A24F4704444EA023223F0A0036C
:1036200043EA01118261016210BD00000148FEF70A
:1036300061BD00002002002010B5806B0021C18513
:10364000C184FEF755FD10BD01680C3151E8002F13
:1036500022F4907241E80023002BF5D10168143167
:1036600051E8002F22F0010241E80023002BF5D1A0
:10367000016B012909D101680C3151E8002F22F0BA
:10368000100241E80023002BF5D1202180F83E10E4
:1036900000210163704708B590F83E10222901D03F
:1036A000022008BD81684FF48053994201D102691C
:1036B00022B1826A99421BD049B10AE00268816A4C
:1036C0005268C2F308020A80816A891C08E0016915
:1036D00071B10168496801F07F011170816A491C6C
:1036E0008162C18D491E0904090CC18503D019E00E
:1036F00001684968F1E70168CA6822F02002CA60DF
:103700000168CA6822F48072CA6001684A6922F0BE
:1037100001024A61202180F83E10016B012903D08B
:10372000FEF7C0FE002008BD0021016301680C31D6
:1037300051E8002F22F0100241E80023002BF5D1C0
:1037400001680A68D20602D50A6849680091818D2D
:10375000FEF7CDFCE6E7000070B50446006801699D
:10376000E26821F4405111430161A1682069E269D6
:1037700001436069104301432068C26849F20C6349
:103780009A430A43C26020684169A26921F44071EA
:103790001143416131492068884202D03049884252
:1037A00002D1FDF727FF01E0FDF714FFE2690023D6
:1037B000192164253226B2F5004F626828D0A0FB9B
:1037C0000101930F9200FCF7AFFD0146B0FBF5F04D
:1037D0006FF01802504301EB800006EB0010B0FBC5
:1037E000F5F000F0F002B1FBF5F002EB0012B1FBD6
:1037F000F5F06FF01803584301EB800006EB001062
:10380000B0FBF5F000F00F0021681044886070BD37
:10381000A0FB010192185B41FCF786FD0146B0FB5D
:10382000F5F00201B1FBF5F06FF01803584301EB1E
:10383000800006EBC000B0FBF5F000F0F80002EBF2
:103840004002B1FBF5F0584301EB800006EBC000ED
:10385000B0FBF5F000F00700D6E7000000100140D3
:103860000014014081628285C28500210164222208
:1038700080F83E2080F83C10016921B10168CA68D7
:1038800042F48072CA6001684A6942F001024A61EA
:103890000068C16841F02001C1600020704700004D
:1038A00070B53B4C3B4D04F130062DED048B94ED8F
:1038B000032A9FED399A84ED062A94ED041ADFED70
:1038C000379A84ED071A90ED000A84ED000AD0EDD6
:1038D000010AC4ED010AD0ED020AC4ED020AD0EDDE
:1038E000030AC4ED030AD0ED041A70EEC20AC4ED57
:1038F000041AD0ED052A31EEC11AC4ED052AC4ED33
:10390000080A84ED091A86ED020A85ED050AD4ED50
:103910000A1A71EEA00AC4ED0A0AD4ED0B0A70EE81
:10392000810AC4ED0B0A60EE090A80EEA90A10EEC6
:10393000100A03F049FD41EC100B00F0C1F9A06A38
:1039400003F042FD9FED168B53EC182B03F022F889
:1039500002F0EEFF3060E86095ED050A60EE090ABE
:1039600080EEA90A10EE100A03F02EFD41EC100BB8
:1039700000F042F9E06A03F027FD53EC182B03F046
:1039800009F802F0D5FF70602861BDEC048B70BDB2
:10399000C44B0020404C0020DB0F49400000344362
:1039A0000000000000000000FEE7000010B5044623
:1039B0002DED028B4FF07E51D0ED0F2A12EE900AC2
:1039C0009FED768A884218DCF5EEC02AF1EE10FAF7
:1039D00013D394ED103A13EE100A88420DDCB5EEC5
:1039E000C03AF1EE10FA08D394ED0D2A94ED0C1ABA
:1039F000B4EEC12AF1EE10FA04D284ED058ABDECD2
:103A0000028B10BD94ED0A0AD4ED0B0AB4EE600AE5
:103A1000F1EE10FA04D121EE020A84ED050AEEE778
:103A200070EEC01AF5EEC01AF1EE10FA01DC70EE7D
:103A3000601AB0EE004AF4EEC00A62EEA12A23EE4C
:103A4000213A71EEE23A62EE845A73EEC34A62EEB4
:103A5000023A23EE043A41EE413A83EEA55AD4ED00
:103A60000E3A63EEA33AB0EE636A02EE426AC6EE25
:103A7000035AF1EE10FA06DD94ED183AB4EEC03AAE
:103A8000F1EE10FA23D3F4EEC00AF1EE10FA06D2EA
:103A900094ED183AB4EEC03AF1EE10FA17DCF4EEF9
:103AA000C00AF1EE10FA06DD94ED183AB4EEE03AF1
:103AB000F1EE10FA0BDCF4EEC00AF1EE10FA09D2C6
:103AC00094ED183AB4EEE03AF1EE10FA02D284ED39
:103AD000051A3CE094ED183A73EE400AF5EEC00A80
:103AE000F1EE10FA01DC70EE430AF4EEE20AF1EEB8
:103AF00010FA08D221EE010A25EE041A01EE200A7E
:103B000010EE100A18E032EEA40AB4EEE00AF1EE6C
:103B100010FA02DD84ED052A19E031EEE00A25EE07
:103B2000841AB5EEC00AF1EE10FA01DC30EEE10ABB
:103B300041EE403A13EE900A03F046FC41EC100BC4
:103B400000F022F951EC100B02F0F2FE606194EDEE
:103B50000B0AD4ED0A0AB4EEE00AF1EE10FA05D22F
:103B6000D4ED050AF1EE600AC4ED050AD4ED180A99
:103B70000B4930EEC00AB0EEC00A10EE100A8842BF
:103B800003DA0120606484ED058A10EE100A884291
:103B90007FF745AF0020606431E7000000000000BF
:103BA0000000404003B401984100009850EAC12051
:103BB00018BF04204A0D18BF40F0010040F2FF7208
:103BC000B2EB515F08BF40F00200012808BF05209A
:103BD00002B070470907090E002804DB00F1E0205D
:103BE00080F80014704700F00F0000F1E02080F82A
:103BF000141D70470000000010B52F499FED2C1BCD
:103C00002DED020B84B0059820F000408842D8BF0B
:103C10009DED040B2DDD2949884209D1049840B956
:103C20004FF00100FCF773FC00F0E2FC06B010BDA1
:103C300005DB9DED040B00F0CFFC06B010BD68461F
:103C40009DED040B00F0E0F810F0030004BF9DEDC3
:103C5000021B9DED000B0CD001280ED09DED021B28
:103C60009DED000B022817D0012000F01DFC06B0CE
:103C700010BD00F0E5FA06B010BD9DED021B9DEDF4
:103C8000000B012000F010FC51EC100B02F044FE80
:103C900006B041EC100B10BD00F0D2FA51EC100B45
:103CA00002F03AFE06B041EC100B10BD000000001F
:103CB0000000000000000000FB21E93F0000F07F51
:103CC00010B52F499FED2C1B2DED020B84B00598EC
:103CD00020F000408842DCBF00209DED040B32DD67
:103CE0002849884209D1049840B94FF00100FCF7F7
:103CF0000EFC00F07DFC06B010BD05DB9DED040B55
:103D000000F06AFC06B010BD68469DED040B00F0A3
:103D10007BF810F0030011D0012818D09DED021B94
:103D20009DED000B02281AD000F08AFA51EC100B1E
:103D300002F0F2FD06B041EC100B10BD9DED021B30
:103D40009DED000B012000F0AFFB06B010BD9DED16
:103D5000021B9DED000B00F073FA06B010BD0120B0
:103D600000F0A2FB51EC100B02F0D6FD06B041ECC6
:103D7000100B10BD0000000000000000000000005B
:103D8000FB21E93F0000F07F00B52DED048BB0EE84
:103D9000409AF0EE609A83B051EC190B03F05EF993
:103DA00041EC180B18EE100A18EE901A8DED008BEE
:103DB000002818BF0120084320F00040C0F17F60B8
:103DC00000F1E040C00F14D019EE101A19EE900A5D
:103DD0008DED009B002918BF0121084320F0004011
:103DE000C0F17F6000F1E040C00F04BF0120FCF78C
:103DF0008EFBB0EE480A03B0F0EE680ABDEC048B0F
:103E000000BD0000000000002DE9F14F04462DED3B
:103E1000020B2DED088B8AB09FEDE70B80ED020BB6
:103E2000139EE74826F0004585420ADC9DED120B03
:103E3000002084ED000B0AB0BDEC088B03B0BDE898
:103E4000F08FE0489FEDE0AB9FEDE1BBA84247DD7E
:103E5000E14F9FEDE39B9FEDE48B9DED120B53EC47
:103E60001A2B51EC100B002E1CDD03F0C3F941ECB2
:103E7000100BBD4208D053EC1B2B51EC100B03F080
:103E8000B9F9C4E900010BE053EC192B51EC100B0C
:103E900003F0B0F953EC182B03F0ACF9C4E90001BE
:103EA0000120C8E702F076FD41EC100BBD4208D0BE
:103EB00053EC1B2B51EC100B02F06CFDC4E900011C
:103EC0000BE053EC192B51EC100B02F063FD53EC9B
:103ED000182B02F05FFDC4E900014FF0FF30AAE7A4
:103EE000C348A84279DB9DED120B51EC100B00F09A
:103EF00037FE41EC180B9FEDC00B53EC102B02F07A
:103F0000A3FF9FEDBF1B53EC112B02F043FD02F00A
:103F100041FF074602F06DFF41EC190B53EC1A2BE1
:103F200002F092FF53EC182B03F08CF841EC180BC5
:103F300053EC1B2B51EC190B02F086FFDFF8C8A2E3
:103F400041EC100B4FEA15580125FA4453EC102BA5
:103F500051EC180B03F04EF9032DC4E900013DD0DC
:103F6000C1F30A5005EB4511A8EB0000113981425D
:103F700034DA0AEB051BB0EE48AA9BED000BF0EE1D
:103F800068AA53EC102B51EC190B02F05DFF41ECC9
:103F90001B0B51EC1A0B53EC1B2B03F02BF941ECD0
:103FA000180B51EC1A0B53EC182B03F023F953ECBC
:103FB0001B2B03F01FF99BED020B41EC1A0B53EC8A
:103FC000102B51EC190B02F03FFF53EC1A2B03F0AE
:103FD00011F941EC100B6D1CB8E70EE0002EA8BFE4
:103FE0003846BFF628AF94ED000B51EC100B02F0F1
:103FF00093FCC4E9000178421DE7C6F3130040F4C6
:10400000801EC6F30A50A0F2F530471100F01F05DC
:10401000C5F12000DDF848B0089000200690079018
:104020000520EC467949002D07EB0002794408BFD2
:1040300051F8221009D051F8223001EB8201AB4037
:104040004A68089922FA01F11943A1FB0E26A1FB47
:104050000B131A449A4234BF0123002303EB0608D2
:104060000CEB8003D3E901A60E448E4234BF01213C
:10407000002192448A4411B1924502D903E092454D
:1040800001D2012100E00021C3E901A641444CF81E
:104090002010011EA0F10100C4DC029800F10050C4
:1040A000850F0298DDE903678000DDF8148002F0D7
:1040B000A0FE41EC1A0B304602F0B2FE9FED541BFD
:1040C00053EC112B02F0C0FE41EC1B0B384602F002
:1040D000A7FE9FED511B53EC112B02F0B5FE41ECF6
:1040E000180B404602F09CFE9FED4D1B53EC112B2C
:1040F00002F0AAFE41EC190B51EC180B53EC192BF2
:1041000002F048FC53EC1B2B02F044FC53EC1A2B3E
:1041100002F040FCCDE90801002008909DED080B5D
:1041200053EC1A2B51EC100B03F064F853EC1B2BDF
:1041300003F060F853EC182B03F05CF853EC192BE8
:1041400002F080FF9FED381B53EC112B02F07CFE38
:104150009FED370B41EC180B53EC102B9DED080B2A
:1041600051EC100B02F070FE53EC182B02F012FC15
:104170009FED310B41EC180B53EC102B9DED080B10
:1041800051EC100B02F060FE53EC182B02F002FC15
:1041900041EC100B139810F0004F06D06D4251EC1B
:1041A000100B02F0B9FB41EC100B284684ED000B1C
:1041B00041E60000000000000000000000000000D8
:1041C000FB21E93F7CD9024000004054FB21F93F2C
:1041D0003163621A61B4D03DFB21F93F0000000059
:1041E0000000601A61B4D03D7370032E8A19A33B9E
:1041F000FB2139410000000083C8C96D305FE43FF6
:10420000000000000000E03F72360000C0350000F2
:10421000000000000000103E000000000000103C04
:10422000000000000000103A182D4454FB21F93D15
:104230003326A611460B113C00000054FB21F93D2A
:1042400010B52DED040B2DED088B82B0B0EE419A28
:10425000F0EE619A0B9820F000449FED4BABB4F167
:10426000795F11DA9DED0A0B51EC100B02F092FD13
:10427000002801BFB0EE4A0AF0EE6A0A02B0BDECB7
:10428000088B04BF04B010BD9DED0A0B53EC102B3E
:1042900051EC100B02F0D8FD41EC180B3C48062104
:1042A000B0EE480AF0EE680A784400F081F853EC6A
:1042B000182B51EC100B02F0C7FD9DED0A0B41ECE1
:1042C0001B0B53EC192B51EC100B02F0BDFD41EC14
:1042D000190B53EC1B2B51EC180B02F0B5FD53ECF2
:1042E000192B02F087FF9FED2C0B41EC190B53ECBF
:1042F000102B51EC180B02F0A7FD41EC100B2848D5
:10430000844210DA53EC192B51EC100B02F072FFBF
:1043100053EC1A2B02F096FE41EC100B02B0BDECF0
:10432000088B04B010BD1F48A042BCBF9FED1E1BF0
:104330008DED001B06DBA4F500100190002000901D
:104340009DED001B51EC100B53EC112B02F052FFB2
:104350009DED000B41EC180B53EC102B51EC1A0B9C
:1043600002F048FF41EC1A0B53EC192B51EC180BDF
:1043700002F040FF53EC1A2B02F064FE41EC100BEC
:10438000CCE7000000000000000000000000F03F4B
:10439000E432000000000000000000000000E03FE8
:1043A0003333D33F0000E93F000000000000D23F5C
:1043B00070B504462DED028B4D1E00EBC500B0EE2E
:1043C000408AF0EE608A90ED000B35F0060017D0C1
:1043D00053EC182B51EC100B02F036FD41EC100B96
:1043E0006D1E04EBC50090ED001B51EC100B53EC5F
:1043F000112B02F0CFFA41EC100B35F00600E7D19B
:10440000022D36D0042D1CD0062D1CBFBDEC028B16
:1044100070BD53EC182B51EC100B02F015FD94ED10
:104420000A1B53EC112B02F0B5FA53EC182B02F0D7
:104430000BFD94ED081B53EC112B02F0ABFA41EC91
:10444000100B53EC182B51EC100B02F0FDFC94ED0B
:10445000061B53EC112B02F09DFA53EC182B02F0C3
:10446000F3FC94ED040B53EC102B02F093FA41ECA7
:10447000100B53EC182B51EC100B02F0E5FC94EDF3
:10448000021B53EC112B02F085FA53EC182B02F0AF
:10449000DBFC94ED001B53EC112B02F07BFABDEC1E
:1044A000028B41EC100B70BD31B504462DED040BB1
:1044B0002DED0A8BB0EE41BAF0EE61BA0B989DED8E
:1044C0000A0B20F00040B0F1795F0DDA51EC100BCF
:1044D000FFF768FB042808BF00F09AF89DED0A0B6F
:1044E000BDEC0A8B05B030BD53EC102B51EC100B1A
:1044F00002F0AAFC41EC180B9DED0A0B53EC182BB3
:1045000051EC100B02F0A0FC41EC190B2C48B0EE62
:10451000480AF0EE680A05217844FFF749FF9FED4D
:104520002ACBB0EE40AAF0EE60AA9CB353EC1C2B51
:1045300051EC190B02F088FC41EC1C0B53EC1A2BCC
:1045400051EC190B02F080FC9FED210B41EC190B93
:1045500053EC102B51EC1B0B02F076FC53EC192B97
:1045600002F048FE53EC182B02F06EFC53EC1B2BB0
:1045700002F040FE53EC1C2B02F03CFE9DED0A1BAA
:1045800053EC112B02F05EFDBDEC0A8B05B041EC43
:10459000100B30BDFFE753EC1A2B51EC180B02F057
:1045A00053FC53EC1C2B02F0F5F953EC192B02F0E1
:1045B0004BFC9DED0A1B53EC112B02F0EBF9E3E7EA
:1045C0006C31000000000000495555555555C5BFD8
:1045D000000000000000E03F10B553EC102B51EC40
:1045E000100B02F0D7F941EC100B10BD00000000D9
:1045F0009FED050B10B553EC102B51EC100B02F096
:1046000071FA41EC100B10BD00000000000000002A
:104610009FED050B10B553EC102B51EC100B02F075
:1046200013FC41EC100B10BD000000000000001056
:1046300070B501221A491B48FDF71EFF184C0025D2
:10464000607805282AD2DFE800F00308121E230054
:1046500020780D2822D1012007E020780A2802D0F6
:104660000D2803D01AE0A5700220607070BD0E4ABC
:10467000A07821781154401CC0B2A0701828F5D33E
:10468000A5700320F1E720780A2807D10420ECE781
:1046900020780D2802D10448FFF702F9657070BD3B
:1046A000A800002020020020004C00202348234ABC
:1046B000D0ED030A224892ED040A011F90ED011A81
:1046C000F4EEC10AF1EE10FA16D290ED001AF4EEF3
:1046D000C10AF1EE10FA0FDB90ED031AB4EEC10A35
:1046E000F1EE10FA08D290ED021AB4EEC10AF1EE22
:1046F00010FA01DB03201EE01148103090ED011A82
:10470000F4EEC10AF1EE10FA16D290ED001AF4EEB2
:10471000C10AF1EE10FA0FDBD0ED030AB4EEE00AA5
:10472000F1EE10FA08D2D0ED020AB4EEE00AF1EE92
:1047300010FA01DB0420087070470000404C002094
:10474000D8000020F0EE400A9FED100A10B520EED0
:10475000800A2DED028BB1EE001A0D4860EE818AC1
:10476000B0EE408AFEF77CFD0948B0EE680A703072
:10477000FEF776FD0648B0EE480AE030FEF770FD21
:10478000BDEC028BBDE81040FEF704B9CDCCCC3CAB
:104790007450002010B5354801212DED068BF2EE46
:1047A000082AF6EE001A017180F874109FED308A25
:1047B00080F8E410DFED2F8A9FED2F9ADFED2F9A1E
:1047C0009FED2FAA80F85411F0EE483AB0EE683A07
:1047D000B0EE492AB0EE481AF0EE690AB0EE4A0A85
:1047E0000421284800F0B4FC2648F0EE483AB0EE28
:1047F000683AF2EE082AB0EE492AF6EE001AB0EE58
:10480000481AF0EE690AB0EE4A0A04215C3000F062
:104810009FFC1C48F0EE483AB0EE683AF2EE082AE7
:10482000B0EE492AF6EE001AB0EE481AF0EE690A28
:10483000B0EE4A0A0421B83000F08AFCF0EE483AA3
:10484000B0EE683AB0EE492AB0EE481AF0EE690AC6
:10485000B0EE4A0ABDEC068BF2EE082AF6EE001A1C
:104860000421BDE81040084800F072BC844C0020D0
:1048700000000000CDCCCC3D00008046000080440C
:1048800000000046A4520020B853002010B559483B
:1048900001212DED088B017180F8741080F8E4106F
:1048A00080F8541180F8C411DFED539AF0EE693AA4
:1048B0009FED52AAF2EE0E2AB0EE4A3A9FED508AD0
:1048C000B0EE482A9FED4F9AF0EE491ADFED4E8A7E
:1048D000B0EE681ADFED4DAAF0EE6A0A9FED4CBA11
:1048E00005214C48B0EE4B0A00F032FC4948F0EE8E
:1048F000693AB6EE003AF3EE042AB0EE482AF0EE3A
:10490000491AB0EE681AF0EE6A0AB0EE4B0A0521B9
:104910005C3000F01DFC3F48F0EE693AB0EE4A3AD8
:10492000F2EE0A2AB0EE482AF0EE491AB0EE681A02
:10493000F0EE480AB0EE480A0521B83000F008FC55
:10494000F0EE693AB0EE4A3AF2EE0A2AB0EE482AA0
:10495000F0EE491AB0EE681AF0EE480AB0EE480AD6
:1049600005212D4800F0F4FB2B48F0EE693AB0EE3B
:104970004A3AF2EE0A2AB0EE482AF0EE491AB0EEB0
:10498000681AF0EE480AB0EE480A05215C3000F0E3
:10499000DFFBDFED229A9FED22AAB0EE683AF0EE3F
:1049A000693AF2EE082AB0EE482AF0EE491AB0EE63
:1049B000681AF0EE4A0A9FED1B0A04211A4800F01B
:1049C000C7FBF0EE693AB0EE683AB0EE482AF0EE76
:1049D000491AB0EE681AF0EE4A0ABDEC088B0421C1
:1049E000F2EE0E2A1048BDE810409FED100A5C3030
:1049F00000F0AEBB944F0020CDCC4C3ECDCCCC3E95
:104A000000008046CDCCCC3D000000000000614499
:104A100000000046AC570020C05800209A99993EEB
:104A20000000484400008044305A00200000004547
:104A300000B58BB000200121CDE90601089100905E
:104A40000190029003900590049069460C48FBF792
:104A500025FF0B48FCF769FA02210948FBF79EFE87
:104A60000E200990059069460648FBF717FF054898
:104A7000FCF75BFA02210348FBF790FE0BB000BD88
:104A8000F80000202001002017489FED160A0021A1
:104A900080ED0A0A80ED090AB0EE000A80ED0B0AEB
:104AA0009FED120A80ED000A80ED010A80ED020AF6
:104AB00080ED030A80ED040A80ED050A80ED060A08
:104AC00080ED070A80ED080A80F8411080F8401058
:104AD00080ED0C0A80ED0D0A80ED0E0A80ED0F0AC4
:104AE00070470000CDCCCC3F404C002000000000BF
:104AF00007489FED060A002180ED000A80ED010ABB
:104B000080ED020A80F84010FEF71CBA0000000099
:104B1000404C002002461148052A1DD2DFE802F071
:104B2000030E111417004FF4005312E0002202E0AC
:104B3000012911D101221946FCF7BCBB4FF40063D7
:104B400007E04FF4804304E04FF4004301E04FF4EA
:104B500080530029ECD1E9E77047000000140240BF
:104B600082B0CDE9000121F0004001909DED000BE5
:104B700002B051EC100B704710B52DED020B6846DA
:104B8000DFED160A9FED160A00F02EF99DED000AE2
:104B90001449B5EEC00A01F17000F1EE10FA0ED121
:104BA000D1F8C81031B94FF480519FED0F0AFDF7CD
:104BB00085FC01E0FEF714F9FDF7ECFE1CBDB5EE37
:104BC000C00AF1EE10FAF9D210EE102A074B9A4201
:104BD000F4D80022C1F8C820ECE70000000087C329
:104BE00000000000944F002000007A44000087C3BA
:104BF00030B55C4B9A4258D104685B4BA4F2012457
:104C0000072C52D2DFE804F0040E131E2B384500A7
:104C10000C8864BADC804C8864BA1C818C8864BAC5
:104C20005C8142E00C8864BA23F8764F03E00C887C
:104C300064BA23F8E64F4C8864BA5C808C8864BA06
:104C40009C8032E00C8864BAA3F856414C8864BA60
:104C5000A3F858418C8864BAA3F85A4125E00C881F
:104C600064BAA3F8C6414C8864BAA3F8C8418C88DA
:104C700064BAA3F8CA4118E00C8864BAA3F83642B3
:104C80004C8864BAA3F838428C8864BAA3F83A42D4
:104C90000BE00C8864BAA3F8A6424C8864BAA3F867
:104CA000A8428C8864BAA3F8AA42304B9A4214D125
:104CB00002682F48A2F20122072A0ED2DFE802F092
:104CC000040E131E2B3845000A8852BAC2804A8847
:104CD00052BA0281898849BA418130BD0A8852BAE4
:104CE00020F8762F03E00A8852BA20F8E62F4A8887
:104CF00052BA4280898849BA818030BD0A8852BA46
:104D0000A0F856214A8852BAA0F85821898849BA91
:104D1000A0F85A1130BD0A8852BAA0F8C6214A88B4
:104D200052BAA0F8C821898849BAA0F8CA1130BD82
:104D30000A8852BAA0F836224A8852BAA0F8382215
:104D4000898849BAA0F83A1230BD0A8852BAA0F848
:104D5000A6224A8852BAA0F8A822898849BAA0F89F
:104D6000AA1230BDF8000020844C00202001002051
:104D7000944F002010B52DED020B6846DFED150AAB
:104D80009FED150A00F030F89DED000A1349B5EECD
:104D9000C00AF1EE10FA0FD1886D38B94FF4805186
:104DA0009FED0F0A0D48FDF789FB02E00B48FEF767
:104DB00017F8FDF7EFFD1CBDB5EEC00AF1EE10FAD5
:104DC000F9D210EE100A074A9042F4D80020886504
:104DD000ECE70000000070C300000000944F0020CA
:104DE00000007A44000070C3B4EEE00AF1EE10FA5D
:104DF00013DD90ED001AB4EEC01AF1EE10FA02DCE9
:104E0000B0EE410A01E080ED000AB4EEE00AF1EEF6
:104E100010FA01D2C0ED000A7047FDD290ED001AE1
:104E2000B4EEE01AF1EE10FA02DCF0EE410A01E015
:104E3000C0ED000AF4EEC00AF1EE10FAECD280EDFB
:104E4000000A704708B5FCF749FAFEF71BFAFDF7B0
:104E500061FCFDF7E3FBFDF705FCFDF71DFDFDF72C
:104E6000B3FCFDF7E5FCFDF74BFDFDF765FD0B48D9
:104E7000FCF768FE012269460948FDF7FDFAFFF7D5
:104E8000D7FDFFF787FCFFF701FD00F025FE00F0DE
:104E900017F8FDF70BFC00F025F8FEE748010020AD
:104EA0002002002010B5EFF3058111B16FF0050469
:104EB00003E0002408B100F051FF204610BD0000BF
:104EC000EFF3058010B16FF00500704704480168EA
:104ED00011B14FF0FF307047012101600020704791
:104EE0007800002010B5EFF3058010B16FF00500D9
:104EF00010BD08480168012902D04FF0FF3010BDF5
:104F0000054A002182F8141D0221016000F08EFF85
:104F1000002010BD780000200BE000E02DE9FF41EB
:104F20000B464FF00005EFF30581039549BB40B3F5
:104F30008026182100244AB3176807B13C469769B8
:104F400007B139464F1E382F02D21779FF0703D019
:104F5000002004B0BDE8F081576907B1BE08D2F85F
:104F600008C0BCF1000F0DD0D5685C2D18D31269B4
:104F70003AB137B18DE806103246214601F0EFFA1A
:104F800003900DE0D7685FB912694AB903AACDE969
:104F90000012B2B2214601F0B5FA012800D0039503
:104FA0000398D6E700B530EE601AC0ED080A80ED30
:104FB000050A80ED0B1AD0ED161A01469FED632A03
:104FC00030EE600AF5EEC01AB1EE400AF1EE10FACA
:104FD0000ED0B5EEC01AF1EE10FA02DDF0EE410A85
:104FE00001E0F0EE400AF4EEE10AF1EE10FA15DC11
:104FF000D1ED151AF5EEC01AF1EE10FA13D0B5EE98
:10500000C01AF1EE10FA02DDF0EE410A01E0F0EE16
:10501000400AF4EEE10AF1EE10FA04D2B0EE420AD0
:1050200080ED0F0A00BD91F8440001F13C02042814
:1050300002D005283DD06DE0D1ED000A60EE810A76
:10504000C1ED0C0AD1ED140AF5EEC00AF1EE10FA2A
:105050000BD0B5EEC01AF1EE10FA01DDB0EE410A48
:10506000B4EEE00AF1EE10FA08D291ED0D0AD1ED9E
:10507000010A00EE810A81ED0D0A01E081ED0D2AA1
:1050800091ED0A0AD1ED020A01F1340031EE400A35
:1050900020EE200A81ED0E0A91ED130AFDF717FAB2
:1050A00091ED0C0AD1ED0D0A30EE200AD1ED0E0A79
:1050B00023E0D1ED0A1AD1ED000AB0EE002A31EE5C
:1050C000610A20EE200A81ED0C0AD1ED010A60EEA2
:1050D000810A01EEC21AC1ED0D0AD1ED091A30EEB6
:1050E000200A31EE211AD1ED021A21EE211A81EDAA
:1050F0000E1A30EE010AD1ED100A104630EE200AE9
:1051000081ED0F0A91ED120AFDF7E1F991ED0F0A19
:1051100081ED100A91ED0A0A81ED090A91ED0B0A61
:1051200081ED0A0A91ED070A81ED060A91ED080A60
:1051300081ED070A91ED040A81ED030A91ED050A5C
:1051400081ED040A91ED0F0A00BD0000000000008F
:1051500080F8441000F1480282EC050A9FED040A31
:1051600080ED100A80ED0F0AC0EC032A70470000A2
:10517000000000002DE9F041134E0F460446F5688B
:105180003068001D00F0B8FC601C07D137B13168F1
:10519000BDE8F0410D48091D00F0FEBC30682C440C
:1051A000AC424460316805D2B06BBDE8F041091DE6
:1051B00000F0DABC706B091D00F0D6FCB06A8442C6
:1051C00000D2B462BDE8F08128000020E007002092
:1051D0002DE9F041054600F0EBFC2D4EB068401C77
:1051E000B06030682B4F10B1706930B32BE0356080
:1051F000B068012827D1002404EB840007EB80006D
:1052000000F0A4FC641C382CF6D3234800F09EFC6C
:105210002148143000F09AFC1F48283000F096FC1A
:105220001D483C3000F092FC1B48503000F08EFCD2
:10523000194870631430B06305E03068E96AC06AE9
:10524000884200D83560706A401C70626864E86A01
:105250003169884200D9306100EB800007EB8000A3
:10526000291D00F099FC00F0C3FC706900280CD0E7
:105270003068E96AC06A884207D208494FF0805016
:105280000860BFF34F8FBFF36F8FBDE8F081000060
:1052900028000020300300209007002004ED00E0EB
:1052A00038B500F085FC104C2068C8B90F4800F0F4
:1052B0004DFC0E48143000F049FC0C48E0601430FE
:1052C00020610A4B0020F03B009003F150021021B6
:1052D0000A2000F0B7FE206010B105A100F00AFD21
:1052E000BDE8384000F084BC64000020E4080020E1
:1052F000546D72510000000030B4026C0B46002A5D
:105300000BD0C1681144C1608468A14201D3016817
:10531000C16030BC1846FBF77EB830BC70472DE941
:10532000F041856B174604460026026C82B1C7B176
:10533000E068FBF770F8E168206C091AE160226808
:10534000914202D2A168081AE060022F16D017E03D
:105350002068A8B9A06801F0A7F906460020A0605F
:105360000EE06068FBF757F8216C606808446060E5
:10537000A168884204D32068606001E005B16D1E19
:105380006D1CA5633046BDE8F08110B5044690F869
:10539000590058B101280CD002280FD0502080F3BA
:1053A0001188BFF34F8FBFF36F8FFEE7206B00F0C4
:1053B00033FC2046BDE8104000F02EBC10BD0000BC
:1053C00010484FF47051420706D0C01D0D4920F01F
:1053D0000700411AC1F570510B4A00230144C2E98C
:1053E00000030839183A21F0070111604B600B6087
:1053F0000B1AC0E9001393604FF0004053605061F6
:1054000070470000C40F002094000020134E144D7C
:10541000A6F29C474FF08058DFF8489011E000F06A
:10542000C7FBF068C468201D00F066FBA868401E3A
:10543000A8606868401E686000F0DAFB2046FFF74D
:10544000A4FF68680028EAD138680128F9D9C9F8AA
:105450000080BFF34F8FBFF36F8FF2E7CC070020C0
:105460002800002004ED00E070B51D46049C49B101
:105470002260C4E90F010121204600F017FE84F8E4
:105480004C5070BD2460F4E72DE9F05F0E46DDE975
:105490000B941746834691009A460A9DA522206BDD
:1054A000FAF7FEFF6FF00301206B01EB8701084460
:1054B00020F00707780707D0502080F31188BFF34A
:1054C0004F8FBFF36F8FFEE74FF0000866B10020EB
:1054D0002218315C82F83410315C11B1401C102864
:1054E000F6D384F8438001E084F83480382D00D36B
:1054F0003725E562C4E91358201D00F032FB04F1A2
:10550000180000F02EFB2461C5F138006462A06130
:10551000C4F8548084F8588052465946384600F002
:105520005DFA2060B9F1000F01D0C9F80040BDE874
:10553000F09F000030B5114900E011460A68824230
:10554000FBD34B685C18844203D140681844486020
:10555000084643681C18944209D1084C183C24683A
:10556000A24209D052681A4442600A681268026076
:10557000814200D0086030BD0460F9E7940000204B
:1055800070B5002441600B4D0061914206D8D11ADC
:105590008269914206D2011D286907E09A4203D22E
:1055A000994201D3012403E0011DE86800F0DCFA10
:1055B000204670BD6400002010B5044600F0F8FAE3
:1055C000A06B20B1002400F013FB204610BD012485
:1055D000F9E7000030B587B03C4D6EE00198002837
:1055E00006DADDE90301029A90470198002864DB9E
:1055F000039C606910B1201D00F07EFA05A800F040
:10560000D7F8024601980A2857D2DFE800F00505CE
:10561000052D334A05052D3394F8280040F001008C
:1056200084F828000298A169034601442046FFF748
:10563000A7FF68B3216A2046884794F828004007EE
:105640003BD5002000900298A1690023421819461A
:10565000204601F02FF9D8B9502080F31188BFF30C
:105660004F8FBFF36F8FFEE714F8280F20F0010073
:10567000207022E094F8280040F0010084F828000F
:105680000298A06128B1811813462046FFF778FFE1
:1056900013E0502080F31188BFF34F8FBFF36F8F5B
:1056A000FEE794F82800810703D4204600F0B4FAFE
:1056B00003E020F0010084F82800002201A92868F6
:1056C00000F04AFE002889D107B030BD64000020F8
:1056D0002DE9FC410F46054600F0EAFB01A800F069
:1056E00067F80446019818B101F054F8BDE8FC8150
:1056F000254EAFB130690068D0B30027291B3A4668
:10570000306800F009FB01F045F80028EED11F4990
:105710004FF080500860BFF34F8FBFF36F8FE5E706
:10572000A542EBD801F036F8F0682746C068C46897
:10573000201D00F0E1F994F82800410719D5A0696F
:105740002B4641193A462046FFF71AFFA8B1002020
:105750000346014600902A46204601F0ABF860B9A6
:10576000502080F31188BFF34F8FBFF36F8FFEE798
:1057700007E020F0010084F82800216A20468847CD
:10578000B4E70127BAE700006400002004ED00E060
:105790000648416B096829B1416BC968C968496805
:1057A000816270474FF0FF31FAE7000028000020C7
:1057B00070B5054600F00EFF064E0446B068844200
:1057C00003D200F009F8012000E000202860204604
:1057D000B46070BD64000020F8B5194E20E0C068C8
:1057E000C4680568201D00F087F9216A20468847B3
:1057F00094F82800400713D5A0692844A84206D988
:1058000024616060211DF06800F0AEF908E000201E
:105810000346014600902A46204601F04BF838B175
:10582000F06801680029DAD13169C6E90310F8BDD2
:10583000502080F31188BFF34F8FBFF36F8FFEE7C7
:105840006400002008484068401C4FF0500080F37E
:10585000118804D0BFF34F8FBFF36F8FFEE7BFF304
:105860004F8FBFF36F8FFEE79C000020084CE0686D
:10587000016839B1002139B10020FFF729FFFFF796
:10588000A9FEF4E70121F6E7C0680068F5E700002B
:10589000640000202DE9F041044600F089F994F9F4
:1058A000455004F1240609E0606A48B1304600F032
:1058B00039FF08B100F080FA6D1E6DB2002DF3DCE7
:1058C0004FF0FF3684F8456000F092F900F070F96F
:1058D00094F9445004F1100709E0206948B13846B2
:1058E00000F020FF08B100F067FA6D1E6DB2002DC8
:1058F000F3DC84F84460BDE8F04100F079B90000C1
:105900002DE9F0410546002600F0D2FA324F386802
:1059100008B9FFF755FD786905424ED1C5B3083582
:1059200068070ED005F00700C0F1080005446807BD
:1059300007D0502080F31188BFF34F8FBFF36F8FD4
:10594000FEE72DB37868854237D8234918310846D9
:10595000046801E0214604466068A84202D220683B
:105960000028F7D13868844227D00E682068086084
:1059700060680836411B10290FD96019420708D00A
:10598000502080F31188BFF34F8FBFF36F8FFEE776
:1059900013E041606560FFF7CDFD61687868401AEB
:1059A0007860BA68904200D2B860786901430020FC
:1059B000C4E90001F868401CF86000F0EBFE7007D5
:1059C00007D0502080F31188BFF34F8FBFF36F8F44
:1059D000FEE73046BDE8F0817C00002010B5031FD3
:1059E0004FF080741C601B1F21F001011960191F0A
:1059F000044B0B6014390A60091F6FF0020244382F
:105A00000A6010BD4558000870B5184C184A0021AE
:105A1000237801251089052B1BD2DFE803F0030949
:105A20001B1B1B006170A170E170FFF72DF80FE0E8
:105A30006170A57000280CD05089002809D0908989
:105A4000002806D0D089002803D00220207003E06F
:105A5000257070BD0028FBD0FDF7F0FAFDF702FBC2
:105A6000FDF71AFBBDE87040FDF746BBD4000020EF
:105A70002C4C0020DFED120A154930EEC01ADFED84
:105A8000110A096861EE201A9FED0F1A81EE812A32
:105A9000DFED0E1A32EE212ABCEEC22A12EE100AF7
:105AA000486320EE200A0B49C0EE010A096830EE77
:105AB000A10ABCEEC00A10EE100A4863704700004D
:105AC000000066430000FA44000034430000FA433B
:105AD00090010020D801002010B500210448FCF7F7
